:020000040800F2
:1000000060830020953900087523000877230008D5
:100010007B2300087F2300088323000800000000E2
:10002000000000000000000000000000872300081E
:100030009B230008000000000B3F00089F230008DE
:10004000AF390008AF390008AF390008AF390008F0
:10005000AF390008AF390008AF390008AF390008E0
:10006000AF390008AF390008AF390008AF390008D0
:10007000AF390008AF390008AF390008AF390008C0
:10008000AF390008AF390008AF390008AF390008B0
:10009000AF390008AF390008AF390008AF390008A0
:1000A000AF390008AF390008AF390008AF39000890
:1000B000AF390008AF390008AF390008AF39000880
:1000C000AF390008AF390008AF390008AF39000870
:1000D000AF390008AF390008AF390008AF39000860
:1000E000AF390008AF390008AF390008AF39000850
:1000F000AF390008AF390008AF390008AF39000840
:10010000AF390008AF390008AF390008AF3900082F
:10011000AF390008AF390008AF390008AF3900081F
:10012000AF390008AF390008AF390008AF3900080F
:10013000DFF80CD003F042FE00480047BD2C000859
:100140006083002000BFFEE7F6490860704700B5F5
:1001500002460020F44908600120FFF7F5FF00BDCA
:1001600010B5F24800F0AAFD10BD70B50446002598
:1001700004E004EBC50000F0A1FD6D1C082DF8D3D0
:10018000002084F8400070BD10B5E948FFF7EDFF8E
:1001900010BD10B5E74800F091FD10BD0EB5002070
:1001A000FFF7D2FF0120E04908600020E249086023
:1001B000E2490860E2490860E2490860E2490870E3
:1001C000E249086001F0F6FC4FF0FF31002001F039
:1001D000C4FC0020DE49086001F050FFFFF7D9FFA2
:1001E000FFF7D2FFFFF7BCFF002001214FF416728A
:1001F0000346CDE9002102900246AFF2AD01D5A041
:1002000001F052F9CE490860002007214FF4167220
:100210000346CDE9002102900246AFF2D701CFA0FC
:1002200001F042F9C549086000F02EFC0EBD10B582
:10023000C3480068CB490860C1480068BE490860EF
:1002400003F08FFE10BD10B5BE480068401CBD49CC
:1002500008600120BC490870BD480068401CBC49CA
:100260000860B5480068B0B1B348006890F88800ED
:10027000BD4951F8200070B1AF48006890F888007F
:10028000BA4951F82000401CAB49096891F8881020
:10029000B64A42F8210000F00AFC10BD10B5044631
:1002A000207800F022FC10BD2DE9F047A048403036
:1002B000FFF7F4FF81469E4800EBC908404600F076
:1002C0004EFD05462F46BE689B48006890F88800A2
:1002D000A54951F8200050B397480068B04226D194
:1002E0009548006890F88800A04951F8200092498C
:1002F000096891F888109C4A52F82110884216D358
:1003000000208D49096891F88810984A42F8210028
:100310002946404600F026FD044644B1404600F020
:10032000DFFC2946404600F0CDFC2746BE6830463B
:10033000BDE8F087027801238B40DBB21A430270DC
:1003400070472DE9F04106460F4614461D463946D2
:10035000304600F0B7FC29462046FFF7EBFFBDE82A
:10036000F0812DE9F04104460D4616461F463B46F6
:10037000324629462046FFF7E4FFBDE8F0810278C7
:1003800001238B409A43027070472DE9F04180466B
:100390000D4616461F462DB12946404600F0C5FCC5
:1003A000044603E0404600F09BFC0446404600F053
:1003B000D6FC18B939463046FFF7E1FF2046BDE8C4
:1003C000F0812DE9F0470446E56E04F1600995F8E7
:1003D000480000F0030002280DD194F8887005EB66
:1003E000C70605F140083B46424649463046FFF7FE
:1003F000CCFFBDE8F08705F138064946304600F0ED
:1004000094FCF6E72DE9F0470446256F95F8440083
:1004100000F0600040280FD104F1600894F8887063
:1004200005EBC70605F140093B464A4641463046C2
:10043000FFF7ABFFBDE8F08705F13806304600F066
:100440004FFCF7E710B504462146384800F06DFC34
:1004500010BD2DE9F84F354800F081FC0546002D10
:100460005FD08AE0AA46DAF80840D4F894B035485C
:10047000006883457CD12846FFF7E4FF064654F820
:10048000840F20F001002060207AA4F1840400F0A1
:100490000400042809D194F88C0020F0040084F8AA
:1004A0008C0002219020015124E094F88C0000F08F
:1004B000080008281ED194F8840000F008000828DD
:1004C0000CD12046FFF79EFFD4F8840020F00800EE
:1004D000C4F8840002219020015105E02046FFF776
:1004E00070FF02219020015194F88C0020F0080048
:1004F00084F88C0004F1540914F8887F0C4800EB50
:10050000C708403000903B4649464046009AFFF7F6
:1005100028FF207940F002002071A4F1880446BB36
:100520002CE02CE028000020000000200400002027
:10053000C4000020380000201C00002024000020FF
:10054000200000200C000020100000202C000020C3
:1005500034000020524F4F540000000049646C6585
:1005600000000000180000200801002028010020E1
:1005700002E0FFE7354600E000E073E700BFBDE8BA
:10058000F88F10B5F1480078012804D10020EF4918
:100590000870FFF75EFFFFF787FE04462146EC4830
:1005A000006800F038FBEB48006828B12146E848B5
:1005B0000068E84A12689047E548006820B1E448BE
:1005C0000068E549086002E00020E3490860E3486C
:1005D0000460DF48046010BD10B504462146E048C1
:1005E00000F070FB10BD10B504462146DC4800F059
:1005F0009CFB10BD2DE9F04104460D4616461F46F2
:100600003B46324629462046FFF7BFFEBDE8F08153
:100610002DE9F0470446D34800F0A1FB07467FB31D
:10062000A146D9F80800D0F894502FE0B946D9F87F
:100630000800D0F89460CC480068A84201D2B542C6
:100640000DD3B54203D2C8480068864207D3C648D6
:10065000006886420AD2C4480068A84206D22246F0
:100660003946C04800F04FFBBDE8F0873946BD4829
:1006700000F078FB8046B8F1000F02D0474605E055
:1006800005E02146B74800F01DFBEDE7CEE7214627
:10069000B44800F017FB00BFE6E710B5044620465B
:1006A000FFF763FD10BD2DE9F04705460C4694F8B1
:1006B000480000F0030002280ED195F8888005F16B
:1006C000600704EBC80604F1400943464A46394630
:1006D0003046FFF736FE07E004F1380605F1600703
:1006E0003946304600F0EEFAEC66BDE8F0872DE9B9
:1006F000F041054695F8480000F00300022805D1B6
:1007000005F14000FFF7CAFD064600E0072605EBAD
:10071000C60000F024FB044614B90020BDE8F081B7
:100720002746B868FAE710B504462046FFF71DFDD6
:1007300010BD2DE9F04705460C4694F8440000F042
:10074000600040280ED195F8888005F1600704EB21
:10075000C80604F1400943464A4639463046FFF789
:10076000F0FD07E004F1380605F160073946304630
:1007700000F0A8FABDE8F0872DE9F047054695F8A6
:10078000440000F06000202849D1072705EBC7008E
:1007900000F0E5FA064641E016B90020BDE8F08712
:1007A000B1464E46D9F80840A06F01281AD0022859
:1007B00022D0042802D0082828D109E0A86C616F53
:1007C00000EA0108606F404501D12046E6E71EE0DF
:1007D000A86C616F00EA0108B8F1000F01D0204653
:1007E000DCE714E0606FA96C20EA0108606F404507
:1007F00001D12046D2E70AE0606FA96C20EA010827
:10080000B8F1000F01D02046C8E700E000BF00BFEC
:1008100005EBC700314600F0A5FA0646BCE705F136
:100820004000FFF73BFD074605EBC70000F097FAD5
:1008300006464BE00AE0781CC7B2082F01D1002021
:10084000ACE705EBC70000F08AFA0646002EF2D0AE
:10085000B1464E46D9F80840A06F01281AD00228A8
:1008600022D0042802D0082828D109E0A86C616FA2
:1008700000EA0108606F404501D120468EE71EE086
:10088000A86C616F00EA0108B8F1000F01D02046A2
:1008900084E714E0606FA96C20EA0108606F4045AE
:1008A00001D120467AE70AE0606FA96C20EA0108CE
:1008B000B8F1000F01D0204670E700E000BF00BF94
:1008C00005EBC700314600F04DFA0646B2E72DE9C8
:1008D000F041054695F8440000F06000202805D15D
:1008E00005F14000FFF7DAFC064600E0072605EBBD
:1008F000C60000F034FA044614B90020BDE8F081C7
:100900002746B868FAE7184800687047104800683A
:1009100070471648006870471548006870471548CA
:100920000068704714A0704703E0002200F8012B14
:10093000491E0029F9D1704704E011F8013B00F885
:10094000013B521E002AF8D1704700001000002021
:100950001C0000204400002014000020180000208B
:1009600038000020040000200C000020200000209F
:1009700024000020280000203030312E3030312E6D
:100980003030312E3030310010B5002807DA0A0738
:10099000140E854A00F00F031B1FD45403E00A070E
:1009A000130E824A135410BD2DE9F04104460F4640
:1009B00090462546C5F8008000206860A860E86081
:1009C00028616861A861E86128626862A862E862DB
:1009D0002863A4F1200068637548A863EF634FF0B3
:1009E000807028646FF006006864204600F0E8F824
:1009F0002646301F0646296C0160301F0646E96B0B
:100A00000160301F0646A96B0160301F0646296B46
:100A10000160301F0646E9680160301F0646A9687C
:100A20000160301F064669680160301F064629686C
:100A30000160BDE8F08110B50E216FF00100FFF7F5
:100A4000A3FF10BD10B55B4800686421B0FBF1F452
:100A5000B4F1807F00D311E024F07F40401E4FF0BE
:100A6000E02148610F214FF0FF30FFF78DFF00209C
:100A70004FF0E02188610720086100BF0C214FF092
:100A8000FF30FFF781FF10BD10B5FFF7DBFFFFF769
:100A9000D2FF10BD014600BFEFF31482104620F0D4
:100AA00001000843024682F3148800BF70473E48A5
:100AB0001438006840F080503B4914390860704792
:100AC00010B503F063FAC005C00D01D0002010BDC1
:100AD0000120FCE710B5FFF7F3FF18B1364803F02B
:100AE00053FA01E0FFF7E3FF10BD70B50546284655
:100AF00003F006FAC4B2202C01D1002070BD2046BC
:100B0000FCE710B50446FFF7DBFF08B9012010BD74
:100B10001CB1012C01D00120F9E72848006860B918
:100B20000CB972B602E0102003F033FA23480068D3
:100B3000401C224908600020E9E720480068401C6A
:100B400006D01E480068401C1C4908600020DEE7F3
:100B50000120DCE710B50446FFF7B2FF08B9012019
:100B600010BD1CB1012C01D00120F9E71348006829
:100B7000012806D911480068401E1049086000206D
:100B8000EEE70E48006801280CD10C480068401EB2
:100B90000A4908600CB962B602E0002003F0F9F9D6
:100BA0000020DDE70120DBE718ED00E000E400E0D5
:100BB000EB15000850000020011000102C00002050
:100BC000D0F88030DB1C23F00302002103E04FF05B
:100BD000CC335350091D831A8B42F8D87047014615
:100BE000D1F88030DB1C23F00302002005E013580D
:100BF000B3F1CC3F00D003E0001D8B1A8342F6D83E
:100C000000BF70470021C0F8981000229C210A50B4
:100C1000A0210A5070472DE9F041044688464FF064
:100C2000E0208769C4B121480068214909688842E9
:100C300008D19C200059D4F89810C91B01449C206D
:100C4000015109E09C200159D4F8980000F180700E
:100C5000C01B01449C2001511548006813490860DD
:100C6000C8F8987013480068642818D1124E0EE036
:100C7000B5689C20405900F50000000E64214843EF
:100C8000B0FBF1F1A020415100219C20415131469F
:100C9000094800F067F80600EAD106490860BDE897
:100CA000F0810146A020405870470000300000202D
:100CB0000C000020340000203800002000210160DA
:100CC00041607047426832B102680A604860026859
:100CD0005160016003E00860486001604160704756
:100CE00001464A686AB1D1E90003984204D05068CD
:100CF00048605068016002E00020086048601046CB
:100D000070470020FCE730B505460B4614469D426F
:100D100006D0186844601868206063601C6003E0B7
:100D200021462846FFF7CEFF30BD30B505460C46BC
:100D3000A54212D02068A84202D16068A84207D01C
:100D4000D4E900104860D4E900010860606830BD53
:100D50002846FFF7C5FF0020F9E70020F7E7014626
:100D60004868704702464868904201D100207047A9
:100D70004868FCE770B506460D4605F003000128FB
:100D800005D005F00300022801D0002070BD35F029
:100D9000030001D00020F9E78EB90020FFF7B1FE73
:100DA000602003F0A3FD044624B90020FFF7D2FE23
:100DB0000020EBE70020FFF7CDFE264600E00024F0
:100DC0003046FFF77BFFF46545F00801002206F18D
:100DD000080000F05BF808B13046D7E714B12046B0
:100DE00003F05CFD0020D1E770B504460D4604B168
:100DF0000DB9012070BD0020FFF783FE2946204673
:100E0000FFF760FF0020FFF7A5FE04F1080000F0E7
:100E100090F9EFE72DE9F04104460D46174604B17D
:100E200015B90120BDE8F081394604F1080000F051
:100E300086F806460EB13046F4E70020FFF761FE63
:100E40002046FFF74DFF80460020FFF783FEC5F8E0
:100E500000800020E6E710B504460CB9012010BD63
:100E6000042104F1080000F01AFA08B10120F6E7A5
:100E7000E06D48B10020FFF744FEE06D03F00EFD89
:100E80000020E065FFF766FE0020E8E72DE9F0416D
:100E900005460C46174604F01C00042807D004F051
:100EA0001C00082803D004F01C00102813D104F003
:100EB0000300012803D004F0030002280BD104F042
:100EC0001C00102803D104F00300022806D004F00F
:100ED0002000202802D10020BDE8F08104F01C0091
:100EE000042805D16FB1B7F1FF3F0AD00020F3E726
:100EF00004F01C00102804D1B7F1FF3F01D00020FE
:100F0000EAE78DB90020FFF7FCFD542003F0EEFC6A
:100F1000064626B90020FFF71DFE0020DCE7002072
:100F2000FFF718FE354600E000262846FFF7B5FB20
:100F30006F64AC64EE64002028652846CCE770B589
:100F400004460D460CB9012070BDFFF7B9FD50B93C
:100F500094F8480000F01C00102801D10120F3E7AC
:100F60000DB10120F0E70020FFF7CBFD002D51D19E
:100F700094F8480000F01C0004280ED1606CB0F119
:100F8000FF3F05D100206064FFF7E4FD0020DBE7B0
:100F90000020FFF7DFFD0320D6E794F8480000F0BB
:100FA0001C0008280ED1606C38B1606C401E606473
:100FB0000020FFF7CFFD0020C6E70020FFF7CAFDA5
:100FC0000320C1E7606CB0F1FF3F0AD1F048006830
:100FD0002065606C401E60640020FFF7BBFD0020B0
:100FE000B2E7EB49206D096888420ED1606C38B1D8
:100FF000606C401E60640020FFF7ACFD0020A3E79A
:101000000020FFF7A7FD05209EE70020FFF7A2FDC7
:10101000032099E794F8480000F01C0004281ED132
:10102000606CB0F1FF3F05D100206064FFF792FDD6
:10103000002089E72946204600F043FC012804D11E
:101040000020FFF787FD01207EE70020FFF782FDEB
:10105000FFF740FDCE480068D0F8900074E794F8A0
:10106000480000F01C0008281ED1606C38B1606C8C
:10107000401E60640020FFF76DFD002064E72946F4
:10108000204600F01EFC012804D10020FFF762FD7D
:10109000012059E70020FFF75DFDFFF71BFDBC486D
:1010A0000068D0F890004FE7606CB0F1FF3F0AD1C4
:1010B000B74800682065606C401E60640020FFF740
:1010C00049FD002040E7B249206D096888420ED1F1
:1010D000606C38B1606C401E60640020FFF73AFD20
:1010E000002031E70020FFF735FD05202CE794F8BC
:1010F000480000F02000202806D1A54A126892F886
:101100008810206D00F0B5FC2946204600F0D9FB80
:10111000012804D10020FFF71DFD012014E7002065
:10112000FFF718FDFFF7D6FC99480068D0F890004B
:101130000AE72DE9F05F044614B90120BDE8F09FED
:10114000FFF7BEFC38B994F8480000F01C001028E6
:1011500001D10120F2E74FF0000B0020FFF7D1FC96
:1011600094F8480000F01C00042805D1606C08B910
:1011700001262BE0002629E094F8480000F01C002E
:1011800008280FD1606C08B901261FE00026606CAA
:10119000B0F1FF3F03D0606C401C606416E04FF07C
:1011A000020B13E07A49206D0968884204D00020C0
:1011B000FFF7D0FC0120C1E7606C401C6064606CEC
:1011C000B0F1FF3F01D0002600E00126012E61D1E1
:1011D0006F48006800F090FC2046FFF788FA05464B
:1011E000F5B32846FFF7EDF895F8840010F0010FED
:1011F0000AD005F154073846FFF724F9D5F88400E2
:1012000020F00100C5F8840095F88C0020F008005B
:1012100085F88C0000219020415105F1540795F884
:1012200088805C4800EBC80900F1400A43465246FA
:1012300039464846FFF795F895F88C0040F00200D3
:1012400085F88C0094F8480000F01C00102803D1A9
:101250002565606C401E60640020FFF77BFC00E0A9
:1012600003E0FFF737FC584668E794F8480000F0C1
:101270001C00042802D1401F60640BE094F8480071
:1012800000F01C00082803D1606C401C606401E081
:10129000002020650020FFF75DFC58464EE72DE951
:1012A000F04705460F4615B90120BDE8F08795F8CF
:1012B000480000F01C00102801D10120F5E70020B3
:1012C000FFF71FFC35E02846FFF711FA044674B318
:1012D0002046FFF776F894F8840010F0010F0AD04A
:1012E00004F154094846FFF7ADF8D4F8840020F023
:1012F0000100C4F8840094F88C0020F0080084F801
:101300008C009020075104F1540914F8886F21488B
:1013100000EBC60800F1400A3346524649464046B3
:10132000FFF71FF8207940F00200207101E0FFE78D
:1013300000E0C8E700BF00206864FFF70BFC002056
:10134000B3E710B5044600212046FFF7A8FF10BD03
:1013500010B504460CB9012010BD94F8480000F007
:101360001C00102806D004212046FFF798FF08B182
:101370000120F1E7E06C48B10020FFF7C2FBE06C10
:1013800003F08CFA0020E064FFF7E4FB0020E3E7C1
:101390001C000020C40000202DE9FF4F83B08246CE
:1013A0001D46DDE910B7129E0020FFF7AAFB75B9B4
:1013B000584603F09BFA054635B90020FFF7CAFBF3
:1013C000002007B0BDE8F08F4FF0020901E04FF0B8
:1013D000000905EB0B0020F0030000900098A438F2
:1013E00020F00704C4F880502046DDE90412FFF71E
:1013F000DBFA04F14800FFF7EFF82046FFF702FCA4
:10140000002044F8840F206840EA090044F8840969
:101410002465E465A466C4F87CA084F888701EB9CD
:10142000022084F88C0005E0307884F88C0090204D
:101430007168015194F88C0000F0020002280ED16E
:10144000FE4800EBC700029004F15408FB4840300E
:1014500001903B464146DDE90120FEF782FF94F80A
:101460008C0000F00400042814D17068B0F1FF3F34
:1014700010D0F349706809680844C4F8940004F176
:1014800054084046FFF7C4F8D4F8840040F0010047
:10149000C4F8840000202067002161670121A16752
:1014A000FFF758FB20468CE72DE9FE4F81460F469B
:1014B00092469B46DDE90C840E9D17B90020BDE8DD
:1014C000FE8FB8F1000F01D10020F8E73DB1287878
:1014D000022804D02878042801D00020EFE7FFF785
:1014E0001EFA18B9072C07DD0020E8E7012C01DB04
:1014F000062C01DD0020E2E75B46524639464846AD
:10150000CDE900840295FFF747FF06460EB900209B
:10151000D5E7CC48006840B9CB48006818B13046E0
:10152000C94909688847FFF7D5FA3046C7E72DE96A
:10153000F047044614B90120BDE8F087C3480068AD
:10154000A04201D10120F7E70020FFF7DAFAC048F6
:10155000006818B12046BE490968884794F88C5045
:1015600005F0020002280ED194F88870B34800EB11
:10157000C70800F1400904F154063B464A4631468B
:101580004046FFF737F805F00400042804D104F1C1
:1015900054063046FEF756FF05F00800082802D131
:1015A0002046FEF70EFF04F14800FFF71CF8A9489B
:1015B0000068A04208D10020A6490860096891F897
:1015C0008810A54A42F8210094F8840000F0020037
:1015D000022803D1D4F8800003F060F90020FFF75F
:1015E000B9FAFFF777FA0020A6E710B59948006826
:1015F000FFF79DFF10BD2DE9F0410446002C55D0AA
:101600009448006891490968884202D10120BDE8E8
:10161000F0819048006890F88850884800EBC50633
:1016200000F140070020FFF76CFA2B463A460021F4
:101630003046FEF7DFFF80468648006890F88C0051
:1016400020F002008349096881F88C008148006815
:10165000C0F89040B4F1FF3F13D0794800682044AF
:101660007C490968C1F894004046FEF7D1FF7948EB
:101670000068D0F8840040F0010076490968C1F89C
:1016800084007448006890F88C0040F004007149B0
:10169000096881F88C0000206E49096891F888106B
:1016A0006D4A42F82100FFF755FA04E0002169482D
:1016B0000068C0F89010FFF70DFA66480068D0F88F
:1016C0009000A4E72DE9F041044614B90120BDE8DB
:1016D000F0810020FFF715FA94F88C0000F0040068
:1016E000042804D00020FFF735FA0120EFE704F1C9
:1016F000540590200059B0F1FF3F08D02846FEF76E
:10170000A1FED4F8840020F00100C4F8840094F80D
:101710008C0020F0040084F88C00032190200151FB
:1017200014F8886F454800EBC60700F140083346BF
:10173000424629463846FEF714FE207940F0020062
:101740002071A4F188044FF00000FFF703FAFFF7BF
:10175000C1F90020BBE72DE9F04704463B4800688B
:10176000A04202D10120BDE8F0870020FFF7C9F9AF
:1017700038480068A04201D1012700E0002794F812
:101780008C0000F0020002280ED194F888602B48EB
:1017900000EBC60800F1400904F1540533464A46FF
:1017A00029464046FEF726FF94F8840010F0010F0A
:1017B00004D004F154052846FEF744FE94F88C004A
:1017C00000F0080008280CD194F8840000F008000C
:1017D000082803D12046FEF715FE02E02046FEF75A
:1017E000F0FD94F88C0040F0100084F88C0000208C
:1017F000FFF7B0F9012F01D1FFF76CF90020B2E734
:101800002DE9F047044611480068A04202D10120AA
:10181000BDE8F0870020FFF774F904F1540594F84F
:101820008C0000F0020002281DD194F88860034863
:1018300000EBC60700F1400833460FE0C40000206B
:101840000C000020000000204000002024000020A8
:10185000480000201C0000202801002042462946A4
:101860003846FEF77EFD94F8840010F0010F02D098
:101870002846FEF7CDFE94F88C0000F008000828FA
:1018800012D194F8840000F00800082806D1D4F89A
:10189000709049462046FEF74CFF05E0D4F86CA056
:1018A00051462046FEF7FFFE94F88C0020F0100011
:1018B00084F88C000020FFF74DF9FFF70BF90020AA
:1018C000A6E72DE9F04706460C46C9480068C94915
:1018D0000968884202D10120BDE8F087C448006849
:1018E00090F88850C44800EBC50700F140082B462B
:1018F000424600213846FEF77DFE8146BC4800681E
:1019000090F88C0020F00200B949096881F88C0039
:10191000B7480068C0F89040B4F1FF3F13D0B74813
:1019200000682044B2490968C1F894004846FEF7AF
:101930006FFEAF480068D0F8840040F00100AC4969
:101940000968C1F884003146A9480068FEF7ABFE7B
:10195000A7480068D0F8840020F00800A44909686E
:10196000C1F88400A248006890F88C0040F008009C
:101970009F49096881F88C0000209D49096891F809
:1019800088109F4A42F8210000BFA5E72DE9F05FCB
:1019900005460F4690461C469548006895490968DB
:1019A000884202D10120BDE8F09F9148006890F87C
:1019B0008860914800EBC60900F1400A3346524660
:1019C00000214846FEF716FE83468948006890F8D5
:1019D0008C0020F002008649096881F88C00844858
:1019E0000068C0F89040B4F1FF3F13D0834800680E
:1019F00020447F490968C1F894005846FEF708FE64
:101A00007B480068D0F8840040F0010078490968FC
:101A1000C1F8840076480068056775480068476724
:101A200073480068C0F87880294671480068FEF75E
:101A300080FE6F480068D0F8840040F008006C49D0
:101A40000968C1F884006A48006890F88C0040F08A
:101A500008006749096881F88C000020644909681A
:101A600091F88810664A42F8210000BF9BE765485C
:101A700070472DE9F04704460D460CB9BDE8F087E4
:101A800094F88800A84200DCF8E794F88C0000F095
:101A9000020002280DD194F88870574800EBC7085F
:101AA00000F140093B464A4600214046FEF7A2FDB0
:101AB000064694F8840000F00400042803D094F84B
:101AC000880084F8890004F184042571206840F0BE
:101AD00004002060207AA4F1840400F002000228AF
:101AE00008D1454800EBC5082B464A4631464046DA
:101AF000FEF737FC00BFC1E72DE9F04104460CB901
:101B0000BDE8F08194F8840000F00400042800D0BF
:101B1000F6E704F184042579374800EBC50700F1A6
:101B200040062B4632464FF000013846FEF762FD74
:101B3000804660792071206820F0040020602079C0
:101B40002D4901EBC0072379A4F1840432464146B4
:101B50003846FEF706FC00BFD2E770B506460D46D4
:101B60000020FEF7CEFF0DB1062D06D9B5F1FF3FDF
:101B700003D00020FEF7EEFF70BDB5F1FF3F08D1A6
:101B8000002403E0204840F82460641C082CF9D3AA
:101B900002E01D4840F82560002404E000201849B8
:101BA00041F82400641C082CF8D30020FEF7D2FF73
:101BB00000BFE1E700201549086015490860154994
:101BC0000860704711490860704700200F4908609D
:101BD00070470F490860704700200D490860704742
:101BE0000C490860704700200A49086070470000EF
:101BF0001C00002024000020C40000200C00002055
:101C000028010020380000200801002040000020AA
:101C100044000020480000202DE9F04105460E4612
:101C2000174606F06000202806D006F06000402825
:101C300002D00020BDE8F0818DB90020FEF761FFE1
:101C4000502002F053FE044624B90020FEF782FF24
:101C50000020EFE70020FEF77DFF254600E000248E
:101C60002846FEF760FD6E64AF64EC642846E1E749
:101C70002DE9F04704460E469046994614B90120D6
:101C8000BDE8F08708F00F0001280DD008F00F0024
:101C9000042809D008F00F00022805D008F00F0032
:101CA000082801D00120EBE7FEF70AFF20B9B9F1BF
:101CB000000F01D00120E3E708F01000102803D145
:101CC000012728F0100800E000270020FEF719FF88
:101CD000B8F1010F7BD0B8F1020F76D0B8F1040F44
:101CE00003D0B8F1080F71D137E0A06C00EA060507
:101CF000B54209D1012F02D1A06CA843A0640020F5
:101D0000FEF728FF0020BBE7B9F1000F04D1002047
:101D1000FEF720FF0320B3E74B46424631462046FC
:101D2000FFF734FE012804D10020FEF713FF012045
:101D3000A6E70020FEF70EFFFEF7CCFECD480068B8
:101D4000D0F8900020B9012F02D1A06CB043A0645C
:101D5000C8480068D0F8900092E7A06C00EA060539
:101D60004DB1012F02D1A06CA843A0640020FEF762
:101D7000F1FE002084E7B9F1000F04D10020FEF746
:101D8000E9FE03207CE74B46424631462046FFF7FA
:101D9000FDFD012804D10020FEF7DCFE01206FE7E5
:101DA0000020FEF7D7FEFEF795FEB2480068D0F897
:101DB000900020B9012F02D1A06CB043A064AD48BF
:101DC0000068D0F890005BE701E038E06EE0A06CBE
:101DD00026EA0005B54209D1012F02D1A06C2843A3
:101DE000A0640020FEF7B6FE002049E7B9F1000F1D
:101DF00004D10020FEF7AEFE032041E74B464246E9
:101E000031462046FFF7C2FD012804D10020FEF72D
:101E1000A1FE012034E70020FEF79CFEFEF75AFEEB
:101E200094480068D0F8900020B9012F02D1A06C2E
:101E30003043A0648F480068D0F8900020E7A06C81
:101E400026EA00054DB1012F02D1A06C2843A06401
:101E50000020FEF77FFE002012E7B9F1000F04D149
:101E60000020FEF777FE03200AE74B464246314644
:101E70002046FFF78BFD012804D10020FEF76AFE03
:101E80000120FDE60020FEF765FEFEF723FE7948FF
:101E90000068D0F8900020B9012F02D1A06C304327
:101EA000A06474480068D0F89000E9E60020FEF7CE
:101EB00051FE0120E4E62DE9F05F05460F46164687
:101EC00015B90120BDE8F09F16F0010F04D016F0FF
:101ED000010F01D10120F5E70020FEF712FE16B137
:101EE000012E08D103E0A86CB843A86408E0A86CF0
:101EF0003843A86404E00020FEF72CFE0120E1E74F
:101F000000BF2846FEF738FC0446ECB32046FEF737
:101F100079FA94F8840010F0010F0AD004F1540803
:101F20004046FEF78FFAD4F8840020F00100C4F890
:101F3000840094F88C0020F0080084F88C000021C4
:101F400090200151D4F8840020F00800C4F88400E7
:101F500004F1540894F88890474800EBC90A00F14E
:101F6000400B4B465A4641465046FEF7FAF994F864
:101F70008C0040F0020084F88C000020FEF7EAFD9F
:101F8000FEF7A8FD00209DE7FFE70020FEF7E2FD39
:101F9000002097E72DE9F04706460F4616B90120C5
:101FA000BDE8F0870020FEF7ACFD3BE03046FEF7D1
:101FB0008EFC0446A4B32046FEF724FA94F884006D
:101FC00010F0010F0AD004F154094846FEF73AFA1E
:101FD000D4F8840020F00100C4F8840094F88C0048
:101FE00020F0080084F88C0090200751D4F8840079
:101FF00020F00800C4F8840004F1540914F8885F44
:102000001D4800EBC50800F1400A2B4652464946E0
:102010004046FEF7A6F9207940F00200207101E069
:10202000FFE700E0C2E700BF0020FEF793FD0020BD
:10203000B6E710B5044600212046FFF7ABFF10BD00
:1020400010B504460CB9012010BD04212046FFF74D
:10205000A1FF08B10120F7E7E06C48B10020FEF7CE
:1020600050FDE06C02F01AFC0020E064FEF772FD07
:102070000020E9E71C000020C400002070B55021BA
:102080005448FEF751FC00240BE004EB8400514956
:1020900001EB8005601C00EB800001EB80006860B4
:1020A000641C032CF1D304EB84004A4901EB800546
:1020B0000020686008464849086070BD2DE9F05F5F
:1020C00005460E46904615B90020BDE8F09F022E49
:1020D00001D20020F9E7B8F1040F01D20020F4E7A3
:1020E0000020FEF70EFD3C480468006820B13A4825
:1020F00000684068384908600020FEF72BFD0CB9E5
:102100000020E2E7A9462F46A6F1010B4FF0000A96
:1021100005E04744C9F80070B9460AF1010ADA45FA
:10212000F7D30020C9F8000025606560C4F8088076
:10213000E66026612046C8E72DE9F04104460E46D8
:10214000174614B90020BDE8F081A068B04201D262
:102150000020F8E70020FEF7D4FC206960B1656834
:10216000286860602069401E2061A06838600020F7
:10217000FEF7F0FC2846E6E70020FEF7EBFC002027
:10218000E1E770B504460D46164604B10DB90120CD
:1021900070BD0020FEF7B5FCD4E90310884204D3DB
:1021A0000020FEF7D7FC0120F2E73068A1688842E2
:1021B00004D00020FEF7CEFC0120E9E7606828602B
:1021C00065602069401C20610020FEF7C3FC0020F0
:1021D000DEE70000480100204C00002070B50546F5
:1021E0002846FEF76BFD002409E0C4EBC40205F1AC
:1021F000080000EB02112846FEF764FD641C642C05
:10220000F3D370BD10B55348FFF7E8FF022100205B
:10221000FEF7B0FD50490860002220211046FFF76C
:10222000FBFC4E4908604E48FFF7CCFC4D48FFF7D9
:10223000D0FC4D48FFF7D4FC05213220FFF78DFC80
:1022400010BD00B585B0012144F2050001F036F95A
:102250004FF48060ADF8100004208DF8130004A93D
:10226000424800F075FE4FF40070ADF810000320F6
:102270008DF8120018208DF8130004A93B4800F0D7
:1022800067FE684601F02EFA6946394801F0C1F947
:102290000121374801F049FA05B000BD10B5FFF73C
:1022A000D0FF10BD10B5044600BF8021304801F0BA
:1022B00017FB0028F9D021462D4801F0A3FA10BDE4
:1022C00070B504460020FEF71CFC2046FEF708FD12
:1022D00005460020FEF73EFC284670BD0FB438B519
:1022E0001C48FFF7EDFF044614B938BC5DF814FB39
:1022F00005A8009004F10900009A049901F056FE27
:102300000020009004F1090001F056FB20722146E4
:1023100011480068FEF768FD00BFE6E770B50446A7
:102320000D46002604E03146761C605CFFF7BAFFDC
:10233000B542F8D870BD70B504460D460020FEF7D2
:10234000E0FB29462046FEF7BDFC0020FEF702FC1C
:1023500070BD00009801002068000020700000207F
:10236000F127000865280008332C00080008014008
:1023700000380140704700BFFEE700BFFEE700BF26
:10238000FEE700BFFEE710B50446074820400649B7
:10239000884201D1FEF78BFB10BD7047704710B526
:1023A000FDF751FF10BD0000011000100CB500201A
:1023B000019000906B48006840F4803069490860E3
:1023C00000BF6848006800F4003000900198401C8D
:1023D0000190009818B90198B0F5704FF1D161489B
:1023E000006810F4003F02D00120009001E00020BE
:1023F00000900098012842D15B48006840F010002E
:10240000594908600846006820F003000860084643
:10241000006840F002000860524840685149486036
:102420000846406848600846406840F4806048605C
:102430000846406820F47C1048600846406840F434
:10244000E81048600846006840F08070086000BFEF
:102450004448006810F0007FFAD04248406820F0FD
:102460000300404948600846406840F00200486068
:1024700000BF3C48406800F00C000828F9D10CBDB2
:1024800010B5FFF793FF10BD10B53648006840F057
:102490000100344908600846406834490840314921
:1024A000486008460068324908402E4908600846DE
:1024B000006820F4802008600846406820F4FE0090
:1024C00048604FF41F008860FFF7DAFF4FF00060AC
:1024D0002849086010BD10B5002100200022214BC2
:1024E0005B6803F00C0121B1042906D0082928D12A
:1024F00007E0214B214C236027E01F4B1F4C23603A
:1025000023E0184B5B6803F47010164B5B6803F410
:102510008032022303EB904022B9194B4343174CFE
:1025200023600DE00F4B5B6813F4003F04D0144BA5
:102530004343124C236003E00F4B43430F4C236093
:1025400003E00D4B0D4C236000BF00BF054B5B68E3
:10255000C3F303130B4CE15C084B1B68CB40074CE7
:10256000236010BD00100240002002400000FFF870
:10257000FFFFF6FE08ED00E000127A005000002098
:1025800000093D005400002070B50546FEF7BBF978
:1025900004462146C2A0FFF7A1FECA480068FFF723
:1025A000DAF827E0FEF7AFF904462146C6A0FFF7A8
:1025B00095FE4FF0FF3314220321CD480068FFF74A
:1025C00057FB30B9FEF79FF904462146C9A0FFF733
:1025D00085FEC820FFF70FF8FEF795F943F698211E
:1025E000884207D9FEF78FF904462146C9A0FFF7B4
:1025F00075FE00E0D6E700BF70BD70B5054632E05D
:10260000FEF781F904462146CBA0FFF767FE4FF0A5
:10261000FF3314220321B6480068FFF729FB30B9C5
:10262000FEF771F904462146CDA0FFF757FEC820FA
:10263000FEF7E1FFFEF767F942F21071884212D906
:10264000FEF761F904462146CDA0FFF747FE9D48FD
:102650000068FFF7D5F8FEF756F904462146D1A0E9
:10266000FFF73CFE00E0CBE700BF70BD10B50446AD
:10267000204636F0C7FC10BD70B5054628E0FEF7D1
:1026800042F904462146D0A0FFF728FE40F2DC5074
:10269000FFF7ECFFFEF737F904462146D5A0FFF718
:1026A0001DFE0122114692480068FFF704FC4FF41A
:1026B000C870FEF7A0FFFEF726F9B0F57A5F07D9DC
:1026C000FEF721F904462146D8A0FFF707FE00E0F7
:1026D000D5E700BF70BD70B5054628E0FEF713F9D9
:1026E00004462146DAA0FFF7F9FD4FF4FA60FFF740
:1026F000BDFFFEF708F904462146E1A0FFF7EEFD15
:10270000012202217A480068FFF7D5FB4FF496704A
:10271000FEF771FFFEF7F7F8B0F57A5F07D9FEF71D
:10272000F2F804462146E4A0FFF7D8FD00E0D5E723
:1027300000BF70BD70B5054642E0FEF7E4F844F214
:102740005061884238D9FEF7DEF804462146E3A0FE
:10275000FFF7C4FDEA4AEB480168EB480068FFF761
:1027600010FDFEF7D0F804462146E8A0FFF7B6FDBD
:10277000EF4AF0480168E4480068FFF702FDFEF701
:10278000C2F804462146ECA0FFF7A8FDF34AF4483E
:102790000168DD480068FFF7F4FCFEF7B4F8044672
:1027A0002146F0A0FFF79AFDF74AF8480168D6489D
:1027B0000068FFF7E6FC04E04FF4FA70FEF71BFF39
:1027C000BBE700BF70BD08B511E04FF0FF326946AE
:1027D000EF480068FEF71EFB48B9009C217A04F11F
:1027E0000900FFF79BFDEB480099FFF7A4FDECE71C
:1027F00070B504464CB1FEF786F805462B462246D6
:10280000E5A0E16FFFF76AFD06E0FEF77CF80546FC
:102810002946ECA0FFF762FD70BD2DE9F041FEF7FF
:1028200072F86421B0FBF1F6EF480068864217D0D9
:10283000FFF71DF9044609E0A5682846FEF731FABE
:1028400007463A46E9A0E96FFFF748FDFFF70FF9A1
:1028500007462146FEF786FA0400EDD1E2480660FD
:10286000BDE8F08170B504460D46FFF7D6FFE84895
:102870000068844202D1FEF74FF80446E44800683D
:10288000854202D1FEF748F80546A54200D170BD49
:102890002CB1FEF738F80646EA6F3346BAE1BEE1DE
:1028A0000D0A5461736B312073757370656E64200B
:1028B0005461736B3121205469636B2069733A2032
:1028C00025640000980000200D0A5461736B3120CC
:1028D000697320736561726368696E6720666C61F5
:1028E0006721205469636B2069733A2025640000D6
:1028F000700000200D0A5461736B3120676574739A
:1029000020666C616721205469636B2069733A20EB
:10291000256400000D0A5461736B312064656C6599
:10292000746520697473656C6621205469636B203B
:1029300069733A20256400000D0A5461736B3220DC
:10294000697320736561726368696E6720666C6184
:102950006721205469636B2069733A202564000065
:102960000D0A5461736B32206765747320666C6165
:102970006721205469636B2069733A202564000045
:102980000D0A5461736B3220726573756D65205446
:1029900061736B3121205469636B2069733A202580
:1029A000640000000D0A5461736B322064656C652D
:1029B000746520697473656C6621205469636B20AB
:1029C00069733A20256400000D0A5461736B33204B
:1029D00069732072656C656173696E6720666972E0
:1029E00073742062697421205469636B2069733A9F
:1029F000202564000D0A5461736B332072656C6589
:102A000061736564206669727374206269742C2036
:102A1000736C656570696E67206E6F7721205469ED
:102A2000636B2069733A2025640000000D0A54612D
:102A3000736B332064656C65746520697473656CB1
:102A40006621205469636B2069733A202564000075
:102A50000D0A5461736B342069732072656C656173
:102A600073696E67207365636F6E64206269742199
:102A7000205469636B2069733A20256400000000CC
:102A80000D0A5461736B342072656C656173656403
:102A9000207365636F6E64206269742C20736C65AB
:102AA0006570696E67206E6F7721205469636B20B3
:102AB00069733A20256400000D0A5461736B342059
:102AC00064656C65746520697473656C6621205457
:102AD00069636B2069733A20256400000D0A467211
:102AE0006565205461736B31204D656D6F7279217E
:102AF000205469636B2069733A202564000000004C
:102B00008800002078000020740000200D0A467222
:102B10006565205461736B32204D656D6F7279214C
:102B2000205469636B2069733A202564000000001B
:102B30008C0000207C0000200D0A46726565205440
:102B400061736B33204D656D6F7279212054696319
:102B50006B2069733A20256400000000900000207B
:102B6000800000200D0A46726565205461736B3445
:102B7000204D656D6F727921205469636B206973F4
:102B80003A2025640000000094000020840000200A
:102B900068000020980100200D0A5461736B202505
:102BA000732030782530385820697320637265614E
:102BB00074656421205469636B2069733A2025642D
:102BC000000000000D0A4661696C20746F2063727A
:102BD00065617465207461736B21205469636B2097
:102BE00069733A2025640000640000200D0A5461D6
:102BF000736B20257320435055207574696C697A76
:102C00006174696F6E2069732025642525000000BA
:102C10006C0000200CA0E16FFFF760FB07E0FDF700
:102C200072FE0646324612A0E96FFFF757FB00BF5F
:102C30002DE670B50446FDF766FE05462A4616A049
:102C4000E16FFFF74BFB70BD0D0A5461736B2025DC
:102C500073202D2D2D2D3E205461736B2025732064
:102C600021205469636B2069733A202564000000B9
:102C70000D0A5461736B204E554C4C202D2D2D2D7B
:102C80003E205461736B2025732021205469636BAF
:102C90002069733A202564000D0A5461736B202566
:102CA000732069732064656C6574656421205469C0
:102CB000636B2069733A2025640000003EB5FDF780
:102CC0006DFAFFF79FFAFFF7E9FA4FF480620521EA
:102CD0004648FFF7F3F946490860464A4FF48061D9
:102CE00043480068FFF728FA43490860434A4FF415
:102CF00080613F480068FFF71FFA41490860414A78
:102D00004FF480613A480068FFF716FA3E490860C0
:102D10003E4A4FF4806136480068FFF70DFA3C499F
:102D20000860002003214FF48062CDE90021029069
:102D3000314800223749036837A0FEF7B5FB384910
:102D40000860002003214FF48062CDE90021029049
:102D50002B4800223349036833A0FEF7A5FB344912
:102D60000860002004210A02CDE9002102902648D3
:102D700000223049036830A0FEF796FB3049086016
:102D8000002004210A02CDE90021029020480022FF
:102D90002C4903682CA0FEF787FB2D490860002012
:102DA00005214FF480620346CDE9002102900246DE
:102DB000284929A0FEF778FB002006214FF4806205
:102DC0000346CDE9002102900246254925A0FEF7E1
:102DD0006BFB26490860FDF796FD0446214624A0BA
:102DE000FFF77CFAFDF723FA00203EBD602D00209E
:102DF0007400002088000020780000208C00002053
:102E00007C00002090000020800000209400002022
:102E100084000020892500085461736B3100000094
:102E200098000020FB2500085461736B32000000FD
:102E30009C000020792600085461736B3300000069
:102E4000A0000020D72600085461736B34000000F6
:102E5000A400002035270008436C65616E65720090
:102E6000C727000853726C50727400006C00002079
:102E70000D0A52454D49582069732072756E6E696E
:102E80006E6721205469636B2069733A20256400C2
:102E900010B50446CA48844208D10121042000F03C
:102EA00027FB0021042000F023FB46E0C5488442B4
:102EB00008D10121082000F01BFB0021082000F0B0
:102EC00017FB3AE0C048844208D10121102000F0ED
:102ED0000FFB0021102000F00BFB2EE0BB488442CA
:102EE00008D10121202000F003FB0021202000F068
:102EF000FFFA22E0B648844208D10121402000F0C8
:102F0000F7FA0021402000F0F3FA16E0B1488442BD
:102F100008D10121802000F0EBFA0021802000F090
:102F2000E7FA0AE0AC48844207D10121801500F09D
:102F3000DFFA0021A01500F0DBFA10BD10B5012169
:102F4000084600F0D5FA0021012000F0D1FA10BDAA
:102F50002DE9F04102460025002600200023002430
:102F6000002791F803C00CF00F0591F803C01CF086
:102F7000100F03D091F802C04CEA050591F800C08B
:102F8000BCF1000F31D0146800202BE04FF0010C91
:102F90000CFA00F3B1F800C00CEA03069E4220D1FF
:102FA00083004FF00F0C0CFA03F7BC4305FA03FC47
:102FB0004CEA040491F803C0BCF1280F06D14FF08D
:102FC000010C0CFA00FCC2F814C00AE091F803C02E
:102FD000BCF1480F05D14FF0010C0CFA00FCC2F80F
:102FE00010C0401C0828D1D31460B1F800C0BCF157
:102FF000FF0F34DD546800202EE000F1080C4FF084
:10300000010808FA0CF3B1F800C00CEA03069E426E
:1030100021D183004FF00F0C0CFA03F7BC4305FAE3
:1030200003FC4CEA040491F803C0BCF1280F05D15D
:1030300000F1080C08FA0CF8C2F8148091F803C0EB
:10304000BCF1480F07D100F1080C4FF0010808FA55
:103050000CF8C2F81080401C0828CED35460BDE89C
:10306000F0814FF6FF710180022181700421C1704F
:1030700070470246002093680B4201D0012000E017
:10308000002070470146886880B2704702460020E1
:10309000D3680B4201D0012000E0002070470146B8
:1030A000C86880B2704701617047416170470AB1DA
:1030B000016100E041617047C16070474FF48032A8
:1030C0000A43826181618261826982697047024636
:1030D0000020424B18684FF68073184040EA0210F7
:1030E00008433E4B186070473D49C8617047F0B5D2
:1030F0000A46002300240021002500F00046B6F116
:10310000004F02D1354EF16901E0344E7168C0F3D1
:10311000034583B200F44016B6F5401F08D121F0F4
:1031200070612E4E766826F070662C4F7E6012E03D
:1031300000F48016B6F5801F06D1032606FA05F4C2
:10314000A14341F0706106E0460D360103FA06F630
:10315000B14341F0706122B1460D360103FA06F623
:10316000314300F00046B6F1004F02D11B4EF16131
:1031700001E01A4E7160F0BD30B500228B071C0FC4
:103180000F2303FA04F2154B08338C1053F8243044
:103190009343124C08348D1044F8253023468C108C
:1031A00053F824308C07240F00FA04F423430B4C0B
:1031B00008348D1044F8253030BD0A490860704746
:1031C00000080140000C01400010014000140140C3
:1031D00000180140001C0140002001400000014097
:1031E00000002042DC002042DD48006840F0010081
:1031F000DB49086008464068DA490840D849486019
:1032000008460068D8490840D54908600846006863
:1032100020F4802008600846406820F4FE004860E2
:103220004FF41F0088607047CD49096821F4803150
:10323000CB4A11601146096821F480211160B0F574
:10324000803F03D0B0F5802F0ED106E0C449096855
:1032500041F48031C24A116007E0C149096841F474
:10326000A021BF4A116000E000BF00BF704710B549
:1032700001460022002300204A11012A02D1B84C45
:10328000236806E0022A02D1B54C236A01E0B44C5F
:10329000636A01F01F02012494401C4201D0012006
:1032A00000E0002010BD38B500200090002400256B
:1032B00000BF3120FFF7DBFF05460098401C00905F
:1032C0000098B0F5704F01D0002DF2D03120FFF7FB
:1032D000CEFF08B1012400E00024204638BD01469D
:1032E00000209F4A106820F0F80040EAC1001060FA
:1032F00070479E490860704702460020984B586806
:1033000020F47C1042EA01031843954B5860704743
:1033100096490866704701460020914A506820F09F
:1033200003000843506070478D48406800F00C006F
:103330007047014600208A4A506820F0F000084398
:103340005060704701460020854A506820F4E060D4
:1033500008435060704701460020814A506820F4BD
:10336000605040EAC1005060704729B17C4A527AEF
:1033700002437B4B5A7204E0794A527A8243784B7B
:103380005A7270477A490860704701460020744AB3
:10339000506820F440400843506070470021754A4F
:1033A00011706F4A82F82010012802D0042808D139
:1033B00003E001216F4A117004E005216D4A11708C
:1033C00000E000BF00BF70476B4908607047644968
:1033D000096A0143624A11627047674944390860CB
:1033E000704730B500210022002400235C4D6D6839
:1033F00005F00C0121B1042905D0082923D105E0ED
:103400005E4D056022E05D4D05601FE0544D6D6826
:1034100005F47012524D6D6805F48034022505EBF9
:1034200092421CB9564D554305600BE04C4D6D68FA
:1034300015F4003F03D0524D5543056002E04F4D57
:103440005543056002E04D4D056000BF00BF444D8F
:103450006D6805F0F00109094A4D6B5C0568DD40B7
:1034600045603F4D6D6805F4E061090A454D6B5CB0
:103470004568DD4085603A4D6D6805F46051C90AC4
:10348000404D6B5C4568DD40C560354D6D6805F4A9
:103490004041890B3C4D6B5CC568B5FBF3F505619C
:1034A00030BD29B12E4A526902432D4B5A6104E0C6
:1034B0002B4A526982432A4B5A61704729B1284AE4
:1034C00092690243264B9A6104E0254A926982433D
:1034D000234B9A61704729B1214AD2690243204B9C
:1034E000DA6104E01E4AD26982431D4BDA617047FB
:1034F00029B11B4AD2680243194BDA6004E0184A2A
:10350000D2688243164BDA60704729B1144A1269B7
:103510000243134B1A6104E0114A12698243104BB3
:103520001A61704714494039086070470F49C864F0
:1035300070470B49C87170470948406A40F0807075
:1035400007494862704701460020054A92680A42CE
:1035500001D0012000E000207047014988727047C7
:10356000001002400000FFF8FFFFF6FE000042429C
:10357000D8004242201002408004424200127A00E9
:1035800000093D00A8000020B800002010B5044646
:10359000FB48844209D101218803FFF7A9FF0021DC
:1035A0004FF48040FFF7A4FF32E0F648844209D18F
:1035B00001214804FFF7A9FF00214FF40030FFF775
:1035C000A4FF25E0F048844209D101218804FFF7D7
:1035D0009CFF00214FF48020FFF797FF18E0EB4895
:1035E000844209D10121C804FFF78FFF00214FF465
:1035F0000020FFF78AFF0BE0E548844208D1012153
:103600000805FFF782FF00214FF48010FFF77DFFD0
:1036100010BD2DE9F04786B005460E460024A246AF
:1036200000BFA1460027B08900B100BF2F462C8AF9
:103630004CF6FF700440F08804432C82AC894EF6AF
:10364000F3100440B088318908437189084304436A
:10365000AC81AC8A4FF6FF400440B0890443AC8291
:1036600001A8FFF7BEFEC648874202D1DDF810A0D0
:1036700001E0DDF80CA0A88910F4004F08D00AEB97
:10368000CA0000EB0A1031684900B0FBF1F807E00E
:103690000AEBCA0000EB0A1031688900B0FBF1F8B0
:1036A0006420B8FBF0F004012009642101FB1089BB
:1036B000A88910F4004F08D0322000EBC900B0FBFD
:1036C000F1F000F00700044308E0322000EB09109D
:1036D0006421B0FBF1F000F00F0004432C8106B030
:1036E000BDE8F0874FF4E131016000218180C180A5
:1036F00001810C21418100218181704710B5024672
:103700000020108A4FF2FF0318400B884C88234397
:103710008C882343CC8823431843108210BD00219A
:10372000018041808180C180704721B1828942F44B
:103730000052828104E082894DF6FF731A40828133
:103740007047F0B503460024002600250020A1F5AF
:1037500010676A3F00D100BF1846C1F3421401F060
:103760001F06012707FA06F5012C01D10C3004E0F1
:10377000022C01D1103000E014301AB107682F4339
:10378000076002E00768AF430760F0BD1AB1838AA3
:103790000B43838202E0838A8B4383827047028AD1
:1037A0004FF6F0731A400282028A0A43028270477F
:1037B00082894FF2FF731A40828182890A43828193
:1037C000704721B1828942F00202828104E082893D
:1037D0004FF6FD731A4082817047028A4FF6DF73FD
:1037E0001A400282028A0A430282704721B1028A89
:1037F00042F48042028204E0028A4BF6FF731A40D0
:1038000002827047C1F308028280704701468888AF
:10381000C0F308007047818941F001018181704740
:10382000028BD2B20283028B42EA012202837047EA
:10383000028B02F47F420283028B0A4302837047A9
:1038400021B1828A42F02002828204E0828A4FF60D
:10385000DF731A408282704721B1828A42F01002DF
:10386000828204E0828A4FF6EF731A4082827047A8
:1038700021B1828A42F00802828204E0828A4FF6F5
:10388000F7731A408282704721B1828942F4004264
:10389000828103E08289C2F30E028281704721B1E6
:1038A000828A42F40062828204E0828A4FF2FF73CD
:1038B0001A4082827047828A4FF6FB731A408282D6
:1038C000828A0A438282704721B1828A42F00202D0
:1038D000828204E0828A4FF6FD731A40828270472A
:1038E00002460020B1F5007F00D100BF13880B42D3
:1038F00001D0012000E00020704701F40072B2F511
:10390000007F00D100BFCA430280704770B50246F5
:103910000024002300250020A1F510666A3E00D196
:1039200000BFC1F3421501F01F03012606FA03F39D
:10393000012D02D19689334006E0022D02D1168A6C
:10394000334001E0968A33400C12012606FA04F453
:103950001688344013B10CB1012000E0002070BD86
:1039600010B500220023A1F510646A3C00D100BF0D
:103970000A1201249440A3B2DC43048010BD00006D
:10398000003801400044004000480040004C004026
:10399000005000400648804706480047FEE7FEE723
:1039A000FEE7FEE7FEE7FEE7FEE7FEE7FEE7FEE7EF
:1039B0008924000831010008421C10F8011B00296D
:1039C000FBD1801A704730B50B46014600202022FB
:1039D000012409E021FA02F59D4205D303FA02F51C
:1039E000491B04FA02F52844151EA2F10102F1DC7C
:1039F00030BD2DE9F05F0546002092469B46884683
:103A00000646814640241BE028464146474622465A
:103A100000F0F5F953465A46C01A914110D31146A9
:103A20001846224600F0DCF92D1A67EB01084F46D4
:103A300022460120002100F0D3F917EB00094E4186
:103A4000201EA4F10104DFDC484631462A464346E5
:103A5000BDE8F09F2DE9FE4F804681EA0300C00FCC
:103A60000C46009021F0004123F00045B8EB020025
:103A7000A94105D24046214690461C460B460246C7
:103A800023F00040104304D14046214603B0BDE876
:103A9000F08F270DC7F30A00C3F30A510290401AB2
:103AA0000190402866DAC3F3130040F4801B0098AD
:103AB000924620B10023D2EB030A63EB0B0B019873
:103AC0005946C0F14002504600F08AF906460D46BC
:103AD00050465946019A00F0A2F910EB08006141E6
:103AE000002487EA115284EAE7731A433BD0009A14
:103AF0003AB3019A012A4FEA075210DC001B61EB2E
:103B000002014FF0004202EA0752CDE90042001CD8
:103B100041F5801132462B4600F0A0F9B6E7001BB4
:103B200061EB0201001C41F5801300185B41201875
:103B3000A2F5001747EB030140EAD570B6196D41B5
:103B400011E06D084FEA360645EAC0754FEA0752A4
:103B5000001B61EB0201001C41F5801149084FEA8E
:103B600030000019514132462B4603B0BDE8F04FFA
:103B700000F067B90098012240000023D0EB020258
:103B800063EBE073009821464FEAE074B8EB000065
:103B900061EB0401E9E783F000435BE781F000415A
:103BA00058E72DE9FE4F81EA030404F0004421F0B8
:103BB000004100944FF0000B23F0004350EA010451
:103BC00002D052EA030404D10020014603B0BDE84C
:103BD000F08FC3F30A54C1F30A552C44A4F2F33412
:103BE0000194A0FB0254C1F3130141F48011C3F30B
:103BF000130343F4801301FB024400FB034E840AC9
:103C0000970A44EA815447EA8357A4FB0768029560
:103C10008D0A05FB07854FEA932C04FB0C542705FE
:103C2000029D4FEA065847EA1637B5EB08056EEBDA
:103C3000070C870E920E47EA811742EA8312A7FB10
:103C40000201B6EB0B0164EB00042B0D43EA0C33CD
:103C50005E1844EB1C50DA465146E7FB0201C5F3FF
:103C600013044FEA0B3343EA14534FEA0432019C26
:103C700043EA0603A4F10C040294009CCDE900B4CD
:103C800000F0ECF8A2E72DE9F04D81EA030404F01E
:103C9000004B21F0004514464FF0000A23F000418C
:103CA00050EA050220D054EA01021DD0C5F30A579C
:103CB0000246C5F31303C1F31300C1F30A5640F4DF
:103CC000801543F48013A7EB0608101BD64608F2B4
:103CD000FD3873EB050002D308F1010801E09218EA
:103CE0005B41B8F1000F03DA00200146BDE8F08D1A
:103CF00000204FF48011064684460EE0171B73EB3C
:103D0000050705D3121B63EB050306434CEA010CC0
:103D100049084FEA300092185B4150EA0107EDD1A3
:103D200052EA030012D082EA040083EA0501084344
:103D300003D100224FF0004308E0101BAB4102D238
:103D40000122002302E06FF0010253101AEB06007B
:103D50004CEB085110EB0A0041EB0B01BDE8F04DB4
:103D600000F06FB8C1F30A52C1F3130140F2FF3300
:103D700041F480119A4202DA00200146704740F275
:103D800033439A42A2F2334202DC524200F037B887
:103D900000F026B830B5002904DB4FF00044404263
:103DA00064EB0101002B04DB4FF00044524264EB52
:103DB0000303994208BF904230BD0000064C074DF6
:103DC00006E0E06840F0010394E8070098471034EB
:103DD000AC42F6D3FCF7B0F958490008784900081E
:103DE000202A04DB203A00FA02F1002070479140BB
:103DF000C2F1200320FA03F3194390407047202AB0
:103E000004DB203A21FA02F00021704721FA02F384
:103E1000D040C2F120029140084319467047202A41
:103E200006DBCB17203A41FA02F043EAE07306E0E2
:103E300041FA02F3D040C2F12002914008431946F2
:103E4000704710B5002B08DA401C41F100019218B0
:103E50005B411A4301D120F0010010BD2DE9F04D66
:103E600092469B4611B1B1FA81F202E0B0FA80F2BB
:103E700020329046FFF7B4FF04460F4640EA0A009E
:103E800041EA0B0153465A46084303D120463946BE
:103E9000BDE8F08D114653EA010015D0C8F140028B
:103EA0005046FFF7ACFF05460E465046594642467F
:103EB000FFF796FF084301D0012000E000200543F2
:103EC00046EAE0762C4337430A984FEA4453A0EB86
:103ED00008004FEAD4240A304FF0000244EA475465
:103EE0004FEAD72502D500200146D1E70105101978
:103EF0006941DDE9084500196941BDE8F04DA0E7D9
:103F000090FAA0F0B0FA80F0704700B524480FF2A4
:103F1000050E0047EE462348D0F800C0604690B139
:103F20000EF1040EBEE80F00ACE8FF0F9EE80F0094
:103F3000AEF1100E4CF8040B4CF804EBACE80E009C
:103F400001BCCCF800001848016801F11001B1E88B
:103F5000F00F01F10401D1F800D001F1100108685F
:103F600000471148D0F800D010B001BC80F303889E
:103F700082B000988FB04DF8040CBDE8FF1F01B06F
:103F80005DF804EB90B000BD00DF7047EFF30380F5
:103F90007047EFF3118180F31188084670470000E5
:103FA00083050008140000201800002037B51446CF
:103FB0000846064B6A46214600F0C8F804466946A2
:103FC000002000F066FC20463EBD0000934800083B
:103FD00002E008C8121F08C1002AFAD170477047D2
:103FE000002001E001C1121F002AFBD17047000030
:103FF0002DE9FF5FDDE90220010DDDF838B0024355
:1040000010D10F9801244CA2012808D0002100985B
:104010000F9BC0E90021C0E90243BDE8FF9F6FEAA2
:104020000B01F4E7A1F2FF3144F6105041430D14A7
:104030000F9801280ED0A5EB0B00401C4FF0000498
:104040003E4EDFF8FC90B0F1000AA04605DACAF156
:10405000000717E0CBF10000F0E7074612E0F80791
:1040600007D02246334640464946FFF79AFD804630
:1040700089462246334610461946FFF792FD04460C
:104080000E467F10002FEAD1DDE90201BAF1000FE0
:1040900042464B4602DAFFF784FD01E0FFF7F3FDED
:1040A00004460E460022274BFFF774FE03D84FF05C
:1040B000FF30014607E00022234B20463146FFF740
:1040C000C9FCFFF74FFE102409E0002C0ADB0A228E
:1040D0000023FFF78EFC019B30321A55641E50EA14
:1040E0000102F2D1641C019AC4F1110314440F9A25
:1040F000012A09D00122084301D15B450FDD4FF0B1
:10410000000205F101050DE0084303D1A3EB0B0507
:104110006D1E09E000204FF0110B0F9088E701DAC7
:1041200000226D1E002A83D000980F99C0E9023149
:10413000C0E9004571E700003000000000002440A5
:104140000000F03F0000F0430000E03F2DE9FF4F8A
:1041500095B09B4689460646002512E2252878D16F
:104160000024761CF94A2746012105943378203B28
:1041700001FA03F0104202D00443761CF6E73078CF
:104180002A2811D06FF02F033078A0F13002092ACD
:1041900016D8059A44F0020402EB820203EB4202B5
:1041A0001044761C0590EFE759F8042B0592002A7D
:1041B00003DA504244F40054059044F00204761CA3
:1041C00030782E2816D116F8010F44F004042A285E
:1041D0000DD06FF02F023078A0F13003092B09D8F1
:1041E00007EB870302EB4303C718761CF3E759F884
:1041F000047B761C30786C280FD006DC4C2817D056
:1042000068280DD06A2814D104E0742810D07A28C8
:104210000FD10DE044F400140AE044F4801401E0EE
:1042200044F440147278824202D1761C04F5801462
:10423000761C307866280BD013DC582877D009DC40
:10424000002875D04528F6D04628F4D047281AD142
:104250009FE118E0632835D0642879D0652812D111
:1042600097E1702873D008DC6728F1D069286FD0F7
:104270006E280DD06F2806D1B5E073282CD0752894
:1042800075D0782874D05A46179990476D1C76E1FE
:10429000C4F30250022809D003280DD0D9F8001029
:1042A00004280DD00D6009F1040968E1D9F8001067
:1042B000EA17C1E90052F6E7D9F800100D80F2E7DD
:1042C0000D70F0E719F8041B8DF8001000208DF830
:1042D0000100EA46012003E059F804AB4FF0FF303B
:1042E00061074FF0000102D40DE008F1010188469A
:1042F000B9420FDA8045F8DB1AF808100029F4D12A
:1043000008E008F1010188468142FADB1AF808103A
:104310000029F6D105985B46A0EB080721463846F0
:10432000179A00F09EFA284400EB080507E04DE0DC
:104330002BE10DE01AF8010B5A4617999047B8F196
:104340000108F7D25B4621463846179A14E142E04D
:104350000A220092C4F302524FF0000A022A08D047
:1043600059F804CB032A4FEAEC710AD00DE029E09A
:104370002AE009F1070121F00702F2E802C19146A3
:1043800009E00FFA8CFC4FEAEC71042A03D14FFAD2
:104390008CFC4FEAEC71002907DA0A460021DCF1B7
:1043A000000C61EB02012D2202E0220504D52B2234
:1043B0008DF80420012203E0E20701D02022F7E774
:1043C000904653E00A2102E010220DE010214FF048
:1043D000000A00910BE010224FF0000A44F00404A0
:1043E0000827009203E008224FF0000A0092C4F36D
:1043F0000252022A05D059F804CB0021032A08D022
:1044000009E009F1070121F00702F2E802C1914633
:1044100005E01FFA8CFC042A01D10CF0FF0C4FF0D0
:104420000008220722D5702827D0009B83F01003B4
:1044300053EA0A0309D15CEA010206D030228DF862
:1044400004208DF8050002229046009B83F00803AB
:1044500053EA0A030AD15CEA010201D1620705D5D9
:1044600030228DF804204FF001087F1E582809D013
:1044700037A003900EA8029013E040228DF804208C
:104480000122E1E737A0F4E753466046009AFFF7C0
:10449000B0FA84460398825C0298A0F10100029071
:1044A00002705CEA0100EFD1029806A9A1EB0000BE
:1044B00000F1200A600702D524F4803400E00127CF
:1044C000574502DDA7EB0A0000E0002000EB0A01DF
:1044D000009005984144A0EB01000590E00306D44C
:1044E0005B462146179A059800F0BBF90544002762
:1044F00006E001A85A46C05D179990476D1C7F1CC5
:104500004745F6DBE0030CD55B462146179A059834
:1045100000F0A7F9054404E030205A461799904767
:104520006D1C0099481E00900029F5DC08E00298F7
:1045300002995A460078491C0291179990476D1CC0
:10454000BAF10001AAF1010AF1DC6BE109280100CE
:1045500030313233343536373839616263646566F9
:1045600000000000303132333435363738394142BB
:10457000434445460000000000F060F9054406F1A0
:104580000106307800287FF4E9AD19B02846BDE86F
:10459000F08F620700D4062709F1070222F0070C0A
:1045A000FCE80223E14603F000485FEA080C02D071
:1045B0000FF27C2C0DE05FEA045C02D50FF2742C44
:1045C00007E05FEAC47C02D00FF26C2C01E0AFF28E
:1045D000700C4FF0FF3823F00043CDF850C0652831
:1045E0000CD006DC452809D046281DD047283ED1EE
:1045F0003EE0662818D0672839D139E00021112F14
:1046000001DB112000E0781CCDE9000106A90EA80D
:10461000FFF7EEFCDDE90F010E9A039100210092F5
:1046200007F1010A04914EE04FF000400097CDE9F8
:10463000011006A90EA8FFF7DBFCDDE90F020392CB
:104640000E9B11990022DDF80CA00093049219B979
:1046500007F1010100EB010AB7EB0A0004D4C0F135
:10466000FF3007F1010A0490AAEB0700019046E031
:10467000012F00DA01270021112F01DD112000E0B8
:104680003846CDE9000106A90EA8FFF7B1FCDDE927
:104690000F010E9A0391002104910092BA4621075E
:1046A0000CD40399514500DA8A46BAF1010F05DDB1
:1046B000009AAAF10101515C302908D0B84202DA0F
:1046C00010F1040F06DA0121CDE9011017E0AAF17B
:1046D0000101E9E7002805DC049901440491AAEBF3
:1046E000000102E0411C514500DD8A460499A0EB1F
:1046F000010000F1010001904FF0004002902007FE
:1047000004D40198504501DBCDF8048000208DF8D9
:104710004F0002980DF14F07B0F1004F25D02B202C
:104720000E9002984FF0020800280CDA40420290E6
:104730002D200E9007E00A210298FFF744F930314E
:10474000029007F8011DB8F10001A8F10108F2DCA0
:1047500002980028EFD1791E0E980870307800F08A
:10476000200040F0450007F8020D12A8A0EB07005A
:1047700000F107081498007800B1012000EB0A014D
:10478000019801EBE07105984144A0EB0100A0F114
:1047900001000590E00306D45B462146179A059870
:1047A00000F05FF805441498007820B15A46179934
:1047B000904705F10105E00323D55B462146179A92
:1047C000059800F04EF805441BE00498002807DB2C
:1047D000DDE90301884203DD0098405C179901E0A0
:1047E000179930205A46904704986D1C401C04903D
:1047F0000198401E019004D12E205A4617999047E7
:104800006D1CBAF10001AAF1010ADEDC05E017F81F
:10481000010B5A46179990476D1CB8F10001A8F199
:104820000108F4DC5B462146179A0598A4E60000CF
:104830002D0000002B000000200000002DE9F041B9
:10484000044600251E461746880405D406E039466E
:104850002020B04705F10105641EF8D52846BDE8C3
:10486000F0812DE9F041044600251E469046C8031C
:1048700001D5302700E02027880405D506E0414611
:104880003846B04705F10105641EF8D52846BDE855
:10489000F0810A68531C0B601070704710B5002837
:1048A00021D0114B001F0022196803E0814203D878
:1048B0000A4649680029F9D152B11368841A9C420A
:1048C00004D1006818441060104602E0506000E017
:1048D000186039B102680B1A934203D10B681A446D
:1048E00002604968416010BDBC000020F0B50B308B
:1048F000154D20F007010024144A0FE003688B4295
:104900000BD38B4205D95E1A43184768C3E9006789
:1049100000E04368136002C004E0021D1068002834
:10492000ECD12046002802D1286808B10020F0BD53
:10493000064A07481060074A121A22F00702C0E927
:10494000002401202860D7E7C0000020BC00002020
:1049500064410020608100207849000800000020A8
:10496000C4000000D03F00083C4A0008C4000020FA
:104970009C820000E03F00080000000000000000F2
:104980000000000000000000000000000000000027
:104990000000000000000000000000000000000017
:1049A0000000000000000000000000000000000007
:1049B00000000000000000000000000000000000F7
:1049C000000000000000000000A24A0400000000F7
:1049D00000000000010203040607080900000000AF
:1049E00000000000000000000000000000000000C7
:1049F00000000000000000000000000000000000B7
:104A000000000000000000000000000000000000A6
:104A10000000000000000000000000000000000096
:104A20000000000001020304010203040607080954
:0C4A300002040608000000000000000066
:020000040803EF
:1090040041F2A45300FB03F2002100BF914200D1BE
:0C90140001E0491CFAE700BF70470000B3
:0400000508000131BD
:00000001FF
