:020000040800F2
:10000000D86E00202D330008991F00089B1F0008A0
:100010009F1F0008A31F0008A71F00080000000082
:10002000000000000000000000000000AB1F0008FE
:10003000BF1F000800000000A3380008C31F00080D
:1000400047330008473300084733000847330008A8
:100050004733000847330008473300084733000898
:100060004733000847330008473300084733000888
:100070004733000847330008473300084733000878
:100080004733000847330008473300084733000868
:100090004733000847330008473300084733000858
:1000A0004733000847330008473300084733000848
:1000B0004733000847330008473300084733000838
:1000C0004733000847330008473300084733000828
:1000D0004733000847330008473300084733000818
:1000E0004733000847330008473300084733000808
:1000F00047330008473300084733000847330008F8
:1001000047330008473300084733000847330008E7
:1001100047330008473300084733000847330008D7
:1001200047330008473300084733000847330008C7
:10013000DFF80CD003F00EFB004800472127000831
:10014000D86E002000BFFEE7FE490860704700B58A
:1001500002460020FC4908600120FFF7F5FF00BDC2
:1001600010B5FA4800F06AFD10BD70B504460025D0
:1001700004E004EBC50000F061FD6D1C082DF8D310
:10018000002084F8400070BD10B5F148FFF7EDFF86
:1001900010BD10B5EF4800F051FD10BD0EB50020A8
:1001A000FFF7D2FF0120E84908600020EA49086013
:1001B000EA490860EA490860EA490860EA490870C3
:1001C000EA49086001F0DAFB4FF0FF31002001F04E
:1001D000ABFB0020E6490860FFF7DBFFFFF7D4FF29
:1001E000FFF7BEFF002001214FF416720346CDE950
:1001F000002102900246AFF2A901DEA001F0F0F862
:10020000D7490860002007214FF416720346CDE954
:10021000002102900246AFF2D301D8A001F0E0F82D
:10022000CE49086000F006FC0EBD10B5CC48006851
:10023000D4490860CA480068C749086003F05DFBFC
:1002400010BD10B5C7480068401CC64908600120B1
:10025000C5490870C6480068401CC5490860BE48CA
:100260000068B0B1BC48006890F88800C64951F8F1
:10027000200070B1B848006890F88800C34951F870
:100280002000401CB449096891F88810BF4A42F820
:10029000210000F0E2FB10BD10B50446207800F00C
:1002A00037FC10BD2DE9F047A9484030FFF7F4FFB7
:1002B0008146A74800EBC908404600F010FD0546FE
:1002C0002F46BE68A448006890F88800AE4951F8EF
:1002D000200050B3A0480068B04226D19E48006874
:1002E00090F88800A94951F820009B49096891F8C5
:1002F0008810A54A52F82110884216D3002096494A
:10030000096891F88810A14A42F821002946404620
:1003100000F0E8FC044644B1404600F0A1FC294648
:10032000404600F08FFC2746BE683046BDE8F087A7
:10033000027801238B40DBB21A43027070472DE92B
:10034000F04106460F4614461D463946304600F039
:1003500079FC29462046FFF7EBFFBDE8F0812DE947
:10036000F04104460D4616461F463B463246294696
:100370002046FFF7E4FFBDE8F081027801238B40BF
:100380009A43027070472DE9F04106460C46154627
:10039000304600F065FC0746304600F0A0FC18B976
:1003A00029462046FFF7E9FF3846BDE8F0812DE9F0
:1003B000F0410546EC6E94F8480000F00300022876
:1003C0000CD195F8887004EBC70604F140083A4652
:1003D00041463046FFF7D7FFBDE8F08104F138060B
:1003E000304600F03DFCF7E72DE9F04105462C6F63
:1003F00094F8440000F0600040280CD195F8887013
:1004000004EBC70604F140083A4641463046FFF780
:10041000BAFFBDE8F08104F13806304600F020FC58
:10042000F7E710B504462146484800F03EFC10BDF1
:100430002DE9F84F454800F052FC0546002D64D0E8
:1004400061E0AA46DAF80840D4F894B0454800685C
:10045000834557D12846FFF7E4FF064654F8840F3A
:1004600020F001002060207AA4F1840400F0040050
:10047000042809D194F88C0020F0040084F88C0042
:1004800002219020015124E094F88C0000F0080033
:1004900008281ED194F8840000F0080008280CD128
:1004A0002046FFF7A1FFD4F8840020F00800C4F82C
:1004B000840002219020015105E02046FFF777FFDC
:1004C00002219020015194F88C0020F0080084F85B
:1004D0008C0004F1540914F8887F1D4800EBC7080C
:1004E000403000903B4649464046009AFFF737FFB0
:1004F000207940F002002071A4F1880406B903E0DD
:10050000354600E000E09CE700BFBDE8F88F10B57D
:1005100015480078012804D1002013490870FFF71E
:1005200087FFFFF7BFFE044621460B48006800F036
:1005300032FB1748006868B3214607480068144A30
:10054000126828E02800002000000020040000209D
:100550008C000020380000201C0000202400002017
:10056000200000200C000020100000202C000020A3
:1005700034000020524F4F540000000049646C6565
:100580000000000018000020D0000020F000002033
:100590004400002000E09047D948006820B1D848C6
:1005A0000068D849086002E00020D6490860D648B3
:1005B0000460D348046010BD10B504462146D348FA
:1005C00000F040FB10BD10B504462146CF4800F0B6
:1005D0006CFB10BD70B504460D46164632462946E2
:1005E0002046FFF7D0FE70BD2DE9F0470446C8480D
:1005F00000F075FB07467FB3A146D9F80800D0F894
:1006000094502FE0B946D9F80800D0F89460C1485A
:100610000068A84201D2B5420DD3B54203D2BD480D
:100620000068864207D3BB48006886420AD2B948B0
:100630000068A84206D222463946B54800F023FB9E
:10064000BDE8F0873946B24800F04CFB8046B8F16F
:10065000000F02D0474605E005E02146AC4800F017
:10066000F1FAEDE7CEE72146A94800F0EBFA00BF2A
:10067000E6E710B504462046FFF777FD10BD2DE9EB
:10068000F04705460C4694F8480000F003000228A5
:100690000ED195F8888005F1600704EBC80604F1D7
:1006A000400943464A4639463046FFF748FE07E0D0
:1006B00004F1380605F160073946304600F0C2FA09
:1006C000EC66BDE8F0872DE9F041054695F8480055
:1006D00000F00300022805D105F14000FFF7DCFD22
:1006E000064600E0072605EBC60000F0F8FA0446CF
:1006F00014B90020BDE8F0812746B868FAE710B5C4
:1007000004462046FFF731FD10BD2DE9F0470546B0
:100710000C4694F8440000F0600040280ED195F893
:10072000888005F1600704EBC80604F140094346E0
:100730004A4639463046FFF702FE07E004F1380624
:1007400005F160073946304600F07CFABDE8F087D5
:100750002DE9F047054695F8440000F06000202898
:1007600049D1072705EBC70000F0B9FA064641E07A
:1007700016B90020BDE8F087B1464E46D9F80840CA
:10078000A06F01281AD0022822D0042802D00828FD
:1007900028D109E0A86C616F00EA0108606F40454C
:1007A00001D12046E6E71EE0A86C616F00EA01086F
:1007B000B8F1000F01D02046DCE714E0606FA96CAF
:1007C00020EA0108606F404501D12046D2E70AE0E7
:1007D000606FA96C20EA0108B8F1000F01D0204633
:1007E000C8E700E000BF00BF05EBC700314600F0DE
:1007F00079FA0646BCE705F14000FFF74DFD0746D4
:1008000005EBC70000F06BFA06464BE00AE0781CE7
:10081000C7B2082F01D10020ACE705EBC70000F0FC
:100820005EFA0646002EF2D0B1464E46D9F8084090
:10083000A06F01281AD0022822D0042802D008284C
:1008400028D109E0A86C616F00EA0108606F40459B
:1008500001D120468EE71EE0A86C616F00EA010816
:10086000B8F1000F01D0204684E714E0606FA96C56
:1008700020EA0108606F404501D120467AE70AE08E
:10088000606FA96C20EA0108B8F1000F01D0204682
:1008900070E700E000BF00BF05EBC700314600F085
:1008A00021FA0646B2E72DE9F041054695F84400E5
:1008B00000F06000202805D105F14000FFF7ECFCB6
:1008C000064600E0072605EBC60000F008FA0446DD
:1008D00014B90020BDE8F0812746B868FAE70D4852
:1008E000006870470648006870470B48006870470A
:1008F0000A48006870470A480068704709A07047B6
:100900001C000020140000201800002038000020E7
:10091000040000200C000020200000202400002003
:10092000280000203030312E3030312E3030312E42
:100930003030310010B5002807DA0A07140E7A4A61
:1009400000F00F031B1FD45403E00A07130E774A6D
:10095000135410BD2DE9F04104460F46904625463C
:10096000C5F8008000206860A860E86028616861C0
:10097000A861E86128626862A862E8622863A4F15D
:10098000200068636A48A863EF634FF080702864B2
:100990006FF006006864204600F0D2F82646301F4B
:1009A0000646296C0160301F0646E96B0160301F66
:1009B0000646A96B0160301F0646296B0160301F97
:1009C0000646E9680160301F0646A9680160301FCD
:1009D000064669680160301F064629680160BDE867
:1009E000F08110B50E216FF00100FFF7A3FF10BDDD
:1009F00010B5504800686421B0FBF1F4B4F1807F79
:100A000000D311E024F07F40401E4FF0E021486108
:100A10000F214FF0FF30FFF78DFF00204FF0E02156
:100A200088610720086100BF0C214FF0FF30FFF7FD
:100A300081FF10BD10B5FFF7DBFFFFF7D2FF10BD40
:100A4000014600BFEFF31482104620F00100084376
:100A5000024682F3148800BF704733481438006898
:100A600040F08050304914390860704710B502F0EA
:100A700059FFC005C00D01D0002010BD0120FCE7CA
:100A800010B5FFF7F3FF18B12B4802F049FF01E062
:100A9000FFF7E3FF10BD10B5FFF7E8FF08B901202D
:100AA00010BD2648006838B972B624480068401C5A
:100AB000224908600020F3E720480068401C06D067
:100AC0001E480068401C1D4908600020E8E701201E
:100AD000E6E710B5FFF7CAFF08B9012010BD1748B7
:100AE0000068012806D915480068401E13490860AF
:100AF0000020F3E711480068012807D10F4800687B
:100B0000401E0E49086062B60020E7E70120E5E7D5
:100B100070B50546284602F0BFFEC4B2202C01D1B4
:100B2000002070BD2046FCE718ED00E000E400E086
:100B3000191500084C000020011000102C000020A6
:100B4000D0F88030DB1C23F00302002103E04FF0DB
:100B5000CC335350091D831A8B42F8D87047014695
:100B6000D1F88030DB1C23F00302002005E013588D
:100B7000B3F1CC3F00D003E0001D8B1A8342F6D8BE
:100B800000BF70470021C0F8981000229C210A5035
:100B9000A0210A5070472DE9F041044688464FF0E5
:100BA000E0208769C4B1214800682149096888426A
:100BB00008D19C200059D4F89810C91B01449C20EE
:100BC000015109E09C200159D4F8980000F180708F
:100BD000C01B01449C20015115480068134908605E
:100BE000C8F8987013480068642818D1124E0EE0B7
:100BF000B5689C20405900F50000000E6421484370
:100C0000B0FBF1F1A020415100219C20415131461F
:100C1000094800F067F80600EAD106490860BDE817
:100C2000F0810146A02040587047000030000020AD
:100C30000C0000203400002038000020002101605A
:100C400041607047426832B102680A6048600268D9
:100C50005160016003E008604860016041607047D6
:100C600001464A686AB1D1E90003984204D050684D
:100C700048605068016002E000200860486010464B
:100C800070470020FCE730B505460B4614469D42F0
:100C900006D0186844601868206063601C6003E038
:100CA00021462846FFF7CEFF30BD30B505460C463D
:100CB000A54212D02068A84202D16068A84207D09D
:100CC000D4E900104860D4E900010860606830BDD4
:100CD0002846FFF7C5FF0020F9E70020F7E70146A7
:100CE0004868704702464868904201D1002070472A
:100CF0004868FCE770B506460D4605F0030001287C
:100D000005D005F00300022801D0002070BD35F0A9
:100D1000030001D00020F9E776B9FFF7BCFE6020A0
:100D200003F0AAFA04461CB9FFF7D3FE0020EDE752
:100D3000FFF7CFFE264600E000243046FFF77EFF97
:100D4000F46545F00801002206F1080000F056F8AD
:100D500008B13046DAE714B1204603F065FA002006
:100D6000D4E770B504460D4604B10DB9012070BD3D
:100D7000FFF791FE29462046FFF764FFFFF7A9FE23
:100D800004F1080000F078F9F1E72DE9F04104469C
:100D90000D46174604B115B90120BDE8F08139466A
:100DA00004F1080000F080F806460EB13046F4E782
:100DB000FFF771FE2046FFF753FF8046FFF789FEDD
:100DC000C5F800800020E8E710B504460CB9012002
:100DD00010BD042104F1080000F000FA08B1012060
:100DE000F6E7E06D40B1FFF756FEE06D03F01CFA48
:100DF0000020E065FFF76DFE0020E9E72DE9F041F6
:100E000005460C46174604F01C00042807D004F0E1
:100E10001C00082803D004F01C00102813D104F093
:100E20000300012803D004F0030002280BD104F0D2
:100E30001C00102803D104F00300022806D004F09F
:100E40002000202802D10020BDE8F08104F01C0021
:100E5000042805D16FB1B7F1FF3F0AD00020F3E7B6
:100E600004F01C00102804D1B7F1FF3F01D000208E
:100E7000EAE775B9FFF70FFE542003F0FDF90646C7
:100E80001EB9FFF726FE0020DEE7FFF722FE3546FB
:100E900000E000262846FFF7ECFB6F64AC64EE64CC
:100EA000002028652846CFE770B504460D460CB9EA
:100EB000012070BDFFF7DAFD50B994F8480000F04A
:100EC0001C00102801D10120F3E70DB10120F0E74B
:100ED000FFF7E1FD002D4AD194F8480000F01C0016
:100EE00004280DD1606CB0F1FF3F05D10020606493
:100EF000FFF7EFFD0020DCE7FFF7EBFD0320D8E76D
:100F000094F8480000F01C0008280CD1606C30B147
:100F1000606C401E6064FFF7DCFD0020C9E7FFF74E
:100F2000D8FD0320C5E7606CB0F1FF3F09D1E74869
:100F300000682065606C401E6064FFF7CAFD0020F9
:100F4000B7E7E249206D096888420CD1606C30B186
:100F5000606C401E6064FFF7BCFD0020A9E7FFF74E
:100F6000B8FD0520A5E7FFF7B4FD0320A1E794F83D
:100F7000480000F01C0004281CD1606CB0F1FF3F59
:100F800005D100206064FFF7A4FD002091E7294609
:100F9000204600F071FB012803D1FFF79AFD0120E4
:100FA00087E7FFF796FDFFF76BFDC8480068D0F8AC
:100FB00090007EE794F8480000F01C0008281BD140
:100FC000606C30B1606C401E6064FFF782FD0020F1
:100FD0006FE72946204600F04FFB012803D1FFF7B9
:100FE00078FD012065E7FFF774FDFFF749FDB7487D
:100FF0000068D0F890005CE7606CB0F1FF3F09D169
:10100000B24800682065606C401E6064FFF761FDB7
:1010100000204EE7AD49206D096888420CD1606C14
:1010200030B1606C401E6064FFF753FD002040E764
:10103000FFF74FFD05203CE794F8480000F0200042
:10104000202806D1A14A126892F88810206D00F07D
:10105000FAFB2946204600F00FFB012803D1FFF7D9
:1010600038FD012025E7FFF734FDFFF709FD97481C
:101070000068D0F890001CE72DE9F05F044614B931
:101080000120BDE8F09FFFF7F1FC38B994F8480063
:1010900000F01C00102801D10120F2E74FF0000BF6
:1010A000FFF7F9FC94F8480000F01C00042805D173
:1010B000606C08B901262AE0002628E094F8480070
:1010C00000F01C0008280FD1606C08B901261EE052
:1010D0000026606CB0F1FF3F03D0606C401C606480
:1010E00015E04FF0020B12E07849206D0968884244
:1010F00003D0FFF7EEFC0120C3E7606C401C606486
:10110000606CB0F1FF3F01D0002600E00126012E07
:1011100060D16E48006800F0D8FB2046FFF7D3FA94
:101120000546EDB32846FFF742F995F8840010F024
:10113000010F0AD005F154073846FFF772F9D5F8C8
:10114000840020F00100C5F8840095F88C0020F0A0
:10115000080085F88C0000219020415105F15407CA
:1011600095F888805A4800EBC80900F1400A4346C8
:10117000524639464846FFF7F2F895F88C0040F0A1
:10118000020085F88C0094F8480000F01C0010283C
:1011900003D12565606C401E6064FFF79AFC00E097
:1011A00003E0FFF76DFC58466BE794F8480000F049
:1011B0001C00042802D1401F60640BE094F8480032
:1011C00000F01C00082803D1606C401C606401E042
:1011D00000202065FFF77DFC584652E72DE9F047D7
:1011E00005460F4615B90120BDE8F08795F848007F
:1011F00000F01C00102801D10120F5E7FFF74BFC9F
:1012000035E02846FFF75FFA044674B32046FFF73F
:10121000CEF894F8840010F0010F0AD004F15409BC
:101220004846FFF7FEF8D4F8840020F00100C4F827
:10123000840094F88C0020F0080084F88C00902042
:10124000075104F1540914F8886F214800EBC608CF
:1012500000F1400A3346524649464046FFF77FF8C0
:10126000207940F00200207101E0FFE700E0C8E7CC
:1012700000BF00206864FFF72CFC0020B4E710B525
:10128000044600212046FFF7A9FF10BD10B5044613
:101290000CB9012010BD94F8480000F01C00102883
:1012A00006D004212046FFF799FF08B10120F1E79D
:1012B000E06C40B1FFF7EFFBE06C02F0B5FF0020FF
:1012C000E064FFF706FC0020E4E700001C000020BB
:1012D0008C0000202DE9FF4F83B082461D46DDE9DA
:1012E00010B7129EFFF7D7FB6DB9584602F0C4FF46
:1012F00005462DB9FFF7EDFB002007B0BDE8F08FE4
:101300004FF0020901E04FF0000905EB0B0020F05F
:10131000030000900098A43820F00704C4F880501F
:101320002046DDE90412FFF715FB04F14800FFF742
:1013300043F92046FFF726FC002044F8840F20687C
:1013400040EA090044F884092465E465A466C4F809
:101350007CA084F888701EB9022084F88C0005E017
:10136000307884F88C0090207168015194F88C00DA
:1013700000F0020002280ED1F94800EBC7000290ED
:1013800004F15408F648403001903B464146DDE9FF
:101390000120FEF7E4FF94F88C0000F0040004281C
:1013A00014D17068B0F1FF3F10D0EE497068096841
:1013B0000844C4F8940004F154084046FFF714F9B7
:1013C000D4F8840040F00100C4F8840000202067B5
:1013D000002161670121A167FFF77BFB20468CE7B5
:1013E0002DE9FE4F81460F4692469B46DDE90C846F
:1013F0000E9D17B90020BDE8FE8FB8F1000F01D196
:101400000020F8E73DB12878022804D02878042885
:1014100001D00020EFE7FFF76EFA18B9072C07DDBF
:101420000020E8E7012C01DB062C01DD0020E2E7CB
:101430005B46524639464846CDE900840295FFF79F
:1014400049FF06460EB90020D5E7C748006840B9F5
:10145000C648006818B13046C44909688847FFF794
:101460000FFB3046C7E72DE9F047044614B90120C9
:10147000BDE8F087BE480068A04201D10120F7E72F
:10148000FFF709FBBB48006818B12046B949096855
:10149000884794F88C5005F0020002280BD194F88C
:1014A0008860AF4800EBC60700F140093246494664
:1014B0003846FFF78FF805F00400042804D104F142
:1014C00054084046FEF7ADFF05F00800082802D199
:1014D0002046FEF76CFF04F14800FFF774F8A648B9
:1014E0000068A04208D10020A3490860096891F86B
:1014F0008810A24A42F8210094F8840000F002000B
:10150000022803D1D4F8800002F08EFEFFF7E1FA42
:10151000FFF7B6FA0020ABE710B597480068FFF771
:10152000A2FF10BD2DE9F0410446002C53D0924893
:1015300000688F490968884202D10120BDE8F08126
:101540008D48006890F88850854800EBC50600F18A
:101550004007FFF7A0FA2A4639463046FFF73AF827
:1015600080468548006890F88C0020F0020082498F
:10157000096881F88C0080480068C0F89040B4F198
:10158000FF3F13D07748006820447B490968C1F8C1
:1015900094004046FFF728F877480068D0F88400A8
:1015A00040F0010074490968C1F88400724800687D
:1015B00090F88C0040F004006F49096881F88C00B5
:1015C00000206D49096891F888106C4A42F82100A2
:1015D000FFF77FFA04E0002167480068C0F8901028
:1015E000FFF74EFA64480068D0F89000A6E72DE9AE
:1015F000F041044614B90120BDE8F081FFF74BFA31
:1016000094F88C0000F00400042803D0FFF761FA7E
:101610000120F1E704F1540590200059B0F1FF3F9B
:1016200008D02846FEF7FDFED4F8840020F0010023
:10163000C4F8840094F88C0020F0040084F88C0036
:1016400003219020015114F8886F454800EBC6072C
:1016500000F140083346424629463846FEF77FFEF1
:10166000207940F002002071A4F18804FFF731FADC
:10167000FFF706FA0020BFE72DE9F04706460C46C3
:101680003D4800683A490968884202D10120BDE816
:10169000F0873948006890F88850314800EBC5075A
:1016A00000F140082A4641463846FEF793FF81463E
:1016B0003148006890F88C0020F002002E4909683B
:1016C00081F88C002C480068C0F89040B4F1FF3FCE
:1016D00013D024480068204427490968C1F89400C1
:1016E0004846FEF781FF24480068D0F8840040F0A7
:1016F000010021490968C1F8840031461E4800688C
:10170000FEF7BDFF1C480068D0F8840020F00800F8
:1017100019490968C1F884001748006890F88C00DE
:1017200040F008001449096881F88C000020124933
:10173000096891F88810114A42F8210000BFA6E715
:101740002DE9F05F05460F4690461C460A480068A2
:1017500007490968884213D10120BDE8F09F0000C5
:101760008C0000200C000020000000204000002021
:1017700024000020480000201C000020F000002071
:101780008D48006890F888608C4800EBC60900F12D
:10179000400A324651464846FEF71CFF83468648BB
:1017A000006890F88C0020F002008349096881F8F5
:1017B0008C0081480068C0F89040B4F1FF3F13D01E
:1017C0007F48006820447C490968C1F89400584665
:1017D000FEF70AFF78480068D0F8840040F0010066
:1017E00075490968C1F88400734800680567724844
:1017F0000068476770480068C0F8788029466E48DE
:101800000068FEF782FF6C480068D0F8840040F062
:10181000080069490968C1F884006748006890F8C1
:101820008C0040F008006449096881F88C000020B1
:101830006149096891F88810624A42F8210000BFA6
:101840008BE7614870472DE9F04704460D460CB917
:10185000BDE8F08794F88800A84200DCF8E794F827
:101860008C0000F0020002280CD194F888805348C4
:1018700000EBC80900F14007424639464846FEF7EA
:10188000A9FE064694F8840000F00400042803D062
:1018900094F8880084F8890004F184042571206894
:1018A00040F004002060207AA4F1840400F00200DB
:1018B000022808D1414800EBC5092B463A4631467B
:1018C0004846FEF74CFD00BFC2E72DE9F041044653
:1018D0000CB9BDE8F08194F8840000F004000428FD
:1018E00000D0F6E704F184042679344800EBC607FB
:1018F00000F14005324629463846FEF76BFE804629
:1019000060792071206820F00400206020792B4944
:1019100001EBC0072379A4F184042A4641463846E6
:10192000FEF71DFD00BFD4E770B506460D46FFF774
:10193000B2F80DB1062D05D9B5F1FF3F02D0FFF782
:10194000C8F870BDB5F1FF3F08D1002403E01F487F
:1019500040F82460641C082CF9D302E01B4840F8CE
:101960002560002404E00020164941F82400641C8E
:10197000082CF8D3FFF7ADF800BFE2E700201449C8
:1019800008601449086014490860704710490860ED
:10199000704700200E49086070470E490860704784
:1019A00000200C49086070470B4908607047002010
:1019B00009490860704700001C0000208C000020CE
:1019C0000C000020F000002038000020D000002093
:1019D0004000002044000020480000202DE9F04194
:1019E00005460E46174606F06000202806D006F091
:1019F0006000402802D00020BDE8F08175B9FFF7F3
:101A00004AF8502002F038FC04461CB9FFF761F890
:101A10000020F1E7FFF75DF8254600E000242846A6
:101A2000FEF76DFE6E64AF64EC642846E4E72DE9D2
:101A3000F04704460E469046994614B90120BDE889
:101A4000F08708F00F0001280DD008F00F000428DF
:101A500009D008F00F00022805D008F00F00082870
:101A600001D00120EBE7FFF701F820B9B9F1000F31
:101A700001D00120E3E708F01000102803D101276E
:101A800028F0100800E00027FFF705F8B8F1010F73
:101A900073D0B8F1020F6ED0B8F1040F03D0B8F1D3
:101AA000080F69D133E0A06C00EA0605B54208D101
:101AB000012F02D1A06CA843A064FFF70AF8002010
:101AC000BDE7B9F1000F03D1FFF703F80320B6E734
:101AD0004B46424631462046FFF732FE012803D1ED
:101AE000FEF7F7FF0120AAE7FEF7F3FFFEF7C8FFB6
:101AF000C3480068D0F8900020B9012F02D1A06C33
:101B0000B043A064BE480068D0F8900097E7A06C8E
:101B100000EA060545B1012F02D1A06CA843A064DC
:101B2000FEF7D7FF00208AE7B9F1000F03D1FEF7D7
:101B3000D0FF032083E74B46424631462046FFF75D
:101B4000FFFD012803D1FEF7C4FF012077E7FEF770
:101B5000C0FFFEF795FFAA480068D0F8900020B9B2
:101B6000012F02D1A06CB043A064A5480068D0F852
:101B7000900064E701E034E066E0A06C26EA00052E
:101B8000B54208D1012F02D1A06C2843A064FEF712
:101B9000A0FF002053E7B9F1000F03D1FEF799FF32
:101BA00003204CE74B46424631462046FFF7C8FD2E
:101BB000012803D1FEF78DFF012040E7FEF789FFE2
:101BC000FEF75EFF8E480068D0F8900020B9012F24
:101BD00002D1A06C3043A06489480068D0F890001E
:101BE0002DE7A06C26EA000545B1012F02D1A06CBB
:101BF0002843A064FEF76DFF002020E7B9F1000F35
:101C000003D1FEF766FF032019E74B4642463146F3
:101C10002046FFF795FD012803D1FEF75AFF01206A
:101C20000DE7FEF756FFFEF72BFF75480068D0F86A
:101C3000900020B9012F02D1A06C3043A0647048FD
:101C40000068D0F89000FAE6FEF743FF0120F6E6C0
:101C50002DE9F05F05460F46164615B90120BDE88F
:101C6000F09F16F0010F04D016F0010F01D10120F2
:101C7000F5E7FEF710FF16B1012E08D103E0A86CBE
:101C8000B843A86407E0A86C3843A86403E0FEF7F3
:101C900020FF0120E3E700BF2846FEF759FD044678
:101CA000E4B32046FEF7A0FB94F8840010F0010F87
:101CB0000AD004F154084046FEF7B3FBD4F8840080
:101CC00020F00100C4F8840094F88C0020F0080093
:101CD00084F88C00002190200151D4F8840020F079
:101CE0000800C4F8840004F1540894F8889045482A
:101CF00000EBC90A00F1400B4B465A46414650469C
:101D0000FEF72DFB94F88C0040F0020084F88C0064
:101D1000FEF7DFFEFEF7B4FE0020A0E7FFE7FEF7C8
:101D2000D8FE00209BE72DE9F04706460F4616B97E
:101D30000120BDE8F087FEF7AEFE3BE03046FEF73F
:101D4000B2FD0446A4B32046FEF74EFB94F884008F
:101D500010F0010F0AD004F154094846FEF761FB68
:101D6000D4F8840020F00100C4F8840094F88C00BA
:101D700020F0080084F88C0090200751D4F88400EB
:101D800020F00800C4F8840004F1540914F8885FB6
:101D90001C4800EBC50800F1400A2B465246494654
:101DA0004046FEF7DCFA207940F00200207101E0A5
:101DB000FFE700E0C2E700BFFEF78BFE0020B8E7B8
:101DC00010B5044600212046FFF7ADFF10BD10B549
:101DD00004460CB9012010BD04212046FFF7A3FFE3
:101DE00008B10120F7E7E06C40B1FEF754FEE06C6B
:101DF00002F01AFA0020E064FEF76BFE0020EAE72A
:101E00001C0000208C00002070B505462846FEF717
:101E100015FF002409E0C4EBC40205F1080000EB43
:101E200002112846FEF70EFF641C642CF3D370BD2C
:101E300010B55148FFF7E8FF02210020FEF75AFFD6
:101E40004E490860002220211046FFF7C7FD4C498B
:101E500008604C48FFF79AFD4B48FFF79EFD4B4842
:101E6000FFF7A2FD05213220FFF75EFD10BD00B592
:101E700085B0012144F2050000F0ECFF4FF48060D2
:101E8000ADF8100004208DF8130004A9404800F0BC
:101E90002BFD4FF40070ADF8100003208DF81200F8
:101EA00018208DF8130004A9394800F01DFD68467C
:101EB00001F0E4F86946374801F077F80121354828
:101EC00001F0FFF805B000BD10B5FFF7D0FF10BD61
:101ED00010B5044600BF80212E4801F0CDF900283E
:101EE000F9D021462B4801F059F910BD70B50446D0
:101EF000FEF7D1FD2046FEF7B3FE0546FEF7E9FDED
:101F0000284670BD0FB438B51B48FFF7EFFF0446F5
:101F100014B938BC5DF814FB05A8009004F1090061
:101F2000009A049901F008FD0020009004F10900D6
:101F300001F00EFA2072214610480068FEF711FFEA
:101F400000BFE6E770B504460D46002604E03146C2
:101F5000761C605CFFF7BCFFB542F8D870BD70B569
:101F600004460D46FEF797FD29462046FEF76AFE19
:101F7000FEF7AFFD70BD00001001002064000020DE
:101F80006C00002057230008CB2300082124000800
:101F90000008014000380140704700BFFEE700BF65
:101FA000FEE700BFFEE700BFFEE710B504460748A6
:101FB00020400649884201D1FEF74FFD10BD704711
:101FC000704710B5FEF73DF910BD0000011000107C
:101FD0000CB50020019000906B48006840F4803000
:101FE0006949086000BF6848006800F4003000904C
:101FF0000198401C0190009818B90198B0F5704FF5
:10200000F1D16148006810F4003F02D00120009037
:1020100001E0002000900098012842D15B48006850
:1020200040F01000594908600846006820F003009D
:1020300008600846006840F00200086052484068A6
:10204000514948600846406848600846406840F486
:10205000806048600846406820F47C10486008466C
:10206000406840F4E81048600846006840F080701E
:10207000086000BF4448006810F0007FFAD0424872
:10208000406820F00300404948600846406840F03E
:102090000200486000BF3C48406800F00C0008287F
:1020A000F9D10CBD10B5FFF793FF10BD10B5364840
:1020B000006840F00100344908600846406834492F
:1020C00008403149486008460068324908402E49B6
:1020D00008600846006820F48020086008464068D0
:1020E00020F4FE0048604FF41F008860FFF7DAFF1D
:1020F0004FF000602849086010BD10B50021002095
:102100000022214B5B6803F00C0121B1042906D0A9
:10211000082928D107E0214B214C236027E01F4BE1
:102120001F4C236023E0184B5B6803F47010164BC0
:102130005B6803F48032022303EB904022B9194B11
:102140004343174C23600DE00F4B5B6813F4003FD3
:1021500004D0144B4343124C236003E00F4B434322
:102160000F4C236003E00D4B0D4C236000BF00BFFC
:10217000054B5B68C3F303130B4CE15C084B1B6816
:10218000CB40074C236010BD0010024000200240ED
:102190000000FFF8FFFFF6FE08ED00E000127A00F5
:1021A0004C00002000093D005000002070B505469D
:1021B00027E0FEF794FB044621469FA0FFF7A2FE0E
:1021C0004FF0FF3314220321A5480068FFF72FFCCE
:1021D00030B9FEF784FB04462146A2A0FFF792FE29
:1021E000C820FFF79FF9FEF77AFB42F6E0618842CC
:1021F00007D9FEF774FB04462146A2A0FFF782FE32
:1022000000E0D6E700BF70BD70B5054627E0FEF7D9
:1022100066FB04462146A4A0FFF774FE4FF0FF338F
:10222000142203218E480068FFF701FC30B9FEF745
:1022300056FB04462146A6A0FFF764FEC820FFF720
:1022400071F9FEF74CFB42F6E061884207D9FEF7D0
:1022500046FB04462146A6A0FFF754FE00E0D6E761
:1022600000BF70BD10B50446204636F0CBFE10BD51
:1022700070B5054628E0FEF732FB04462146A5A0CE
:10228000FFF740FE40F2DC50FFF7ECFFFEF727FBC4
:1022900004462146AAA0FFF735FE012211467048E8
:1022A0000068FFF7D5FC4FF4C870FFF73BF9FEF765
:1022B00016FBB0F57A5F07D9FEF711FB04462146FD
:1022C000ADA0FFF71FFE00E0D5E700BF70BD70B501
:1022D000054628E0FEF703FB04462146AFA0FFF7C2
:1022E00011FE4FF4FA60FFF7BDFFFEF7F8FA04465F
:1022F0002146B6A0FFF706FE0122022158480068D9
:10230000FFF7A6FC4FF49670FFF70CF9FEF7E7FA1B
:10231000B0F57A5F07D9FEF7E2FA04462146B9A084
:10232000FFF7F0FD00E0D5E700BF70BD08B511E094
:102330004FF0FF326946BC480068FEF726FD48B9F9
:10234000009C217A04F10900FFF7FCFDB7480099D1
:10235000FFF705FEECE770B504464CB1FEF7BFFA97
:1023600005462B462246B2A0E16FFFF7CBFD06E003
:10237000FEF7B5FA05462946B8A0FFF7C3FD70BDC4
:102380002DE9F041FEF7ABFA6421B0FBF1F6BC4851
:102390000068864217D0FFF754FA044609E0A568A2
:1023A0002846FEF73EFC07463A46B6A0E96FFFF71F
:1023B000A9FDFFF746FA07462146FEF793FC040005
:1023C000EDD1AF480660BDE8F08170B504460D461A
:1023D000FFF7D6FFB4480068844202D1FEF788FABE
:1023E0000446B1480068854202D1FEF781FA0546ED
:1023F000A54200D170BD4CB1FEF771FA0646EA6FF6
:102400003346AAA0E16FFFF77DFD07E0FEF767FA0C
:1024100006463246AFA0E96FFFF774FD00BFE9E75B
:1024200070B50446FEF75BFA05462A46B3A0E16F95
:10243000FFF768FD70BD00000D0A5461736B312019
:10244000697320736561726368696E6720666C6189
:102450006721205469636B2069733A20256400006A
:102460006C0000200D0A5461736B31206765747332
:1024700020666C616721205469636B2069733A2080
:10248000256400000D0A5461736B312064656C652E
:10249000746520697473656C6621205469636B20D0
:1024A00069733A20256400000D0A5461736B322071
:1024B000697320736561726368696E6720666C6119
:1024C0006721205469636B2069733A2025640000FA
:1024D0000D0A5461736B32206765747320666C61FA
:1024E0006721205469636B2069733A2025640000DA
:1024F0000D0A5461736B322064656C6574652069E4
:102500007473656C6621205469636B2069733A208B
:10251000256400000D0A5461736B332069732072C7
:10252000656C656173696E67206669727374206299
:10253000697421205469636B2069733A2025640013
:102540000D0A5461736B332072656C656173656449
:10255000206669727374206269742C20736C6565DF
:1025600070696E67206E6F7721205469636B2069F4
:10257000733A2025640000000D0A5461736B332008
:1025800064656C65746520697473656C662120549C
:1025900069636B2069733A20256400000D0A546159
:1025A000736B342069732072656C656173696E6743
:1025B000207365636F6E64206269742120546963BF
:1025C0006B2069733A202564000000000D0A5461F5
:1025D000736B342072656C65617365642073656329
:1025E0006F6E64206269742C20736C656570696E0F
:1025F00067206E6F7721205469636B2069733A20DE
:10260000256400000D0A5461736B342064656C65A9
:10261000746520697473656C6621205469636B204E
:1026200069733A2025640000640000201001002036
:102630000D0A5461736B202573203078253038588B
:102640002069732063726561746564212054696335
:102650006B2069733A202564000000000D0A466172
:10266000696C20746F206372656174652074617396
:102670006B21205469636B2069733A202564000044
:10268000600000200D0A5461736B202573204350B5
:1026900055207574696C697A6174696F6E2069730D
:1026A0002025642525000000680000200D0A5461E3
:1026B000736B202573202D2D2D2D3E205461736BBF
:1026C0002025732021205469636B2069733A2025EB
:1026D000640000000D0A5461736B204E554C4C2071
:1026E0002D2D2D2D3E205461736B2025732021202C
:1026F0005469636B2069733A202564000D0A5461A4
:10270000736B2025732069732064656C6574656440
:1027100021205469636B2069733A2025640000000E
:102720003EB5FDF73BFDFFF783FBFFF7CDFB002038
:1027300003214FF480620346CDE900210290024656
:10274000214922A0FEF74CFE002004210A02034684
:10275000CDE90021029002461E491FA0FEF740FE6F
:10276000002005214FF480620346CDE9002102904C
:1027700002461B491BA0FEF733FE002005214FF443
:1027800080620346CDE9002102900246174918A055
:10279000FEF726FE002006214FF480620346CDE9B5
:1027A000002102900246144914A0FEF719FE1549B3
:1027B0000860FEF794F80446214613A0FFF7A2FB39
:1027C000FDF733FD00203EBDAD2100085461736B61
:1027D00031000000092200085461736B32000000D0
:1027E000712200085461736B33000000CF2200088F
:1027F0005461736B340000002D23000853726C5039
:1028000072740000680000200D0A52454D4958209E
:1028100069732072756E6E696E6721205469636BEF
:102820002069733A2025640010B50446CA488442E2
:1028300008D10121042000F027FB0021042000F032
:1028400023FB46E0C548844208D10121082000F05E
:102850001BFB0021082000F017FB3AE0C04884422F
:1028600008D10121102000F00FFB0021102000F002
:102870000BFB2EE0BB48844208D10121202000F050
:1028800003FB0021202000F0FFFA22E0B64884423A
:1028900008D10121402000F0F7FA0021402000F08B
:1028A000F3FA16E0B148844208D10121802000F0FB
:1028B000EBFA0021802000F0E7FA0AE0AC488442FD
:1028C00007D10121801500F0DFFA0021A01500F0EA
:1028D000DBFA10BD10B50121084600F0D5FA002141
:1028E000012000F0D1FA10BD2DE9F041024600258B
:1028F0000026002000230024002791F803C00CF0DC
:102900000F0591F803C01CF0100F03D091F802C01E
:102910004CEA050591F800C0BCF1000F31D01468F5
:1029200000202BE04FF0010C0CFA00F3B1F800C0CE
:102930000CEA03069E4220D183004FF00F0C0CFAE4
:1029400003F7BC4305FA03FC4CEA040491F803C006
:10295000BCF1280F06D14FF0010C0CFA00FCC2F8B4
:1029600014C00AE091F803C0BCF1480F05D14FF044
:10297000010C0CFA00FCC2F810C0401C0828D1D38E
:102980001460B1F800C0BCF1FF0F34DD54680020C2
:102990002EE000F1080C4FF0010808FA0CF3B1F832
:1029A00000C00CEA03069E4221D183004FF00F0CB9
:1029B0000CFA03F7BC4305FA03FC4CEA040491F853
:1029C00003C0BCF1280F05D100F1080C08FA0CF87F
:1029D000C2F8148091F803C0BCF1480F07D100F190
:1029E000080C4FF0010808FA0CF8C2F81080401CDF
:1029F0000828CED35460BDE8F0814FF6FF71018006
:102A0000022181700421C170704702460020936842
:102A10000B4201D0012000E0002070470146886889
:102A200080B2704702460020D3680B4201D00120DB
:102A300000E0002070470146C86880B2704701611D
:102A40007047416170470AB1016100E04161704720
:102A5000C16070474FF480320A43826181618261B4
:102A600082698269704702460020424B18684FF61F
:102A70008073184040EA021008433E4B18607047CC
:102A80003D49C8617047F0B50A4600230024002183
:102A9000002500F00046B6F1004F02D1354EF16935
:102AA00001E0344E7168C0F3034583B200F4401670
:102AB000B6F5401F08D121F070612E4E766826F0E1
:102AC00070662C4F7E6012E000F48016B6F5801F11
:102AD00006D1032606FA05F4A14341F0706106E031
:102AE000460D360103FA06F6B14341F0706122B19A
:102AF000460D360103FA06F6314300F00046B6F102
:102B0000004F02D11B4EF16101E01A4E7160F0BD21
:102B100030B500228B071C0F0F2303FA04F2154B6C
:102B200008338C1053F824309343124C08348D1022
:102B300044F8253023468C1053F824308C07240F9A
:102B400000FA04F423430B4C08348D1044F825306C
:102B500030BD0A490860704700080140000C014080
:102B6000001001400014014000180140001C014009
:102B7000002001400000014000002042DC00204213
:102B8000DD48006840F00100DB4908600846406805
:102B9000DA490840D849486008460068D8490840E2
:102BA000D54908600846006820F48020086008467F
:102BB000406820F4FE0048604FF41F0088607047B2
:102BC000CD49096821F48031CB4A1160114609686A
:102BD00021F480211160B0F5803F03D0B0F5802F43
:102BE0000ED106E0C449096841F48031C24A11603F
:102BF00007E0C149096841F4A021BF4A116000E023
:102C000000BF00BF704710B501460022002300201E
:102C10004A11012A02D1B84C236806E0022A02D1E7
:102C2000B54C236A01E0B44C636A01F01F02012431
:102C300094401C4201D0012000E0002010BD38B5B6
:102C4000002000900024002500BF3120FFF7DBFFAB
:102C500005460098401C00900098B0F5704F01D0D8
:102C6000002DF2D03120FFF7CEFF08B1012400E0A3
:102C70000024204638BD014600209F4A106820F0FD
:102C8000F80040EAC100106070479E490860704734
:102C900002460020984B586820F47C1042EA010359
:102CA0001843954B5860704796490866704701462F
:102CB0000020914A506820F003000843506070479C
:102CC0008D48406800F00C007047014600208A4A99
:102CD000506820F0F0000843506070470146002023
:102CE000854A506820F4E060084350607047014610
:102CF0000020814A506820F4605040EAC1005060D2
:102D0000704729B17C4A527A02437B4B5A7204E0E5
:102D1000794A527A8243784B5A7270477A490860EE
:102D2000704701460020744A506820F44040084330
:102D3000506070470021754A11706F4A82F8201068
:102D4000012802D0042808D103E001216F4A117044
:102D500004E005216D4A117000E000BF00BF70471C
:102D60006B49086070476449096A0143624A11620D
:102D70007047674944390860704730B50021002228
:102D8000002400235C4D6D6805F00C0121B104297D
:102D900005D0082923D105E05E4D056022E05D4D98
:102DA00005601FE0544D6D6805F47012524D6D685A
:102DB00005F48034022505EB92421CB9564D55436B
:102DC00005600BE04C4D6D6815F4003F03D0524D8B
:102DD0005543056002E04F4D5543056002E04D4DFF
:102DE000056000BF00BF444D6D6805F0F0010909A2
:102DF0004A4D6B5C0568DD4045603F4D6D6805F4EC
:102E0000E061090A454D6B5C4568DD4085603A4DDF
:102E10006D6805F46051C90A404D6B5C4568DD4042
:102E2000C560354D6D6805F44041890B3C4D6B5CC8
:102E3000C568B5FBF3F5056130BD29B12E4A52696D
:102E400002432D4B5A6104E02B4A526982432A4BBC
:102E50005A61704729B1284A92690243264B9A6108
:102E600004E0254A92698243234B9A61704729B155
:102E7000214AD2690243204BDA6104E01E4AD2693A
:102E800082431D4BDA61704729B11B4AD268024365
:102E9000194BDA6004E0184AD2688243164BDA60B4
:102EA000704729B1144A12690243134B1A6104E0B6
:102EB000114A12698243104B1A6170471449403914
:102EC000086070470F49C86470470B49C871704764
:102ED0000948406A40F080700749486270470146DF
:102EE0000020054A92680A4201D0012000E000203B
:102EF0007047014988727047001002400000FFF8D7
:102F0000FFFFF6FE00004242D8004242201002407D
:102F10008004424200127A0000093D007000002047
:102F20008000002010B50446FB48844209D10121ED
:102F30008803FFF7A9FF00214FF48040FFF7A4FFAB
:102F400032E0F648844209D101214804FFF7A9FF85
:102F500000214FF40030FFF7A4FF25E0F048844241
:102F600009D101218804FFF79CFF00214FF4802044
:102F7000FFF797FF18E0EB48844209D10121C8040C
:102F8000FFF78FFF00214FF40020FFF78AFF0BE0CF
:102F9000E548844208D101210805FFF782FF00219E
:102FA0004FF48010FFF77DFF10BD2DE9F04786B08C
:102FB00005460E460024A24600BFA1460027B08960
:102FC00000B100BF2F462C8A4CF6FF700440F088F9
:102FD00004432C82AC894EF6F3100440B08831894A
:102FE0000843718908430443AC81AC8A4FF6FF4023
:102FF0000440B0890443AC8201A8FFF7BEFEC64876
:10300000874202D1DDF810A001E0DDF80CA0A8890C
:1030100010F4004F08D00AEBCA0000EB0A10316828
:103020004900B0FBF1F807E00AEBCA0000EB0A1018
:1030300031688900B0FBF1F86420B8FBF0F00401BE
:103040002009642101FB1089A88910F4004F08D0E1
:10305000322000EBC900B0FBF1F000F007000443A0
:1030600008E0322000EB09106421B0FBF1F000F021
:103070000F0004432C8106B0BDE8F0874FF4E13126
:10308000016000218180C18001810C2141810021EA
:103090008181704710B502460020108A4FF2FF036D
:1030A00018400B884C8823438C882343CC882343C7
:1030B0001843108210BD0021018041808180C180B1
:1030C000704721B1828942F40052828104E08289F2
:1030D0004DF6FF731A4082817047F0B50346002415
:1030E000002600250020A1F510676A3F00D100BF2F
:1030F0001846C1F3421401F01F06012707FA06F52E
:10310000012C01D10C3004E0022C01D1103000E080
:1031100014301AB107682F43076002E00768AF4315
:103120000760F0BD1AB1838A0B43838202E0838A71
:103130008B4383827047028A4FF6F0731A400282F3
:10314000028A0A430282704782894FF2FF731A4053
:10315000828182890A438281704721B1828942F04B
:103160000202828104E082894FF6FD731A40828157
:103170007047028A4FF6DF731A400282028A0A43BE
:103180000282704721B1028A42F48042028204E046
:10319000028A4BF6FF731A4002827047C1F308029D
:1031A0008280704701468888C0F308007047818993
:1031B00041F0010181817047028BD2B20283028B00
:1031C00042EA012202837047028B02F47F420283AB
:1031D000028B0A430283704721B1828A42F02002A7
:1031E000828204E0828A4FF6DF731A40828270473F
:1031F00021B1828A42F01002828204E0828A4FF674
:10320000EF731A408282704721B1828A42F008022D
:10321000828204E0828A4FF6F7731A4082827047F6
:1032200021B1828942F40042828103E08289C2F3A3
:103230000E028281704721B1828A42F4006282824A
:1032400004E0828A4FF2FF731A4082827047828ABA
:103250004FF6FB731A408282828A0A438282704749
:1032600021B1828A42F00202828204E0828A4FF611
:10327000FD731A408282704702460020B1F5007F3C
:1032800000D100BF13880B4201D0012000E00020D4
:10329000704701F40072B2F5007F00D100BFCA434D
:1032A0000280704770B502460024002300250020EC
:1032B000A1F510666A3E00D100BFC1F3421501F0CE
:1032C0001F03012606FA03F3012D02D1968933402C
:1032D00006E0022D02D1168A334001E0968A33407F
:1032E0000C12012606FA04F41688344013B10CB10E
:1032F000012000E0002070BD10B500220023A1F5E0
:1033000010646A3C00D100BF0A1201249440A3B2A9
:10331000DC43048010BD0000003801400044004040
:1033200000480040004C00400050004006488047E4
:1033300006480047FEE7FEE7FEE7FEE7FEE7FEE79A
:10334000FEE7FEE7FEE7FEE7AD20000831010008DA
:10335000421C10F8011B0029FBD1801A704730B5C0
:103360000B46014600202022012409E021FA02F543
:103370009D4205D303FA02F5491B04FA02F52844DD
:10338000151EA2F10102F1DC30BD2DE9F05F05460A
:10339000002092469B4688460646814640241BE014
:1033A000284641464746224600F0F5F953465A461C
:1033B000C01A914110D311461846224600F0DCF99C
:1033C0002D1A67EB01084F4622460120002100F02C
:1033D000D3F917EB00094E41201EA4F10104DFDCF4
:1033E000484631462A464346BDE8F09F2DE9FE4F48
:1033F000804681EA0300C00F0C46009021F0004196
:1034000023F00045B8EB0200A94105D24046214611
:1034100090461C460B46024623F00040104304D160
:103420004046214603B0BDE8F08F270DC7F30A00E0
:10343000C3F30A510290401A0190402866DAC3F3A0
:10344000130040F4801B0098924620B10023D2EB79
:10345000030A63EB0B0B01985946C0F1400250463A
:1034600000F08AF906460D4650465946019A00F08A
:10347000A2F910EB08006141002487EA115284EAA6
:10348000E7731A433BD0009A3AB3019A012A4FEAF4
:10349000075210DC001B61EB02014FF0004202EA10
:1034A0000752CDE90042001C41F5801132462B46FF
:1034B00000F0A0F9B6E7001B61EB0201001C41F52A
:1034C000801300185B412018A2F5001747EB030199
:1034D00040EAD570B6196D4111E06D084FEA360625
:1034E00045EAC0754FEA0752001B61EB0201001C60
:1034F00041F5801149084FEA300000195141324628
:103500002B4603B0BDE8F04F00F067B900980122E8
:1035100040000023D0EB020263EBE07300982146E9
:103520004FEAE074B8EB000061EB0401E9E783F0D7
:1035300000435BE781F0004158E72DE9FE4F81EA47
:10354000030404F0004421F0004100944FF0000B0C
:1035500023F0004350EA010402D052EA030404D1EC
:103560000020014603B0BDE8F08FC3F30A54C1F355
:103570000A552C44A4F2F3340194A0FB0254C1F385
:10358000130141F48011C3F3130343F4801301FBCF
:10359000024400FB034E840A970A44EA815447EA36
:1035A0008357A4FB076802958D0A05FB07854FEA40
:1035B000932C04FB0C542705029D4FEA065847EA5A
:1035C0001637B5EB08056EEB070C870E920E47EA2F
:1035D000811742EA8312A7FB0201B6EB0B0164EBF1
:1035E00000042B0D43EA0C335E1844EB1C50DA4602
:1035F0005146E7FB0201C5F313044FEA0B3343EADC
:1036000014534FEA0432019C43EA0603A4F10C046C
:103610000294009CCDE900B400F0ECF8A2E72DE99B
:10362000F04D81EA030404F0004B21F000451446FC
:103630004FF0000A23F0004150EA050220D054EA7E
:1036400001021DD0C5F30A570246C5F31303C1F3A7
:103650001300C1F30A5640F4801543F48013A7EB1E
:103660000608101BD64608F2FD3873EB050002D39E
:1036700008F1010801E092185B41B8F1000F03DA8C
:1036800000200146BDE8F08D00204FF48011064671
:1036900084460EE0171B73EB050705D3121B63EB83
:1036A000050306434CEA010C49084FEA3000921822
:1036B0005B4150EA0107EDD152EA030012D082EAE1
:1036C000040083EA0501084303D100224FF00043C0
:1036D00008E0101BAB4102D20122002302E06FF090
:1036E000010253101AEB06004CEB085110EB0A00D4
:1036F00041EB0B01BDE8F04D00F06FB8C1F30A5289
:10370000C1F3130140F2FF3341F480119A4202DA0F
:1037100000200146704740F233439A42A2F23342FE
:1037200002DC524200F037B800F026B830B500296C
:1037300004DB4FF00044404264EB0101002B04DB4A
:103740004FF00044524264EB0303994208BF904299
:1037500030BD0000064C074D06E0E06840F0010374
:1037600094E8070098471034AC42F6D3FCF7E4FC29
:10377000E442000804430008202A04DB203A00FA4F
:1037800002F1002070479140C2F1200320FA03F3B8
:10379000194390407047202A04DB203A21FA02F0B6
:1037A0000021704721FA02F3D040C2F1200291407B
:1037B000084319467047202A06DBCB17203A41FA06
:1037C00002F043EAE07306E041FA02F3D040C2F1AE
:1037D0002002914008431946704710B5002B08DAC3
:1037E000401C41F1000192185B411A4301D120F0C5
:1037F000010010BD2DE9F04D92469B4611B1B1FA82
:1038000081F202E0B0FA80F220329046FFF7B4FF76
:1038100004460F4640EA0A0041EA0B0153465A4665
:10382000084303D120463946BDE8F08D114653EADE
:10383000010015D0C8F140025046FFF7ACFF054625
:103840000E46504659464246FFF796FF084301D0C0
:10385000012000E00020054346EAE0762C43374390
:103860000A984FEA4453A0EB08004FEAD4240A30E8
:103870004FF0000244EA47544FEAD72502D5002012
:103880000146D1E7010510196941DDE90845001934
:103890006941BDE8F04DA0E790FAA0F0B0FA80F0E1
:1038A000704700B521480FF2050E0047EE4620484C
:1038B000D0F800C0604690B10EF1040EBEE80F00D3
:1038C000ACE8FF0F9EE80F00AEF1100E4CF8040BB1
:1038D0004CF804EBACE80E0001BCCCF80000154835
:1038E000016801F11001B1E8F00F01F10401D1F814
:1038F00000D001F11001086800470E48D0F800D050
:1039000010B001BC80F3038882B000988FB04DF8EE
:10391000040CBDE8FF1F01B05DF804EB90B000BDE2
:1039200000DF7047EFF30380704700000F050008C9
:10393000140000201800002037B514460846064B36
:103940006A46214600F0C8F804466946002000F0A7
:1039500066FC20463EBD00001F42000802E008C889
:10396000121F08C1002AFAD170477047002001E0F9
:1039700001C1121F002AFBD1704700002DE9FF5F33
:10398000DDE90220010DDDF838B0024310D10F98B7
:1039900001244CA2012808D0002100980F9BC0E907
:1039A0000021C0E90243BDE8FF9F6FEA0B01F4E785
:1039B000A1F2FF3144F6105041430D140F98012835
:1039C0000ED0A5EB0B00401C4FF000043E4EDFF87C
:1039D000FC90B0F1000AA04605DACAF1000717E032
:1039E000CBF10000F0E7074612E0F80707D02246C7
:1039F000334640464946FFF7A0FD804689462246A9
:103A0000334610461946FFF798FD04460E467F10D0
:103A1000002FEAD1DDE90201BAF1000F42464B4620
:103A200002DAFFF78AFD01E0FFF7F9FD04460E46D2
:103A30000022274BFFF77AFE03D84FF0FF300146F4
:103A400007E00022234B20463146FFF7CFFCFFF76B
:103A500055FE102409E0002C0ADB0A220023FFF7A0
:103A600094FC019B30321A55641E50EA0102F2D1D7
:103A7000641C019AC4F1110314440F9A012A09D05D
:103A80000122084301D15B450FDD4FF0000205F133
:103A900001050DE0084303D1A3EB0B056D1E09E002
:103AA00000204FF0110B0F9088E701DA00226D1E05
:103AB000002A83D000980F99C0E90231C0E900457F
:103AC00071E7000030000000000024400000F03FDB
:103AD0000000F0430000E03F2DE9FF4F95B09B460A
:103AE00089460646002512E2252878D10024761C56
:103AF000F94A2746012105943378203B01FA03F067
:103B0000104202D00443761CF6E730782A2811D000
:103B10006FF02F033078A0F13002092A16D8059AE9
:103B200044F0020402EB820203EB42021044761CD2
:103B30000590EFE759F8042B0592002A03DA50426A
:103B400044F40054059044F00204761C30782E288A
:103B500016D116F8010F44F004042A280DD06FF096
:103B60002F023078A0F13003092B09D807EB870327
:103B700002EB4303C718761CF3E759F8047B761C65
:103B800030786C280FD006DC4C2817D068280DD070
:103B90006A2814D104E0742810D07A280FD10DE0DF
:103BA00044F400140AE044F4801401E044F44014A6
:103BB0007278824202D1761C04F58014761C30782B
:103BC00066280BD013DC582877D009DC002875D084
:103BD0004528F6D04628F4D047281AD19FE118E0AE
:103BE000632835D0642879D0652812D197E17028F0
:103BF00073D008DC6728F1D069286FD06E280DD00B
:103C00006F2806D1B5E073282CD0752875D0782898
:103C100074D05A46179990476D1C76E1C4F3025050
:103C2000022809D003280DD0D9F8001004280DD09F
:103C30000D6009F1040968E1D9F80010EA17C1E93B
:103C40000052F6E7D9F800100D80F2E70D70F0E7AA
:103C500019F8041B8DF8001000208DF80100EA46C9
:103C6000012003E059F804AB4FF0FF3061074FF03B
:103C7000000102D40DE008F101018846B9420FDAD3
:103C80008045F8DB1AF808100029F4D108E008F1A3
:103C9000010188468142FADB1AF808100029F6D1A2
:103CA00005985B46A0EB080721463846179A00F0B6
:103CB0009EFA284400EB080507E04DE02BE10DE0FB
:103CC0001AF8010B5A4617999047B8F10108F7D234
:103CD0005B4621463846179A14E142E00A220092D8
:103CE000C4F302524FF0000A022A08D059F804CB5C
:103CF000032A4FEAEC710AD00DE029E02AE009F12D
:103D0000070121F00702F2E802C1914609E00FFA2B
:103D10008CFC4FEAEC71042A03D14FFA8CFC4FEA79
:103D2000EC71002907DA0A460021DCF1000C61EB96
:103D300002012D2202E0220504D52B228DF8042059
:103D4000012203E0E20701D02022F7E7904653E08A
:103D50000A2102E010220DE010214FF0000A00912C
:103D60000BE010224FF0000A44F0040408270092F0
:103D700003E008224FF0000A0092C4F30252022A24
:103D800005D059F804CB0021032A08D009E009F135
:103D9000070121F00702F2E802C1914605E01FFA8F
:103DA0008CFC042A01D10CF0FF0C4FF00008220714
:103DB00022D5702827D0009B83F0100353EA0A0312
:103DC00009D15CEA010206D030228DF804208DF87A
:103DD000050002229046009B83F0080353EA0A0381
:103DE0000AD15CEA010201D1620705D530228DF8C3
:103DF00004204FF001087F1E582809D037A00390F7
:103E00000EA8029013E040228DF804200122E1E781
:103E100037A0F4E753466046009AFFF7B6FA8446A7
:103E20000398825C0298A0F10100029002705CEAA3
:103E30000100EFD1029806A9A1EB000000F1200AD1
:103E4000600702D524F4803400E00127574502DDE5
:103E5000A7EB0A0000E0002000EB0A0100900598A3
:103E60004144A0EB01000590E00306D45B462146E7
:103E7000179A059800F0BBF90544002706E001A851
:103E80005A46C05D179990476D1C7F1C4745F6DB6D
:103E9000E0030CD55B462146179A059800F0A7F978
:103EA000054404E030205A46179990476D1C00994C
:103EB000481E00900029F5DC08E0029802995A4655
:103EC0000078491C0291179990476D1CBAF10001C6
:103ED000AAF1010AF1DC6BE109280100303132332B
:103EE0003435363738396162636465660000000036
:103EF0003031323334353637383941424344454620
:103F00000000000000F060F9054406F10106307879
:103F100000287FF4E9AD19B02846BDE8F08F6207AC
:103F200000D4062709F1070222F0070CFCE802235F
:103F3000E14603F000485FEA080C02D00FF27C2C47
:103F40000DE05FEA045C02D50FF2742C07E05FEA33
:103F5000C47C02D00FF26C2C01E0AFF2700C4FF079
:103F6000FF3823F00043CDF850C065280CD006DCA4
:103F7000452809D046281DD047283ED13EE0662876
:103F800018D0672839D139E00021112F01DB112029
:103F900000E0781CCDE9000106A90EA8FFF7EEFCB1
:103FA000DDE90F010E9A03910021009207F1010A49
:103FB00004914EE04FF000400097CDE9011006A9B2
:103FC0000EA8FFF7DBFCDDE90F0203920E9B1199AF
:103FD0000022DDF80CA00093049219B907F1010149
:103FE00000EB010AB7EB0A0004D4C0F1FF3007F17F
:103FF000010A0490AAEB0700019046E0012F00DAC5
:1040000001270021112F01DD112000E03846CDE904
:10401000000106A90EA8FFF7B1FCDDE90F010E9A19
:104020000391002104910092BA4621070CD4039910
:10403000514500DA8A46BAF1010F05DD009AAAF16E
:104040000101515C302908D0B84202DA10F1040FA6
:1040500006DA0121CDE9011017E0AAF10101E9E733
:10406000002805DC049901440491AAEB000102E058
:10407000411C514500DD8A460499A0EB010000F186
:10408000010001904FF000400290200704D40198F5
:10409000504501DBCDF8048000208DF84F000298D8
:1040A0000DF14F07B0F1004F25D02B200E90029854
:1040B0004FF0020800280CDA404202902D200E90AA
:1040C00007E00A210298FFF74AF93031029007F819
:1040D000011DB8F10001A8F10108F2DC02980028E6
:1040E000EFD1791E0E980870307800F0200040F073
:1040F000450007F8020D12A8A0EB070000F1070821
:104100001498007800B1012000EB0A01019801EB3E
:10411000E07105984144A0EB0100A0F10100059079
:10412000E00306D45B462146179A059800F05FF835
:1041300005441498007820B15A461799904705F124
:104140000105E00323D55B462146179A059800F048
:104150004EF805441BE00498002807DBDDE9030165
:10416000884203DD0098405C179901E017993020E0
:104170005A46904704986D1C401C04900198401EBC
:10418000019004D12E205A46179990476D1CBAF120
:104190000001AAF1010ADEDC05E017F8010B5A461E
:1041A000179990476D1CB8F10001A8F10108F4DCE3
:1041B0005B462146179A0598A4E600002D000000F2
:1041C0002B000000200000002DE9F04104460025EE
:1041D0001E461746880405D406E039462020B0471D
:1041E00005F10105641EF8D52846BDE8F0812DE9EA
:1041F000F041044600251E469046C80301D53027ED
:1042000000E02027880405D506E041463846B0473F
:1042100005F10105641EF8D52846BDE8F0810A685D
:10422000531C0B601070704710B5002821D0114B43
:10423000001F0022196803E0814203D80A4649683A
:104240000029F9D152B11368841A9C4204D1006844
:1042500018441060104602E0506000E0186039B168
:1042600002680B1A934203D10B681A440260496832
:10427000416010BD84000020F0B50B30154D20F0DA
:1042800007010024144A0FE003688B420BD38B42D2
:1042900005D95E1A43184768C3E9006700E0436820
:1042A000136002C004E0021D10680028ECD1204613
:1042B000002802D1286808B10020F0BD064A07484E
:1042C0001060074A121A22F00702C0E900240120F8
:1042D0002860D7E78800002084000020DC2C002024
:1042E000D86C002004430008000000208C0000006F
:1042F0005C390008904300088C0000204C6E0000E0
:104300006C39000800000000000000000000000000
:10431000000000000000000000000000000000009D
:10432000000000000000000000000000000000008D
:10433000000000000000000000000000000000007D
:10434000000000000000000000000000000000006D
:1043500000A24A0400000000000000000102030463
:10436000060708090000000000000000000000002F
:104370000000000000000000010203040102030429
:1043800006070809020406080000000000000000FB
:020000040803EF
:1090040041F2A45300FB03F2002100BF914200D1BE
:0C90140001E0491CFAE700BF70470000B3
:0400000508000131BD
:00000001FF
