:020000040800F2
:10000000186F0020712E0008B9180008BB180008EE
:10001000BF180008C3180008C71800080000000037
:10002000000000000000000000000000CB180008E5
:10003000DF180008000000009D460008E3180008D3
:100040008B2E00088B2E00088B2E00088B2E0008AC
:100050008B2E00088B2E00088B2E00088B2E00089C
:100060008B2E00088B2E00088B2E00088B2E00088C
:100070008B2E00088B2E00088B2E00088B2E00087C
:100080008B2E00088B2E00088B2E00088B2E00086C
:100090008B2E00088B2E00088B2E00088B2E00085C
:1000A0008B2E00088B2E00088B2E00088B2E00084C
:1000B0008B2E00088B2E00088B2E00088B2E00083C
:1000C0008B2E00088B2E00088B2E00088B2E00082C
:1000D0008B2E00088B2E00088B2E00088B2E00081C
:1000E0008B2E00088B2E00088B2E00088B2E00080C
:1000F0008B2E00088B2E00088B2E00088B2E0008FC
:100100008B2E00088B2E00088B2E00088B2E0008EB
:100110008B2E00088B2E00088B2E00088B2E0008DB
:100120008B2E00088B2E00088B2E00088B2E0008CB
:1001300000F002F800F094F80AA090E8000C824465
:100140008344AAF10107DA4501D100F089F8AFF242
:10015000090EBAE80F0013F0010F18BFFB1A43F0A5
:10016000010318473848000058480000103A24BFDF
:1001700078C878C1FAD8520724BF30C830C144BF0C
:1001800004680C607047000000230024002500264E
:10019000103A28BF78C1FBD8520728BF30C148BFEA
:1001A0000B6070476E2902F0FF87702903F04881C9
:1001B000662904F00583652904F00283672904F0A9
:1001C000FF826129AFF3008003681B0A28BF41F05A
:1001D0008001692902F0AC87642902F0A98775299A
:1001E00002F0A6876F2903F0D380782903F01481E9
:1001F000E92903F06B80E42903F06880F52903F016
:100200006580EF2903F0D080F82903F0138103689B
:10021000DB0928BF41F08001632903F0BC84732906
:1002200003F0C184E32903F0CC84F32903F0D184E3
:10023000002070471FB59DE8030002F0DFFE03F0C9
:1002400021FD04000020002104F0A4FA401C60609D
:100250000020002104F088FAE0601FBD10B510BD39
:1002600003F0E3FC1146FFF7E5FF02F009F803F0A5
:10027000BFFD03B4FFF7F2FF03BC03F0EDFD000088
:1002800000BFFEE7F7490860704700B5024600204E
:10029000F54908600120FFF7F5FF00BD10B5F348F0
:1002A00000F024FC10BD70B50446002504E004EB0A
:1002B000C50000F01BFC6D1C082DF8D3002084F84D
:1002C000400070BD10B5EA48FFF7EDFF10BD10B556
:1002D000E84800F00BFC10BD0EB50020FFF7D2FF80
:1002E0000120E14908600020E3490860E349086013
:1002F000E3490860E3490860E3490870E34908609E
:1003000001F0E8F9002001F0D3F90020E04908608D
:10031000FFF7DDFFFFF7D6FFFFF7C0FF0020012149
:100320004FF416720346CDE9002102900246AFF267
:10033000A501D8A000F099FFD1490860002007214D
:100340004FF416720346CDE9002102900246AFF247
:10035000CF01D2A000F089FFC849086000F0D0FAB0
:100360000EBD10B5C6480068CE490860C448006894
:10037000C149086004F0BEF910BD10B5C14800685D
:10038000401CC04908600120BF490870C04800688F
:10039000401CBF490860C448006888B1B64800687E
:1003A00070B1B548006890F87C00C04951F8200051
:1003B000401CB149096891F87C10BC4A42F8210000
:1003C00000F0B1FA10BD01460878B94A105C7047D8
:1003D0002DE9F047A6484030FFF7F5FF8146A448D5
:1003E00000EBC908404600F0D2FB05462F46BE6828
:1003F000AD48006828B3A0480068B04221D19E48AB
:10040000006890F87C00A94951F82000A6490968C5
:10041000884216D300209849096891F87C10A34AB5
:1004200042F821002946404600F0B4FB044644B19E
:10043000404600F06DFB2946404600F05BFB274636
:10044000BE683046BDE8F087027801238B40DBB2FE
:100450001A43027070472DE9F04106460F461446D4
:100460001D463946304600F045FB29462046FFF739
:10047000EBFFBDE8F0812DE9F04104460D4616463C
:100480001F463B46324629462046FFF7E4FFBDE8BB
:10049000F081027801238B409A43027070472DE966
:1004A000F04106460C461546304600F031FB074643
:1004B000304600F06CFB18B929462046FFF7E9FFEB
:1004C0003846BDE8F0812DE9F0410546EC6E94F820
:1004D000480000F0030002280CD195F87C7004EB72
:1004E000C70604F140083A4641463046FFF7D7FFB9
:1004F000BDE8F08104F13806304600F009FBF7E76B
:1005000010B504462146594800F027FB10BD2DE9DF
:10051000F84F564800F03BFB0546002D4FD04CE00D
:10052000AA46DAF80840D4F888B0564800688345EF
:1005300042D12846FFF7E4FF0646A06F20F00100F5
:10054000A06794F8800000F00400042809D194F812
:10055000800020F0040084F88000022184200151F2
:1005600011E094F8800000F0080008280BD1204624
:10057000FFF7A9FF94F8800020F0080084F88000BD
:1005800002218420015104F1540914F87C7F384879
:1005900000EBC708403000903B4649464046009A71
:1005A000FFF769FF207940F002002071A4F17C047C
:1005B00006B903E0354600E000E0B1E700BFBDE862
:1005C000F88F10B530480078012804D100202E495A
:1005D0000870FFF79CFFFFF7FBFE04462146264804
:1005E000006800F030FA3348006828B121462248FC
:1005F0000068304A126890471F48006820B11E48C2
:1006000000682D49086002E000202B490860254859
:1006100004601948046010BD10B504462146154811
:1006200000F068FA10BD10B504462146114800F0EC
:1006300094FA10BD70B504460D461646324629465A
:100640002046FFF72CFF70BD2DE9F0470446074810
:1006500000F09DFA07468FB3A146D9F80800D0F8FC
:1006600088505BE0280000200000002004000020EB
:100670008C000020380000201C00002024000020F6
:10068000200000200C000020100000202C00002082
:1006900034000020524F4F540000000049646C6544
:1006A000000000001800002040000020D0000020C2
:1006B000C447000848000020140000202FE0B9467D
:1006C000D9F80800D0F8886043480068A84201D2F1
:1006D000B5420DD3B54203D23F480068864207D3E6
:1006E0003D48006886420AD23B480068A84206D2CC
:1006F00022463946394800F01EFABDE8F0873946EF
:10070000364800F047FA8046B8F1000F01D047465E
:1007100004E02146314800F0EDF9EEE7CFE721464D
:100720002E4800F0E7F900BFE7E710B50446204681
:10073000FFF7B9FD10BD2DE9F04705460C4694F8CA
:10074000480000F0030002280ED195F87C8005F1E6
:10075000600704EBC80604F1400943464A4639469F
:100760003046FFF778FE07E004F1380605F1600730
:100770003946304600F0BEF9EC66BDE8F0872DE959
:10078000F041054695F8480000F00300022805D125
:1007900005F14000FFF717FE064600E0072605EBCF
:1007A000C60000F0F4F9044614B90020BDE8F08159
:1007B0002746B868FAE708480068704708480068A4
:1007C0007047084800687047074800687047074846
:1007D0000068704706A070470C000020040000204D
:1007E0001C00002020000020240000202800002001
:1007F0003030312E3030312E3030312E303031002B
:1008000010B5002807DA0A07140E744A00F00F0327
:100810001B1FD45403E00A07130E714A135410BD72
:100820002DE9F04104460F4690462546C5F8008064
:1008300000206860A860E86028616861A861E861DC
:1008400028626862A862E8622863A4F120006863F5
:100850006448A863EF634FF0807028646FF006006F
:100860006864204600F0C6F82646301F0646296C0C
:100870000160301F0646E96B0160301F0646A96B18
:100880000160301F0646296B0160301F0646E9688B
:100890000160301F0646A9680160301F064669687E
:1008A0000160301F064629680160BDE8F08110B57F
:1008B0000E216FF00100FFF7A3FF10BD10B54A48ED
:1008C00000686421B0FBF1F4B4F1807F00D311E043
:1008D00024F07F40401E4FF0E02148610F214FF08F
:1008E000FF30FFF78DFF00204FF0E02188610720E7
:1008F000086100BF0C214FF0FF30FFF781FF10BDF2
:1009000010B5FFF7DBFFFFF7D2FF10BD014600BFB8
:10091000EFF31482104620F001000843024682F3F0
:10092000148800BF70472D481438006840F080508C
:100930002A4914390860704710B503F0F0FEC0056D
:10094000C00D01D0002010BD0120FCE710B5FFF75D
:10095000F3FF18B1254803F0E0FE01E0FFF7E3FFE5
:1009600010BD10B5FFF7E8FF08B9012010BD204801
:10097000006838B972B61E480068401C1C490860FF
:100980000020F3E71A480068401C06D018480068A9
:10099000401C174908600020E8E70120E6E710B591
:1009A000FFF7CAFF08B9012010BD114800680128EF
:1009B00006D90F480068401E0D4908600020F3E783
:1009C0000B480068012807D109480068401E084903
:1009D000086062B60020E7E70120E5E718ED00E0D7
:1009E00000E400E0A11300085000002001100010F6
:1009F0002C000020436FDB1C23F00302002103E0E6
:100A00004FF0CC335350091D831A8B42F8D87047EE
:100A100001464B6FDB1C23F00302002005E0135856
:100A2000B3F1CC3F00D003E0001D8B1A8342F6D80F
:100A300000BF70470021C0F88C10002290210A509E
:100A400094210A5070472DE9F041044688464FF042
:100A5000E0208769C4B121480068214909688842BB
:100A600008D190200059D4F88C10C91B0144902063
:100A7000015109E090200159D4F88C0000F18070F8
:100A8000C01B0144902001511548006813490860BB
:100A9000C8F88C7013480068642818D1124E0EE014
:100AA000B5689020405900F50000000E64214843CD
:100AB000B0FBF1F194204151002190204151314689
:100AC000094800F067F80600EAD106490860BDE869
:100AD000F08101469420405870470000300000200B
:100AE0000C000020340000203800002000210160AC
:100AF00041607047426832B102680A60486002682B
:100B00005160016003E00860486001604160704727
:100B100001464A686AB1D1E90003984204D050689E
:100B200048605068016002E000200860486010469C
:100B300070470020FCE730B505460B4614469D4241
:100B400006D0186844601868206063601C6003E089
:100B500021462846FFF7CEFF30BD30B505460C468E
:100B6000A54212D02068A84202D16068A84207D0EE
:100B7000D4E900104860D4E900010860606830BD25
:100B80002846FFF7C5FF0020F9E70020F7E70146F8
:100B90004868704702464868904201D1002070477B
:100BA0004868FCE770B506460D4605F003000128CD
:100BB00005D005F00300022801D0002070BD35F0FB
:100BC000030001D00020F9E776B9FFF7CAFE6020E4
:100BD00002F06EF904461CB9FFF7E1FE0020EDE7D4
:100BE000FFF7DDFE264600E000243046FFF77EFFDB
:100BF000F46545F00801002206F1080000F056F8FF
:100C000008B13046DAE714B1204602F080F900203E
:100C1000D4E770B504460D4604B10DB9012070BD8E
:100C2000FFF79FFE29462046FFF764FFFFF7B7FE58
:100C300004F1080000F078F9F1E72DE9F0410446ED
:100C40000D46174604B115B90120BDE8F0813946BB
:100C500004F1080000F080F806460EB13046F4E7D3
:100C6000FFF77FFE2046FFF753FF8046FFF797FE12
:100C7000C5F800800020E8E710B504460CB9012053
:100C800010BD042104F1080000F0FBF908B10120B7
:100C9000F6E7E06D40B1FFF764FEE06D02F037F972
:100CA0000020E065FFF77BFE0020E9E72DE9F04139
:100CB00005460C46174604F01C00042807D004F033
:100CC0001C00082803D004F01C00102813D104F0E5
:100CD0000300012803D004F0030002280BD104F024
:100CE0001C00102803D104F00300022806D004F0F1
:100CF0002000202802D10020BDE8F08104F01C0073
:100D0000042805D16FB1B7F1FF3F0AD00020F3E707
:100D100004F01C00102804D1B7F1FF3F01D00020DF
:100D2000EAE775B9FFF71DFE542002F0C1F8064648
:100D30001EB9FFF734FE0020DEE7FFF730FE354630
:100D400000E000262846FFF7F0FC6F64AC64EE6418
:100D5000002028652846CFE770B504460D460CB93B
:100D6000012070BDFFF7E8FD50B994F8480000F08D
:100D70001C00102801D10120F3E70DB10120F0E79C
:100D8000FFF7EFFD002D4AD194F8480000F01C0059
:100D900004280DD1606CB0F1FF3F05D100206064E4
:100DA000FFF7FDFD0020DCE7FFF7F9FD0320D8E7A2
:100DB00094F8480000F01C0008280CD1606C30B199
:100DC000606C401E6064FFF7EAFD0020C9E7FFF792
:100DD000E6FD0320C5E7606CB0F1FF3F09D1E348B1
:100DE00000682065606C401E6064FFF7D8FD00203D
:100DF000B7E7DE49206D096888420CD1606C30B1DC
:100E0000606C401E6064FFF7CAFD0020A9E7FFF791
:100E1000C6FD0520A5E7FFF7C2FD0320A1E794F872
:100E2000480000F01C0004281CD1606CB0F1FF3FAA
:100E300005D100206064FFF7B2FD002091E729464C
:100E4000204600F059FB012803D1FFF7A8FD01203F
:100E500087E7FFF7A4FDFFF779FDC4480068D0F8E5
:100E600084007EE794F8480000F01C0008281BD19D
:100E7000606C30B1606C401E6064FFF790FD002034
:100E80006FE72946204600F037FB012803D1FFF722
:100E900086FD012065E7FFF782FDFFF757FDB348A8
:100EA0000068D0F884005CE7606CB0F1FF3F09D1C6
:100EB000AE4800682065606C401E6064FFF76FFDFF
:100EC00000204EE7A949206D096888420CD1606C6A
:100ED00030B1606C401E6064FFF761FD002040E7A8
:100EE000FFF75DFD05203CE794F8480000F0200086
:100EF000202806D19D4A126892F87C10206D00F0DF
:100F000055FB2946204600F0F7FA012803D1FFF7E8
:100F100046FD012025E7FFF742FDFFF717FD934847
:100F20000068D0F884001CE72DE9F05F044614B98E
:100F30000120BDE8F09FFFF7FFFC38B994F84800A6
:100F400000F01C00102801D10120F2E74FF0000B47
:100F5000FFF707FD94F8480000F01C00042805D1B5
:100F6000606C08B9012629E0002627E094F84800C3
:100F700000F01C0008280ED1606C08B901261DE0A5
:100F80000026606CB0F1FF3F03D0606C401C6064D1
:100F900014E00220CDE77549206D0968884203D02E
:100FA000FFF7FDFC0120C4E7606C401C6064606CCE
:100FB000B0F1FF3F01D0002600E00126012E5CD1F8
:100FC0006A48006800F045FB2046FFF7D8FB05465D
:100FD000EDB32846FFF777FA95F8780010F0010F87
:100FE00008D005F154073846FFF78AFAA86F20F0B9
:100FF0000100A86795F8800020F0080085F88000BF
:1010000000218420415105F1540795F87C8058480F
:1010100000EBC80900F1400A4346524639464846AB
:10102000FFF729FA95F8800040F0020085F880006B
:1010300094F8480000F01C00102803D12565606C6E
:10104000401E6064FFF7ABFCFFF780FC15E0FFE794
:1010500094F8480000F01C00042802D1401F60648E
:101060000BE094F8480000F01C00082803D1606CE5
:10107000401C606401E000202065FFF790FC5846AA
:1010800057E72DE9F04705460F4615B90120BDE8A1
:10109000F08795F8480000F01C00102801D10120CD
:1010A000F5E7FFF75EFC32E02846FFF768FB0446F1
:1010B00064B32046FFF707FA94F8780010F0010FA8
:1010C00008D004F154094846FFF71AFAA06F20F03F
:1010D0000100A06794F8800020F0080084F88000E8
:1010E0008420075104F1540914F87C6F204800EB68
:1010F000C60800F1400A3346524649464046FFF7CB
:10110000BAF9207940F00200207100E000E0CBE75E
:1011100000BF00206864FFF742FC0020B7E710B56D
:10112000044600212046FFF7ACFF10BD10B5044671
:101130000CB9012010BD94F8480000F01C001028E4
:1011400006D004212046FFF79CFF08B10120F1E7FB
:10115000E06C40B1FFF705FCE06C01F0D8FE002028
:10116000E064FFF71CFC0020E4E700001C00002006
:101170008C0000202DE9FF4F83B082461D46DDE93B
:1011800010B7129EFFF7EDFB6DB9584601F090FEC7
:1011900005462DB9FFF703FC002007B0BDE8F08F2E
:1011A0004FF0020901E04FF0000905EB0B0020F0C1
:1011B000030000900098983820F0070465672046E7
:1011C000DDE90412FFF72CFB04F14800FFF724FAD5
:1011D0002046FFF72FFC0020A067A06F40EA09001F
:1011E000A0672465E465A466C4F870A084F87C70E8
:1011F0001EB9022084F8800005E0307884F8800071
:1012000084207168015194F8800000F002000228E7
:101210000ED1FE4800EBC700029004F15408FB48D1
:10122000403001903B464146DDE90120FFF723F9BC
:1012300094F8800000F00400042812D17068B0F126
:10124000FF3F0ED0F249706809680844C4F888006E
:1012500004F154084046FFF7F7F9A06F40F0010091
:10126000A067FFF79CFB204697E72DE9FE4F8146DC
:101270000F4692469B46DDE90C840E9D17B900206F
:10128000BDE8FE8FB8F1000F01D10020F8E73DB1B5
:101290002878022804D02878042801D00020EFE71D
:1012A000FFF795FA18B9072C07DD0020E8E7012CB5
:1012B00001DB062C01DD0020E2E75B4652463946A1
:1012C0004846CDE900840295FFF754FF06460EB963
:1012D0000020D5E7CF48006840B9CF48006818B172
:1012E0003046CD4909688847FFF730FB3046C7E7ED
:1012F0002DE9F047044614B90120BDE8F087C7483E
:101300000068A04201D10120F7E7FFF72AFBC4489B
:10131000006818B12046C2490968884794F880508F
:1013200005F0020002280BD194F87C60B74800EB6E
:10133000C60700F14009324649463846FFF77AF9B8
:1013400005F00400042804D104F154084046FFF7D6
:10135000D7F805F00800082802D12046FFF7B3F8B7
:1013600004F14800FFF75FF9AE480068A04208D1D9
:101370000020AC490860096891F87C10AA4A42F83C
:10138000210094F8780000F00200022802D1606F7A
:1013900001F0BDFDFFF703FBFFF7D8FA0020ACE733
:1013A00010B5A0480068FFF7A3FF10BD2DE9F0417C
:1013B0000446002C51D09B4800689849096888422F
:1013C00002D10120BDE8F0819648006890F87C5079
:1013D0008E4800EBC50600F14007FFF7C2FA2A4627
:1013E00039463046FFF726F980468E48006890F867
:1013F000800020F002008B49096881F8800089484C
:101400000068C0F88440B4F1FF3F11D08048006804
:10141000204484490968C1F888004046FFF714F960
:1014200080480068806F40F001007E490968886745
:101430007C48006890F8800040F004007949096811
:1014400081F8800000207749096891F87C10764A7D
:1014500042F82100FFF7A3FA04E000217148006878
:10146000C0F88410FFF772FA6E480068D0F8840064
:10147000A8E72DE9F041044614B90120BDE8F08148
:10148000FFF76FFA94F8800000F00400042803D0FE
:10149000FFF785FA0120F1E704F154058420005993
:1014A000B0F1FF3F06D02846FFF72AF8A06F20F0E2
:1014B0000100A06794F8800020F0040084F8800008
:1014C00003218420015114F87C6F504800EBC607BB
:1014D00000F140083346424629463846FEF7CBFF26
:1014E000207940F002002071A4F17C04FFF757FA44
:1014F000FFF72CFA0020C1E72DE9F04706460C461D
:101500004848006845490968884202D10120BDE881
:10151000F0874448006890F87C503C4800EBC507D1
:1015200000F140082A4641463846FFF783F88146D5
:101530003C48006890F8800020F0020039490968B2
:1015400081F8800037480068C0F88440B4F1FF3F5C
:1015500011D02F480068204432490968C1F888003A
:101560004846FFF771F82F480068806F40F001008F
:101570002C490968886731462A480068FFF7DBF87C
:101580002848006890F8800040F008002549096864
:1015900081F8800000202349096891F87C10224AD4
:1015A00042F8210000BFB2E7204870472DE9F0471C
:1015B00004460D460CB9BDE8F08794F87C00A842BB
:1015C00000DCF8E794F8800000F0020002280CD15B
:1015D00094F87C800D4800EBC80900F140074246B2
:1015E00039464846FFF726F8064694F8780000F09A
:1015F0000400042803D094F87C0084F87D0084F86B
:101600007C50A06F40F00400A06711E08C00002027
:101610000C000020000000204400002024000020D6
:101620004C0000201C000020D000002038000020CA
:1016300094F8800000F00200022808D1344800EB42
:10164000C5092B463A4631464846FEF714FF00BF0F
:10165000B1E72DE9F04104460CB9BDE8F08194F8FA
:10166000780000F00400042800D0F6E704F17804C4
:101670002679274800EBC60700F140053246294687
:101680003846FEF7D7FF804660792071206820F049
:101690000400206020791E4901EBC0072379A4F1E2
:1016A00078042A4641463846FEF7E5FE00BFD4E7F7
:1016B00070B50546FFF755F916480560002404E0AB
:1016C0000020154941F82400641C082CF8D3FFF7CA
:1016D00066F970BD00201149086011490860114980
:1016E000086070470D490860704700200B4908608A
:1016F00070470B490860704700200949086070472F
:1017000008490860704700200649086070470000DB
:101710008C00002040000020D00000204400002069
:10172000480000204C00002070B505462846FFF711
:10173000DDF9002409E0C4EBC40205F1080000EB68
:1017400002112846FFF7D6F9641C642CF3D370BD50
:1017500010B55148FFF7E8FF02210020FFF722FAF9
:101760004E4908604FF0FF3232210020FFF79EFA09
:101770004B4908604B48FFF7B5FF4B48FFF7B9FFEF
:101780004A48FFF7BDFF6420FFF792FF10BD00B588
:1017900085B0012144F2050001F0FEF84FF48060AD
:1017A000ADF8100004208DF8130004A9404800F0A3
:1017B0003DFE4FF40070ADF8100003208DF81200CC
:1017C00018208DF8130004A9394800F02FFE684650
:1017D00001F0F6F96946374801F089F901213548E9
:1017E00001F011FA05B000BD10B5FFF7D0FF10BD34
:1017F00010B5044600BF80212E4801F0DFFA002812
:10180000F9D021462B4801F06BFA10BD70B50446A3
:10181000FFF7A7F82046FFF77BF90546FFF7BFF86B
:10182000284670BD0FB438B51B48FFF7EFFF0446DC
:1018300014B938BC5DF814FB05A8009004F1090048
:10184000009A049901F08AFB0020009004F109003D
:1018500001F096FB2072214610480068FFF7D9F985
:1018600000BFE6E770B504460D46002604E03146A9
:10187000761C605CFFF7BCFFB542F8D870BD70B550
:1018800004460D46FFF76DF829462046FFF732F96A
:10189000FFF785F870BD0000F00000206800002010
:1018A00070000020911D0008051E0008F7210008A7
:1018B0000008014000380140704700BFFEE700BF4C
:1018C000FEE700BFFEE700BFFEE710B5044607488D
:1018D00020400649884201D1FFF725F810BD704726
:1018E000704710B5FEF749FD10BD00000110001053
:1018F0000CB50020019000906B48006840F48030E7
:101900006949086000BF6848006800F40030009032
:101910000198401C0190009818B90198B0F5704FDB
:10192000F1D16148006810F4003F02D0012000901E
:1019300001E0002000900098012842D15B48006837
:1019400040F01000594908600846006820F0030084
:1019500008600846006840F002000860524840688D
:10196000514948600846406848600846406840F46D
:10197000806048600846406820F47C104860084653
:10198000406840F4E81048600846006840F0807005
:10199000086000BF4448006810F0007FFAD0424859
:1019A000406820F00300404948600846406840F025
:1019B0000200486000BF3C48406800F00C00082866
:1019C000F9D10CBD10B5FFF793FF10BD10B5364827
:1019D000006840F001003449086008464068344916
:1019E00008403149486008460068324908402E499D
:1019F00008600846006820F48020086008464068B7
:101A000020F4FE0048604FF41F008860FFF7DAFF03
:101A10004FF000602849086010BD10B5002100207B
:101A20000022214B5B6803F00C0121B1042906D090
:101A3000082928D107E0214B214C236027E01F4BC8
:101A40001F4C236023E0184B5B6803F47010164BA7
:101A50005B6803F48032022303EB904022B9194BF8
:101A60004343174C23600DE00F4B5B6813F4003FBA
:101A700004D0144B4343124C236003E00F4B434309
:101A80000F4C236003E00D4B0D4C236000BF00BFE3
:101A9000054B5B68C3F303130B4CE15C084B1B68FD
:101AA000CB40074C236010BD0010024000200240D4
:101AB0000000FFF8FFFFF6FE08ED00E000127A00DC
:101AC0005000002000093D005400002010B50446DD
:101AD000204637F097FA10BD70B5054647E04FF045
:101AE000FF31D4480068FFF737F900281FD1FEF70F
:101AF00062FE04462146D0A0FFF794FEDAA0FFF76D
:101B000091FE4FF47A70FFF7E1FFFEF754FE2721B4
:101B1000B0FBF1F201FB1200DA49086008460168E7
:101B2000D9A0FFF77FFEC3480068FFF7FDF9FEF775
:101B300042FE04462146E1A0FFF774FE4FF4967082
:101B4000FFF734FCFEF737FE04462146E4A0FFF71A
:101B500069FEFEF730FE41F65831884207D9FEF79C
:101B60002AFE04462146E6A0FFF75CFE00E0B6E749
:101B700000BF70BD10B5A7B0024600200090012044
:101B80000190012A0DD9022109E0481E5DF820309C
:101B9000881E5DF8200018444DF82100491C914230
:101BA000F3D95DF8220027B010BD70B50646FEF7E8
:101BB00005FE0546FEF72CFF0446FEF7FCFD054634
:101BC0002A462146D8A0FFF72DFE5AE00021994869
:101BD0000068FFF7C1F800282AD1FEF7ECFD0546A2
:101BE0002946DDA0FFF71EFEE7A0FFF71BFE4FF41E
:101BF0007A70FFF76BFFA3480068FFF7BBFF05464D
:101C00002A46A0480168E7A0FFF70CFEFEF7D6FDC4
:101C10000546FEF7FDFE0446FEF7CDFD05462A46C5
:101C20002146C1A0FFF7FEFD82480068FFF77CF95E
:101C3000FEF7C1FD05462946E6A0FFF7F3FDC820E3
:101C4000FFF7B4FBFEF7B7FD05462946EAA0FFF70C
:101C5000E9FDFEF7B0FD41F65831884211D9EFA0F9
:101C6000FFF7E0FDFEF7AAFD0546FEF7D1FE0446AC
:101C7000FEF7A1FD05462A462146ABA0FFF7D2FD9F
:101C800000E0A3E700BF70BD70B50646FEF796FD05
:101C90000546FEF7BDFE0446FEF78DFD05462A46C5
:101CA0002146E5A0FFF7BEFD5AE00021614800682B
:101CB000FFF752F800282AD1FEF77DFD0546294698
:101CC000E9A0FFF7AFFDF4A0FFF7ACFD4FF4FA6019
:101CD000FFF7FCFE6B480068FFF74CFF05462A46FD
:101CE00068480168F3A0FFF79DFDFEF767FD054614
:101CF000FEF78EFE0446FEF75EFD05462A462146A7
:101D0000CDA0FFF78FFD4B480068FFF70DF9FEF7F8
:101D100052FD05462946F3A0FFF784FD6420FFF736
:101D200045FBFEF748FD05462946F7A0FFF77AFD7B
:101D3000FEF741FD41F65831884211D9FBA0FFF76B
:101D400071FDFEF73BFD0546FEF762FE0446FEF719
:101D500032FD05462A462146B7A0FFF763FD00E0A5
:101D6000A3E700BF70BD08B511E04FF0FF32694630
:101D7000F5480068FEF761FF48B9009C217A04F13C
:101D80000900FFF76FFDF1480099FFF778FDECE7D8
:101D900070B504464CB1FEF70EFD05462B462246B3
:101DA000EBA0216FFFF73EFD06E0FEF704FD0546C0
:101DB0002946F2A0FFF736FD70BD2DE9F041FEF790
:101DC000FAFC6421B0FBF1F6F5480068864217D0B2
:101DD000FFF7EAFB044609E0A5682846FEF779FE0E
:101DE00007463A46EFA0296FFFF71CFDFFF7DCFB23
:101DF00007462146FEF7CEFE0400EDD1E848066016
:101E0000BDE8F08170B504460D46FFF7D6FFEE48F9
:101E10000068844202D1FEF7D7FC0446EA48006815
:101E2000854202D1FEF7D0FC0546A54200D170BD27
:101E3000CCE10000700000200D0A54656163686504
:101E4000722077696C6C2072656C656173652061C6
:101E5000207175657374696F6E21205469636B20FE
:101E600069733A20256400000D0A54656163686552
:101E700072206973207468696E6B696E672E2E2EEE
:101E800000000000740000200D0A5465616368655D
:101E9000722061736B2073747564656E7473207443
:101EA0006F20636F756E7420746865206669626F59
:101EB0006E616363693A2025640000000D0A546571
:101EC000616368657220697320736C656570696E03
:101ED0006721205469636B2069733A2025640000F0
:101EE0000D0A546561636865722077616B657320C4
:101EF000757021205469636B2069733A2025640052
:101F00000D0A54656163686572207361797320639B
:101F10006C617373206F766572205469636B2069FE
:101F2000733A2025640000000D0A53747564656ED1
:101F3000743120737461636B2072656D61696E200A
:101F400025642062797465732C205469636B206961
:101F5000733A2025640000000D0A53747564656EA1
:101F6000743120616E7377657273207468652071B7
:101F700075657374696F6E21205469636B20697392
:101F80003A202564000000000D0A53747564656EE4
:101F90007431206973207468696E6B696E672E2EC8
:101FA0002E0000000D0A53747564656E7431207341
:101FB00061797320746865202564206669626F6E9C
:101FC00061636369206E756D626572206973202597
:101FD000642021000D0A53747564656E74312069A4
:101FE0007320736C656570696E6721205469636B3B
:101FF0002069733A202564000D0A53747564656E78
:1020000074312077616B657320757021205469638A
:102010006B2069733A202564000000000D0A537498
:102020007564656E7431206B6E6F777320636C61BD
:102030007373206F766572000D0A53747564656E54
:10204000743220737461636B2072656D61696E20F8
:1020500025642062797465732C205469636B206950
:10206000733A2025640000000D0A53747564656E90
:10207000743220616E7377657273207468652071A5
:1020800075657374696F6E21205469636B20697381
:102090003A202564000000000D0A53747564656ED3
:1020A0007432206973207468696E6B696E672E2EB6
:1020B0002E0000000D0A53747564656E743220732F
:1020C00061797320746865202564206669626F6E8B
:1020D00061636369206E756D626572206973202586
:1020E000642021000D0A53747564656E7432206992
:1020F0007320736C656570696E6721205469636B2A
:102100002069733A202564000D0A53747564656E66
:1021100074322077616B6573207570212054696378
:102120006B2069733A202564000000000D0A537487
:102130007564656E7432206B6E6F777320636C61AB
:102140007373206F7665720068000020F000002035
:102150000D0A5461736B2025732030782530385870
:10216000206973206372656174656421205469631A
:102170006B2069733A202564000000000D0A466157
:10218000696C20746F20637265617465207461737B
:102190006B21205469636B2069733A202564000029
:1021A000640000200D0A5461736B20257320435096
:1021B00055207574696C697A6174696F6E206973F2
:1021C00020256425250000006C0000204CB1FEF79E
:1021D000F2FA06462A6F33460CA0216FFFF722FB66
:1021E00007E0FEF7E8FA0646324612A0296FFFF72D
:1021F00019FB00BF70BD70B50446FEF7DCFA05465A
:102200002A4616A0216FFFF70DFB70BD0D0A546121
:10221000736B202573202D2D2D2D3E205461736B63
:102220002025732021205469636B2069733A20258F
:10223000640000000D0A5461736B204E554C4C2015
:102240002D2D2D2D3E205461736B202573202120D0
:102250005469636B2069733A202564000D0A546148
:10226000736B2025732069732064656C65746564E5
:1022700021205469636B2069733A202564000000B3
:102280003EB5FEF729F8FFF763FAFFF7ADFA002035
:1022900002214A020346CDE90021029002461C4970
:1022A0001CA0FEF7E2FF002003214FF480620346EA
:1022B000CDE9002102900246184919A0FEF7D5FF8A
:1022C000002003214FF480620346CDE900210290F3
:1022D0000246164916A0FEF7C8FF002006214FF45B
:1022E00080620346CDE9002102900246134914A002
:1022F000FEF7BBFF14490860FEF75DFA044621466D
:1023000012A0FFF78FFAFEF72CF800203EBD000068
:10231000D91A00085465616368657200AB1B000838
:1023200053747564656E743100000000891C0008E8
:1023300053747564656E743200000000671D0008F8
:1023400053726C50727400006C0000200D0A5245EC
:102350004D49582069732072756E6E696E67212031
:102360005469636B2069733A2025640010B50446F4
:10237000CA48844208D10121042000F027FB002133
:10238000042000F023FB46E0C548844208D1012127
:10239000082000F01BFB0021082000F017FB3AE0AA
:1023A000C048844208D10121102000F00FFB002119
:1023B000102000F00BFB2EE0BB48844208D1012125
:1023C000202000F003FB0021202000F0FFFA22E093
:1023D000B648844208D10121402000F0F7FA0021DC
:1023E000402000F0F3FA16E0B148844208D1012100
:1023F000802000F0EBFA0021802000F0E7FA0AE0EC
:10240000AC48844207D10121801500F0DFFA002199
:10241000A01500F0DBFA10BD10B50121084600F050
:10242000D5FA0021012000F0D1FA10BD2DE9F041CC
:10243000024600250026002000230024002791F8F2
:1024400003C00CF00F0591F803C01CF0100F03D06F
:1024500091F802C04CEA050591F800C0BCF1000FEC
:1024600031D0146800202BE04FF0010C0CFA00F37F
:10247000B1F800C00CEA03069E4220D183004FF061
:102480000F0C0CFA03F7BC4305FA03FC4CEA0404F6
:1024900091F803C0BCF1280F06D14FF0010C0CFAE3
:1024A00000FCC2F814C00AE091F803C0BCF1480F68
:1024B00005D14FF0010C0CFA00FCC2F810C0401C12
:1024C0000828D1D31460B1F800C0BCF1FF0F34DD8F
:1024D000546800202EE000F1080C4FF0010808FAC3
:1024E0000CF3B1F800C00CEA03069E4221D1830030
:1024F0004FF00F0C0CFA03F7BC4305FA03FC4CEA4F
:10250000040491F803C0BCF1280F05D100F1080CB8
:1025100008FA0CF8C2F8148091F803C0BCF1480F17
:1025200007D100F1080C4FF0010808FA0CF8C2F8C6
:102530001080401C0828CED35460BDE8F0814FF6CF
:10254000FF710180022181700421C1707047024631
:10255000002093680B4201D0012000E0002070476A
:102560000146886880B2704702460020D3680B425B
:1025700001D0012000E0002070470146C86880B209
:10258000704701617047416170470AB1016100E025
:1025900041617047C16070474FF480320A438261E5
:1025A0008161826182698269704702460020424BE4
:1025B00018684FF68073184040EA021008433E4BFB
:1025C000186070473D49C8617047F0B50A4600235E
:1025D00000240021002500F00046B6F1004F02D192
:1025E000354EF16901E0344E7168C0F3034583B2A2
:1025F00000F44016B6F5401F08D121F070612E4E50
:10260000766826F070662C4F7E6012E000F480162B
:10261000B6F5801F06D1032606FA05F4A14341F062
:10262000706106E0460D360103FA06F6B14341F04B
:10263000706122B1460D360103FA06F6314300F00F
:102640000046B6F1004F02D11B4EF16101E01A4E77
:102650007160F0BD30B500228B071C0F0F2303FA09
:1026600004F2154B08338C1053F824309343124C6A
:1026700008348D1044F8253023468C1053F824304C
:102680008C07240F00FA04F423430B4C08348D10FC
:1026900044F8253030BD0A49086070470008014001
:1026A000000C0140001001400014014000180140DE
:1026B000001C0140002001400000014000002042B9
:1026C000DC002042DD48006840F00100DB49086082
:1026D00008464068DA490840D8494860084600681A
:1026E000D8490840D54908600846006820F4802091
:1026F00008600846406820F4FE0048604FF41F0060
:1027000088607047CD49096821F48031CB4A116057
:102710001146096821F480211160B0F5803F03D093
:10272000B0F5802F0ED106E0C449096841F480312C
:10273000C24A116007E0C149096841F4A021BF4ABB
:10274000116000E000BF00BF704710B501460022D5
:10275000002300204A11012A02D1B84C236806E068
:10276000022A02D1B54C236A01E0B44C636A01F03D
:102770001F02012494401C4201D0012000E00020EF
:1027800010BD38B5002000900024002500BF312086
:10279000FFF7DBFF05460098401C00900098B0F55D
:1027A000704F01D0002DF2D03120FFF7CEFF08B1DD
:1027B000012400E00024204638BD014600209F4A45
:1027C000106820F0F80040EAC100106070479E4990
:1027D0000860704702460020984B586820F47C102F
:1027E00042EA01031843954B5860704796490866C2
:1027F000704701460020914A506820F003000843CA
:10280000506070478D48406800F00C0070470146EA
:1028100000208A4A506820F0F0000843506070475A
:1028200001460020854A506820F4E060084350606B
:10283000704701460020814A506820F4605040EA09
:10284000C1005060704729B17C4A527A02437B4BE9
:102850005A7204E0794A527A8243784B5A7270472E
:102860007A490860704701460020744A506820F495
:1028700040400843506070470021754A11706F4A0C
:1028800082F82010012802D0042808D103E0012199
:102890006F4A117004E005216D4A117000E000BF1D
:1028A00000BF70476B49086070476449096A01437B
:1028B000624A11627047674944390860704730B511
:1028C00000210022002400235C4D6D6805F00C01FE
:1028D00021B1042905D0082923D105E05E4D05600A
:1028E00022E05D4D05601FE0544D6D6805F47012E7
:1028F000524D6D6805F48034022505EB92421CB9F7
:10290000564D554305600BE04C4D6D6815F4003F86
:1029100003D0524D5543056002E04F4D55430560CD
:1029200002E04D4D056000BF00BF444D6D6805F0ED
:10293000F00109094A4D6B5C0568DD4045603F4D7B
:102940006D6805F4E061090A454D6B5C4568DD4042
:1029500085603A4D6D6805F46051C90A404D6B5C65
:102960004568DD40C560354D6D6805F44041890B13
:102970003C4D6B5CC568B5FBF3F5056130BD29B115
:102980002E4A526902432D4B5A6104E02B4A526988
:1029900082432A4B5A61704729B1284A92690243FF
:1029A000264B9A6104E0254A92698243234B9A613F
:1029B000704729B1214AD2690243204BDA6104E011
:1029C0001E4AD26982431D4BDA61704729B11B4A06
:1029D000D2680243194BDA6004E0184AD268824395
:1029E000164BDA60704729B1144A12690243134B3F
:1029F0001A6104E0114A12698243104B1A61704750
:102A000014494039086070470F49C86470470B4942
:102A1000C87170470948406A40F0807007494862B1
:102A2000704701460020054A92680A4201D0012001
:102A300000E0002070470149887270470010024092
:102A40000000FFF8FFFFF6FE00004242D8004242BD
:102A5000201002408004424200127A0000093D002A
:102A6000780000208800002010B50446FB4884420E
:102A700009D101218803FFF7A9FF00214FF480400D
:102A8000FFF7A4FF32E0F648844209D1012148044F
:102A9000FFF7A9FF00214FF40030FFF7A4FF25E066
:102AA000F048844209D101218804FFF79CFF0021EE
:102AB0004FF48020FFF797FF18E0EB48844209D1DC
:102AC0000121C804FFF78FFF00214FF40020FFF71A
:102AD0008AFF0BE0E548844208D101210805FFF791
:102AE00082FF00214FF48010FFF77DFF10BD2DE91C
:102AF000F04786B005460E460024A24600BFA14618
:102B00000027B08900B100BF2F462C8A4CF6FF7019
:102B10000440F08804432C82AC894EF6F310044044
:102B2000B08831890843718908430443AC81AC8A79
:102B30004FF6FF400440B0890443AC8201A8FFF780
:102B4000BEFEC648874202D1DDF810A001E0DDF8E4
:102B50000CA0A88910F4004F08D00AEBCA0000EBC3
:102B60000A1031684900B0FBF1F807E00AEBCA002F
:102B700000EB0A1031688900B0FBF1F86420B8FB63
:102B8000F0F004012009642101FB1089A88910F4E8
:102B9000004F08D0322000EBC900B0FBF1F000F08C
:102BA0000700044308E0322000EB09106421B0FB69
:102BB000F1F000F00F0004432C8106B0BDE8F0876F
:102BC0004FF4E131016000218180C18001810C213D
:102BD000418100218181704710B502460020108A92
:102BE0004FF2FF0318400B884C8823438C88234303
:102BF000CC8823431843108210BD002101804180FE
:102C00008180C180704721B1828942F40052828163
:102C100004E082894DF6FF731A4082817047F0B557
:102C200003460024002600250020A1F510676A3F16
:102C300000D100BF1846C1F3421401F01F0601275E
:102C400007FA06F5012C01D10C3004E0022C01D169
:102C5000103000E014301AB107682F43076002E01B
:102C60000768AF430760F0BD1AB1838A0B438382C4
:102C700002E0838A8B4383827047028A4FF6F073A7
:102C80001A400282028A0A430282704782894FF206
:102C9000FF731A40828182890A438281704721B181
:102CA000828942F00202828104E082894FF6FD733C
:102CB0001A4082817047028A4FF6DF731A400282FF
:102CC000028A0A430282704721B1028A42F480429A
:102CD000028204E0028A4BF6FF731A4002827047B8
:102CE000C1F308028280704701468888C0F308005B
:102CF0007047818941F0010181817047028BD2B216
:102D00000283028B42EA012202837047028B02F4A3
:102D10007F420283028B0A430283704721B1828A79
:102D200042F02002828204E0828A4FF6DF731A406A
:102D30008282704721B1828A42F01002828204E0CE
:102D4000828A4FF6EF731A408282704721B1828ADD
:102D500042F00802828204E0828A4FF6F7731A403A
:102D60008282704721B1828942F40042828103E06D
:102D70008289C2F30E028281704721B1828A42F4B5
:102D80000062828204E0828A4FF2FF731A408282DC
:102D90007047828A4FF6FB731A408282828A0A4306
:102DA0008282704721B1828A42F00202828204E06C
:102DB000828A4FF6FD731A408282704702460020D5
:102DC000B1F5007F00D100BF13880B4201D0012074
:102DD00000E00020704701F40072B2F5007F00D1DE
:102DE00000BFCA430280704770B50246002400232A
:102DF00000250020A1F510666A3E00D100BFC1F396
:102E0000421501F01F03012606FA03F3012D02D13A
:102E10009689334006E0022D02D1168A334001E044
:102E2000968A33400C12012606FA04F416883440C0
:102E300013B10CB1012000E0002070BD10B50022DC
:102E40000023A1F510646A3C00D100BF0A120124DE
:102E50009440A3B2DC43048010BD00000038014060
:102E60000044004000480040004C0040005000403A
:102E70000948804709480047FEE7FEE7FEE7FEE70E
:102E8000FEE7FEE7FEE7FEE7FEE7FEE7044805494A
:102E9000054A064B70470000CD19000831010008B3
:102EA000182D0020186F0020186D0020186D0020CC
:102EB00070B5064600F086F8056806F10B0020F0B4
:102EC0000704B4429CBF002070BD2B466A68BAB1AB
:102ED0001068A04210D304F1080188423CBF50683A
:102EE000586007D35168101941601168091B0160CF
:102EF00058601460101D70BD13465268002AE7D157
:102F00002146284600F066F80028DED170BD70B575
:102F10000446051F00F056F80068002C14BF4468F2
:102F200070BD002C18BFA54284BF20466468F8D845
:102F300001680A18AA4218BF456003D12A680546ED
:102F40001144016028684119A1421CBF6C6070BD2A
:102F50006168696021680844286070BD1CB50C4632
:102F6000064B7B4469460090204600F038F9044641
:102F70000020694600F046F920461CBD9F02000073
:102F800010B5431C02E010F8011B71B18107FAD1A2
:102F90004FF0013202C88C1A8C4314EAC211F9D0E6
:102FA000C01A0A0603D0C01E10BDC01A10BD0A0404
:102FB00001D0801E10BD0902FCD0401E10BD70471C
:102FC0007047704700487047C02C0020704770471A
:102FD0007047704738B504460A4600206946AFF38B
:102FE0000080002808BF38BD02460099204600F046
:102FF000FDFA012038BD012000F00FBEF8B5AFF397
:103000000080054600200C46102000BF0646A81987
:10301000A0420DD9324669460020AFF30080070078
:1030200008BF00F0FAFD0098A04218BF0546C41979
:10303000FFF7C8FF05600746F01D20F0070046199E
:10304000284600F00AF8B44208BFF8BDA21B31467A
:103050003868BDE8F84000F0C9BA00210160C0E955
:10306000011070471020704770B5044685690068EC
:10307000C10601D5302600E02026C00708D070BD6B
:10308000D4E9012130469047206A00F10100206216
:103090006D1EF5D570BD70B5044685690078C00712
:1030A00008D170BDD4E9012120209047206A00F1A9
:1030B000010020626D1EF5D570BD09684A0501D575
:1030C00040B27047C905FCD500B2704709684A058F
:1030D00001D5C0B27047C905FCD580B2704770B544
:1030E0000C460546012A05D02878800600D5EA69F5
:1030F000002302E0012305E05B1C934202D2E05C66
:103100000028F9D1A869E618C01AA861286A1844ED
:1031100028622846FFF7A8FF04E0D5E9012114F84A
:10312000010B9047B442F8D32846FFF7B4FF70BDB7
:103130002DE9F0410646002410687529314616A590
:1031400011D0FFF7BAFF002803DAC0F1000013A581
:1031500007E031688A0701D511A502E0490704D5C7
:1031600010A5012401E0FFF7B1FF00210A2306F1B9
:10317000240707E0B0FBF3F203FB12003030785471
:103180001046491C0028F5D123462A463046BDE8A2
:10319000F04100F08ABA0000000000002D0000009D
:1031A0002B0000002000000011680268006A53052F
:1031B00001D508700BE0D30501D5088007E01306A0
:1031C00003D5C217C1E9000201E0520608600120E0
:1031D0007047000001694A1C02610878704700B519
:1031E0008FB0CDE901310021059105497944CDE940
:1031F00003101146684600F02FF90FB000BD000023
:10320000E5FFFFFF0A6802F8010B0A607047000043
:103210002DE9FF5F15468A460446DFF8AC80F84486
:103220000027D8E900103E46CDE9001011E03AF839
:1032300016106A4602A800F0D0FC411C07D0217885
:10324000890603D5E269391891420ED8074406F180
:1032500001062078800602D5E069B84205DDAE425D
:10326000E5DB3AF816000028E1D1A069C01BA06197
:103270002046FFF7F9FED8E90010CDE90010002044
:1032800016E03AF818106A4602A800F0A6FC81463B
:10329000401C0BD000250DF1080B05E0D4E90121FD
:1032A0001BF8050090476D1C4D45F7D308F1010050
:1032B000B0428046E5DB206A384420622046FFF7B2
:1032C000EAFEBDE8FF9F0000A21600002DE9F041D4
:1032D0008046D21D22F007020025D2E90002F5291E
:1032E00014A612D0002A06DA0023D0EB030063EB09
:1032F000020211A608E0D8F800108B0701D50FA62E
:1033000002E0490701D50EA601251146002408F167
:10331000240704E000F084F930323A55641C50EA86
:103320000102F7D12B46324621464046BDE8F04126
:1033300000F0BBB9000000002D0000002B000000D1
:103340002000000030B4002100F124040CE002F061
:10335000070505F130054FEAD20242EA437265548F
:1033600001F101014FEAD30352EA0305EFD10468EA
:10337000002310A2250708D504F020040C4304D034
:10338000C46901230CA2641EC46130BC00F08DB975
:1033900010B5044621461068FFF798FE0246204605
:1033A000BDE810400023CDE7D21D22F00701D1E98E
:1033B0000023C7E70000000030000000F0B40D4615
:1033C0000188090502D5234C7C4402E0214C7C4451
:1033D0000E34002100F124060BE002F00F074FEA43
:1033E0001212E75D42EA03724FEA1313775401F1B8
:1033F000010152EA0307F0D102780023120704D535
:10340000702D06D009B1113402232246F0BC00F021
:103410004CB910340123F8E770B504460D46214637
:103420001068FFF753FE024629462046BDE870406B
:103430000023C3E7D21D22F00703D3E90023BDE731
:103440000368126843F0200303600823C36100236C
:10345000B4E70000001500002DE9F05F894604463E
:103460004FF0000ADFF878B1FB44C0F820A02046F6
:10347000E1688847002875D0252806D0D4E90121C5
:103480009047206A401C2062F1E700265F462046F4
:10349000E16888472028054608DB312D06D207EB76
:1034A000050010F8200C08B10643F0E7B00701D57D
:1034B00026F00406C4F81CA00027C4F818A02A2D82
:1034C00009D0284601F048F938B304EB8708303DAD
:1034D000C8F8185019E059F8041B204604EB87027D
:1034E0009161E1688847012F054618D1E0690028FD
:1034F00020DA26F020061DE0D8F8180000EB800046
:1035000005EB40003038C8F818002046E1688847CD
:10351000054601F021F90028EED1012F0AD02E2D09
:1035200008D12046E16888477F1C0546022F46F0F7
:103530002006C4DBA069002803DA404246F00106F9
:10354000A061F00701D026F010066C2D0BD0682D7D
:1035500009D04C2D39D06A2D35D0742D35D07A2D27
:1035600033D016E038E0E1682F4620468847B8425D
:10357000054609D16C2F26D04FF48060E1680643E0
:1035800020468847054604E06C2F1AD04FF480701F
:1035900006430DB3A5F14100192802D8203546F4A1
:1035A00000664A462946204626604E46FCF7FAFD4C
:1035B00080B101280BD0F61D26F0070000F10809A4
:1035C00055E74020E4E78020D8E70020D6E706F161
:1035D00004094CE7284651E7206ABDE8F09F000047
:1035E0008814000000487047B82C0020034640684B
:1035F0008C46002818BF814284BF03464068F8D833
:1036000018681844884207D00CF1030020F0070026
:10361000001D411A521A0146081D0A60FFF777BCC7
:1036200030B5B0F10A024FEA900E71F100034EEA94
:10363000817EB0EB0E0061EB91014FEA101E4EEA65
:10364000017E10EB0E0041EB11114FEA102E4EEAF5
:10365000016E10EB0E0041EB11214FEA104E4EEAC5
:10366000014E10EB0E0041EB1141401841F10001F9
:103670004FEAD00040EA41704FEAD10110EB8005DB
:103680004FEA810444EA907444EB01046D1944EB61
:103690000404521BA3414FF0000348BF0A3200D577
:1036A00030BD401C41F1000130BD2DE9F0470D4611
:1036B00099469246044600F124080168880604D51C
:1036C000E06921F01001216000E00120A84202DD44
:1036D000A0EB050700E00027A16907EB050202EB5C
:1036E0000900A1EB0000A0612078C00602D42046AA
:1036F000FFF7BAFC002608E0D4E901211AF8060019
:103700009047206A401C761C20624E45F4DB2078EE
:10371000C0060AD52046FFF7A7FC06E0D4E9012140
:1037200030209047206A401C2062381EA7F1010714
:10373000F4DC07E0D4E9012118F805009047206A7D
:10374000401C2062281EA5F10105F3DC2046FFF78E
:10375000A2FC2078000602D50220BDE8F0870120F7
:10376000FBE770472DE9FF4F0C461E464FF0FF3731
:103770008BB0D2E90001DDF860800A908A46C1F37F
:103780000A5505B93D46002108464FF00000BAF140
:10379000000F00F4400005DA00EB80004FF4400118
:1037A00001EA50004FEA9059B9F1010F00DDB94626
:1037B0000A9850EA4A000ED044F61050A5F2FF35A0
:1037C00045432F14B8F1000F1ED07542291E1EDD8F
:1037D000C9F100021CE0B8F1010F4FF0000001D068
:1037E000302103E0F24305E02154401CB042FBDBF2
:1037F00030460022002121540B99C1F80880C1E90C
:1038000000200FB0BDE8F08FBD1B6D1CDEE74A46FF
:1038100000DA694206A800F079FA06AB07CB03ABE1
:1038200007C350460A9900F07EFB8DE80700A0F51B
:1038300000501F3800900398002D09DD42F21F014F
:103840004A46084403A90390684600F0DDFD08E0FD
:10385000A0F500504A461F3803A90390684600F0BF
:10386000E7FD8DE807000004000C03D04FF0FF30A7
:10387000410800E01046B8F1000F03D0002200928A
:1038800015461FE0751E06D4FFF7CAFE02F130028E
:1038900062556D1EF8D5B3460122084302D00022BE
:1038A0007F1C04E02078302801D100227F1E002AEE
:1038B000099787D01DE0112D07DAFFF7B1FE3032EE
:1038C00062556D1C50EA0102F5D108430FD1002169
:1038D000681E05E0235C625C6354491C2254401E50
:1038E0008142F7DBAB46A81B401E099001E000981F
:1038F00048B1002004F80B000B98099AC0F8088022
:10390000C0E9002B7DE711264FF000085AE72DE9AA
:10391000F04F88460446D21D22F0070191B0D1E94C
:103920000001CDE90A0100F003FF02460B98C00F29
:1039300001D02D2007E02068810701D52B2002E06F
:10394000202101EAC000032A099001D0072A05DBE3
:1039500003464146204600F099F90FE120788006A1
:1039600001D5E06900E00620B8F1650F814606D078
:10397000B8F1660F18D0B8F1670F72D132E00020AD
:10398000B9F1110F009001DB112301E009F10103EE
:103990000AAA01A90CA8FFF7E5FEDDE90C700026D4
:1039A00009F10105834648E001204B4600904FF0A5
:1039B00000470AAA01A90CA8FFF7D4FEDDE90DB063
:1039C0000C995D46002618B909F1010001EB0005CC
:1039D000B9EB050003D4C0F1FF3609F10105A5EBF1
:1039E00009002BE0B9F1010F01DA4FF001090020C5
:1039F000B9F1110F0090484601DD112300E00346A4
:103A00000AAA01A90CA8FFF7ADFEDDE90C704D462E
:103A100000268346207800070AD4AB4500DA5D46CD
:103A200001A8012D04DD411911F8011C302907D02E
:103A30004F4502DA17F1040F04DA0120824610E044
:103A40006D1EEEE7002F02DCED1B3E4403E0781C08
:103A5000A84200DD0546A7EB060000F1010A4FF081
:103A600000472078000703D4AA4501DB4FF0FF3A56
:103A70000021B7F1004F0DF143088DF8431023D01A
:103A800002202B23002F01DA7F422D234FF00A0C56
:103A9000011EA0F1010000DC4FB197FBFCF10CFB13
:103AA00011720F4602F1300208F8012DF0E7A8F17B
:103AB000010003702188090501D5452100E0652139
:103AC000A0F1010800F8011C09980FA9A1EB080753
:103AD00007F1070700B1012000EB050101EBEA70D7
:103AE000A1693844A1EB0000A0F10100A061207899
:103AF000C00602D42046FFF7B7FA099830B1D4E9DE
:103B000001219047206A00F1010020622078C00660
:103B100020D52046FFF7A8FA1CE0002E04DBB345B1
:103B200002DD01A8805D00E03020D4E9012190474A
:103B3000206A761C401CBAF1010A20620AD100F00A
:103B4000A1F8C0680168405CD4E901219047206A6F
:103B5000401C2062281EA5F10105DEDC07E0D4E947
:103B6000012118F8010B9047206A401C2062381E82
:103B7000A7F10107F3DC2046FFF78DFA022011B010
:103B800040E610B5436913B1AFF3008001E0FFF7E1
:103B9000A6FA012010BD127800F124010A7000225B
:103BA0004A700122EDE711684FF0FF32E9E710B5E6
:103BB000436913B1AFF3008001E0FFF729FB012057
:103BC00010BD128800F1240182840022C2840122E7
:103BD000EDE711684FF0FF32E9E770B516460C4685
:103BE000054600F047F8036893F80101012806D064
:103BF000FF2C0FD8185D68B101202C7070BDD3F870
:103C000007013246214603442846BDE8704003F2CE
:103C1000071318474FF0FF3070BD10B500F0F4F8EF
:103C2000BDE8104000F0EAB870477546FFF7DAFCCF
:103C3000AE4605006946534620F00700854618B099
:103C400020B5FFF723F9BDE820404FF000064FF004
:103C500000074FF000084FF0000B21F00701AC46C1
:103C6000ACE8C009ACE8C009ACE8C009ACE8C009E0
:103C70008D46704710B500F005F8001D10BD00BF5F
:103C8000150B000000487047D82C00202DE9F041AA
:103C90001F46044603260168072A01F4006004DB7E
:103CA00008B116A505E016A503E008B115A500E0CA
:103CB00015A521F010002060A069C01EA0610FB101
:103CC000401EA0612046FFF7CFF94FB1D4E9012192
:103CD00038469047206A401C2062C01C206206E0E3
:103CE000206AFAE7D4E9012115F8010B9047761E06
:103CF000F8D22046FFF7CFF9BDE8F0814E414E00E3
:103D00006E616E00494E4600696E66002DE9F0470F
:103D1000814616468AB035487844D0E90023806849
:103D20000092CDE90130314878440C38D0E90223C3
:103D3000006903924FF03702CDE9043041F69B3021
:103D4000014491FBF2F0A0F1800502FB10141B3C32
:103D500002D56442012000E00020DFF890A08046F8
:103D60000027FA44AAF1C60A0DE0E00709D032465E
:103D7000684607EB47010AEB810100F059FB8DE82B
:103D8000070064107F1C002CEFD1184F7F44B43F14
:103D900017E0E80713D007EB04100DF1180A90E8BC
:103DA0000E00AAE80E00C068F04201D198190890F0
:103DB000324606A903A800F03BFB03AB07C36D1016
:103DC000641C002DE5D132466946B8F1000F03A806
:103DD00002D000F019FB01E000F02AFBC9E9000164
:103DE000C9F808200AB0BDE8F0870000680C0000A0
:103DF0000446AFF300802046FCF73BFA002801D0D0
:103E000000F02AB87047000010B5012805D0002145
:103E100003A000F027F8012010BD09A1F8E7000079
:103E200053494752544D454D3A204F7574206F66A3
:103E30002068656170206D656D6F7279000000000B
:103E40003A2048656170206D656D6F727920636FEF
:103E5000727275707465640001491820ABBEFEE78C
:103E60002600020070B505460C460A2000E06D1CD5
:103E700000F052F835B128780028F8D102E0641C2F
:103E800000F04AF814B120780028F8D1BDE870405D
:103E90000A2000F041B800004FF0013C50F8042B1C
:103EA00051F8043B9A4221D1A2EB0C03934313EA4D
:103EB000CC1317D150F8042B51F8043B9A4215D17A
:103EC000A2EB0C03934313EACC130BD150F8042B51
:103ED00051F8043B9A4209D1A2EB0C03934313EA35
:103EE000CC13DBD04FF00000704700BFD01A01BAEE
:103EF000B1FA81F101F0180122FA01F0CB40C1F1D1
:103F00002001DBB2C0B2C01A2CFA01F3D11A9143DE
:103F100011EAC311E6D1704708B569468DF8000073
:103F20000320ABBE08BD5FEA400C08BF91F0000F54
:103F30004FEA8C234FEAC12243EA51514FEA1C5009
:103F400018BF00F5F0404FEA300018BF41F00041C3
:103F50005FEA6C5C00F02980BCF1FF3F08BF40F0D5
:103F600080407047130C06BF12044FF0100C4FF046
:103F7000000C130E04BF12020CF1080C130F04BF47
:103F800012010CF1040C930F04BF92000CF1020C0F
:103F9000D30F04BF52000CF1010C11464FF0000288
:103FA000A0F11F00A0EB0C00704711F0004F08BFFC
:103FB000704731F000413FF4D5AF0B0C06BF090448
:103FC0004FF0100C4FF0000C0B0E04BF09020CF167
:103FD000080C0B0F04BF09010CF1040C8B0F04BF7C
:103FE00089000CF1020CCB0F04BF49000CF1010C4D
:103FF000CCF12003A0EB0C0022FA03F302FA0CF23E
:1040000041EA030100F10100704720F07F4C80EA93
:10401000030023F07F47ACEB070303F57C5300F06C
:10402000004003F1FF032DE980494FEA154B09B425
:104030004FEA144325EA0B4E24EA03480FF2042604
:1040400006EB132749083E785FEA320203FB066756
:10405000C7F5000707FB06F64FEA54374FEAD64686
:1040600006F1020607FB066CCCF1005C4FEA1C4728
:104070002CEA074C07FB06F40CFB06F504EB15468F
:104080004FEA961634BF00204FF000404FEAD13778
:1040900006FB07FC4FEA1C4C0CFB0BF7D21B03FB87
:1040A0000CF761EB07010CFB0EF7B0EB074072EB6E
:1040B00017420CFB08F734BFA2EB0742B2EB0742F2
:1040C00061EB17414FEA0C444FEA910706FB07FCEE
:1040D0004FEA1C4C0CFB0BF7B0EBC74072EB5732AE
:1040E00003FB0CF734BFA2EBC742B2EBC74261EB54
:1040F00057310CFB0EF7B0EBC70072EB57720CFB9D
:1041000008F734BFA2EBC702B2EBC70261EB5771ED
:10411000039F4FEA816141EA921104EBCC044FEA1C
:10412000D1374FEA826206FB07FC42EA90124FEA5F
:1041300080604FEA1C4C0CFB0BF7D21B03FB0CF707
:1041400061EB07010CFB0EF7B0EB074072EB174277
:104150000CFB08F734BFA2EB0742B2EB074261EB5E
:1041600017414FEA8C554FEA910704EB9C2406FB5C
:1041700007FC4FEA1C4C0CFB0BF7B0EBC74072EB93
:10418000573203FB0CF734BFA2EBC742B2EBC74276
:1041900061EB57310CFB0EF7B0EBC70072EB5772B7
:1041A0000CFB08F734BFA2EBC702B2EBC70261EB0E
:1041B000577115EB4C254FEA816141EA92114FEAA4
:1041C00082624FEAD13742EA901206FB07FC44F1C3
:1041D00000044FEA80604FEA1C4C0CFB0BF7D21B2B
:1041E00003FB0CF761EB07010CFB0EF7B0EB07408C
:1041F00072EB17420CFB08F734BFA2EB0742B2EB9D
:10420000074261EB174115EB1C154FEA813141EA7A
:1042100092414FEA823242EA90424FEA80304FEABE
:104220000C7644F1000448EA03434EEA0B484FF091
:10423000000EB2EB080C71EB030724BF624639464F
:104240004EEB0E0E4FF0000B0018524149414BEB64
:104250000B0BB2EB080C71EB03077BF1000B24BFD7
:10426000624639464EEB0E0E4FF0000B00185241DD
:1042700049414BEB0B0BB2EB080C71EB03077BF1E5
:10428000000B24BF624639464EEB0E0E51EA020780
:1042900018BF46F0010616EB0E7655F1000254F1F8
:1042A000000103D5BDE88901BDE80088BDE88901AA
:1042B000BDE80048B619524141EB0101A3F10103E9
:1042C000704780807F7E7D7C7B7A79787776767583
:1042D0007473727171706F6E6E6D6C6C6B6A6A69FB
:1042E0006868676666656464636362616160605F95
:1042F0005F5E5E5D5D5C5C5B5B5A5A59595858570E
:104300005756565555555454535352525251515075
:1043100050504F4F4F4E4E4D4D4D4C4C4C4B4B4BC8
:104320004A4A4A494949484848474747474646460E
:104330004545454444444443434343424242424149
:104340004141002B26D4770021D01CB54FEA370716
:1043500003B44FF010004FF010014FF000000FBCFD
:10436000BDE810400BF1010BBBF1010F08BF5FEA84
:10437000170722BF12F1010211F101014FF00041B4
:1043800043F1000300F0004043EA00007047F9D316
:104390005708DAE746EA064613F1400F4FEA164699
:1043A0001FDD13F1200FDFBF16430A460021203323
:1043B0005B42C8D0C3F1200746EA064602FA07F777
:1043C0004FEA164646EA0706C3F1200722FA03F22F
:1043D00001FA07F721FA03F14FF0000342EA07025E
:1043E000B1E746EA020646EA06464FEA164646EABC
:1043F0000106BCBF46EA0646360C4FF000034FF0FC
:1044000000024FF000019EE72DE9C048934630B40A
:1044100091E8380007C831EA400C48BF34EA430C41
:1044200003D5FFF7F2FDFFF78CFFF0BCBDE8008875
:104430002DE9C048934630B491E8380007C810F021
:10444000804F08BF13F0804F03D100F005F8FFF74D
:1044500078FFF0BCBDE8008820F07F4780EA0300C9
:1044600023F07F4C07EB0C03A3F57C5300F00040D6
:10447000A3F1FE0392F0000F00F0B38095F0000F5F
:1044800000F077802DE901494FEA11404FEA1446C8
:1044900021EA004800FB06FC24EA064708FB06F672
:1044A00007FB08F800FB07F718EB06484CEB164C27
:1044B0004FEA124B18EB07484FEA15464CEB1740F2
:1044C00022EA0B4E0BFB06FC25EA06470EFB06F61E
:1044D00007FB0EFE0BFB07F71EEB064E4CEB164CD4
:1044E0004FF000061EEB074E4CEB174B18EB0B087A
:1044F00040F1000018EB0E0B58EB000840F10000F3
:104500008F1A4FF000013CBFC943661B14BFB5EBC7
:10451000040C00213CBFC943F61B4FEA17444EEA86
:104520008E0E27EA04454FEA1C4704FB07622CEA7B
:10453000074C05FB07F70CFB05F604FB0CFC16EB20
:10454000074642EB174216EB0C4642EB1C421BEBB4
:10455000060658EB0202414146EA9E0601D5BDE837
:104560000189B619524141EB0101A3F10103BDE8F4
:1045700001894FEA14454FEA114724EA054621EA2A
:10458000074C05FB07F406FB07F70CFB06F105FBE0
:104590000CFC11EB074144EB17444FEA124711EBB7
:1045A0000C4144EB1C4422EA074C05FB07F206FBD6
:1045B00007F70CFB06F605FB0CFC16EB074642EB77
:1045C000174216EB0C4642EB1C456A1854F10001E9
:1045D00048BF7047B619524141EB0101A3F10103F5
:1045E000704795F0000F37D04FEA11424FEA144759
:1045F00021EA024624EA074C02FB07F106FB07F713
:104600000CFB06F402FB0CFC14EB074441EB1741D6
:104610004FEA154714EB0C4441EB1C4125EA074CCB
:1046200002FB07F506FB07F70CFB06F602FB0CFC8A
:1046300016EB074645EB174516EB0C4645EB1C42BF
:10464000121951F1000148BF7047B619524141EBB0
:104650000101A3F1010370474FEA14454FEA1147E6
:1046600024EA054621EA074C05FB07F106FB07F79C
:104670000CFB06F24FF0000605FB0CFC12EB0742A8
:1046800041EB174112EB0C4251EB1C4148BF704704
:10469000921841EB0101A3F10103704700B52148D5
:1046A0000FF2030E0047EE461F48D0F800C06046E8
:1046B00090B10EF1040EBEE80F00ACE8FF0F9EE8CB
:1046C0000F00AEF1100E4CF8040B4CF804EBACE804
:1046D0000E0001BCCCF800001448016801F1100183
:1046E000B1E8F00F01F10401D1F800D001F110019F
:1046F000086800470D48D0F800D010B001BC80F326
:10470000038882B000988FB04DF8040CBDE8FF1FFD
:1047100001B05DF804EB90B000BD00DF7047EFF32F
:1047200003807047C3050008140000201800002013
:10473000490050EAC12018BF04204A0D18BF40F0BC
:10474000010040F2FF72B2EB515F08BF40F002007F
:10475000012808BF0520704730380A2801D20120FF
:10476000704700207047000010B500290AD0087873
:10477000002807D005487844FFF78EFB002801D0B9
:10478000002010BD0248784410BD00004602000021
:104790003E02000010B500290AD00878002807D092
:1047A00005487844FFF778FB002801D0002010BDB1
:1047B0000248784410BD0000360200002E020000BE
:1047C000FFF7A5B80000010002000100030001008E
:1047D00002000100040001000200010003000100CA
:1047E00002000100050001000200010003000100B9
:1047F00002000100040001000200010003000100AA
:104800000200010006000100020001000300010097
:104810000200010004000100020001000300010089
:104820000200010005000100020001000300010078
:104830000200010004000100020001000300010069
:104840000200010007000100020001000300010056
:104850000200010004000100020001000300010049
:104860000200010005000100020001000300010038
:104870000200010004000100020001000300010029
:104880000200010006000100020001000300010017
:104890000200010004000100020001000300010009
:1048A00002000100050001000200010003000100F8
:1048B00002000100040001000200010003000100E9
:1048C000020001000000000000000000303132331F
:1048D0003435363738394142434445464030580034
:1048E0003031323334353637383961626364656666
:1048F00040307800040000080000000000000002C2
:10490000000100001000000002400000000000A0B4
:104910000000000005400000000000C8000000008A
:104920000C4000000000409C000000001940000006
:104930000020BCBE0000000034400000BFC91B8E38
:1049400000000004B5400000504BCFD06607E2CF16
:10495000010000006C4100003E8251AADFEEA73446
:1049600001000000D9420000DCB5A0E23A301F97F8
:10497000FFFFFFFFB4450000FD25A0C8E9A3C14F1C
:10498000FFFFFFFFFF3F000000000080000000006D
:10499000FF3F00000000008000000000E84A00081F
:1049A000000000208C0000006C010008744B00081F
:1049B0008C0000208C6E0000880100081C000000A4
:1049C00043000000F8FFFFFF0C0000000E00000095
:1049D0000F0000002E000000100100004300000046
:1049E000F8FFFFFF00404040404040404040414110
:1049F00041414140404040404040404040404040B4
:104A0000404040404005020202020202020202024D
:104A1000020202020220202020202020202020024A
:104A200002020202020290909090909010101010DA
:104A30001010101010101010101010101010101076
:104A4000020202020202888888888888080808080A
:104A500008080808080808080808080808080808D6
:104A600002020202400000000000000000000000FE
:104A70000000000000000000000000000000000036
:104A80000000000000000000000000000000000026
:104A90000000000000000000000000000000000016
:104AA0000000000000000000000000000000000006
:104AB00000000000000000000000000000000000F6
:104AC00000000000000000000000000000000000E6
:104AD00000000000000000000000000000000000D6
:104AE00000000000000000000000000000000000C6
:104AF00000000000000000000000000000000000B6
:104B000000000000000000000000000000000000A5
:104B10000000000000000000000000000000000095
:104B20000000000000000000000000000000000085
:104B3000000000000000000000A24A040000000085
:104B4000000000000102030406070809000000003D
:104B50000000000000000000000000000000000055
:104B60000000000001020304010203040607080913
:044B7000020406082D
:020000040803EF
:1090040041F2A45300FB03F2002100BF914200D1BE
:0C90140001E0491CFAE700BF70470000B3
:0400000508000131BD
:00000001FF
