:020000040800F2
:1000000050830020953600081121000813210008B4
:10001000172100081B2100081F2100080000000014
:100020000000000000000000000000002321000884
:1000300037210008000000000B3C00083B210008AD
:10004000AF360008AF360008AF360008AF360008FC
:10005000AF360008AF360008AF360008AF360008EC
:10006000AF360008AF360008AF360008AF360008DC
:10007000AF360008AF360008AF360008AF360008CC
:10008000AF360008AF360008AF360008AF360008BC
:10009000AF360008AF360008AF360008AF360008AC
:1000A000AF360008AF360008AF360008AF3600089C
:1000B000AF360008AF360008AF360008AF3600088C
:1000C000AF360008AF360008AF360008AF3600087C
:1000D000AF360008AF360008AF360008AF3600086C
:1000E000AF360008AF360008AF360008AF3600085C
:1000F000AF360008AF360008AF360008AF3600084C
:10010000AF360008AF360008AF360008AF3600083B
:10011000AF360008AF360008AF360008AF3600082B
:10012000AF360008AF360008AF360008AF3600081B
:10013000DFF80CD003F0C2FC00480047DD290008BE
:100140005083002000BFFEE7FE490860704700B5FD
:1001500002460020FC4908600120FFF7F5FF00BDC2
:1001600010B5FA4800F080FD10BD70B504460025BA
:1001700004E004EBC50000F077FD6D1C082DF8D3FA
:10018000002084F8400070BD10B5F148FFF7EDFF86
:1001900010BD10B5EF4800F067FD10BD0EB5002092
:1001A000FFF7D2FF0120E84908600020EA49086013
:1001B000EA490860EA490860EA490860EA490870C3
:1001C000EA49086001F0F0FB4FF0FF31002001F038
:1001D000C1FB0020E649086001F02CFEFFF7D9FFC3
:1001E000FFF7D2FFFFF7BCFF002001214FF416728A
:1001F0000346CDE9002102900246AFF2AD01DDA039
:1002000001F004F9D6490860002007214FF4167266
:100210000346CDE9002102900246AFF2D701D7A0F4
:1002200001F0F4F8CD49086000F01AFC0EBD10B5DD
:10023000CB480068D3490860C9480068C6490860CF
:1002400003F00FFD10BD10B5C6480068401CC5493D
:1002500008600120C4490870C5480068401CC449B2
:100260000860BD480068B0B1BB48006890F88800DD
:10027000C54951F8200070B1B748006890F888006F
:10028000C24951F82000401CB349096891F8881010
:10029000BE4A42F8210000F0F6FB10BD10B504463E
:1002A000207800F04BFC10BD2DE9F047A848403005
:1002B000FFF7F4FF8146A64800EBC908404600F06E
:1002C00024FD05462F46BE68A348006890F88800C4
:1002D000AD4951F8200050B39F480068B04226D184
:1002E0009D48006890F88800A84951F820009A4974
:1002F000096891F88810A44A52F82110884216D350
:1003000000209549096891F88810A04A42F8210018
:100310002946404600F0FCFC044644B1404600F04B
:10032000B5FC2946404600F0A3FC2746BE6830468F
:10033000BDE8F087027801238B40DBB21A430270DC
:1003400070472DE9F04106460F4614461D463946D2
:10035000304600F08DFC29462046FFF7EBFFBDE854
:10036000F0812DE9F04104460D4616461F463B46F6
:10037000324629462046FFF7E4FFBDE8F0810278C7
:1003800001238B409A43027070472DE9F0410646E5
:100390000C461546304600F079FC0746304600F022
:1003A000B4FC18B929462046FFF7E9FF3846BDE8F6
:1003B000F0812DE9F0410546EC6E94F8480000F01C
:1003C000030002280CD195F8887004EBC70604F1ED
:1003D00040083A4641463046FFF7D7FFBDE8F08176
:1003E00004F13806304600F051FCF7E72DE9F04102
:1003F00005462C6F94F8440000F0600040280CD1B2
:1004000095F8887004EBC70604F140083A46414667
:100410003046FFF7BAFFBDE8F08104F138063046F8
:1004200000F034FCF7E710B504462146474800F0D9
:1004300052FC10BD2DE9F84F444800F066FC05461B
:10044000002D64D061E0AA46DAF80840D4F894B0F0
:1004500044480068834557D12846FFF7E4FF064625
:1004600054F8840F20F001002060207AA4F1840465
:1004700000F00400042809D194F88C0020F0040056
:1004800084F88C0002219020015124E094F88C0023
:1004900000F0080008281ED194F8840000F008003D
:1004A00008280CD12046FFF7A1FFD4F8840020F0E3
:1004B0000800C4F8840002219020015105E0204684
:1004C000FFF777FF02219020015194F88C0020F073
:1004D000080084F88C0004F1540914F8887F1C4843
:1004E00000EBC708403000903B4649464046009A22
:1004F000FFF737FF207940F002002071A4F1880453
:1005000006B903E0354600E000E09CE700BFBDE827
:10051000F88F10B514480078012804D10020124942
:100520000870FFF787FFFFF7BFFE044621460A4821
:10053000006800F046FB1648006858B3214606489C
:10054000006828E0280000200000002004000020AF
:10055000B4000020380000201C00002024000020EF
:10056000200000200C000020100000202C000020A3
:1005700034000020524F4F540000000049646C6565
:100580000000000018000020F800002018010020E2
:100590004400002002E0E44A12689047E348006803
:1005A00020B1E2480068E249086002E00020E0492A
:1005B0000860E0480460DD48046010BD10B50446E2
:1005C0002146DD4800F054FB10BD10B5044621461D
:1005D000D94800F080FB10BD70B504460D461646A4
:1005E000324629462046FFF7D0FE70BD2DE9F04780
:1005F0000446D24800F089FB07467FB3A146D9F8EC
:100600000800D0F894502FE0B946D9F80800D0F887
:100610009460CB480068A84201D2B5420DD3B542E0
:1006200003D2C7480068864207D3C548006886429F
:100630000AD2C3480068A84206D222463946BF48BB
:1006400000F037FBBDE8F0873946BC4800F060FB9E
:100650008046B8F1000F02D0474605E005E021468C
:10066000B64800F005FBEDE7CEE72146B34800F0C1
:10067000FFFA00BFE6E710B504462046FFF775FD18
:1006800010BD2DE9F04705460C4694F8480000F0EF
:10069000030002280ED195F8888005F1600704EB6D
:1006A000C80604F1400943464A4639463046FFF73A
:1006B00048FE07E004F1380605F160073946304688
:1006C00000F0D6FAEC66BDE8F0872DE9F04105466A
:1006D00095F8480000F00300022805D105F140001C
:1006E000FFF7DCFD064600E0072605EBC60000F03C
:1006F0000CFB044614B90020BDE8F0812746B86819
:10070000FAE710B504462046FFF72FFD10BD2DE98E
:10071000F04705460C4694F8440000F0600040287D
:100720000ED195F8888005F1600704EBC80604F146
:10073000400943464A4639463046FFF702FE07E085
:1007400004F1380605F160073946304600F090FAAA
:10075000BDE8F0872DE9F047054695F8440000F024
:100760006000202849D1072705EBC70000F0CDFA2B
:10077000064641E016B90020BDE8F087B1464E4676
:10078000D9F80840A06F01281AD0022822D00428E6
:1007900002D0082828D109E0A86C616F00EA01089E
:1007A000606F404501D12046E6E71EE0A86C616F0E
:1007B00000EA0108B8F1000F01D02046DCE714E0A0
:1007C000606FA96C20EA0108606F404501D12046A6
:1007D000D2E70AE0606FA96C20EA0108B8F1000FC7
:1007E00001D02046C8E700E000BF00BF05EBC7000E
:1007F000314600F08DFA0646BCE705F14000FFF7F0
:100800004DFD074605EBC70000F07FFA06464BE0BA
:100810000AE0781CC7B2082F01D10020ACE705EB35
:10082000C70000F072FA0646002EF2D0B1464E46DE
:10083000D9F80840A06F01281AD0022822D0042835
:1008400002D0082828D109E0A86C616F00EA0108ED
:10085000606F404501D120468EE71EE0A86C616FB5
:1008600000EA0108B8F1000F01D0204684E714E047
:10087000606FA96C20EA0108606F404501D12046F5
:100880007AE70AE0606FA96C20EA0108B8F1000F6E
:1008900001D0204670E700E000BF00BF05EBC700B5
:1008A000314600F035FA0646B2E72DE9F04105463B
:1008B00095F8440000F06000202805D105F14000C3
:1008C000FFF7ECFC064600E0072605EBC60000F04B
:1008D0001CFA044614B90020BDE8F0812746B86828
:1008E000FAE71748006870471048006870471548D5
:1008F00000687047144800687047144800687047E3
:1009000013A0704703E0002200F8012B491E0029C4
:10091000F9D1704704E011F8013B00F8013B521E89
:10092000002AF8D170470000440000201C0000207D
:1009300014000020180000203800002004000020CF
:100940000C000020200000202400002028000020AF
:100950003030312E3030312E3030312E30303100C9
:1009600010B5002807DA0A07140E7A4A00F00F03C0
:100970001B1FD45403E00A07130E774A135410BD0B
:100980002DE9F04104460F4690462546C5F8008003
:1009900000206860A860E86028616861A861E8617B
:1009A00028626862A862E8622863A4F12000686394
:1009B0006A48A863EF634FF0807028646FF0060008
:1009C0006864204600F0D2F82646301F0646296C9F
:1009D0000160301F0646E96B0160301F0646A96BB7
:1009E0000160301F0646296B0160301F0646E9682A
:1009F0000160301F0646A9680160301F064669681D
:100A00000160301F064629680160BDE8F08110B51D
:100A10000E216FF00100FFF7A3FF10BD10B5504885
:100A200000686421B0FBF1F4B4F1807F00D311E0E1
:100A300024F07F40401E4FF0E02148610F214FF02D
:100A4000FF30FFF78DFF00204FF0E0218861072085
:100A5000086100BF0C214FF0FF30FFF781FF10BD90
:100A600010B5FFF7DBFFFFF7D2FF10BD014600BF57
:100A7000EFF31482104620F001000843024682F38F
:100A8000148800BF704733481438006840F0805025
:100A9000304914390860704710B503F0F7F8C00505
:100AA000C00D01D0002010BD0120FCE710B5FFF7FC
:100AB000F3FF18B12B4803F0E7F801E0FFF7E3FF7D
:100AC00010BD10B5FFF7E8FF08B9012010BD26489A
:100AD000006838B972B624480068401C2249086092
:100AE0000020F3E720480068401C06D01E4800683C
:100AF000401C1D4908600020E8E70120E6E710B52A
:100B0000FFF7CAFF08B9012010BD17480068012887
:100B100006D915480068401E134908600020F3E715
:100B200011480068012807D10F480068401E0E498F
:100B3000086062B60020E7E70120E5E770B50546EA
:100B4000284603F05DF8C4B2202C01D1002070BD0E
:100B50002046FCE718ED00E000E400E04515000841
:100B600050000020011000102C000020D0F8803030
:100B7000DB1C23F00302002103E04FF0CC33535081
:100B8000091D831A8B42F8D870470146D1F880308E
:100B9000DB1C23F00302002005E01358B3F1CC3F27
:100BA00000D003E0001D8B1A8342F6D800BF7047C7
:100BB0000021C0F8981000229C210A50A0210A5060
:100BC00070472DE9F041044688464FF0E0208769E0
:100BD000C4B12148006821490968884208D19C2095
:100BE0000059D4F89810C91B01449C20015109E018
:100BF0009C200159D4F8980000F18070C01B01447A
:100C00009C2001511548006813490860C8F8987085
:100C100013480068642818D1124E0EE0B5689C2075
:100C2000405900F50000000E64214843B0FBF1F18B
:100C3000A020415100219C2041513146094800F03B
:100C400067F80600EAD106490860BDE8F081014670
:100C5000A020405870470000300000200C00002009
:100C600034000020380000200021016041607047FE
:100C7000426832B102680A604860026851600160EF
:100C800003E00860486001604160704701464A68BF
:100C90006AB1D1E90003984204D0506848605068B6
:100CA000016002E0002008604860104670470020A4
:100CB000FCE730B505460B4614469D4206D0186841
:100CC00044601868206063601C6003E02146284689
:100CD000FFF7CEFF30BD30B505460C46A54212D019
:100CE0002068A84202D16068A84207D0D4E9001069
:100CF0004860D4E900010860606830BD2846FFF70D
:100D0000C5FF0020F9E70020F7E701464868704773
:100D100002464868904201D1002070474868FCE7CD
:100D200070B506460D4605F00300012805D005F014
:100D30000300022801D0002070BD35F0030001D06F
:100D40000020F9E776B9FFF7BCFE602003F048FC0D
:100D500004461CB9FFF7D3FE0020EDE7FFF7CFFEF6
:100D6000264600E000243046FFF77EFFF46545F09C
:100D70000801002206F1080000F056F808B13046DC
:100D8000DAE714B1204603F003FC0020D4E770B585
:100D900004460D4604B10DB9012070BDFFF791FE68
:100DA00029462046FFF764FFFFF7A9FE04F108007B
:100DB00000F078F9F1E72DE9F04104460D461746B9
:100DC00004B115B90120BDE8F081394604F10800ED
:100DD00000F080F806460EB13046F4E7FFF771FEEA
:100DE0002046FFF753FF8046FFF789FEC5F80080D5
:100DF0000020E8E710B504460CB9012010BD04211D
:100E000004F1080000F000FA08B10120F6E7E06DF7
:100E100040B1FFF756FEE06D03F0BAFB0020E0653D
:100E2000FFF76DFE0020E9E72DE9F04105460C468D
:100E3000174604F01C00042807D004F01C00082802
:100E400003D004F01C00102813D104F00300012883
:100E500003D004F0030002280BD104F01C0010287A
:100E600003D104F00300022806D004F0200020285B
:100E700002D10020BDE8F08104F01C00042805D157
:100E80006FB1B7F1FF3F0AD00020F3E704F01C0078
:100E9000102804D1B7F1FF3F01D00020EAE775B96F
:100EA000FFF70FFE542003F09BFB06461EB9FFF729
:100EB00026FE0020DEE7FFF722FE354600E0002692
:100EC0002846FFF7D8FB6F64AC64EE640020286509
:100ED0002846CFE770B504460D460CB9012070BD19
:100EE000FFF7DAFD50B994F8480000F01C00102814
:100EF00001D10120F3E70DB10120F0E7FFF7E1FD9B
:100F0000002D4AD194F8480000F01C0004280DD1AF
:100F1000606CB0F1FF3F05D100206064FFF7EFFD8A
:100F20000020DCE7FFF7EBFD0320D8E794F848004A
:100F300000F01C0008280CD1606C30B1606C401EC1
:100F40006064FFF7DCFD0020C9E7FFF7D8FD032050
:100F5000C5E7606CB0F1FF3F09D1E7480068206544
:100F6000606C401E6064FFF7CAFD0020B7E7E249ED
:100F7000206D096888420CD1606C30B1606C401EF5
:100F80006064FFF7BCFD0020A9E7FFF7B8FD05206E
:100F9000A5E7FFF7B4FD0320A1E794F8480000F0AF
:100FA0001C0004281CD1606CB0F1FF3F05D100206B
:100FB0006064FFF7A4FD002091E72946204600F079
:100FC00071FB012803D1FFF79AFD012087E7FFF7A6
:100FD00096FDFFF76BFDC8480068D0F890007EE7EB
:100FE00094F8480000F01C0008281BD1606C30B158
:100FF000606C401E6064FFF782FD00206FE72946A9
:10100000204600F04FFB012803D1FFF778FD0120B7
:1010100065E7FFF774FDFFF749FDB7480068D0F8B2
:1010200090005CE7606CB0F1FF3F09D1B248006806
:101030002065606C401E6064FFF761FD00204EE794
:10104000AD49206D096888420CD1606C30B1606C8C
:10105000401E6064FFF753FD002040E7FFF74FFD9F
:1010600005203CE794F8480000F02000202806D135
:10107000A14A126892F88810206D00F0FAFB294608
:10108000204600F00FFB012803D1FFF738FD0120B7
:1010900025E7FFF734FDFFF709FD97480068D0F812
:1010A00090001CE72DE9F05F044614B90120BDE86B
:1010B000F09FFFF7F1FC38B994F8480000F01C00ED
:1010C000102801D10120F2E74FF0000BFFF7F9FCE7
:1010D00094F8480000F01C00042805D1606C08B9A1
:1010E00001262AE0002628E094F8480000F01C00C1
:1010F00008280FD1606C08B901261EE00026606C3C
:10110000B0F1FF3F03D0606C401C606415E04FF00D
:10111000020B12E07849206D0968884203D0FFF77E
:10112000EEFC0120C3E7606C401C6064606CB0F1B1
:10113000FF3F01D0002600E00126012E60D16E485D
:10114000006800F0D8FB2046FFF7BFFA0546EDB374
:101150002846FFF72EF995F8840010F0010F0AD009
:1011600005F154073846FFF75EF9D5F8840020F002
:101170000100C5F8840095F88C0020F0080085F87F
:101180008C0000219020415105F1540795F888808A
:101190005A4800EBC80900F1400A43465246394616
:1011A0004846FFF7DEF895F88C0040F0020085F81D
:1011B0008C0094F8480000F01C00102803D125652D
:1011C000606C401E6064FFF79AFC00E003E0FFF7EC
:1011D0006DFC58466BE794F8480000F01C000428AA
:1011E00002D1401F60640BE094F8480000F01C003E
:1011F000082803D1606C401C606401E00020206579
:10120000FFF77DFC584652E72DE9F04705460F46AB
:1012100015B90120BDE8F08795F8480000F01C00E2
:10122000102801D10120F5E7FFF74BFC35E02846F7
:10123000FFF74BFA044674B32046FFF7BAF894F868
:10124000840010F0010F0AD004F154094846FFF75A
:10125000EAF8D4F8840020F00100C4F8840094F87F
:101260008C0020F0080084F88C009020075104F1D5
:10127000540914F8886F214800EBC60800F1400AB1
:101280003346524649464046FFF76BF8207940F016
:101290000200207101E0FFE700E0C8E700BF002086
:1012A0006864FFF72CFC0020B4E710B50446002169
:1012B0002046FFF7A9FF10BD10B504460CB9012068
:1012C00010BD94F8480000F01C00102806D004213E
:1012D0002046FFF799FF08B10120F1E7E06C40B12B
:1012E000FFF7EFFBE06C03F053F90020E064FFF739
:1012F00006FC0020E4E700001C000020B4000020F1
:101300002DE9FF4F83B082461D46DDE910B7129EDE
:10131000FFF7D7FB6DB9584603F062F905462DB9C2
:10132000FFF7EDFB002007B0BDE8F08F4FF002099A
:1013300001E04FF0000905EB0B0020F003000090E6
:101340000098A43820F00704C4F880502046DDE956
:101350000412FFF715FB04F14800FFF72FF92046B0
:10136000FFF726FC002044F8840F206840EA0900BB
:1013700044F884092465E465A466C4F87CA084F874
:1013800088701EB9022084F88C0005E0307884F85B
:101390008C0090207168015194F88C0000F00200DC
:1013A00002280ED1F94800EBC700029004F154085E
:1013B000F648403001903B464146DDE90120FEF70A
:1013C000D0FF94F88C0000F00400042814D1706859
:1013D000B0F1FF3F10D0EE49706809680844C4F8C6
:1013E000940004F154084046FFF700F9D4F8840053
:1013F00040F00100C4F884000020206700216167EC
:101400000121A167FFF77BFB20468CE72DE9FE4F0A
:1014100081460F4692469B46DDE90C840E9D17B926
:101420000020BDE8FE8FB8F1000F01D10020F8E7E1
:101430003DB12878022804D02878042801D0002063
:10144000EFE7FFF75AFA18B9072C07DD0020E8E7A5
:10145000012C01DB062C01DD0020E2E75B46524651
:1014600039464846CDE900840295FFF749FF064614
:101470000EB90020D5E7C748006840B9C6480068E3
:1014800018B13046C44909688847FFF70FFB30465A
:10149000C7E72DE9F047044614B90120BDE8F087FD
:1014A000BE480068A04201D10120F7E7FFF709FB21
:1014B000BB48006818B12046B9490968884794F8C4
:1014C0008C5005F0020002280BD194F88860AF48D8
:1014D00000EBC60700F14009324649463846FFF79F
:1014E0007BF805F00400042804D104F154084046B8
:1014F000FEF799FF05F00800082802D12046FEF704
:1015000058FF04F14800FFF760F8A6480068A042C1
:1015100008D10020A3490860096891F88810A24A00
:1015200042F8210094F8840000F00200022803D160
:10153000D4F8800003F02CF8FFF7E1FAFFF7B6FAD1
:101540000020ABE710B597480068FFF7A2FF10BD79
:101550002DE9F0410446002C53D0924800688F4991
:101560000968884202D10120BDE8F0818D480068F9
:1015700090F88850854800EBC50600F14007FFF75A
:10158000A0FA2A4639463046FFF726F880468548B5
:10159000006890F88C0020F002008249096881F808
:1015A0008C0080480068C0F89040B4F1FF3F13D031
:1015B0007748006820447B490968C1F89400404698
:1015C000FFF714F877480068D0F8840040F0010075
:1015D00074490968C1F884007248006890F88C006A
:1015E00040F004006F49096881F88C0000206D49C3
:1015F000096891F888106C4A42F82100FFF77FFAD9
:1016000004E0002167480068C0F89010FFF74EFA28
:1016100064480068D0F89000A6E72DE9F041044640
:1016200014B90120BDE8F081FFF74BFA94F88C0063
:1016300000F00400042803D0FFF761FA0120F1E76D
:1016400004F1540590200059B0F1FF3F08D028461E
:10165000FEF7E9FED4F8840020F00100C4F884000D
:1016600094F88C0020F0040084F88C000321902072
:10167000015114F8886F454800EBC60700F1400897
:101680003346424629463846FEF76BFE207940F045
:1016900002002071A4F18804FFF731FAFFF706FA7F
:1016A0000020BFE72DE9F04706460C463D4800689C
:1016B0003A490968884202D10120BDE8F0873948DB
:1016C000006890F88850314800EBC50700F14008E9
:1016D0002A4641463846FEF77FFF8146314800687A
:1016E00090F88C0020F002002E49096881F88C00E7
:1016F0002C480068C0F89040B4F1FF3F13D0244854
:101700000068204427490968C1F894004846FEF75C
:101710006DFF24480068D0F8840040F001002149A2
:101720000968C1F8840031461E480068FEF7A9FF29
:101730001C480068D0F8840020F0080019490968A6
:10174000C1F884001748006890F88C0040F0080049
:101750001449096881F88C0000201249096891F841
:101760008810114A42F8210000BFA6E72DE9F05F7A
:1017700005460F4690461C460A4800680749096816
:10178000884213D10120BDE8F09F0000B400002082
:101790000C00002000000020400000202400002059
:1017A000480000201C000020180100208D4800681F
:1017B00090F888608C4800EBC60900F1400A324678
:1017C00051464846FEF708FF83468648006890F871
:1017D0008C0020F002008349096881F88C00814860
:1017E0000068C0F89040B4F1FF3F13D07F48006814
:1017F00020447C490968C1F894005846FEF7F6FE7B
:1018000078480068D0F8840040F001007549096804
:10181000C1F884007348006805677248006847672C
:1018200070480068C0F8788029466E480068FEF766
:101830006EFF6C480068D0F8840040F008006949E9
:101840000968C1F884006748006890F88C0040F08F
:1018500008006449096881F88C0000206149096822
:1018600091F88810624A42F8210000BF8BE7614876
:1018700070472DE9F04704460D460CB9BDE8F087E6
:1018800094F88800A84200DCF8E794F88C0000F097
:10189000020002280CD194F88880534800EBC80954
:1018A00000F14007424639464846FEF795FE064697
:1018B00094F8840000F00400042803D094F8880011
:1018C00084F8890004F184042571206840F0040044
:1018D0002060207AA4F1840400F00200022808D1DC
:1018E000414800EBC5092B463A4631464846FEF7CB
:1018F00038FD00BFC2E72DE9F04104460CB9BDE850
:10190000F08194F8840000F00400042800D0F6E789
:1019100004F184042679344800EBC60700F1400541
:10192000324629463846FEF757FE804660792071D8
:10193000206820F00400206020792B4901EBC007CB
:101940002379A4F184042A4641463846FEF709FD6E
:1019500000BFD4E770B506460D46FFF7B2F80DB1EB
:10196000062D05D9B5F1FF3F02D0FFF7C8F870BDCD
:10197000B5F1FF3F08D1002403E01F4840F8246080
:10198000641C082CF9D302E01B4840F825600024B1
:1019900004E00020164941F82400641C082CF8D308
:1019A000FFF7ADF800BFE2E70020144908601449D2
:1019B00008601449086070471049086070470020AB
:1019C0000E49086070470E490860704700200C49B6
:1019D000086070470B49086070470020094908609B
:1019E000704700001C000020B40000200C00002004
:1019F0001801002038000020F800002040000020DE
:101A000044000020480000202DE9F04105460E4624
:101A1000174606F06000202806D006F06000402837
:101A200002D00020BDE8F08175B9FFF74AF85020D8
:101A300002F0D6FD04461CB9FFF761F80020F1E77B
:101A4000FFF75DF8254600E000242846FEF759FE22
:101A50006E64AF64EC642846E4E72DE9F047044681
:101A60000E469046994614B90120BDE8F08708F06B
:101A70000F0001280DD008F00F00042809D008F04D
:101A80000F00022805D008F00F00082801D001201F
:101A9000EBE7FFF701F820B9B9F1000F01D0012001
:101AA000E3E708F01000102803D1012728F0100800
:101AB00000E00027FFF705F8B8F1010F73D0B8F187
:101AC000020F6ED0B8F1040F03D0B8F1080F69D13E
:101AD00033E0A06C00EA0605B54208D1012F02D11F
:101AE000A06CA843A064FFF70AF80020BDE7B9F195
:101AF000000F03D1FFF703F80320B6E74B46424639
:101B000031462046FFF732FE012803D1FEF7F7FFEA
:101B10000120AAE7FEF7F3FFFEF7C8FFC3480068FD
:101B2000D0F8900020B9012F02D1A06CB043A0647E
:101B3000BE480068D0F8900097E7A06C00EA060560
:101B400045B1012F02D1A06CA843A064FEF7D7FFD6
:101B500000208AE7B9F1000F03D1FEF7D0FF032080
:101B600083E74B46424631462046FFF7FFFD0128FA
:101B700003D1FEF7C4FF012077E7FEF7C0FFFEF7B1
:101B800095FFAA480068D0F8900020B9012F02D133
:101B9000A06CB043A064A5480068D0F8900064E74A
:101BA00001E034E066E0A06C26EA0005B54208D109
:101BB000012F02D1A06C2843A064FEF7A0FF0020F3
:101BC00053E7B9F1000F03D1FEF799FF03204CE76B
:101BD0004B46424631462046FFF7C8FD012803D157
:101BE000FEF78DFF012040E7FEF789FFFEF75EFF5D
:101BF0008E480068D0F8900020B9012F02D1A06C67
:101C00003043A06489480068D0F890002DE7A06CAC
:101C100026EA000545B1012F02D1A06C2843A0643B
:101C2000FEF76DFF002020E7B9F1000F03D1FEF7AA
:101C300066FF032019E74B46424631462046FFF730
:101C400095FD012803D1FEF75AFF01200DE7FEF7AD
:101C500056FFFEF72BFF75480068D0F8900020B9BA
:101C6000012F02D1A06C3043A06470480068D0F806
:101C70009000FAE6FEF743FF0120F6E62DE9F05F5B
:101C800005460F46164615B90120BDE8F09F16F02F
:101C9000010F04D016F0010F01D10120F5E7FEF786
:101CA00010FF16B1012E08D103E0A86CB843A86458
:101CB00007E0A86C3843A86403E0FEF720FF01208A
:101CC000E3E700BF2846FEF745FD0446E4B320469F
:101CD000FEF78CFB94F8840010F0010F0AD004F199
:101CE00054084046FEF79FFBD4F8840020F0010022
:101CF000C4F8840094F88C0020F0080084F88C006C
:101D0000002190200151D4F8840020F00800C4F88C
:101D1000840004F1540894F88890454800EBC90AFF
:101D200000F1400B4B465A4641465046FEF719FB20
:101D300094F88C0040F0020084F88C00FEF7DFFE7F
:101D4000FEF7B4FE0020A0E7FFE7FEF7D8FE002074
:101D50009BE72DE9F04706460F4616B90120BDE87E
:101D6000F087FEF7AEFE3BE03046FEF79EFD0446F0
:101D7000A4B32046FEF73AFB94F8840010F0010F5C
:101D80000AD004F154094846FEF74DFBD4F884000C
:101D900020F00100C4F8840094F88C0020F00800C2
:101DA00084F88C0090200751D4F8840020F00800BB
:101DB000C4F8840004F1540914F8885F1C4800EB4F
:101DC000C50800F1400A2B46524649464046FEF7F8
:101DD000C8FA207940F00200207101E0FFE700E03E
:101DE000C2E700BFFEF78BFE0020B8E710B504463F
:101DF00000212046FFF7ADFF10BD10B504460CB919
:101E0000012010BD04212046FFF7A3FF08B10120E7
:101E1000F7E7E06C40B1FEF754FEE06C02F0B8FB6F
:101E20000020E064FEF76BFE0020EAE71C000020C3
:101E3000B400002070B550214F48FEF763FD002428
:101E40000BE004EB84004C4901EB8005601C00EBC7
:101E5000800001EB80006860641C032CF1D304EB6C
:101E60008400454901EB800500206860084643492D
:101E7000086070BD2DE9F05F05460E46904615B925
:101E80000020BDE8F09F022E01D20020F9E7B8F152
:101E9000040F01D20020F4E7FEF713FE3748046870
:101EA000006820B135480068406834490860FEF792
:101EB00026FE0CB90020E4E7A9462F46A6F1010B47
:101EC0004FF0000A05E04744C9F80070B9460AF12E
:101ED000010ADA45F7D30020C9F8000025606560E3
:101EE000C4F80880E66026612046CAE72DE9F04183
:101EF00004460E46174614B90020BDE8F081A068DC
:101F0000B04201D20020F8E7FEF7DBFD206958B1AE
:101F10006568286860602069401E2061A06838609C
:101F2000FEF7EDFD2846E8E7FEF7E9FD0020E4E7CF
:101F300070B504460D46164604B10DB9012070BDBA
:101F4000FEF7BFFDD4E90310884203D3FEF7D7FDA7
:101F50000120F4E73068A168884203D0FEF7CFFD86
:101F60000120ECE76068286065602069401C206102
:101F7000FEF7C5FD0020E2E7380100204C000020FC
:101F800070B505462846FEF76FFE002409E0C4EB55
:101F9000C40205F1080000EB02112846FEF768FEB6
:101FA000641C642CF3D370BD10B55148FFF7E8FFF3
:101FB00002210020FEF7B4FE4E49086000222021D5
:101FC0001046FFF721FD4C4908604C48FFF7F4FC30
:101FD0004B48FFF7F8FC4B48FFF7FCFC052132208B
:101FE000FFF7B8FC10BD00B585B0012144F2050033
:101FF00001F0E4F84FF48060ADF8100004208DF893
:10200000130004A9404800F023FE4FF40070ADF81F
:10201000100003208DF8120018208DF8130004A979
:10202000394800F015FE684601F0DCF9694637488A
:1020300001F06FF90121354801F0F7F905B000BD55
:1020400010B5FFF7D0FF10BD10B5044600BF8021CA
:102050002E4801F0C5FA0028F9D021462B4801F09E
:1020600051FA10BD70B50446FEF72BFD2046FEF771
:102070000DFE0546FEF743FD284670BD0FB438B58A
:102080001B48FFF7EFFF044614B938BC5DF814FB9A
:1020900005A8009004F10900009A049901F000FEDF
:1020A0000020009004F1090001F006FB2072214697
:1020B00010480068FEF76BFE00BFE6E770B5044607
:1020C0000D46002604E03146761C605CFFF7BCFF3D
:1020D000B542F8D870BD70B504460D46FEF7F1FC68
:1020E00029462046FEF7C4FDFEF709FD70BD00003D
:1020F0008801002068000020700000206125000891
:10210000D52500082B2600080008014000380140B2
:10211000704700BFFEE700BFFEE700BFFEE700BF5D
:10212000FEE710B50446074820400649884201D121
:10213000FEF7A9FC10BD7047704710B5FEF783F895
:1021400010BD0000011000100CB50020019000909F
:102150006B48006840F480306949086000BF6848F7
:10216000006800F4003000900198401C0190009835
:1021700018B90198B0F5704FF1D16148006810F4BA
:10218000003F02D00120009001E000200090009864
:10219000012842D15B48006840F0100059490860AE
:1021A0000846006820F0030008600846006840F018
:1021B000020008605248406851494860084640683B
:1021C00048600846406840F48060486008464068BF
:1021D00020F47C1048600846406840F4E8104860ED
:1021E0000846006840F08070086000BF44480068FE
:1021F00010F0007FFAD04248406820F003004049C8
:1022000048600846406840F00200486000BF3C4813
:10221000406800F00C000828F9D10CBD10B5FFF79C
:1022200093FF10BD10B53648006840F001003449F6
:10223000086008464068344908403149486008460B
:102240000068324908402E4908600846006820F4BA
:10225000802008600846406820F4FE0048604FF483
:102260001F008860FFF7DAFF4FF000602849086020
:1022700010BD10B5002100200022214B5B6803F047
:102280000C0121B1042906D0082928D107E0214BEF
:10229000214C236027E01F4B1F4C236023E0184B89
:1022A0005B6803F47010164B5B6803F48032022302
:1022B00003EB904022B9194B4343174C23600DE0C8
:1022C0000F4B5B6813F4003F04D0144B4343124C94
:1022D000236003E00F4B43430F4C236003E00D4B9F
:1022E0000D4C236000BF00BF054B5B68C3F30313B5
:1022F0000B4CE15C084B1B68CB40074C236010BDC6
:1023000000100240002002400000FFF8FFFFF6FE30
:1023100008ED00E000127A005000002000093D00A6
:102320005400002070B5054627E0FEF7DAFA0446AF
:102330002146C3A0FFF7A2FE4FF0FF331422032172
:10234000C9480068FFF789FB30B9FEF7CAFA0446AE
:102350002146C6A0FFF792FEC820FFF7F9F8FEF766
:10236000C0FA42F21071884207D9FEF7BAFA044661
:102370002146C6A0FFF782FE00E0D6E700BF70BD91
:1023800070B5054627E0FEF7ACFA04462146C8A022
:10239000FFF774FE4FF0FF3314220321B2480068A8
:1023A000FFF75BFB30B9FEF79CFA04462146CAA052
:1023B000FFF764FEC820FFF7CBF8FEF792FA43F26E
:1023C000C821884207D9FEF78CFA04462146CAA0E4
:1023D000FFF754FE00E0D6E700BF70BD10B504461D
:1023E000204636F00FFE10BD70B5054628E0FEF71A
:1023F00078FA04462146C9A0FFF740FE40F2DC50BF
:10240000FFF7ECFFFEF76DFA04462146CEA0FFF77A
:1024100035FE0122114694480068FFF72FFC4FF467
:10242000C870FFF795F8FEF75CFAB0F57A5F07D948
:10243000FEF757FA04462146D1A0FFF71FFE00E041
:10244000D5E700BF70BD70B5054628E0FEF749FA34
:1024500004462146D3A0FFF711FE4FF4FA60FFF7C0
:10246000BDFFFEF73EFA04462146DAA0FFF706FE5E
:10247000012202217C480068FFF700FC4FF49670AF
:10248000FFF766F8FEF72DFAB0F57A5F07D9FEF789
:1024900028FA04462146DDA0FFF7F0FD00E0D5E76D
:1024A00000BF70BD70B5054642E0FEF71AFA44F26F
:1024B0005061884238D9FEF714FA04462146DCA060
:1024C000FFF7DCFDE34AE4480168E4480068FFF7F1
:1024D0002FFDFEF706FA04462146E1A0FFF7CEFDE8
:1024E000E84AE9480168DD480068FFF721FDFEF78A
:1024F000F8F904462146E5A0FFF7C0FDEC4AED4897
:102500000168D6480068FFF713FDFEF7EAF90446B4
:102510002146E9A0FFF7B2FDF04AF1480168CF4833
:102520000068FFF705FD04E04FF4FA70FFF710F8BC
:10253000BBE700BF70BD08B511E04FF0FF32694640
:10254000E8480068FEF737FC48B9009C217A04F19E
:102550000900FFF7B3FDE4480099FFF7BCFDECE785
:1025600070B504464CB1FEF7BCF905462B46224631
:10257000DEA0E16FFFF782FD06E0FEF7B2F9054647
:102580002946E5A0FFF77AFD70BD2DE9F041FEF781
:10259000A8F96421B0FBF1F6E8480068864217D03C
:1025A000FFF765F9044609E0A5682846FEF74FFBEA
:1025B00007463A46E2A0E96FFFF760FDFFF757F9DB
:1025C00007462146FEF7A4FB0400EDD1DB48066078
:1025D000BDE8F08170B504460D46FFF7D6FFE1482F
:1025E0000068844202D1FEF785F90446DD480068A0
:1025F000854202D1FEF77EF90546A54200D170BDA5
:102600004CB1FEF76EF90646EA6F3346D6A0E16F8D
:10261000FFF734FD07E0FEF764F906463246DCA01A
:10262000E96FFFF72BFD00BFE9E770B50446FEF741
:1026300058F905462A46E0A0E16FFFF71FFD70BD7F
:102640000D0A5461736B3120697320736561726385
:1026500068696E6720666C616721205469636B202E
:1026600069733A2025640000700000200D0A54614F
:10267000736B31206765747320666C616721205429
:1026800069636B2069733A20256400000D0A546168
:10269000736B312064656C65746520697473656C57
:1026A0006621205469636B2069733A202564000019
:1026B0000D0A5461736B3220697320736561726314
:1026C00068696E6720666C616721205469636B20BE
:1026D00069733A20256400000D0A5461736B32203F
:1026E0006765747320666C616721205469636B2091
:1026F00069733A20256400000D0A5461736B32201F
:1027000064656C65746520697473656C662120541A
:1027100069636B2069733A20256400000D0A5461D7
:10272000736B332069732072656C656173696E67C2
:102730002066697273742062697421205469636B26
:102740002069733A202564000D0A5461736B3320AD
:1027500072656C656173656420666972737420626A
:1027600069742C20736C656570696E67206E6F7775
:1027700021205469636B2069733A202564000000AE
:102780000D0A5461736B332064656C657465206950
:102790007473656C6621205469636B2069733A20F9
:1027A000256400000D0A5461736B34206973207234
:1027B000656C656173696E67207365636F6E642015
:1027C00062697421205469636B2069733A2025641F
:1027D000000000000D0A5461736B342072656C6553
:1027E00061736564207365636F6E64206269742C25
:1027F00020736C656570696E67206E6F7721205459
:1028000069636B2069733A20256400000D0A5461E6
:10281000736B342064656C65746520697473656CD2
:102820006621205469636B2069733A202564000097
:102830000D0A46726565205461736B31204D656DDC
:102840006F727921205469636B2069733A20256483
:1028500000000000880000207800002074000020A4
:102860000D0A46726565205461736B32204D656DAB
:102870006F727921205469636B2069733A20256453
:10288000000000008C0000207C0000200D0A467231
:102890006565205461736B33204D656D6F727921CE
:1028A000205469636B2069733A202564000000009E
:1028B00090000020800000200D0A467265652054BB
:1028C00061736B34204D656D6F727921205469639B
:1028D0006B2069733A2025640000000094000020FA
:1028E0008400002068000020880100200D0A546147
:1028F000736B202573203078253038582069732079
:102900006372656174656421205469636B20697327
:102910003A202564000000000D0A4661696C2074AD
:102920006F20637265617465207461736B2120543C
:1029300069636B2069733A202564000064000020FD
:102940000D0A5461736B2025732043505520757414
:10295000696C697A6174696F6E20697320256425DA
:10296000250000006C0000200D0A5461736B2025C7
:1029700073202D2D2D2D3E205461736B2025732047
:1029800021205469636B2069733A2025640000009C
:102990000D0A5461736B204E554C4C202D2D2D2D5E
:1029A0003E205461736B2025732021205469636B92
:1029B0002069733A202564000D0A5461736B202549
:1029C000732069732064656C6574656421205469A3
:1029D000636B2069733A2025640000003EB5FDF763
:1029E000DDFBFFF7E1FAFFF72BFB4FF480620521D7
:1029F0004248FFF73FFA42490860424A4FF480617B
:102A00003F480068FFF772FA3F4908603F4A4FF4B9
:102A100080613B480068FFF769FA3D4908603D4A1C
:102A20004FF4806136480068FFF760FA3A49086061
:102A30003A4A4FF4806132480068FFF757FA384944
:102A40000860002002214A02CDE9002102902E48B0
:102A500000223449036834A0FEF7D8FC002003218B
:102A60004FF48062CDE900210290294800223049CC
:102A7000036830A0FEF7CAFC002004210A02CDE959
:102A800000210290244800222C4903682CA0FEF764
:102A9000BDFC002004210A02CDE90021029020485B
:102AA00000222949036829A0FEF7B0FC0020052177
:102AB0004FF480620346CDE9002102900246254989
:102AC00025A0FEF7A3FC002006214FF480620346F8
:102AD000CDE9002102900246214922A0FEF796FC92
:102AE00022490860FDF7FDFE0446214620A0FFF7BD
:102AF000C5FAFDF79CFB00203EBD0000502D0020D4
:102B00007400002088000020780000208C00002045
:102B10007C00002090000020800000209400002015
:102B200084000020252300085461736B31000000ED
:102B3000812300085461736B32000000E923000810
:102B40005461736B33000000472400085461736BB9
:102B500034000000A5240008436C65616E657200B6
:102B60003725000853726C50727400006C0000200E
:102B70000D0A52454D49582069732072756E6E6971
:102B80006E6721205469636B2069733A20256400C5
:102B900010B50446CA48844208D10121042000F03F
:102BA00027FB0021042000F023FB46E0C5488442B7
:102BB00008D10121082000F01BFB0021082000F0B3
:102BC00017FB3AE0C048844208D10121102000F0F0
:102BD0000FFB0021102000F00BFB2EE0BB488442CD
:102BE00008D10121202000F003FB0021202000F06B
:102BF000FFFA22E0B648844208D10121402000F0CB
:102C0000F7FA0021402000F0F3FA16E0B1488442C0
:102C100008D10121802000F0EBFA0021802000F093
:102C2000E7FA0AE0AC48844207D10121801500F0A0
:102C3000DFFA0021A01500F0DBFA10BD10B501216C
:102C4000084600F0D5FA0021012000F0D1FA10BDAD
:102C50002DE9F04102460025002600200023002433
:102C6000002791F803C00CF00F0591F803C01CF089
:102C7000100F03D091F802C04CEA050591F800C08E
:102C8000BCF1000F31D0146800202BE04FF0010C94
:102C90000CFA00F3B1F800C00CEA03069E4220D102
:102CA00083004FF00F0C0CFA03F7BC4305FA03FC4A
:102CB0004CEA040491F803C0BCF1280F06D14FF090
:102CC000010C0CFA00FCC2F814C00AE091F803C031
:102CD000BCF1480F05D14FF0010C0CFA00FCC2F812
:102CE00010C0401C0828D1D31460B1F800C0BCF15A
:102CF000FF0F34DD546800202EE000F1080C4FF087
:102D0000010808FA0CF3B1F800C00CEA03069E4271
:102D100021D183004FF00F0C0CFA03F7BC4305FAE6
:102D200003FC4CEA040491F803C0BCF1280F05D160
:102D300000F1080C08FA0CF8C2F8148091F803C0EE
:102D4000BCF1480F07D100F1080C4FF0010808FA58
:102D50000CF8C2F81080401C0828CED35460BDE89F
:102D6000F0814FF6FF710180022181700421C17052
:102D700070470246002093680B4201D0012000E01A
:102D8000002070470146886880B2704702460020E4
:102D9000D3680B4201D0012000E0002070470146BB
:102DA000C86880B2704701617047416170470AB1DD
:102DB000016100E041617047C16070474FF48032AB
:102DC0000A43826181618261826982697047024639
:102DD0000020424B18684FF68073184040EA0210FA
:102DE00008433E4B186070473D49C8617047F0B5D5
:102DF0000A46002300240021002500F00046B6F119
:102E0000004F02D1354EF16901E0344E7168C0F3D4
:102E1000034583B200F44016B6F5401F08D121F0F7
:102E200070612E4E766826F070662C4F7E6012E040
:102E300000F48016B6F5801F06D1032606FA05F4C5
:102E4000A14341F0706106E0460D360103FA06F633
:102E5000B14341F0706122B1460D360103FA06F626
:102E6000314300F00046B6F1004F02D11B4EF16134
:102E700001E01A4E7160F0BD30B500228B071C0FC7
:102E80000F2303FA04F2154B08338C1053F8243047
:102E90009343124C08348D1044F8253023468C108F
:102EA00053F824308C07240F00FA04F423430B4C0E
:102EB00008348D1044F8253030BD0A490860704749
:102EC00000080140000C01400010014000140140C6
:102ED00000180140001C014000200140000001409A
:102EE00000002042DC002042DD48006840F0010084
:102EF000DB49086008464068DA490840D84948601C
:102F000008460068D8490840D54908600846006866
:102F100020F4802008600846406820F4FE004860E5
:102F20004FF41F0088607047CD49096821F4803153
:102F3000CB4A11601146096821F480211160B0F577
:102F4000803F03D0B0F5802F0ED106E0C449096858
:102F500041F48031C24A116007E0C149096841F477
:102F6000A021BF4A116000E000BF00BF704710B54C
:102F700001460022002300204A11012A02D1B84C48
:102F8000236806E0022A02D1B54C236A01E0B44C62
:102F9000636A01F01F02012494401C4201D0012009
:102FA00000E0002010BD38B500200090002400256E
:102FB00000BF3120FFF7DBFF05460098401C009062
:102FC0000098B0F5704F01D0002DF2D03120FFF7FE
:102FD000CEFF08B1012400E00024204638BD0146A0
:102FE00000209F4A106820F0F80040EAC1001060FD
:102FF00070479E490860704702460020984B586809
:1030000020F47C1042EA01031843954B5860704746
:1030100096490866704701460020914A506820F0A2
:1030200003000843506070478D48406800F00C0072
:103030007047014600208A4A506820F0F00008439B
:103040005060704701460020854A506820F4E060D7
:1030500008435060704701460020814A506820F4C0
:10306000605040EAC1005060704729B17C4A527AF2
:1030700002437B4B5A7204E0794A527A8243784B7E
:103080005A7270477A490860704701460020744AB6
:10309000506820F440400843506070470021754A52
:1030A00011706F4A82F82010012802D0042808D13C
:1030B00003E001216F4A117004E005216D4A11708F
:1030C00000E000BF00BF70476B490860704764496B
:1030D000096A0143624A11627047674944390860CE
:1030E000704730B500210022002400235C4D6D683C
:1030F00005F00C0121B1042905D0082923D105E0F0
:103100005E4D056022E05D4D05601FE0544D6D6829
:1031100005F47012524D6D6805F48034022505EBFC
:1031200092421CB9564D554305600BE04C4D6D68FD
:1031300015F4003F03D0524D5543056002E04F4D5A
:103140005543056002E04D4D056000BF00BF444D92
:103150006D6805F0F00109094A4D6B5C0568DD40BA
:1031600045603F4D6D6805F4E061090A454D6B5CB3
:103170004568DD4085603A4D6D6805F46051C90AC7
:10318000404D6B5C4568DD40C560354D6D6805F4AC
:103190004041890B3C4D6B5CC568B5FBF3F505619F
:1031A00030BD29B12E4A526902432D4B5A6104E0C9
:1031B0002B4A526982432A4B5A61704729B1284AE7
:1031C00092690243264B9A6104E0254A9269824340
:1031D000234B9A61704729B1214AD2690243204B9F
:1031E000DA6104E01E4AD26982431D4BDA617047FE
:1031F00029B11B4AD2680243194BDA6004E0184A2D
:10320000D2688243164BDA60704729B1144A1269BA
:103210000243134B1A6104E0114A12698243104BB6
:103220001A61704714494039086070470F49C864F3
:1032300070470B49C87170470948406A40F0807078
:1032400007494862704701460020054A92680A42D1
:1032500001D0012000E000207047014988727047CA
:10326000001002400000FFF8FFFFF6FE000042429F
:10327000D8004242201002408004424200127A00EC
:1032800000093D0098000020A800002010B5044669
:10329000FB48844209D101218803FFF7A9FF0021DF
:1032A0004FF48040FFF7A4FF32E0F648844209D192
:1032B00001214804FFF7A9FF00214FF40030FFF778
:1032C000A4FF25E0F048844209D101218804FFF7DA
:1032D0009CFF00214FF48020FFF797FF18E0EB4898
:1032E000844209D10121C804FFF78FFF00214FF468
:1032F0000020FFF78AFF0BE0E548844208D1012156
:103300000805FFF782FF00214FF48010FFF77DFFD3
:1033100010BD2DE9F04786B005460E460024A246B2
:1033200000BFA1460027B08900B100BF2F462C8AFC
:103330004CF6FF700440F08804432C82AC894EF6B2
:10334000F3100440B088318908437189084304436D
:10335000AC81AC8A4FF6FF400440B0890443AC8294
:1033600001A8FFF7BEFEC648874202D1DDF810A0D3
:1033700001E0DDF80CA0A88910F4004F08D00AEB9A
:10338000CA0000EB0A1031684900B0FBF1F807E011
:103390000AEBCA0000EB0A1031688900B0FBF1F8B3
:1033A0006420B8FBF0F004012009642101FB1089BE
:1033B000A88910F4004F08D0322000EBC900B0FB00
:1033C000F1F000F00700044308E0322000EB0910A0
:1033D0006421B0FBF1F000F00F0004432C8106B033
:1033E000BDE8F0874FF4E131016000218180C180A8
:1033F00001810C21418100218181704710B5024675
:103400000020108A4FF2FF0318400B884C8823439A
:103410008C882343CC8823431843108210BD00219D
:10342000018041808180C180704721B1828942F44E
:103430000052828104E082894DF6FF731A40828136
:103440007047F0B503460024002600250020A1F5B2
:1034500010676A3F00D100BF1846C1F3421401F063
:103460001F06012707FA06F5012C01D10C3004E0F4
:10347000022C01D1103000E014301AB107682F433C
:10348000076002E00768AF430760F0BD1AB1838AA6
:103490000B43838202E0838A8B4383827047028AD4
:1034A0004FF6F0731A400282028A0A430282704782
:1034B00082894FF2FF731A40828182890A43828196
:1034C000704721B1828942F00202828104E0828940
:1034D0004FF6FD731A4082817047028A4FF6DF7300
:1034E0001A400282028A0A430282704721B1028A8C
:1034F00042F48042028204E0028A4BF6FF731A40D3
:1035000002827047C1F308028280704701468888B2
:10351000C0F308007047818941F001018181704743
:10352000028BD2B20283028B42EA012202837047ED
:10353000028B02F47F420283028B0A4302837047AC
:1035400021B1828A42F02002828204E0828A4FF610
:10355000DF731A408282704721B1828A42F01002E2
:10356000828204E0828A4FF6EF731A4082827047AB
:1035700021B1828A42F00802828204E0828A4FF6F8
:10358000F7731A408282704721B1828942F4004267
:10359000828103E08289C2F30E028281704721B1E9
:1035A000828A42F40062828204E0828A4FF2FF73D0
:1035B0001A4082827047828A4FF6FB731A408282D9
:1035C000828A0A438282704721B1828A42F00202D3
:1035D000828204E0828A4FF6FD731A40828270472D
:1035E00002460020B1F5007F00D100BF13880B42D6
:1035F00001D0012000E00020704701F40072B2F514
:10360000007F00D100BFCA430280704770B50246F8
:103610000024002300250020A1F510666A3E00D199
:1036200000BFC1F3421501F01F03012606FA03F3A0
:10363000012D02D19689334006E0022D02D1168A6F
:10364000334001E0968A33400C12012606FA04F456
:103650001688344013B10CB1012000E0002070BD89
:1036600010B500220023A1F510646A3C00D100BF10
:103670000A1201249440A3B2DC43048010BD000070
:10368000003801400044004000480040004C004029
:10369000005000400648804706480047FEE7FEE726
:1036A000FEE7FEE7FEE7FEE7FEE7FEE7FEE7FEE7F2
:1036B0002522000831010008421C10F8011B0029D6
:1036C000FBD1801A704730B50B46014600202022FE
:1036D000012409E021FA02F59D4205D303FA02F51F
:1036E000491B04FA02F52844151EA2F10102F1DC7F
:1036F00030BD2DE9F05F0546002092469B46884686
:103700000646814640241BE028464146474622465D
:1037100000F0F5F953465A46C01A914110D31146AC
:103720001846224600F0DCF92D1A67EB01084F46D7
:1037300022460120002100F0D3F917EB00094E4189
:10374000201EA4F10104DFDC484631462A464346E8
:10375000BDE8F09F2DE9FE4F804681EA0300C00FCF
:103760000C46009021F0004123F00045B8EB020028
:10377000A94105D24046214690461C460B460246CA
:1037800023F00040104304D14046214603B0BDE879
:10379000F08F270DC7F30A00C3F30A510290401AB5
:1037A0000190402866DAC3F3130040F4801B0098B0
:1037B000924620B10023D2EB030A63EB0B0B019876
:1037C0005946C0F14002504600F08AF906460D46BF
:1037D00050465946019A00F0A2F910EB08006141E9
:1037E000002487EA115284EAE7731A433BD0009A17
:1037F0003AB3019A012A4FEA075210DC001B61EB31
:1038000002014FF0004202EA0752CDE90042001CDB
:1038100041F5801132462B4600F0A0F9B6E7001BB7
:1038200061EB0201001C41F5801300185B41201878
:10383000A2F5001747EB030140EAD570B6196D41B8
:1038400011E06D084FEA360645EAC0754FEA0752A7
:10385000001B61EB0201001C41F5801149084FEA91
:1038600030000019514132462B4603B0BDE8F04FFD
:1038700000F067B90098012240000023D0EB02025B
:1038800063EBE073009821464FEAE074B8EB000068
:1038900061EB0401E9E783F000435BE781F000415D
:1038A00058E72DE9FE4F81EA030404F0004421F0BB
:1038B000004100944FF0000B23F0004350EA010454
:1038C00002D052EA030404D10020014603B0BDE84F
:1038D000F08FC3F30A54C1F30A552C44A4F2F33415
:1038E0000194A0FB0254C1F3130141F48011C3F30E
:1038F000130343F4801301FB024400FB034E840ACC
:10390000970A44EA815447EA8357A4FB0768029563
:103910008D0A05FB07854FEA932C04FB0C54270501
:10392000029D4FEA065847EA1637B5EB08056EEBDD
:10393000070C870E920E47EA811742EA8312A7FB13
:103940000201B6EB0B0164EB00042B0D43EA0C33D0
:103950005E1844EB1C50DA465146E7FB0201C5F302
:1039600013044FEA0B3343EA14534FEA0432019C29
:1039700043EA0603A4F10C040294009CCDE900B4D0
:1039800000F0ECF8A2E72DE9F04D81EA030404F021
:10399000004B21F0004514464FF0000A23F000418F
:1039A00050EA050220D054EA01021DD0C5F30A579F
:1039B0000246C5F31303C1F31300C1F30A5640F4E2
:1039C000801543F48013A7EB0608101BD64608F2B7
:1039D000FD3873EB050002D308F1010801E09218ED
:1039E0005B41B8F1000F03DA00200146BDE8F08D1D
:1039F00000204FF48011064684460EE0171B73EB3F
:103A0000050705D3121B63EB050306434CEA010CC3
:103A100049084FEA300092185B4150EA0107EDD1A6
:103A200052EA030012D082EA040083EA0501084347
:103A300003D100224FF0004308E0101BAB4102D23B
:103A40000122002302E06FF0010253101AEB06007E
:103A50004CEB085110EB0A0041EB0B01BDE8F04DB7
:103A600000F06FB8C1F30A52C1F3130140F2FF3303
:103A700041F480119A4202DA00200146704740F278
:103A800033439A42A2F2334202DC524200F037B88A
:103A900000F026B830B5002904DB4FF00044404266
:103AA00064EB0101002B04DB4FF00044524264EB55
:103AB0000303994208BF904230BD0000064C074DF9
:103AC00006E0E06840F0010394E8070098471034EE
:103AD000AC42F6D3FCF730FB4C4600086C460008BD
:103AE000202A04DB203A00FA02F1002070479140BE
:103AF000C2F1200320FA03F3194390407047202AB3
:103B000004DB203A21FA02F00021704721FA02F387
:103B1000D040C2F120029140084319467047202A44
:103B200006DBCB17203A41FA02F043EAE07306E0E5
:103B300041FA02F3D040C2F12002914008431946F5
:103B4000704710B5002B08DA401C41F100019218B3
:103B50005B411A4301D120F0010010BD2DE9F04D69
:103B600092469B4611B1B1FA81F202E0B0FA80F2BE
:103B700020329046FFF7B4FF04460F4640EA0A00A1
:103B800041EA0B0153465A46084303D120463946C1
:103B9000BDE8F08D114653EA010015D0C8F140028E
:103BA0005046FFF7ACFF05460E4650465946424682
:103BB000FFF796FF084301D0012000E000200543F5
:103BC00046EAE0762C4337430A984FEA4453A0EB89
:103BD00008004FEAD4240A304FF0000244EA475468
:103BE0004FEAD72502D500200146D1E7010510197B
:103BF0006941DDE9084500196941BDE8F04DA0E7DC
:103C000090FAA0F0B0FA80F0704700B521480FF2AA
:103C1000050E0047EE462048D0F800C0604690B13F
:103C20000EF1040EBEE80F00ACE8FF0F9EE80F0097
:103C3000AEF1100E4CF8040B4CF804EBACE80E009F
:103C400001BCCCF800001548016801F11001B1E891
:103C5000F00F01F10401D1F800D001F11001086862
:103C600000470E48D0F800D010B001BC80F30388A4
:103C700082B000988FB04DF8040CBDE8FF1F01B072
:103C80005DF804EB90B000BD00DF7047EFF30380F8
:103C900070470000130500081400002018000020E1
:103CA00037B514460846064B6A46214600F0C8F868
:103CB00004466946002000F066FC20463EBD000038
:103CC0008745000802E008C8121F08C1002AFAD17F
:103CD00070477047002001E001C1121F002AFBD18C
:103CE000704700002DE9FF5FDDE90220010DDDF8DE
:103CF00038B0024310D10F9801244CA2012808D0FB
:103D0000002100980F9BC0E90021C0E90243BDE8F3
:103D1000FF9F6FEA0B01F4E7A1F2FF3144F6105068
:103D200041430D140F9801280ED0A5EB0B00401C49
:103D30004FF000043E4EDFF8FC90B0F1000AA046C0
:103D400005DACAF1000717E0CBF10000F0E70746FB
:103D500012E0F80707D02246334640464946FFF7AF
:103D6000A0FD804689462246334610461946FFF795
:103D700098FD04460E467F10002FEAD1DDE90201CE
:103D8000BAF1000F42464B4602DAFFF78AFD01E026
:103D9000FFF7F9FD04460E460022274BFFF77AFE97
:103DA00003D84FF0FF30014607E00022234B2046A6
:103DB0003146FFF7CFFCFFF755FE102409E0002C39
:103DC0000ADB0A220023FFF794FC019B30321A55CC
:103DD000641E50EA0102F2D1641C019AC4F111037D
:103DE00014440F9A012A09D00122084301D15B45EE
:103DF0000FDD4FF0000205F101050DE0084303D18E
:103E0000A3EB0B056D1E09E000204FF0110B0F9086
:103E100088E701DA00226D1E002A83D000980F99EE
:103E2000C0E90231C0E9004571E700003000000040
:103E3000000024400000F03F0000F0430000E03F9D
:103E40002DE9FF4F95B09B4689460646002512E2B4
:103E5000252878D10024761CF94A274601210594AB
:103E60003378203B01FA03F0104202D00443761C61
:103E7000F6E730782A2811D06FF02F033078A0F1C0
:103E80003002092A16D8059A44F0020402EB820295
:103E900003EB42021044761C0590EFE759F8042B1F
:103EA0000592002A03DA504244F40054059044F08D
:103EB0000204761C30782E2816D116F8010F44F033
:103EC00004042A280DD06FF02F023078A0F13003BF
:103ED000092B09D807EB870302EB4303C718761CAD
:103EE000F3E759F8047B761C30786C280FD006DC99
:103EF0004C2817D068280DD06A2814D104E0742803
:103F000010D07A280FD10DE044F400140AE044F4F4
:103F1000801401E044F440147278824202D1761C8D
:103F200004F58014761C307866280BD013DC5828F2
:103F300077D009DC002875D04528F6D04628F4D083
:103F400047281AD19FE118E0632835D0642879D03A
:103F5000652812D197E1702873D008DC6728F1D06A
:103F600069286FD06E280DD06F2806D1B5E0732870
:103F70002CD0752875D0782874D05A461799904758
:103F80006D1C76E1C4F30250022809D003280DD03D
:103F9000D9F8001004280DD00D6009F1040968E17A
:103FA000D9F80010EA17C1E90052F6E7D9F8001075
:103FB0000D80F2E70D70F0E719F8041B8DF8001082
:103FC00000208DF80100EA46012003E059F804AB17
:103FD0004FF0FF3061074FF0000102D40DE008F10F
:103FE00001018846B9420FDA8045F8DB1AF808105B
:103FF0000029F4D108E008F1010188468142FADB8A
:104000001AF808100029F6D105985B46A0EB0807BE
:1040100021463846179A00F09EFA284400EB08051E
:1040200007E04DE02BE10DE01AF8010B5A46179915
:104030009047B8F10108F7D25B4621463846179AF7
:1040400014E142E00A220092C4F302524FF0000A47
:10405000022A08D059F804CB032A4FEAEC710AD09F
:104060000DE029E02AE009F1070121F00702F2E85A
:1040700002C1914609E00FFA8CFC4FEAEC71042A68
:1040800003D14FFA8CFC4FEAEC71002907DA0A469B
:104090000021DCF1000C61EB02012D2202E022057F
:1040A00004D52B228DF80420012203E0E20701D081
:1040B0002022F7E7904653E00A2102E010220DE0AB
:1040C00010214FF0000A00910BE010224FF0000A7F
:1040D00044F004040827009203E008224FF0000A8D
:1040E0000092C4F30252022A05D059F804CB0021F1
:1040F000032A08D009E009F1070121F00702F2E8DC
:1041000002C1914605E01FFA8CFC042A01D10CF093
:10411000FF0C4FF00008220722D5702827D0009B03
:1041200083F0100353EA0A0309D15CEA010206D0C6
:1041300030228DF804208DF8050002229046009B65
:1041400083F0080353EA0A030AD15CEA010201D1B1
:10415000620705D530228DF804204FF001087F1E3C
:10416000582809D037A003900EA8029013E04022EF
:104170008DF804200122E1E737A0F4E753466046BA
:10418000009AFFF7B6FA84460398825C0298A0F181
:104190000100029002705CEA0100EFD1029806A9CA
:1041A000A1EB000000F1200A600702D524F480345E
:1041B00000E00127574502DDA7EB0A0000E00020E0
:1041C00000EB0A01009005984144A0EB0100059026
:1041D000E00306D45B462146179A059800F0BBF928
:1041E0000544002706E001A85A46C05D179990478C
:1041F0006D1C7F1C4745F6DBE0030CD55B46214672
:10420000179A059800F0A7F9054404E030205A46B3
:10421000179990476D1C0099481E00900029F5DC05
:1042200008E0029802995A460078491C02911799B1
:1042300090476D1CBAF10001AAF1010AF1DC6BE1B3
:10424000092801003031323334353637383961626C
:104250006364656600000000303132333435363730
:1042600038394142434445460000000000F060F9FF
:10427000054406F10106307800287FF4E9AD19B055
:104280002846BDE8F08F620700D4062709F107022F
:1042900022F0070CFCE80223E14603F000485FEA45
:1042A000080C02D00FF27C2C0DE05FEA045C02D512
:1042B0000FF2742C07E05FEAC47C02D00FF26C2C82
:1042C00001E0AFF2700C4FF0FF3823F00043CDF85F
:1042D00050C065280CD006DC452809D046281DD0E2
:1042E00047283ED13EE0662818D0672839D139E00A
:1042F0000021112F01DB112000E0781CCDE9000125
:1043000006A90EA8FFF7EEFCDDE90F010E9A039156
:104310000021009207F1010A04914EE04FF00040A5
:104320000097CDE9011006A90EA8FFF7DBFCDDE937
:104330000F0203920E9B11990022DDF80CA000934E
:10434000049219B907F1010100EB010AB7EB0A0069
:1043500004D4C0F1FF3007F1010A0490AAEB070072
:10436000019046E0012F00DA01270021112F01DD25
:10437000112000E03846CDE9000106A90EA8FFF79C
:10438000B1FCDDE90F010E9A039100210491009226
:10439000BA4621070CD40399514500DA8A46BAF18E
:1043A000010F05DD009AAAF10101515C302908D006
:1043B000B84202DA10F1040F06DA0121CDE901104A
:1043C00017E0AAF10101E9E7002805DC049901449E
:1043D0000491AAEB000102E0411C514500DD8A4630
:1043E0000499A0EB010000F1010001904FF00040A2
:1043F0000290200704D40198504501DBCDF80480D9
:1044000000208DF84F0002980DF14F07B0F1004FDA
:1044100025D02B200E9002984FF0020800280CDACD
:10442000404202902D200E9007E00A210298FFF7EB
:104430004AF93031029007F8011DB8F10001A8F1E6
:104440000108F2DC02980028EFD1791E0E9808705E
:10445000307800F0200040F0450007F8020D12A867
:10446000A0EB070000F107081498007800B10120C4
:1044700000EB0A01019801EBE07105984144A0EBC3
:104480000100A0F101000590E00306D45B4621463F
:10449000179A059800F05FF805441498007820B149
:1044A0005A461799904705F10105E00323D55B466D
:1044B0002146179A059800F04EF805441BE0049831
:1044C000002807DBDDE90301884203DD0098405C3A
:1044D000179901E0179930205A46904704986D1CAF
:1044E000401C04900198401E019004D12E205A4691
:1044F000179990476D1CBAF10001AAF1010ADEDCA0
:1045000005E017F8010B5A46179990476D1CB8F152
:104510000001A8F10108F4DC5B462146179A0598D2
:10452000A4E600002D0000002B0000002000000089
:104530002DE9F041044600251E461746880405D49F
:1045400006E039462020B04705F10105641EF8D584
:104550002846BDE8F0812DE9F041044600251E46BD
:104560009046C80301D5302700E02027880405D5F0
:1045700006E041463846B04705F10105641EF8D50E
:104580002846BDE8F0810A68531C0B601070704724
:1045900010B5002821D0114B001F0022196803E03C
:1045A000814203D80A4649680029F9D152B11368FB
:1045B000841A9C4204D1006818441060104602E03E
:1045C000506000E0186039B102680B1A934203D1C1
:1045D0000B681A4402604968416010BDAC000020BD
:1045E000F0B50B30154D20F007010024144A0FE000
:1045F00003688B420BD38B4205D95E1A4318476878
:10460000C3E9006700E04368136002C004E0021DD4
:1046100010680028ECD12046002802D1286808B193
:104620000020F0BD064A07481060074A121A22F01F
:104630000702C0E9002401202860D7E7B00000206D
:10464000AC00002054410020508100206C4600083E
:1046500000000020B4000000C43C0008204700080F
:10466000B40000209C820000D43C00080000000040
:10467000000000000000000000000000000000003A
:10468000000000000000000000000000000000002A
:10469000000000000000000000000000000000001A
:1046A000000000000000000000000000000000000A
:1046B00000000000000000000000000000A24A040A
:1046C00000000000000000000102030406070809C2
:1046D00000000000000000000000000000000000DA
:1046E00000000000000000000000000000000000CA
:1046F00000000000000000000000000000000000BA
:104700000000000000000000010203040102030495
:104710000607080902040608000000000000000067
:020000040803EF
:1090040041F2A45300FB03F2002100BF914200D1BE
:0C90140001E0491CFAE700BF70470000B3
:0400000508000131BD
:00000001FF
