:020000040800F2
:10000000E06E0020A52D0008ED170008EF1700088E
:10001000F3170008F7170008FB170008000000009E
:10002000000000000000000000000000FF170008B2
:1000300013180008000000001B3300081718000800
:10004000BF2D0008BF2D0008BF2D0008BF2D0008E0
:10005000BF2D0008BF2D0008BF2D0008BF2D0008D0
:10006000BF2D0008BF2D0008BF2D0008BF2D0008C0
:10007000BF2D0008BF2D0008BF2D0008BF2D0008B0
:10008000BF2D0008BF2D0008BF2D0008BF2D0008A0
:10009000BF2D0008BF2D0008BF2D0008BF2D000890
:1000A000BF2D0008BF2D0008BF2D0008BF2D000880
:1000B000BF2D0008BF2D0008BF2D0008BF2D000870
:1000C000BF2D0008BF2D0008BF2D0008BF2D000860
:1000D000BF2D0008BF2D0008BF2D0008BF2D000850
:1000E000BF2D0008BF2D0008BF2D0008BF2D000840
:1000F000BF2D0008BF2D0008BF2D0008BF2D000830
:10010000BF2D0008BF2D0008BF2D0008BF2D00081F
:10011000BF2D0008BF2D0008BF2D0008BF2D00080F
:10012000BF2D0008BF2D0008BF2D0008BF2D0008FF
:10013000DFF80CD003F04AF800480047B52100086A
:10014000E06E002000BFFEE7F9490860704700B587
:1001500002460020F74908600120FFF7F5FF00BDC7
:1001600010B5F54800F040FC10BD70B50446002500
:1001700004E004EBC50000F037FC6D1C082DF8D33B
:10018000002084F8400070BD10B5EC48FFF7EDFF8B
:1001900010BD10B5EA4800F027FC10BD0EB50020D8
:1001A000FFF7D2FF0120E34908600020E54908601D
:1001B000E5490860E5490860E5490860E5490870D7
:1001C000E549086001F024FA4FF0FF31002001F00A
:1001D000F5F90020E1490860FFF7DBFFFFF7D4FFE6
:1001E000FFF7BEFF002001214FF416720346CDE950
:1001F000002102900246AFF2A901D9A000F0B3FF9E
:10020000D2490860002007214FF416720346CDE959
:10021000002102900246AFF2D301D3A000F0A3FF69
:10022000C949086000F0DEFA0EBD10B5C748006885
:10023000CF490860C5480068C249086003F099F8D2
:1002400010BD10B5C2480068401CC14908600120BB
:10025000C0490870C1480068401CC0490860B948DE
:100260000068B0B1B748006890F87C00C14951F807
:10027000200070B1B348006890F87C00BE4951F886
:100280002000401CAF49096891F87C10BA4A42F836
:10029000210000F0BAFA10BD10B50446207800F035
:1002A0000FFB10BD2DE9F047A4484030FFF7F4FFE5
:1002B0008146A24800EBC908404600F0E6FB05462F
:1002C0002F46BE689F48006890F87C00A94951F805
:1002D000200050B39B480068B04226D1994800687E
:1002E00090F87C00A44951F820009649096891F8DB
:1002F0007C10A04A52F82110884216D30020914960
:10030000096891F87C109C4A42F821002946404631
:1003100000F0BEFB044644B1404600F077FB29469E
:10032000404600F065FB2746BE683046BDE8F087D2
:10033000027801238B40DBB21A43027070472DE92B
:10034000F04106460F4614461D463946304600F039
:100350004FFB29462046FFF7EBFFBDE8F0812DE972
:10036000F04104460D4616461F463B463246294696
:100370002046FFF7E4FFBDE8F081027801238B40BF
:100380009A43027070472DE9F04106460C46154627
:10039000304600F03BFB0746304600F076FB18B9CC
:1003A00029462046FFF7E9FF3846BDE8F0812DE9F0
:1003B000F0410546EC6E94F8480000F00300022876
:1003C0000CD195F87C7004EBC70604F140083A465E
:1003D00041463046FFF7D7FFBDE8F08104F138060B
:1003E000304600F013FBF7E710B5044621465248AB
:1003F00000F031FB10BD2DE9F84F4F4800F045FBF0
:100400000546002D4FD04CE0AA46DAF80840D4F853
:1004100088B04F480068834542D12846FFF7E4FF83
:100420000646A06F20F00100A06794F8800000F05D
:100430000400042809D194F8800020F0040084F816
:10044000800002218420015111E094F8800000F026
:10045000080008280BD12046FFF7A9FF94F8800078
:1004600020F0080084F8800002218420015104F16A
:10047000540914F87C7F314800EBC70840300090E5
:100480003B4649464046009AFFF769FF207940F015
:1004900002002071A4F17C0406B903E0354600E0B7
:1004A00000E0B1E700BFBDE8F88F10B5294800783B
:1004B000012804D1002027490870FFF79CFFFFF7AF
:1004C000F1FE044621461F48006800F03AFA2B4826
:1004D000006828B121461B480068284A12689047E6
:1004E0001848006820B1174800682549086002E0F4
:1004F0000020234908601E4804601248046010BDB3
:1005000010B5044621460E4800F072FA10BD10B531
:10051000044621460A4800F09EFA10BD70B5044614
:100520000D461646324629462046FFF72CFF70BD81
:10053000280000200000002004000020900000207F
:10054000380000201C000020240000202000002093
:100550000C000020100000202C000020340000209F
:10056000524F4F540000000049646C6500000000C9
:1005700018000020D4000020F400002044000020D7
:10058000140000202DE9F04704464C4800F07DFAA5
:1005900007467FB3A146D9F80800D0F888502FE06D
:1005A000B946D9F80800D0F8886045480068A842E4
:1005B00001D2B5420DD3B54203D24148006886420C
:1005C00007D33F48006886420AD23D480068A842E7
:1005D00006D222463946394800F02BFABDE8F087AA
:1005E0003946364800F054FA8046B8F1000F02D080
:1005F000474605E005E02146304800F0F9F9EDE70F
:10060000CEE721462D4800F0F3F900BFE6E710B52C
:1006100004462046FFF7A9FD10BD2DE9F047054629
:100620000C4694F8480000F0030002280ED195F81B
:100630007C8005F1600704EBC80604F140094346DD
:100640004A4639463046FFF77AFE07E004F138069D
:1006500005F160073946304600F0CAF9EC66BDE89E
:10066000F0872DE9F041054695F8480000F00300B9
:10067000022805D105F14000FFF70EFE064600E016
:10068000072605EBC60000F000FA044614B9002066
:10069000BDE8F0812746B868FAE709480068704766
:1006A00008480068704708480068704707480068B5
:1006B000704707480068704706A070470400002094
:1006C0000C0000201C00002020000020240000203E
:1006D000280000203030312E3030312E3030312E95
:1006E0003030310010B5002807DA0A07140E7A4AB4
:1006F00000F00F031B1FD45403E00A07130E774AC0
:10070000135410BD2DE9F04104460F46904625468E
:10071000C5F8008000206860A860E8602861686112
:10072000A861E86128626862A862E8622863A4F1AF
:10073000200068636A48A863EF634FF08070286404
:100740006FF006006864204600F0D2F82646301F9D
:100750000646296C0160301F0646E96B0160301FB8
:100760000646A96B0160301F0646296B0160301FE9
:100770000646E9680160301F0646A9680160301F1F
:10078000064669680160301F064629680160BDE8B9
:10079000F08110B50E216FF00100FFF7A3FF10BD2F
:1007A00010B5504800686421B0FBF1F4B4F1807FCB
:1007B00000D311E024F07F40401E4FF0E02148615B
:1007C0000F214FF0FF30FFF78DFF00204FF0E021A9
:1007D00088610720086100BF0C214FF0FF30FFF750
:1007E00081FF10BD10B5FFF7DBFFFFF7D2FF10BD93
:1007F000014600BFEFF31482104620F001000843C9
:10080000024682F3148800BF7047334814380068EA
:1008100040F08050304914390860704710B502F03C
:10082000BDFDC005C00D01D0002010BD0120FCE7BA
:1008300010B5FFF7F3FF18B12B4802F0ADFD01E052
:10084000FFF7E3FF10BD10B5FFF7E8FF08B901207F
:1008500010BD2648006838B972B624480068401CAC
:10086000224908600020F3E720480068401C06D0B9
:100870001E480068401C1D4908600020E8E7012070
:10088000E6E710B5FFF7CAFF08B9012010BD174809
:100890000068012806D915480068401E1349086001
:1008A0000020F3E711480068012807D10F480068CD
:1008B000401E0E49086062B60020E7E70120E5E728
:1008C00070B50546284602F023FDC4B2202C01D1A4
:1008D000002070BD2046FCE718ED00E000E400E0D9
:1008E0009D1200084C000020011000102C00002078
:1008F000436FDB1C23F00302002103E04FF0CC33F5
:100900005350091D831A8B42F8D8704701464B6F2C
:10091000DB1C23F00302002005E01358B3F1CC3FA9
:1009200000D003E0001D8B1A8342F6D800BF704749
:100930000021C0F88C10002290210A5094210A5006
:1009400070472DE9F041044688464FF0E020876962
:10095000C4B12148006821490968884208D1902023
:100960000059D4F88C10C91B01449020015109E0B2
:1009700090200159D4F88C0000F18070C01B014414
:10098000902001511548006813490860C8F88C7020
:1009900013480068642818D1124E0EE0B568902004
:1009A000405900F50000000E64214843B0FBF1F10E
:1009B000942041510021902041513146094800F0D6
:1009C00067F80600EAD106490860BDE8F0810146F3
:1009D0009420405870470000300000200C00002098
:1009E0003400002038000020002101604160704781
:1009F000426832B102680A60486002685160016072
:100A000003E00860486001604160704701464A6841
:100A10006AB1D1E90003984204D050684860506838
:100A2000016002E000200860486010467047002026
:100A3000FCE730B505460B4614469D4206D01868C3
:100A400044601868206063601C6003E0214628460B
:100A5000FFF7CEFF30BD30B505460C46A54212D09B
:100A60002068A84202D16068A84207D0D4E90010EB
:100A70004860D4E900010860606830BD2846FFF78F
:100A8000C5FF0020F9E70020F7E7014648687047F6
:100A900002464868904201D1002070474868FCE750
:100AA00070B506460D4605F00300012805D005F097
:100AB0000300022801D0002070BD35F0030001D0F2
:100AC0000020F9E776B9FFF7BEFE602003F010F9C9
:100AD00004461CB9FFF7D5FE0020EDE7FFF7D1FE75
:100AE000264600E000243046FFF77EFFF46545F01F
:100AF0000801002206F1080000F056F808B130465F
:100B0000DAE714B1204603F0CBF80020D4E770B543
:100B100004460D4604B10DB9012070BDFFF793FEE8
:100B200029462046FFF764FFFFF7ABFE04F10800FB
:100B300000F078F9F1E72DE9F04104460D4617463B
:100B400004B115B90120BDE8F081394604F108006F
:100B500000F080F806460EB13046F4E7FFF773FE6A
:100B60002046FFF753FF8046FFF78BFEC5F8008055
:100B70000020E8E710B504460CB9012010BD04219F
:100B800004F1080000F0FBF908B10120F6E7E06D80
:100B900040B1FFF758FEE06D03F082F80020E065F9
:100BA000FFF76FFE0020E9E72DE9F04105460C460E
:100BB000174604F01C00042807D004F01C00082885
:100BC00003D004F01C00102813D104F00300012806
:100BD00003D004F0030002280BD104F01C001028FD
:100BE00003D104F00300022806D004F020002028DE
:100BF00002D10020BDE8F08104F01C00042805D1DA
:100C00006FB1B7F1FF3F0AD00020F3E704F01C00FA
:100C1000102804D1B7F1FF3F01D00020EAE775B9F1
:100C2000FFF711FE542003F063F806461EB9FFF7E4
:100C300028FE0020DEE7FFF724FE354600E0002610
:100C40002846FFF7E4FC6F64AC64EE64002028657E
:100C50002846CFE770B504460D460CB9012070BD9B
:100C6000FFF7DCFD50B994F8480000F01C00102894
:100C700001D10120F3E70DB10120F0E7FFF7E3FD1B
:100C8000002D4AD194F8480000F01C0004280DD132
:100C9000606CB0F1FF3F05D100206064FFF7F1FD0B
:100CA0000020DCE7FFF7EDFD0320D8E794F84800CB
:100CB00000F01C0008280CD1606C30B1606C401E44
:100CC0006064FFF7DEFD0020C9E7FFF7DAFD0320CF
:100CD000C5E7606CB0F1FF3F09D1E34800682065CB
:100CE000606C401E6064FFF7CCFD0020B7E7DE4972
:100CF000206D096888420CD1606C30B1606C401E78
:100D00006064FFF7BEFD0020A9E7FFF7BAFD0520EC
:100D1000A5E7FFF7B6FD0320A1E794F8480000F02F
:100D20001C0004281CD1606CB0F1FF3F05D10020ED
:100D30006064FFF7A6FD002091E72946204600F0F9
:100D400059FB012803D1FFF79CFD012087E7FFF73E
:100D500098FDFFF76DFDC4480068D0F884007EE779
:100D600094F8480000F01C0008281BD1606C30B1DA
:100D7000606C401E6064FFF784FD00206FE7294629
:100D8000204600F037FB012803D1FFF77AFD012050
:100D900065E7FFF776FDFFF74BFDB3480068D0F835
:100DA00084005CE7606CB0F1FF3F09D1AE48006899
:100DB0002065606C401E6064FFF763FD00204EE715
:100DC000A949206D096888420CD1606C30B1606C13
:100DD000401E6064FFF755FD002040E7FFF751FD1E
:100DE00005203CE794F8480000F02000202806D1B8
:100DF0009D4A126892F87C10206D00F05DFB294638
:100E0000204600F0F7FA012803D1FFF73AFD012050
:100E100025E7FFF736FDFFF70BFD93480068D0F894
:100E200084001CE72DE9F05F044614B90120BDE8F9
:100E3000F09FFFF7F3FC38B994F8480000F01C006D
:100E4000102801D10120F2E74FF0000BFFF7FBFC67
:100E500094F8480000F01C00042805D1606C08B923
:100E6000012629E0002627E094F8480000F01C0045
:100E700008280ED1606C08B901261DE00026606CC0
:100E8000B0F1FF3F03D0606C401C606414E00220AE
:100E9000CDE77549206D0968884203D0FFF7F1FC62
:100EA0000120C4E7606C401C6064606CB0F1FF3FDF
:100EB00001D0002600E00126012E5CD16A480068BE
:100EC00000F04DFB2046FFF7CCFB0546EDB328466E
:100ED000FFF76DFA95F8780010F0010F08D005F1D2
:100EE00054073846FFF780FAA86F20F00100A86782
:100EF00095F8800020F0080085F88000002184200B
:100F0000415105F1540795F87C80584800EBC80919
:100F100000F1400A4346524639464846FFF71FFA59
:100F200095F8800040F0020085F8800094F84800B1
:100F300000F01C00102803D12565606C401E606421
:100F4000FFF79FFCFFF774FC15E0FFE794F84800FB
:100F500000F01C00042802D1401F60640BE094F8EC
:100F6000480000F01C00082803D1606C401C60643D
:100F700001E000202065FFF784FC584657E72DE983
:100F8000F04705460F4615B90120BDE8F08795F8F2
:100F9000480000F01C00102801D10120F5E7FFF700
:100FA00052FC32E02846FFF75CFB044664B320465F
:100FB000FFF7FDF994F8780010F0010F08D004F164
:100FC00054094846FFF710FAA06F20F00100A0670F
:100FD00094F8800020F0080084F8800084200751F5
:100FE00004F1540914F87C6F204800EBC60800F1A6
:100FF000400A3346524649464046FFF7B0F9207949
:1010000040F00200207100E000E0CBE700BF0020CC
:101010006864FFF736FC0020B7E710B504460021EE
:101020002046FFF7ACFF10BD10B504460CB90120F7
:1010300010BD94F8480000F01C00102806D00421D0
:101040002046FFF79CFF08B10120F1E7E06C40B1BA
:10105000FFF7F9FBE06C02F023FE0020E064FFF7ED
:1010600010FC0020E4E700001C000020900000209D
:101070002DE9FF4F83B082461D46DDE910B7129E71
:10108000FFF7E1FB6DB9584602F032FE05462DB977
:10109000FFF7F7FB002007B0BDE8F08F4FF0020923
:1010A00001E04FF0000905EB0B0020F00300009079
:1010B0000098983820F0070465672046DDE904129F
:1010C000FFF720FB04F14800FFF71AFA2046FFF76C
:1010D0002FFC0020A067A06F40EA0900A0672465EC
:1010E000E465A466C4F870A084F87C701EB9022080
:1010F00084F8800005E0307884F8800084207168EE
:10110000015194F8800000F0020002280ED1FE4840
:1011100000EBC700029004F15408FB4840300190F6
:101120003B464146DDE90120FFF719F994F88000BC
:1011300000F00400042812D17068B0F1FF3F0ED017
:10114000F249706809680844C4F8880004F154083A
:101150004046FFF717FAA06F40F00100A067FFF7C5
:1011600090FB204697E72DE9FE4F81460F469246B9
:101170009B46DDE90C840E9D17B90020BDE8FE8F6B
:10118000B8F1000F01D10020F8E73DB1287802281E
:1011900004D02878042801D00020EFE7FFF789FA6F
:1011A00018B9072C07DD0020E8E7012C01DB062C2D
:1011B00001DD0020E2E75B46524639464846CDE96C
:1011C00000840295FFF754FF06460EB90020D5E7CC
:1011D000CF48006840B9CF48006818B13046CD49C3
:1011E00009688847FFF724FB3046C7E72DE9F04739
:1011F000044614B90120BDE8F087C7480068A04242
:1012000001D10120F7E7FFF71EFBC448006818B1C1
:101210002046C2490968884794F8805005F00200CA
:1012200002280BD194F87C60B74800EBC60700F1A8
:101230004009324649463846FFF770F905F0040088
:10124000042804D104F154084046FFF7CDF805F016
:101250000800082802D12046FFF7A9F804F1480049
:10126000FFF755F9AE480068A04208D10020AC490C
:101270000860096891F87C10AA4A42F8210094F8A5
:10128000780000F00200022802D1606F02F008FD31
:10129000FFF7F7FAFFF7CCFA0020ACE710B5A0484B
:1012A0000068FFF7A3FF10BD2DE9F0410446002CB4
:1012B00051D09B48006898490968884202D10120B2
:1012C000BDE8F0819648006890F87C508E4800EBAD
:1012D000C50600F14007FFF7B6FA2A463946304600
:1012E000FFF71CF980468E48006890F8800020F0D7
:1012F00002008B49096881F8800089480068C0F8BD
:101300008440B4F1FF3F11D08048006820448449F4
:101310000968C1F888004046FFF734F98048006842
:10132000806F40F001007E49096888677C4800684A
:1013300090F8800040F004007949096881F8800045
:1013400000207749096891F87C10764A42F821001C
:10135000FFF797FA04E0002171480068C0F8841094
:10136000FFF766FA6E480068D0F88400A8E72DE918
:10137000F041044614B90120BDE8F081FFF763FA9B
:1013800094F8800000F00400042803D0FFF779FAF5
:101390000120F1E704F1540584200059B0F1FF3F2A
:1013A00006D02846FFF720F8A06F20F00100A067C4
:1013B00094F8800020F0040084F880000321842049
:1013C000015114F87C6F504800EBC60700F140084B
:1013D0003346424629463846FEF7C1FF207940F0A1
:1013E00002002071A4F17C04FFF74BFAFFF720FA0A
:1013F0000020C1E72DE9F04706460C464848006842
:1014000045490968884202D10120BDE8F087444877
:10141000006890F87C503C4800EBC50700F140089C
:101420002A4641463846FFF779F881463C4800682D
:1014300090F8800020F002003949096881F88000A6
:1014400037480068C0F88440B4F1FF3F11D02F48FE
:101450000068204432490968C1F888004846FFF70F
:1014600091F82F480068806F40F001002C4909680E
:10147000886731462A480068FFF7CFF82848006897
:10148000806F20F0080026490968886724480068B2
:1014900090F8800040F008002149096881F8800038
:1014A00000201F49096891F87C101E4A42F821006B
:1014B00000BFAAE71C4870472DE9F04704460D46D7
:1014C0000CB9BDE8F08794F87C00A84200DCF8E78E
:1014D00094F8800000F0020002280CD194F87C807F
:1014E000094800EBC80900F1400742463946484622
:1014F000FFF714F8064694F8780000F0040004287A
:1015000016D094F87C0011E0900000200C00002020
:10151000000000204000002024000020480000209F
:101520001C000020F40000203800002084F87D001A
:1015300084F87C50A06F40F00400A06794F880000D
:1015400000F00200022808D1404800EBC5092B46F4
:101550003A4631464846FEF702FF00BFB1E72DE9A3
:10156000F04104460CB9BDE8F08194F8780000F031
:101570000400042800D0F6E704F178042679334803
:1015800000EBC60700F14005324629463846FEF713
:10159000C5FF804660792071206820F0040020603B
:1015A00020792A4901EBC0072379A4F178042A465F
:1015B00041463846FEF7D3FE00BFD4E770B5064675
:1015C0000D46FFF740F90DB1062D05D9B5F1FF3FE6
:1015D00002D0FFF756F970BDB5F1FF3F08D10024E6
:1015E00003E01B4840F82460641C082CF9D302E097
:1015F000174840F82560002404E00020154941F810
:101600002400641C082CF8D3FFF73BF900BFE2E785
:1016100000201149086011490860114908607047AD
:101620000D490860704700200B49086070470B495E
:101630000860704700200949086070470849086041
:1016400070470020064908607047000090000020A5
:10165000D4000020F40000204000002044000020BE
:101660004800002070B505462846FFF7BDF9002464
:1016700009E0C4EBC40205F1080000EB02112846A2
:10168000FFF7B6F9641C642CF3D370BD10B54F4856
:10169000FFF7E8FF02210020FFF702FA4C4908603B
:1016A0004FF0FF3232210020FFF77EFA49490860EF
:1016B0004948FFF7B5FF4948FFF7B9FF4848FFF72A
:1016C000BDFF10BD00B585B0012144F2050001F059
:1016D000FDF84FF48060ADF8100004208DF8130081
:1016E00004A9404800F03CFE4FF40070ADF8100033
:1016F00003208DF8120018208DF8130004A9394832
:1017000000F02EFE684601F0F5F96946364801F012
:1017100088F90121344801F010FA05B000BD10B578
:10172000FFF7D0FF10BD10B5044600BF80212E4842
:1017300001F0DEFA0028F9D021462B4801F06AFAC0
:1017400010BD70B50446FFF77EF82046FFF75EF93E
:101750000546FFF796F8284670BD0FB438B51B480C
:10176000FFF7EFFF044614B938BC5DF814FB05A879
:10177000009004F10900009A049901F019FE00207C
:10178000009004F1090001F01FFB2072214610486F
:101790000068FFF7BCF900BFE6E770B504460D46E8
:1017A000002604E03146761C605CFFF7BCFFB542C2
:1017B000F8D870BD70B504460D46FFF744F82946C9
:1017C0002046FFF715F9FFF75CF870BD1401002003
:1017D000640000206C000020C51C0008391D0008B2
:1017E0002B2100080008014000380140704700BF6D
:1017F000FEE700BFFEE700BFFEE700BFFEE710B553
:101800000446074820400649884201D1FEF7FDFF03
:1018100010BD7047704710B5FEF713FD10BD0000F6
:10182000011000100CB50020019000906B4800687A
:1018300040F480306949086000BF6848006800F4DF
:10184000003000900198401C0190009818B9019850
:10185000B0F5704FF1D16148006810F4003F02D03C
:101860000120009001E0002000900098012842D162
:101870005B48006840F0100059490860084600685D
:1018800020F0030008600846006840F0020008608D
:1018900052484068514948600846406848600846D8
:1018A000406840F4806048600846406820F47C103E
:1018B00048600846406840F4E81048600846006800
:1018C00040F08070086000BF4448006810F0007F5E
:1018D000FAD04248406820F003004049486008467A
:1018E000406840F00200486000BF3C48406800F09B
:1018F0000C000828F9D10CBD10B5FFF793FF10BDFF
:1019000010B53648006840F00100344908600846C8
:101910004068344908403149486008460068324907
:1019200008402E4908600846006820F480200860BE
:101930000846406820F4FE0048604FF41F008860AD
:10194000FFF7DAFF4FF000602849086010BD10B5BE
:10195000002100200022214B5B6803F00C0121B123
:10196000042906D0082928D107E0214B214C236007
:1019700027E01F4B1F4C236023E0184B5B6803F4E8
:101980007010164B5B6803F48032022303EB904027
:1019900022B9194B4343174C23600DE00F4B5B6892
:1019A00013F4003F04D0144B4343124C236003E074
:1019B0000F4B43430F4C236003E00D4B0D4C236052
:1019C00000BF00BF054B5B68C3F303130B4CE15C26
:1019D000084B1B68CB40074C236010BD0010024031
:1019E000002002400000FFF8FFFFF6FE08ED00E0D7
:1019F00000127A004C00002000093D005000002039
:101A000010B50446204637F0FDFA10BD70B5054606
:101A100047E04FF0FF31D4480068FFF71BF900287A
:101A20001FD1FEF73AFE04462146D0A0FFF795FEEF
:101A3000DAA0FFF792FE4FF47A70FFF7E1FFFEF7AE
:101A40002CFE2721B0FBF1F201FB1200DA490860FD
:101A500008460168D9A0FFF780FEC3480068FFF779
:101A6000E1F9FEF71AFE04462146E1A0FFF775FEF4
:101A70004FF49670FFF718FCFEF70FFE0446214660
:101A8000E4A0FFF76AFEFEF708FE41F658318842EF
:101A900007D9FEF702FE04462146E6A0FFF75DFEE9
:101AA00000E0B6E700BF70BD10B5A7B00246002049
:101AB000009001200190012A0DD9022109E0481E61
:101AC0005DF82030881E5DF8200018444DF8210094
:101AD000491C9142F3D95DF8220027B010BD70B5C2
:101AE0000646FEF7DDFD0546FEF710FF0446FEF74D
:101AF000D4FD05462A462146D8A0FFF72EFE5AE01F
:101B0000002199480068FFF7A5F800282AD1FEF7C0
:101B1000C4FD05462946DDA0FFF71FFEE7A0FFF73D
:101B20001CFE4FF47A70FFF76BFFA3480068FFF7C5
:101B3000BBFF05462A46A0480168E7A0FFF70DFE57
:101B4000FEF7AEFD0546FEF7E1FE0446FEF7A5FDF5
:101B500005462A462146C1A0FFF7FFFD82480068DE
:101B6000FFF760F9FEF799FD05462946E6A0FFF765
:101B7000F4FDC820FFF798FBFEF78FFD05462946C8
:101B8000EAA0FFF7EAFDFEF788FD41F658318842EA
:101B900011D9EFA0FFF7E1FDFEF782FD0546FEF744
:101BA000B5FE0446FEF779FD05462A462146ABA060
:101BB000FFF7D3FD00E0A3E700BF70BD70B5064698
:101BC000FEF76EFD0546FEF7A1FE0446FEF765FD35
:101BD00005462A462146E5A0FFF7BFFD5AE0002151
:101BE00061480068FFF736F800282AD1FEF755FD56
:101BF00005462946E9A0FFF7B0FDF4A0FFF7ADFDCB
:101C00004FF4FA60FFF7FCFE6B480068FFF74CFFEB
:101C100005462A4668480168F3A0FFF79EFDFEF7D7
:101C20003FFD0546FEF772FE0446FEF736FD05460B
:101C30002A462146CDA0FFF790FD4B480068FFF7EC
:101C4000F1F8FEF72AFD05462946F3A0FFF785FDCA
:101C50006420FFF729FBFEF720FD05462946F7A083
:101C6000FFF77BFDFEF719FD41F65831884211D987
:101C7000FBA0FFF772FDFEF713FD0546FEF746FEDB
:101C80000446FEF70AFD05462A462146B7A0FFF79F
:101C900064FD00E0A3E700BF70BD08B511E04FF0A0
:101CA000FF326946F5480068FEF745FF48B9009CD9
:101CB000217A04F10900FFF770FDF1480099FFF760
:101CC00079FDECE770B504464CB1FEF7E6FC05463D
:101CD0002B462246EBA0216FFFF73FFD06E0FEF703
:101CE000DCFC05462946F2A0FFF737FD70BD2DE963
:101CF000F041FEF7D2FC6421B0FBF1F6F548006834
:101D0000864217D0FFF7D6FB044609E0A5682846AF
:101D1000FEF75DFE07463A46EFA0296FFFF71DFD6F
:101D2000FFF7C8FB07462146FEF7B2FE0400EDD1DF
:101D3000E8480660BDE8F08170B504460D46FFF73F
:101D4000D6FFEE480068844202D1FEF7AFFC04469D
:101D5000EA480068854202D1FEF7A8FC0546A54284
:101D600000D170BDCCE100006C0000200D0A54656C
:101D700061636865722077696C6C2072656C65615F
:101D800073652061207175657374696F6E212054CD
:101D900069636B2069733A20256400000D0A54655D
:101DA0006163686572206973207468696E6B696E1F
:101DB000672E2E2E00000000700000200D0A5465D2
:101DC00061636865722061736B2073747564656EFE
:101DD000747320746F20636F756E7420746865204F
:101DE0006669626F6E616363693A20256400000072
:101DF0000D0A5465616368657220697320736C65B0
:101E00006570696E6721205469636B2069733A209D
:101E1000256400000D0A546561636865722077616E
:101E20006B657320757021205469636B2069733A68
:101E3000202564000D0A5465616368657220736132
:101E4000797320636C617373206F766572205469B7
:101E5000636B2069733A2025640000000D0A5374F7
:101E60007564656E743120737461636B2072656D87
:101E700061696E2025642062797465732C20546931
:101E8000636B2069733A2025640000000D0A5374C7
:101E90007564656E743120616E737765727320743A
:101EA0006865207175657374696F6E21205469636C
:101EB0006B2069733A202564000000000D0A5374FA
:101EC0007564656E7431206973207468696E6B691E
:101ED0006E672E2E2E0000000D0A53747564656E19
:101EE00074312073617973207468652025642066DD
:101EF00069626F6E61636369206E756D62657220E1
:101F000069732025642021000D0A53747564656E81
:101F1000743120697320736C656570696E67212068
:101F20005469636B2069733A202564000D0A537469
:101F30007564656E74312077616B657320757021EF
:101F4000205469636B2069733A2025640000000007
:101F50000D0A53747564656E7431206B6E6F777300
:101F600020636C617373206F766572000D0A537481
:101F70007564656E743220737461636B2072656D75
:101F800061696E2025642062797465732C20546920
:101F9000636B2069733A2025640000000D0A5374B6
:101FA0007564656E743220616E7377657273207428
:101FB0006865207175657374696F6E21205469635B
:101FC0006B2069733A202564000000000D0A5374E9
:101FD0007564656E7432206973207468696E6B690C
:101FE0006E672E2E2E0000000D0A53747564656E08
:101FF00074322073617973207468652025642066CB
:1020000069626F6E61636369206E756D62657220CF
:1020100069732025642021000D0A53747564656E70
:10202000743220697320736C656570696E67212056
:102030005469636B2069733A202564000D0A537458
:102040007564656E74322077616B657320757021DD
:10205000205469636B2069733A20256400000000F6
:102060000D0A53747564656E7432206B6E6F7773EE
:1020700020636C617373206F7665720064000020CA
:10208000140100200D0A5461736B202573203078F1
:102090002530385820697320637265617465642146
:1020A000205469636B2069733A20256400000000A6
:1020B0000D0A4661696C20746F20637265617465F6
:1020C000207461736B21205469636B2069733A201B
:1020D00025640000600000200D0A5461736B202508
:1020E0007320435055207574696C697A6174696F07
:1020F0006E206973202564252500000068000020FB
:102100004CB1FEF7CAFA06462A6F33460CA0216F7F
:10211000FFF723FB07E0FEF7C0FA0646324612A09F
:10212000296FFFF71AFB00BF70BD70B50446FEF7BC
:10213000B4FA05462A4616A0216FFFF70EFB70BDC4
:102140000D0A5461736B202573202D2D2D2D3E20FB
:102150005461736B2025732021205469636B2069BF
:10216000733A2025640000000D0A5461736B204E01
:10217000554C4C202D2D2D2D3E205461736B202568
:10218000732021205469636B2069733A2025640011
:102190000D0A5461736B2025732069732064656C8C
:1021A0006574656421205469636B2069733A202546
:1021B000640000003EB5FDF7F1FFFFF767FAFFF797
:1021C000AEFA002003214FF480620346CDE90021DE
:1021D000029002461B491CA0FEF7C5FF0020042107
:1021E0000A020346CDE9002102900246184919A0CF
:1021F000FEF7B9FF002005214FF480620346CDE9C8
:10220000002102900246164916A0FEF7ACFF0020FE
:1022100006214FF480620346CDE900210290024678
:10222000134914A0FEF79FFF14490860FEF735FA22
:102230000446214612A0FFF790FAFDF7F6FF0020B2
:102240003EBD00000D1A00085465616368657200A8
:10225000DF1A000853747564656E74310000000065
:10226000BD1B0008537475656E6474320000000075
:102270009B1C000853726C507274000068000020B0
:102280000D0A52454D49582069732072756E6E696A
:102290006E6721205469636B2069733A20256400BE
:1022A00010B50446CA48844208D10121042000F038
:1022B00027FB0021042000F023FB46E0C5488442B0
:1022C00008D10121082000F01BFB0021082000F0AC
:1022D00017FB3AE0C048844208D10121102000F0E9
:1022E0000FFB0021102000F00BFB2EE0BB488442C6
:1022F00008D10121202000F003FB0021202000F064
:10230000FFFA22E0B648844208D10121402000F0C3
:10231000F7FA0021402000F0F3FA16E0B1488442B9
:1023200008D10121802000F0EBFA0021802000F08C
:10233000E7FA0AE0AC48844207D10121801500F099
:10234000DFFA0021A01500F0DBFA10BD10B5012165
:10235000084600F0D5FA0021012000F0D1FA10BDA6
:102360002DE9F0410246002500260020002300242C
:10237000002791F803C00CF00F0591F803C01CF082
:10238000100F03D091F802C04CEA050591F800C087
:10239000BCF1000F31D0146800202BE04FF0010C8D
:1023A0000CFA00F3B1F800C00CEA03069E4220D1FB
:1023B00083004FF00F0C0CFA03F7BC4305FA03FC43
:1023C0004CEA040491F803C0BCF1280F06D14FF089
:1023D000010C0CFA00FCC2F814C00AE091F803C02A
:1023E000BCF1480F05D14FF0010C0CFA00FCC2F80B
:1023F00010C0401C0828D1D31460B1F800C0BCF153
:10240000FF0F34DD546800202EE000F1080C4FF07F
:10241000010808FA0CF3B1F800C00CEA03069E426A
:1024200021D183004FF00F0C0CFA03F7BC4305FADF
:1024300003FC4CEA040491F803C0BCF1280F05D159
:1024400000F1080C08FA0CF8C2F8148091F803C0E7
:10245000BCF1480F07D100F1080C4FF0010808FA51
:102460000CF8C2F81080401C0828CED35460BDE898
:10247000F0814FF6FF710180022181700421C1704B
:1024800070470246002093680B4201D0012000E013
:10249000002070470146886880B2704702460020DD
:1024A000D3680B4201D0012000E0002070470146B4
:1024B000C86880B2704701617047416170470AB1D6
:1024C000016100E041617047C16070474FF48032A4
:1024D0000A43826181618261826982697047024632
:1024E0000020424B18684FF68073184040EA0210F3
:1024F00008433E4B186070473D49C8617047F0B5CE
:102500000A46002300240021002500F00046B6F111
:10251000004F02D1354EF16901E0344E7168C0F3CD
:10252000034583B200F44016B6F5401F08D121F0F0
:1025300070612E4E766826F070662C4F7E6012E039
:1025400000F48016B6F5801F06D1032606FA05F4BE
:10255000A14341F0706106E0460D360103FA06F62C
:10256000B14341F0706122B1460D360103FA06F61F
:10257000314300F00046B6F1004F02D11B4EF1612D
:1025800001E01A4E7160F0BD30B500228B071C0FC0
:102590000F2303FA04F2154B08338C1053F8243040
:1025A0009343124C08348D1044F8253023468C1088
:1025B00053F824308C07240F00FA04F423430B4C07
:1025C00008348D1044F8253030BD0A490860704742
:1025D00000080140000C01400010014000140140BF
:1025E00000180140001C0140002001400000014093
:1025F00000002042DC002042DD48006840F001007D
:10260000DB49086008464068DA490840D849486014
:1026100008460068D8490840D5490860084600685F
:1026200020F4802008600846406820F4FE004860DE
:102630004FF41F0088607047CD49096821F480314C
:10264000CB4A11601146096821F480211160B0F570
:10265000803F03D0B0F5802F0ED106E0C449096851
:1026600041F48031C24A116007E0C149096841F470
:10267000A021BF4A116000E000BF00BF704710B545
:1026800001460022002300204A11012A02D1B84C41
:10269000236806E0022A02D1B54C236A01E0B44C5B
:1026A000636A01F01F02012494401C4201D0012002
:1026B00000E0002010BD38B5002000900024002567
:1026C00000BF3120FFF7DBFF05460098401C00905B
:1026D0000098B0F5704F01D0002DF2D03120FFF7F7
:1026E000CEFF08B1012400E00024204638BD014699
:1026F00000209F4A106820F0F80040EAC1001060F6
:1027000070479E490860704702460020984B586801
:1027100020F47C1042EA01031843954B586070473F
:1027200096490866704701460020914A506820F09B
:1027300003000843506070478D48406800F00C006B
:102740007047014600208A4A506820F0F000084394
:102750005060704701460020854A506820F4E060D0
:1027600008435060704701460020814A506820F4B9
:10277000605040EAC1005060704729B17C4A527AEB
:1027800002437B4B5A7204E0794A527A8243784B77
:102790005A7270477A490860704701460020744AAF
:1027A000506820F440400843506070470021754A4B
:1027B00011706F4A82F82010012802D0042808D135
:1027C00003E001216F4A117004E005216D4A117088
:1027D00000E000BF00BF70476B4908607047644964
:1027E000096A0143624A11627047674944390860C7
:1027F000704730B500210022002400235C4D6D6835
:1028000005F00C0121B1042905D0082923D105E0E8
:102810005E4D056022E05D4D05601FE0544D6D6822
:1028200005F47012524D6D6805F48034022505EBF5
:1028300092421CB9564D554305600BE04C4D6D68F6
:1028400015F4003F03D0524D5543056002E04F4D53
:102850005543056002E04D4D056000BF00BF444D8B
:102860006D6805F0F00109094A4D6B5C0568DD40B3
:1028700045603F4D6D6805F4E061090A454D6B5CAC
:102880004568DD4085603A4D6D6805F46051C90AC0
:10289000404D6B5C4568DD40C560354D6D6805F4A5
:1028A0004041890B3C4D6B5CC568B5FBF3F5056198
:1028B00030BD29B12E4A526902432D4B5A6104E0C2
:1028C0002B4A526982432A4B5A61704729B1284AE0
:1028D00092690243264B9A6104E0254A9269824339
:1028E000234B9A61704729B1214AD2690243204B98
:1028F000DA6104E01E4AD26982431D4BDA617047F7
:1029000029B11B4AD2680243194BDA6004E0184A25
:10291000D2688243164BDA60704729B1144A1269B3
:102920000243134B1A6104E0114A12698243104BAF
:102930001A61704714494039086070470F49C864EC
:1029400070470B49C87170470948406A40F0807071
:1029500007494862704701460020054A92680A42CA
:1029600001D0012000E000207047014988727047C3
:10297000001002400000FFF8FFFFF6FE0000424298
:10298000D8004242201002408004424200127A00E5
:1029900000093D00740000208400002010B50446AA
:1029A000FB48844209D101218803FFF7A9FF0021D8
:1029B0004FF48040FFF7A4FF32E0F648844209D18B
:1029C00001214804FFF7A9FF00214FF40030FFF771
:1029D000A4FF25E0F048844209D101218804FFF7D3
:1029E0009CFF00214FF48020FFF797FF18E0EB4891
:1029F000844209D10121C804FFF78FFF00214FF461
:102A00000020FFF78AFF0BE0E548844208D101214E
:102A10000805FFF782FF00214FF48010FFF77DFFCC
:102A200010BD2DE9F04786B005460E460024A246AB
:102A300000BFA1460027B08900B100BF2F462C8AF5
:102A40004CF6FF700440F08804432C82AC894EF6AB
:102A5000F3100440B0883189084371890843044366
:102A6000AC81AC8A4FF6FF400440B0890443AC828D
:102A700001A8FFF7BEFEC648874202D1DDF810A0CC
:102A800001E0DDF80CA0A88910F4004F08D00AEB93
:102A9000CA0000EB0A1031684900B0FBF1F807E00A
:102AA0000AEBCA0000EB0A1031688900B0FBF1F8AC
:102AB0006420B8FBF0F004012009642101FB1089B7
:102AC000A88910F4004F08D0322000EBC900B0FBF9
:102AD000F1F000F00700044308E0322000EB091099
:102AE0006421B0FBF1F000F00F0004432C8106B02C
:102AF000BDE8F0874FF4E131016000218180C180A1
:102B000001810C21418100218181704710B502466D
:102B10000020108A4FF2FF0318400B884C88234393
:102B20008C882343CC8823431843108210BD002196
:102B3000018041808180C180704721B1828942F447
:102B40000052828104E082894DF6FF731A4082812F
:102B50007047F0B503460024002600250020A1F5AB
:102B600010676A3F00D100BF1846C1F3421401F05C
:102B70001F06012707FA06F5012C01D10C3004E0ED
:102B8000022C01D1103000E014301AB107682F4335
:102B9000076002E00768AF430760F0BD1AB1838A9F
:102BA0000B43838202E0838A8B4383827047028ACD
:102BB0004FF6F0731A400282028A0A43028270477B
:102BC00082894FF2FF731A40828182890A4382818F
:102BD000704721B1828942F00202828104E0828939
:102BE0004FF6FD731A4082817047028A4FF6DF73F9
:102BF0001A400282028A0A430282704721B1028A85
:102C000042F48042028204E0028A4BF6FF731A40CB
:102C100002827047C1F308028280704701468888AB
:102C2000C0F308007047818941F00101818170473C
:102C3000028BD2B20283028B42EA012202837047E6
:102C4000028B02F47F420283028B0A4302837047A5
:102C500021B1828A42F02002828204E0828A4FF609
:102C6000DF731A408282704721B1828A42F01002DB
:102C7000828204E0828A4FF6EF731A4082827047A4
:102C800021B1828A42F00802828204E0828A4FF6F1
:102C9000F7731A408282704721B1828942F4004260
:102CA000828103E08289C2F30E028281704721B1E2
:102CB000828A42F40062828204E0828A4FF2FF73C9
:102CC0001A4082827047828A4FF6FB731A408282D2
:102CD000828A0A438282704721B1828A42F00202CC
:102CE000828204E0828A4FF6FD731A408282704726
:102CF00002460020B1F5007F00D100BF13880B42CF
:102D000001D0012000E00020704701F40072B2F50C
:102D1000007F00D100BFCA430280704770B50246F1
:102D20000024002300250020A1F510666A3E00D192
:102D300000BFC1F3421501F01F03012606FA03F399
:102D4000012D02D19689334006E0022D02D1168A68
:102D5000334001E0968A33400C12012606FA04F44F
:102D60001688344013B10CB1012000E0002070BD82
:102D700010B500220023A1F510646A3C00D100BF09
:102D80000A1201249440A3B2DC43048010BD000069
:102D9000003801400044004000480040004C004022
:102DA000005000400648804706480047FEE7FEE71F
:102DB000FEE7FEE7FEE7FEE7FEE7FEE7FEE7FEE7EB
:102DC0000119000831010008421C10F8011B0029FC
:102DD000FBD1801A704730B50B46014600202022F7
:102DE000012409E021FA02F59D4205D303FA02F518
:102DF000491B04FA02F52844151EA2F10102F1DC78
:102E000030BD2DE9F05F0546002092469B4688467E
:102E10000646814640241BE0284641464746224656
:102E200000F0F5F953465A46C01A914110D31146A5
:102E30001846224600F0DCF92D1A67EB01084F46D0
:102E400022460120002100F0D3F917EB00094E4182
:102E5000201EA4F10104DFDC484631462A464346E1
:102E6000BDE8F09F2DE9FE4F804681EA0300C00FC8
:102E70000C46009021F0004123F00045B8EB020021
:102E8000A94105D24046214690461C460B460246C3
:102E900023F00040104304D14046214603B0BDE872
:102EA000F08F270DC7F30A00C3F30A510290401AAE
:102EB0000190402866DAC3F3130040F4801B0098A9
:102EC000924620B10023D2EB030A63EB0B0B01986F
:102ED0005946C0F14002504600F08AF906460D46B8
:102EE00050465946019A00F0A2F910EB08006141E2
:102EF000002487EA115284EAE7731A433BD0009A10
:102F00003AB3019A012A4FEA075210DC001B61EB29
:102F100002014FF0004202EA0752CDE90042001CD4
:102F200041F5801132462B4600F0A0F9B6E7001BB0
:102F300061EB0201001C41F5801300185B41201871
:102F4000A2F5001747EB030140EAD570B6196D41B1
:102F500011E06D084FEA360645EAC0754FEA0752A0
:102F6000001B61EB0201001C41F5801149084FEA8A
:102F700030000019514132462B4603B0BDE8F04FF6
:102F800000F067B90098012240000023D0EB020254
:102F900063EBE073009821464FEAE074B8EB000061
:102FA00061EB0401E9E783F000435BE781F0004156
:102FB00058E72DE9FE4F81EA030404F0004421F0B4
:102FC000004100944FF0000B23F0004350EA01044D
:102FD00002D052EA030404D10020014603B0BDE848
:102FE000F08FC3F30A54C1F30A552C44A4F2F3340E
:102FF0000194A0FB0254C1F3130141F48011C3F307
:10300000130343F4801301FB024400FB034E840AC4
:10301000970A44EA815447EA8357A4FB076802955C
:103020008D0A05FB07854FEA932C04FB0C542705FA
:10303000029D4FEA065847EA1637B5EB08056EEBD6
:10304000070C870E920E47EA811742EA8312A7FB0C
:103050000201B6EB0B0164EB00042B0D43EA0C33C9
:103060005E1844EB1C50DA465146E7FB0201C5F3FB
:1030700013044FEA0B3343EA14534FEA0432019C22
:1030800043EA0603A4F10C040294009CCDE900B4C9
:1030900000F0ECF8A2E72DE9F04D81EA030404F01A
:1030A000004B21F0004514464FF0000A23F0004188
:1030B00050EA050220D054EA01021DD0C5F30A5798
:1030C0000246C5F31303C1F31300C1F30A5640F4DB
:1030D000801543F48013A7EB0608101BD64608F2B0
:1030E000FD3873EB050002D308F1010801E09218E6
:1030F0005B41B8F1000F03DA00200146BDE8F08D16
:1031000000204FF48011064684460EE0171B73EB37
:10311000050705D3121B63EB050306434CEA010CBC
:1031200049084FEA300092185B4150EA0107EDD19F
:1031300052EA030012D082EA040083EA0501084340
:1031400003D100224FF0004308E0101BAB4102D234
:103150000122002302E06FF0010253101AEB060077
:103160004CEB085110EB0A0041EB0B01BDE8F04DB0
:1031700000F06FB8C1F30A52C1F3130140F2FF33FC
:1031800041F480119A4202DA00200146704740F271
:1031900033439A42A2F2334202DC524200F037B883
:1031A00000F026B830B5002904DB4FF0004440425F
:1031B00064EB0101002B04DB4FF00044524264EB4E
:1031C0000303994208BF904230BD0000064C074DF2
:1031D00006E0E06840F0010394E8070098471034E7
:1031E000AC42F6D3FCF7A8FF5C3D00087C3D00082C
:1031F000202A04DB203A00FA02F1002070479140B7
:10320000C2F1200320FA03F3194390407047202AAB
:1032100004DB203A21FA02F00021704721FA02F380
:10322000D040C2F120029140084319467047202A3D
:1032300006DBCB17203A41FA02F043EAE07306E0DE
:1032400041FA02F3D040C2F12002914008431946EE
:10325000704710B5002B08DA401C41F100019218AC
:103260005B411A4301D120F0010010BD2DE9F04D62
:1032700092469B4611B1B1FA81F202E0B0FA80F2B7
:1032800020329046FFF7B4FF04460F4640EA0A009A
:1032900041EA0B0153465A46084303D120463946BA
:1032A000BDE8F08D114653EA010015D0C8F1400287
:1032B0005046FFF7ACFF05460E465046594642467B
:1032C000FFF796FF084301D0012000E000200543EE
:1032D00046EAE0762C4337430A984FEA4453A0EB82
:1032E00008004FEAD4240A304FF0000244EA475461
:1032F0004FEAD72502D500200146D1E70105101974
:103300006941DDE9084500196941BDE8F04DA0E7D4
:1033100090FAA0F0B0FA80F0704700B521480FF2A3
:10332000050E0047EE462048D0F800C0604690B138
:103330000EF1040EBEE80F00ACE8FF0F9EE80F0090
:10334000AEF1100E4CF8040B4CF804EBACE80E0098
:1033500001BCCCF800001548016801F11001B1E88A
:10336000F00F01F10401D1F800D001F1100108685B
:1033700000470E48D0F800D010B001BC80F303889D
:1033800082B000988FB04DF8040CBDE8FF1F01B06B
:103390005DF804EB90B000BD00DF7047EFF30380F1
:1033A00070470000AB040008140000201800002043
:1033B00037B514460846064B6A46214600F0C8F861
:1033C00004466946002000F066FC20463EBD000031
:1033D000973C000802E008C8121F08C1002AFAD171
:1033E00070477047002001E001C1121F002AFBD185
:1033F000704700002DE9FF5FDDE90220010DDDF8D7
:1034000038B0024310D10F9801244CA2012808D0F3
:10341000002100980F9BC0E90021C0E90243BDE8EC
:10342000FF9F6FEA0B01F4E7A1F2FF3144F6105061
:1034300041430D140F9801280ED0A5EB0B00401C42
:103440004FF000043E4EDFF8FC90B0F1000AA046B9
:1034500005DACAF1000717E0CBF10000F0E70746F4
:1034600012E0F80707D02246334640464946FFF7A8
:10347000A0FD804689462246334610461946FFF78E
:1034800098FD04460E467F10002FEAD1DDE90201C7
:10349000BAF1000F42464B4602DAFFF78AFD01E01F
:1034A000FFF7F9FD04460E460022274BFFF77AFE90
:1034B00003D84FF0FF30014607E00022234B20469F
:1034C0003146FFF7CFFCFFF755FE102409E0002C32
:1034D0000ADB0A220023FFF794FC019B30321A55C5
:1034E000641E50EA0102F2D1641C019AC4F1110376
:1034F00014440F9A012A09D00122084301D15B45E7
:103500000FDD4FF0000205F101050DE0084303D186
:10351000A3EB0B056D1E09E000204FF0110B0F907F
:1035200088E701DA00226D1E002A83D000980F99E7
:10353000C0E90231C0E9004571E700003000000039
:10354000000024400000F03F0000F0430000E03F96
:103550002DE9FF4F95B09B4689460646002512E2AD
:10356000252878D10024761CF94A274601210594A4
:103570003378203B01FA03F0104202D00443761C5A
:10358000F6E730782A2811D06FF02F033078A0F1B9
:103590003002092A16D8059A44F0020402EB82028E
:1035A00003EB42021044761C0590EFE759F8042B18
:1035B0000592002A03DA504244F40054059044F086
:1035C0000204761C30782E2816D116F8010F44F02C
:1035D00004042A280DD06FF02F023078A0F13003B8
:1035E000092B09D807EB870302EB4303C718761CA6
:1035F000F3E759F8047B761C30786C280FD006DC92
:103600004C2817D068280DD06A2814D104E07428FB
:1036100010D07A280FD10DE044F400140AE044F4ED
:10362000801401E044F440147278824202D1761C86
:1036300004F58014761C307866280BD013DC5828EB
:1036400077D009DC002875D04528F6D04628F4D07C
:1036500047281AD19FE118E0632835D0642879D033
:10366000652812D197E1702873D008DC6728F1D063
:1036700069286FD06E280DD06F2806D1B5E0732869
:103680002CD0752875D0782874D05A461799904751
:103690006D1C76E1C4F30250022809D003280DD036
:1036A000D9F8001004280DD00D6009F1040968E173
:1036B000D9F80010EA17C1E90052F6E7D9F800106E
:1036C0000D80F2E70D70F0E719F8041B8DF800107B
:1036D00000208DF80100EA46012003E059F804AB10
:1036E0004FF0FF3061074FF0000102D40DE008F108
:1036F00001018846B9420FDA8045F8DB1AF8081054
:103700000029F4D108E008F1010188468142FADB82
:103710001AF808100029F6D105985B46A0EB0807B7
:1037200021463846179A00F09EFA284400EB080517
:1037300007E04DE02BE10DE01AF8010B5A4617990E
:103740009047B8F10108F7D25B4621463846179AF0
:1037500014E142E00A220092C4F302524FF0000A40
:10376000022A08D059F804CB032A4FEAEC710AD098
:103770000DE029E02AE009F1070121F00702F2E853
:1037800002C1914609E00FFA8CFC4FEAEC71042A61
:1037900003D14FFA8CFC4FEAEC71002907DA0A4694
:1037A0000021DCF1000C61EB02012D2202E0220578
:1037B00004D52B228DF80420012203E0E20701D07A
:1037C0002022F7E7904653E00A2102E010220DE0A4
:1037D00010214FF0000A00910BE010224FF0000A78
:1037E00044F004040827009203E008224FF0000A86
:1037F0000092C4F30252022A05D059F804CB0021EA
:10380000032A08D009E009F1070121F00702F2E8D4
:1038100002C1914605E01FFA8CFC042A01D10CF08C
:10382000FF0C4FF00008220722D5702827D0009BFC
:1038300083F0100353EA0A0309D15CEA010206D0BF
:1038400030228DF804208DF8050002229046009B5E
:1038500083F0080353EA0A030AD15CEA010201D1AA
:10386000620705D530228DF804204FF001087F1E35
:10387000582809D037A003900EA8029013E04022E8
:103880008DF804200122E1E737A0F4E753466046B3
:10389000009AFFF7B6FA84460398825C0298A0F17A
:1038A0000100029002705CEA0100EFD1029806A9C3
:1038B000A1EB000000F1200A600702D524F4803457
:1038C00000E00127574502DDA7EB0A0000E00020D9
:1038D00000EB0A01009005984144A0EB010005901F
:1038E000E00306D45B462146179A059800F0BBF921
:1038F0000544002706E001A85A46C05D1799904785
:103900006D1C7F1C4745F6DBE0030CD55B4621466A
:10391000179A059800F0A7F9054404E030205A46AC
:10392000179990476D1C0099481E00900029F5DCFE
:1039300008E0029802995A460078491C02911799AA
:1039400090476D1CBAF10001AAF1010AF1DC6BE1AC
:103950000928010030313233343536373839616265
:103960006364656600000000303132333435363729
:1039700038394142434445460000000000F060F9F8
:10398000054406F10106307800287FF4E9AD19B04E
:103990002846BDE8F08F620700D4062709F1070228
:1039A00022F0070CFCE80223E14603F000485FEA3E
:1039B000080C02D00FF27C2C0DE05FEA045C02D50B
:1039C0000FF2742C07E05FEAC47C02D00FF26C2C7B
:1039D00001E0AFF2700C4FF0FF3823F00043CDF858
:1039E00050C065280CD006DC452809D046281DD0DB
:1039F00047283ED13EE0662818D0672839D139E003
:103A00000021112F01DB112000E0781CCDE900011D
:103A100006A90EA8FFF7EEFCDDE90F010E9A03914F
:103A20000021009207F1010A04914EE04FF000409E
:103A30000097CDE9011006A90EA8FFF7DBFCDDE930
:103A40000F0203920E9B11990022DDF80CA0009347
:103A5000049219B907F1010100EB010AB7EB0A0062
:103A600004D4C0F1FF3007F1010A0490AAEB07006B
:103A7000019046E0012F00DA01270021112F01DD1E
:103A8000112000E03846CDE9000106A90EA8FFF795
:103A9000B1FCDDE90F010E9A03910021049100921F
:103AA000BA4621070CD40399514500DA8A46BAF187
:103AB000010F05DD009AAAF10101515C302908D0FF
:103AC000B84202DA10F1040F06DA0121CDE9011043
:103AD00017E0AAF10101E9E7002805DC0499014497
:103AE0000491AAEB000102E0411C514500DD8A4629
:103AF0000499A0EB010000F1010001904FF000409B
:103B00000290200704D40198504501DBCDF80480D1
:103B100000208DF84F0002980DF14F07B0F1004FD3
:103B200025D02B200E9002984FF0020800280CDAC6
:103B3000404202902D200E9007E00A210298FFF7E4
:103B40004AF93031029007F8011DB8F10001A8F1DF
:103B50000108F2DC02980028EFD1791E0E98087057
:103B6000307800F0200040F0450007F8020D12A860
:103B7000A0EB070000F107081498007800B10120BD
:103B800000EB0A01019801EBE07105984144A0EBBC
:103B90000100A0F101000590E00306D45B46214638
:103BA000179A059800F05FF805441498007820B142
:103BB0005A461799904705F10105E00323D55B4666
:103BC0002146179A059800F04EF805441BE004982A
:103BD000002807DBDDE90301884203DD0098405C33
:103BE000179901E0179930205A46904704986D1CA8
:103BF000401C04900198401E019004D12E205A468A
:103C0000179990476D1CBAF10001AAF1010ADEDC98
:103C100005E017F8010B5A46179990476D1CB8F14B
:103C20000001A8F10108F4DC5B462146179A0598CB
:103C3000A4E600002D0000002B0000002000000082
:103C40002DE9F041044600251E461746880405D498
:103C500006E039462020B04705F10105641EF8D57D
:103C60002846BDE8F0812DE9F041044600251E46B6
:103C70009046C80301D5302700E02027880405D5E9
:103C800006E041463846B04705F10105641EF8D507
:103C90002846BDE8F0810A68531C0B60107070471D
:103CA00010B5002821D0114B001F0022196803E035
:103CB000814203D80A4649680029F9D152B11368F4
:103CC000841A9C4204D1006818441060104602E037
:103CD000506000E0186039B102680B1A934203D1BA
:103CE0000B681A4402604968416010BD88000020DA
:103CF000F0B50B30154D20F007010024144A0FE0F9
:103D000003688B420BD38B4205D95E1A4318476870
:103D1000C3E9006700E04368136002C004E0021DCD
:103D200010680028ECD12046002802D1286808B18C
:103D30000020F0BD064A07481060074A121A22F018
:103D40000702C0E9002401202860D7E78C0000208A
:103D500088000020E42C0020E06C00207C3D00085E
:103D60000000002090000000D43300080C3E000842
:103D700090000020506E0000E433000800000000B6
:103D80000000000000000000000000000000000033
:103D90000000000000000000000000000000000023
:103DA0000000000000000000000000000000000013
:103DB0000000000000000000000000000000000003
:103DC000000000000000000000A24A040000000003
:103DD00000000000010203040607080900000000BB
:103DE00000000000000000000000000000000000D3
:103DF0000000000001020304010203040607080991
:0C3E0000020406080000000000000000A2
:020000040803EF
:1090040041F2A45300FB03F2002100BF914200D1BE
:0C90140001E0491CFAE700BF70470000B3
:0400000508000131BD
:00000001FF
