:020000040800F2
:10000000B88300205D3A00083D2400083F24000822
:1000100043240008472400084B2400080000000087
:100020000000000000000000000000004F24000855
:1000300063240008000000009352000867240008B1
:10004000773A0008773A0008773A0008773A0008CC
:10005000773A0008773A0008773A0008773A0008BC
:10006000773A0008773A0008773A0008773A0008AC
:10007000773A0008773A0008773A0008773A00089C
:10008000773A0008773A0008773A0008773A00088C
:10009000773A0008773A0008773A0008773A00087C
:1000A000773A0008773A0008773A0008773A00086C
:1000B000773A0008773A0008773A0008773A00085C
:1000C000773A0008773A0008773A0008773A00084C
:1000D000773A0008773A0008773A0008773A00083C
:1000E000773A0008773A0008773A0008773A00082C
:1000F000773A0008773A0008773A0008773A00081C
:10010000773A0008773A0008773A0008773A00080B
:10011000773A0008773A0008773A0008773A0008FB
:10012000773A0008773A0008773A0008773A0008EB
:1001300000F002F800F094F80AA090E8000C824465
:100140008344AAF10107DA4501D100F089F8AFF242
:10015000090EBAE80F0013F0010F18BFFB1A43F0A5
:10016000010318473C5300005C530000103A24BFC1
:1001700078C878C1FAD8520724BF30C830C144BF0C
:1001800004680C607047000000230024002500264E
:10019000103A28BF78C1FBD8520728BF30C148BFEA
:1001A0000B6070476E2903F0F585702903F03E87D8
:1001B000662905F00781652905F00481672905F0A6
:1001C00001816129AFF3008003681B0A28BF41F059
:1001D0008001692903F0A285642903F09F857529B0
:1001E00003F09C856F2903F0C986782903F00A87FC
:1001F000E92903F06186E42903F05E86F52903F01E
:100200005B86EF2903F0C686F82903F009870368A7
:10021000DB0928BF41F08001632904F0B282732911
:1002200004F0B782E32904F0C282F32904F0C78204
:10023000002070471FB59DE8030003F0D5FC04F0D3
:1002400017FB04000020002105F0A6F8401C6060A8
:100250000020002105F08AF8E0601FBD10B510BD38
:1002600004F0D9FA1146FFF7E5FF02F08BFD04F028
:10027000B5FB03B4FFF7F2FF03BC04F0E3FB00009F
:1002800001E000F0CEFDFCE7F6490860704700B5DC
:1002900002460020F44908600120FFF7F5FF00BD89
:1002A00010B5F24800F0C6FD10BD70B5044600253B
:1002B00004E004EBC50000F0BDFD6D1C082DF8D373
:1002C000002084F8400070BD10B5E948FFF7EDFF4D
:1002D00010BD10B5E74800F0ADFD10BD0EB5002013
:1002E000FFF7D2FF0120E04908600020E2490860E2
:1002F000E2490860E2490860E2490860E2490870A2
:10030000E249086001F0E0FC4FF0FF31002001F00D
:10031000B1FC0020DE49086001F01EFFFFF7D9FFA5
:10032000FFF7D2FFFFF7BCFF002001214FF4167248
:100330000346CDE9002102900246AFF2AD01D5A0FF
:1003400001F04AF9CE490860002007214FF41672E7
:100350000346CDE9002102900246AFF2DB01CFA0B7
:1003600001F03AF9C549086000F02EFC0EBD10B549
:10037000C3480068CB490860C1480068BE490860AE
:1003800004F0B3FF10BD10B5BE480068401CBD4965
:1003900008600120BC490870BD480068401CBC4989
:1003A0000860B5480068B0B1B348006890F88800AC
:1003B000BD4951F8200070B1AF48006890F888003E
:1003C000BA4951F82000401CAB49096891F88810DF
:1003D000B64A42F8210000F00AFC10BD10B50446F0
:1003E000207800F022FC10BD2DE9F047A0484030F5
:1003F000FFF7F4FF81469E4800EBC908404600F035
:100400006AFD05462F46BE689B48006890F8880044
:10041000A54951F8200050B397480068B04226D152
:100420009548006890F88800A04951F8200092494A
:10043000096891F888109C4A52F82110884216D316
:1004400000208D49096891F88810984A42F82100E7
:100450002946404600F042FD044644B1404600F0C3
:10046000FBFC2946404600F0E9FC2746BE683046C2
:10047000BDE8F087027801238B40DBB21A4302709B
:1004800070472DE9F04106460F4614461D46394691
:10049000304600F0D3FC29462046FFF7EBFFBDE8CD
:1004A000F0812DE9F04104460D4616461F463B46B5
:1004B000324629462046FFF7E4FFBDE8F081027886
:1004C00001238B409A43027070472DE9F04180462A
:1004D0000D4616461F462DB12946404600F0E1FC68
:1004E000044603E0404600F0B7FC0446404600F0F6
:1004F000F2FC18B939463046FFF7E1FF2046BDE867
:10050000F0812DE9F0470446E56E04F1600995F8A5
:10051000480000F0030002280DD194F8887005EB24
:10052000C70605F140083B46424649463046FFF7BC
:10053000CCFFBDE8F08705F138064946304600F0AB
:10054000B0FCF6E72DE9F0470446256F95F8440026
:1005500000F0600040280FD104F1600894F8887022
:1005600005EBC70605F140093B464A464146304681
:10057000FFF7ABFFBDE8F08705F13806304600F025
:100580006BFCF7E710B504462146384800F089FCBB
:1005900010BD2DE9F84F354800F09DFC0546002DB3
:1005A0005FD08AE0AA46DAF80840D4F894B035481B
:1005B000006883457CD12846FFF7E4FF064654F8DF
:1005C000840F20F001002060207AA4F1840400F060
:1005D0000400042809D194F88C0020F0040084F869
:1005E0008C0002219020015124E094F88C0000F04E
:1005F000080008281ED194F8840000F0080008289C
:100600000CD12046FFF79EFFD4F8840020F00800AC
:10061000C4F8840002219020015105E02046FFF734
:1006200070FF02219020015194F88C0020F0080006
:1006300084F88C0004F1540914F8887F0C4800EB0E
:10064000C708403000903B4649464046009AFFF7B5
:1006500028FF207940F002002071A4F1880446BBF5
:100660002CE02CE0280000200000002004000020E6
:10067000BC000020380000201C00002024000020C6
:10068000200000200C000020100000202C00002082
:1006900034000020524F4F540000000049646C6544
:1006A00000000000180000200001002020010020B0
:1006B00002E0FFE7354600E000E073E700BFBDE879
:1006C000F88F10B5F1480078012804D10020EF49D7
:1006D0000870FFF75EFFFFF787FE04462146EC48EF
:1006E000006800F054FBEB48006828B12146E84858
:1006F0000068E84A12689047E548006820B1E4487D
:100700000068E549086002E00020E3490860E3482A
:100710000460DF48046010BD10B504462146E0487F
:1007200000F08CFB10BD10B504462146DC4800F0FB
:10073000B8FB10BD2DE9F04104460D4616461F4694
:100740003B46324629462046FFF7BFFEBDE8F08112
:100750002DE9F0470446D34800F0BDFB07467FB3C0
:10076000A146D9F80800D0F894502FE0B946D9F83E
:100770000800D0F89460CC480068A84201D2B54285
:100780000DD3B54203D2C8480068864207D3C64895
:10079000006886420AD2C4480068A84206D22246AF
:1007A0003946C04800F06BFBBDE8F0873946BD48CC
:1007B00000F094FB8046B8F1000F02D0474605E0F8
:1007C00005E02146B74800F039FBEDE7CEE72146CA
:1007D000B44800F033FB00BFE6E710B504462046FE
:1007E000FFF763FD10BD2DE9F04705460C4694F870
:1007F000480000F0030002280ED195F8888005F12A
:10080000600704EBC80604F1400943464A463946EE
:100810003046FFF736FE07E004F1380605F16007C1
:100820003946304600F00AFBEC66BDE8F0872DE95A
:10083000F041054695F8480000F00300022805D174
:1008400005F14000FFF7CAFD064600E0072605EB6C
:10085000C60000F040FB044614B90020BDE8F0815A
:100860002746B868FAE710B504462046FFF71DFD95
:1008700010BD2DE9F04705460C4694F8440000F001
:10088000600040280ED195F8888005F1600704EBE0
:10089000C80604F1400943464A4639463046FFF748
:1008A000F0FD07E004F1380605F1600739463046EF
:1008B00000F0C4FABDE8F0872DE9F047054695F849
:1008C000440000F06000202849D1072705EBC7004D
:1008D00000F001FB064641E016B90020BDE8F087B4
:1008E000B1464E46D9F80840A06F01281AD0022818
:1008F00022D0042802D0082828D109E0A86C616F12
:1009000000EA0108606F404501D12046E6E71EE09D
:10091000A86C616F00EA0108B8F1000F01D0204611
:10092000DCE714E0606FA96C20EA0108606F4045C5
:1009300001D12046D2E70AE0606FA96C20EA0108E5
:10094000B8F1000F01D02046C8E700E000BF00BFAB
:1009500005EBC700314600F0C1FA0646BCE705F1D9
:100960004000FFF73BFD074605EBC70000F0B3FA78
:1009700006464BE00AE0781CC7B2082F01D10020E0
:10098000ACE705EBC70000F0A6FA0646002EF2D051
:10099000B1464E46D9F80840A06F01281AD0022867
:1009A00022D0042802D0082828D109E0A86C616F61
:1009B00000EA0108606F404501D120468EE71EE045
:1009C000A86C616F00EA0108B8F1000F01D0204661
:1009D00084E714E0606FA96C20EA0108606F40456D
:1009E00001D120467AE70AE0606FA96C20EA01088D
:1009F000B8F1000F01D0204670E700E000BF00BF53
:100A000005EBC700314600F069FA0646B2E72DE96A
:100A1000F041054695F8440000F06000202805D11B
:100A200005F14000FFF7DAFC064600E0072605EB7B
:100A3000C60000F050FA044614B90020BDE8F08169
:100A40002746B868FAE718480068704710480068F9
:100A50007047164800687047154800687047154889
:100A60000068704714A0704703E0002200F8012BD3
:100A7000491E0029F9D1704704E011F8013B00F844
:100A8000013B521E002AF8D17047000010000020E0
:100A90001C0000204400002014000020180000204A
:100AA00038000020040000200C000020200000205E
:100AB00024000020280000203030312E3030312E2C
:100AC0003030312E3030310010B5002807DA0A07F7
:100AD000140E934A00F00F031B1FD45403E00A07BF
:100AE000130E904A135410BD2DE9F04104460F46F1
:100AF00090462546C5F8008000206860A860E86040
:100B000028616861A861E86128626862A862E86299
:100B10002863A4F1200068638348A863EF634FF063
:100B2000807028646FF006006864204600F004F9C5
:100B30002646301F0646296C0160301F0646E96BC9
:100B40000160301F0646A96B0160301F0646296B05
:100B50000160301F0646E9680160301F0646A9683B
:100B60000160301F064669680160301F064629682B
:100B70000160BDE8F08110B50E216FF00100FFF7B4
:100B8000A3FF10BD10B5694800686421B0FBF1F403
:100B9000B4F1807F00D311E024F07F40401E4FF07D
:100BA000E02148610F214FF0FF30FFF78DFF00205B
:100BB0004FF0E02188610720086100BF0C214FF051
:100BC000FF30FFF781FF10BD10B5FFF7DBFFFFF728
:100BD000D2FF10BD014600BFEFF31482104620F093
:100BE00001000843024682F3148800BF70474C4856
:100BF0001438006840F08050494914390860704743
:100C000010B504F087FBC005C00D01D0002010BD59
:100C10000120FCE710B5FFF7F3FF18B1444804F0DA
:100C200077FB01E0FFF7E3FF10BD70B505462846EE
:100C300004F02AFBC4B2202C01D1002070BD204654
:100C4000FCE710B50446FFF7DBFF08B9012010BD33
:100C500004F00300012805D004F00300022801D0AD
:100C60000120F4E73348006880B904F0030001284C
:100C700001D172B603E004F0FC0004F04EFB2D48F5
:100C80000068401C2B4908600020E0E72948006804
:100C9000401C06D027480068401C264908600020F8
:100CA000D5E70120D3E710B51220FFF7CAFF10BD2A
:100CB00010B50446FFF7A4FF08B9012010BD04F0E9
:100CC0000300012805D004F00300022801D0012010
:100CD000F4E718480068012806D916480068401E45
:100CE000144908600020E9E71248006801280FD184
:100CF00010480068401E0F49086004F003000128F6
:100D000001D162B602E0002004F007FB0020D5E725
:100D10000120D3E710B50220FFF7CAFF10BD000085
:100D200018ED00E000E400E0171700085000002074
:100D3000011000102C000020D0F88030DB1C23F0C4
:100D40000302002103E04FF0CC335350091D831AF6
:100D50008B42F8D870470146D1F88030DB1C23F075
:100D60000302002005E01358B3F1CC3F00D003E0AC
:100D7000001D8B1A8342F6D800BF70470021C0F8CF
:100D8000981000229C210A50A0210A5070472DE99A
:100D9000F041044688464FF0E0208769C4B12148FD
:100DA000006821490968884208D19C200059D4F87C
:100DB0009810C91B01449C20015109E09C20015955
:100DC000D4F8980000F18070C01B01449C200151B0
:100DD0001548006813490860C8F8987013480068FF
:100DE000642818D1124E0EE0B5689C20405900F5D9
:100DF0000000000E64214843B0FBF1F1A0204151F6
:100E000000219C2041513146094800F067F8060056
:100E1000EAD106490860BDE8F0810146A0204058AB
:100E200070477047300000200C0000203400002084
:100E3000380000200021016041607047426832B1F3
:100E400002680A60486002685160016003E008605F
:100E5000486001604160704701464A686AB1D1E963
:100E60000003984204D0506848605068016002E076
:100E7000002008604860104670470020FCE730B54D
:100E800005460B4614469D4206D018684460186813
:100E9000206063601C6003E021462846FFF7CEFF18
:100EA00030BD30B505460C46A54212D02068A84298
:100EB00002D16068A84207D0D4E900104860D4E9A4
:100EC00000010860606830BD2846FFF7C5FF0020BC
:100ED000F9E70020F7E7014648687047024648688E
:100EE000904201D1002070474868FCE770B5064683
:100EF0000D4605F00300012805D005F00300022887
:100F000001D0002070BD35F0030001D00020F9E7CA
:100F100076B9FFF7C8FE602002F0C0FD04461CB998
:100F2000FFF7F8FE0020EDE7FFF7F4FE264600E0AD
:100F300000243046FFF77EFFF46545F008010022EB
:100F400006F1080000F056F808B13046DAE714B1AF
:100F5000204602F0D2FD0020D4E770B504460D46CD
:100F600004B10DB9012070BDFFF79DFE2946204652
:100F7000FFF764FFFFF7CEFE04F1080000F078F9F8
:100F8000F1E72DE9F04104460D46174604B115B9C5
:100F90000120BDE8F081394604F1080000F080F836
:100FA00006460EB13046F4E7FFF77DFE2046FFF718
:100FB00053FF8046FFF7AEFEC5F800800020E8E74B
:100FC00010B504460CB9012010BD042104F108003D
:100FD00000F000FA08B10120F6E7E06D40B1FFF73C
:100FE00062FEE06D02F089FD0020E065FFF792FEF1
:100FF0000020E9E72DE9F04105460C46174604F0CC
:101000001C00042807D004F01C00082803D004F0BA
:101010001C00102813D104F00300012803D004F0B1
:10102000030002280BD104F01C00102803D104F0A7
:101030000300022806D004F02000202802D100205E
:10104000BDE8F08104F01C00042805D16FB1B7F1B0
:10105000FF3F0AD00020F3E704F01C00102804D161
:10106000B7F1FF3F01D00020EAE775B9FFF71BFE9B
:10107000542002F013FD06461EB9FFF74BFE002078
:10108000DEE7FFF747FE354600E000262846FFF77B
:10109000A4FB6F64AC64EE64002028652846CFE7AB
:1010A00070B504460D460CB9012070BDFFF7A8FDD0
:1010B00050B994F8480000F01C00102801D101201C
:1010C000F3E70DB10120F0E7FFF7EDFD002D4AD168
:1010D00094F8480000F01C0004280DD1606CB0F1B9
:1010E000FF3F05D100206064FFF714FE0020DCE71D
:1010F000FFF710FE0320D8E794F8480000F01C002A
:1011000008280CD1606C30B1606C401E6064FFF741
:1011100001FE0020C9E7FFF7FDFD0320C5E7606C75
:10112000B0F1FF3F09D1E74800682065606C401EC0
:101130006064FFF7EFFD0020B7E7E249206D096822
:1011400088420CD1606C30B1606C401E6064FFF767
:10115000E1FD0020A9E7FFF7DDFD0520A5E7FFF78A
:10116000D9FD0320A1E794F8480000F01C000428F2
:101170001CD1606CB0F1FF3F05D100206064FFF727
:10118000C9FD002091E72946204600F027FC0128F0
:1011900003D1FFF7BFFD012087E7FFF7BBFDFFF796
:1011A00039FDC8480068D0F890007EE794F8480000
:1011B00000F01C0008281BD1606C30B1606C401E30
:1011C0006064FFF7A7FD00206FE72946204600F086
:1011D00005FC012803D1FFF79DFD012065E7FFF71E
:1011E00099FDFFF717FDB7480068D0F890005CE75D
:1011F000606CB0F1FF3F09D1B24800682065606CB7
:10120000401E6064FFF786FD00204EE7AD49206D6B
:10121000096888420CD1606C30B1606C401E60641B
:10122000FFF778FD002040E7FFF774FD05203CE75D
:1012300094F8480000F02000202806D1A14A126846
:1012400092F88810206D00F0A1FC2946204600F09D
:10125000C5FB012803D1FFF75DFD012025E7FFF75E
:1012600059FDFFF7D7FC97480068D0F890001CE7BD
:101270002DE9F05F044614B90120BDE8F09FFFF7A7
:10128000BFFC38B994F8480000F01C00102801D1C8
:101290000120F2E74FF0000BFFF705FD94F848003E
:1012A00000F01C00042805D1606C08B901262AE072
:1012B000002628E094F8480000F01C0008280FD110
:1012C000606C08B901261EE00026606CB0F1FF3F9B
:1012D00003D0606C401C606415E04FF0020B12E01C
:1012E0007849206D0968884203D0FFF713FD01207B
:1012F000C3E7606C401C6064606CB0F1FF3F01D0DC
:10130000002600E00126012E60D16E48006800F042
:1013100080FC2046FFF78BFA0546EDB32846FFF721
:10132000F0F895F8840010F0010F0AD005F1540789
:101330003846FFF727F9D5F8840020F00100C5F8FA
:10134000840095F88C0020F0080085F88C000021BE
:101350009020415105F1540795F888805A4800EBD8
:10136000C80900F1400A4346524639464846FFF74D
:1013700098F895F88C0040F0020085F88C0094F8FD
:10138000480000F01C00102803D12565606C401E49
:101390006064FFF7BFFC00E003E0FFF73BFC58464A
:1013A0006BE794F8480000F01C00042802D1401FAD
:1013B00060640BE094F8480000F01C00082803D19A
:1013C000606C401C606401E000202065FFF7A2FC17
:1013D000584652E72DE9F04705460F4615B901205A
:1013E000BDE8F08795F8480000F01C00102801D1F6
:1013F0000120F5E7FFF757FC35E02846FFF717FA1D
:10140000044674B32046FFF77CF894F8840010F08B
:10141000010F0AD004F154094846FFF7B3F8D4F895
:10142000840020F00100C4F8840094F88C0020F0BF
:10143000080084F88C009020075104F1540914F836
:10144000886F214800EBC60800F1400A3346524637
:1014500049464046FFF725F8207940F00200207108
:1014600001E0FFE700E0C8E700BF00206864FFF785
:1014700051FC0020B4E710B5044600212046FFF7D8
:10148000A9FF10BD10B504460CB9012010BD94F899
:10149000480000F01C00102806D004212046FFF769
:1014A00099FF08B10120F1E7E06C40B1FFF7FBFBC9
:1014B000E06C02F022FB0020E064FFF72BFC002030
:1014C000E4E700001C000020BC0000202DE9FF4FD5
:1014D00083B082461D46DDE910B7129EFFF7E3FB9D
:1014E0006DB9584602F0DAFA05462DB9FFF712FC3D
:1014F000002007B0BDE8F08F4FF0020901E04FF087
:10150000000905EB0B0020F0030000900098A438C0
:1015100020F00704C4F880502046DDE90412FFF7EC
:10152000E3FA04F14800FFF7F7F82046FFF726FC3E
:10153000002044F8840F206840EA090044F8840938
:101540002465E465A466C4F87CA084F888701EB99C
:10155000022084F88C0005E0307884F88C0090201C
:101560007168015194F88C0000F0020002280ED13D
:10157000FE4800EBC700029004F15408FB484030DD
:1015800001903B464146DDE90120FEF78AFF94F8D1
:101590008C0000F00400042814D17068B0F1FF3F03
:1015A00010D0F349706809680844C4F8940004F145
:1015B00054084046FFF7CCF8D4F8840040F001000E
:1015C000C4F8840000202067002161670121A16721
:1015D000FFF7A0FB20468CE72DE9FE4F81460F4622
:1015E00092469B46DDE90C840E9D17B90020BDE8AC
:1015F000FE8FB8F1000F01D10020F8E73DB1287847
:10160000022804D02878042801D00020EFE7FFF753
:1016100026FA18B9072C07DD0020E8E7012C01DBCA
:10162000062C01DD0020E2E75B465246394648467B
:10163000CDE900840295FFF749FF06460EB9002068
:10164000D5E7CC48006840B9CB48006818B13046AF
:10165000C94909688847FFF7DDFA3046C7E72DE931
:10166000F047044614B90120BDE8F087C34800687C
:10167000A04201D10120F7E7FFF715FBC048006841
:1016800018B12046BE490968884794F88C5005F087
:10169000020002280ED194F88870B44800EBC70805
:1016A00000F1400904F154063B464A4631464046A3
:1016B000FFF740F805F00400042804D104F15406B3
:1016C0003046FEF75FFF05F00800082802D12046EB
:1016D000FEF717FF04F14800FFF725F8A948006856
:1016E000A04208D10020A7490860096891F8881035
:1016F000A54A42F8210094F8840000F00200022874
:1017000003D1D4F8800002F0F8F9FFF703FBFFF7EC
:1017100081FA0020A8E710B59A480068FFF79FFFFC
:1017200010BD2DE9F0410446002C54D095480068C6
:1017300092490968884202D10120BDE8F0819148B0
:10174000006890F88850894800EBC50600F1400712
:10175000FFF7A9FA2B463A4600213046FEF7EAFF8A
:1017600080468848006890F88C0020F00200854987
:10177000096881F88C0083480068C0F89040B4F193
:10178000FF3F13D07A48006820447E490968C1F8B9
:1017900094004046FEF7DCFF7A480068D0F88400E9
:1017A00040F0010077490968C1F884007548006875
:1017B00090F88C0040F004007249096881F88C00B0
:1017C00000207049096891F888106F4A42F821009A
:1017D000FFF7A0FA04E000216A480068C0F8901002
:1017E000FFF718FA67480068D0F89000A5E72DE9E0
:1017F000F041044614B90120BDE8F081FFF753FA27
:1018000094F88C0000F00400042803D0FFF782FA5B
:101810000120F1E704F1540590200059B0F1FF3F99
:1018200008D02846FEF7AEFED4F8840020F0010070
:10183000C4F8840094F88C0020F0040084F88C0034
:1018400003219020015114F8886F484800EBC60727
:1018500000F140083346424629463846FEF721FE4D
:10186000207940F002002071A4F18804FFF752FAB9
:10187000FFF7D0F90020BFE72DE9F04704463F48C5
:101880000068A04202D10120BDE8F087FFF70BFA03
:101890003C480068A04201D1012700E0002794F8ED
:1018A0008C0000F0020002280ED194F888602F48C6
:1018B00000EBC60800F1400904F1540533464A46DE
:1018C00029464046FEF736FF94F8840010F0010FD9
:1018D00004D004F154052846FEF754FE94F88C0019
:1018E00000F0080008280CD194F8840000F00800EB
:1018F000082803D12046FEF725FE02E02046FEF729
:1019000000FE94F88C0040F0100084F88C00FFF783
:1019100001FA012F01D1FFF77DF90020B4E72DE98D
:10192000F047044615480068A04202D10120BDE8F6
:10193000F087FFF7B8F904F1540594F88C0000F033
:10194000020002280CD194F88860084800EBC60712
:1019500000F140083346424629463846FEF7A1FDCD
:1019600094F8840010F0010F13D00FE0BC000020A9
:101970000C00002000000020400000202400002077
:10198000480000201C000020200100202846FEF70F
:10199000DFFE94F88C0000F00800082812D194F8BB
:1019A000840000F00800082806D1D4F87090494659
:1019B0002046FEF75EFF05E0D4F86CA051462046B5
:1019C000FEF711FF94F88C0020F0100084F88C00D2
:1019D000FFF7A0F9FFF71EF90020A8E72DE9F0476F
:1019E00006460C46C7480068C7490968884202D1C4
:1019F0000120BDE8F087C348006890F88850C348CC
:101A000000EBC50700F140082B464246002138464E
:101A1000FEF790FE8146BB48006890F88C0020F0ED
:101A20000200B849096881F88C00B6480068C0F81F
:101A30009040B4F1FF3F13D0B54800682044B1494D
:101A40000968C1F894004846FEF782FEAD48006878
:101A5000D0F8840040F00100AA490968C1F8840068
:101A60003146A8480068FEF7BEFEA6480068D0F8D8
:101A7000840020F00800A3490968C1F88400A14847
:101A8000006890F88C0040F008009E49096881F8D1
:101A90008C0000209B49096891F888109D4A42F803
:101AA000210000BFA5E72DE9F05F05460F469046EF
:101AB0001C469448006894490968884202D1012074
:101AC000BDE8F09F8F48006890F888608F4800EB71
:101AD000C60900F1400A3346524600214846FEF747
:101AE00029FE83468748006890F88C0020F00200A9
:101AF0008449096881F88C0082480068C0F89040E9
:101B0000B4F1FF3F13D08248006820447D49096842
:101B1000C1F894005846FEF71BFE7A480068D0F8DA
:101B2000840040F0010077490968C1F884007548D5
:101B30000068056773480068476772480068C0F826
:101B4000788029466F480068FEF793FE6D4800686C
:101B5000D0F8840040F008006A490968C1F88400A0
:101B60006848006890F88C0040F0080065490968F2
:101B700081F88C0000206349096891F88810654A53
:101B800042F8210000BF9BE7634870472DE9F0470A
:101B900004460D460CB9BDE8F08794F88800A842C9
:101BA00000DCF8E794F88C0000F0020002280DD168
:101BB00094F88870554800EBC70800F140093B468F
:101BC0004A4600214046FEF7B5FD064694F88400DB
:101BD00000F00400042803D094F8880084F88900F9
:101BE00004F184042571206840F004002060207A0C
:101BF000A4F1840400F00200022808D1434800EB5D
:101C0000C5082B464A4631464046FEF74AFC00BF0F
:101C1000C1E72DE9F04104460CB9BDE8F08194F824
:101C2000840000F00400042800D0F6E704F18404E6
:101C30002579364800EBC50700F140062B463246B1
:101C40004FF000013846FEF775FD8046607920713F
:101C5000206820F00400206020792C4901EBC007A7
:101C60002379A4F18404324641463846FEF719FC34
:101C700000BFD2E770B506460D46FFF714F80DB168
:101C8000062D05D9B5F1FF3F02D0FFF743F870BD2F
:101C9000B5F1FF3F08D1002403E0204840F824605C
:101CA000641C082CF9D302E01C4840F8256000248D
:101CB00004E00020174941F82400641C082CF8D3E4
:101CC000FFF728F800BFE2E7002015490860154932
:101CD0000860154908607047114908607047002086
:101CE0000F49086070470F490860704700200D4990
:101CF000086070470C490860704700200A49086076
:101D0000704700001C00002024000020BC000020C0
:101D10000C000020200100203800002000010020DD
:101D20004000002044000020480000202DE9F04140
:101D300005460E46174606F06000202806D006F03D
:101D40006000402802D00020BDE8F08175B9FEF7A0
:101D5000AAFF502001F0A2FE04461CB9FEF7DAFFEC
:101D60000020F1E7FEF7D6FF254600E000242846D4
:101D7000FEF779FD6E64AF64EC642846E4E72DE974
:101D8000F04704460E469046994614B90120BDE836
:101D9000F08708F00F0001280DD008F00F0004288C
:101DA00009D008F00F00022805D008F00F0008281D
:101DB00001D00120EBE7FEF723FF20B9B9F1000FB6
:101DC00001D00120E3E708F01000102803D101271B
:101DD00028F0100800E00027FEF765FFB8F1010FBA
:101DE00073D0B8F1020F6ED0B8F1040F03D0B8F180
:101DF000080F69D133E0A06C00EA0605B54208D1AE
:101E0000012F02D1A06CA843A064FEF783FF00203D
:101E1000BDE7B9F1000F03D1FEF77CFF0320B6E761
:101E20004B46424631462046FFF73DFE012803D18E
:101E3000FEF770FF0120AAE7FEF76CFFFEF7EAFE4F
:101E4000C3480068D0F8900020B9012F02D1A06CDF
:101E5000B043A064BE480068D0F8900097E7A06C3B
:101E600000EA060545B1012F02D1A06CA843A06489
:101E7000FEF750FF00208AE7B9F1000F03D1FEF70B
:101E800049FF032083E74B46424631462046FFF791
:101E90000AFE012803D1FEF73DFF012077E7FEF798
:101EA00039FFFEF7B7FEAA480068D0F8900020B9C5
:101EB000012F02D1A06CB043A064A5480068D0F8FF
:101EC000900064E701E034E066E0A06C26EA0005DB
:101ED000B54208D1012F02D1A06C2843A064FEF7BF
:101EE00019FF002053E7B9F1000F03D1FEF712FFED
:101EF00003204CE74B46424631462046FFF7D3FDD0
:101F0000012803D1FEF706FF012040E7FEF702FF9C
:101F1000FEF780FE8E480068D0F8900020B9012FAF
:101F200002D1A06C3043A06489480068D0F89000CA
:101F30002DE7A06C26EA000545B1012F02D1A06C67
:101F40002843A064FEF7E6FE002020E7B9F1000F69
:101F500003D1FEF7DFFE032019E74B464246314628
:101F60002046FFF7A0FD012803D1FEF7D3FE012094
:101F70000DE7FEF7CFFEFEF74DFE75480068D0F87E
:101F8000900020B9012F02D1A06C3043A0647048AA
:101F90000068D0F89000FAE6FEF7BCFE0120F6E6F5
:101FA0002DE9F05F05460F46164615B90120BDE83C
:101FB000F09F16F0010F04D016F0010F01D101209F
:101FC000F5E7FEF770FE16B1012E08D103E0A86C0C
:101FD000B843A86407E0A86C3843A86403E0FEF7A0
:101FE00099FE0120E3E700BF2846FEF765FC0446A2
:101FF000E4B32046FEF7A6FA94F8840010F0010F2F
:102000000AD004F154084046FEF7BCFAD4F8840024
:1020100020F00100C4F8840094F88C0020F008003F
:1020200084F88C00002190200151D4F8840020F025
:102030000800C4F8840004F1540894F888904548D6
:1020400000EBC90A00F1400B4B465A464146504648
:10205000FEF727FA94F88C0040F0020084F88C0018
:10206000FEF758FEFEF7D6FD0020A0E7FFE7FEF7DB
:1020700051FE00209BE72DE9F04706460F4616B9B2
:102080000120BDE8F087FEF70EFE3BE03046FEF78C
:10209000BEFC0446A4B32046FEF754FA94F884002C
:1020A00010F0010F0AD004F154094846FEF76AFA0D
:1020B000D4F8840020F00100C4F8840094F88C0067
:1020C00020F0080084F88C0090200751D4F8840098
:1020D00020F00800C4F8840004F1540914F8885F63
:1020E0001C4800EBC50800F1400A2B465246494601
:1020F0004046FEF7D6F9207940F00200207101E059
:10210000FFE700E0C2E700BFFEF704FE0020B8E7EB
:1021100010B5044600212046FFF7ADFF10BD10B5F5
:1021200004460CB9012010BD04212046FFF7A3FF8F
:1021300008B10120F7E7E06C40B1FEF7B4FDE06CB8
:1021400001F0DBFC0020E064FEF7E4FD0020EAE79C
:102150001C000020BC00002070B550214F48FEF745
:1021600083FC00240BE004EB84004C4901EB800568
:10217000601C00EB800001EB80006860641C032C95
:10218000F1D304EB8400454901EB80050020686031
:1021900008464349086070BD2DE9F05F05460E46CC
:1021A000904615B90020BDE8F09F022E01D2002014
:1021B000F9E7B8F1040F01D20020F4E7FEF773FD50
:1021C00037480468006820B13548006840683449E1
:1021D0000860FEF79FFD0CB90020E4E7A9462F46F2
:1021E000A6F1010B4FF0000A05E04744C9F8007062
:1021F000B9460AF1010ADA45F7D30020C9F8000010
:1022000025606560C4F80880E66026612046CAE75C
:102210002DE9F04104460E46174614B90020BDE8EA
:10222000F081A068B04201D20020F8E7FEF73BFD44
:10223000206958B16568286860602069401E206187
:10224000A0683860FEF766FD2846E8E7FEF762FD05
:102250000020E4E770B504460D46164604B10DB9FA
:10226000012070BDFEF71FFDD4E90310884203D39F
:10227000FEF750FD0120F4E73068A168884203D0E2
:10228000FEF748FD0120ECE7606828606560206982
:10229000401C2061FEF73EFD0020E2E740010020E7
:1022A0004C00002070B505462846FEF7C3FD00240B
:1022B00009E0C4EBC40205F1080000EB0211284656
:1022C000FEF7BCFD641C642CF3D370BD10B55348FD
:1022D000FFF7E8FF02210020FEF708FE50490860E2
:1022E000002220211046FFF721FD4E4908604E488C
:1022F000FFF7F2FC4D48FFF7F6FC4D48FFF7FAFCFC
:1023000003213220FFF7B6FC04213C20FFF7B2FC8A
:1023100010BD00B585B0012144F2050001F032F98D
:102320004FF48060ADF8100004208DF8130004A96C
:10233000404800F071FE4FF40070ADF8100003202B
:102340008DF8120018208DF8130004A9394800F008
:1023500063FE684601F02AFA6946374801F0BDF984
:102360000121354801F045FA05B000BD10B5FFF771
:10237000D0FF10BD10B5044600BF80212E4801F0EB
:1023800013FB0028F9D021462B4801F09FFA10BD1D
:1023900070B50446FEF787FC2046FEF75DFD054656
:1023A000FEF7B8FC284670BD0FB438B51B48FFF7E0
:1023B000EFFF044614B938BC5DF814FB05A8009083
:1023C00004F10900009A049901F0BEFB002000907E
:1023D00004F1090001F0CAFB207221461048006890
:1023E000FEF7BBFD00BFE6E770B504460D460026CC
:1023F00004E03146761C605CFFF7BCFFB542F8D8BC
:1024000070BD70B504460D46FEF74DFC29462046CA
:10241000FEF714FDFEF77EFC70BD00009001002069
:102420006800002070000020B92800082D2900084D
:10243000FB2C00080008014000380140704700BF35
:10244000FEE700BFFEE700BFFEE700BFFEE710B5F6
:102450000446074820400649884201D1FEF7C7FBE1
:1024600010BD7047704710B5FDF78DFF10BD00001F
:10247000011000100CB50020019000906B4800681E
:1024800040F480306949086000BF6848006800F483
:10249000003000900198401C0190009818B90198F4
:1024A000B0F5704FF1D16148006810F4003F02D0E0
:1024B0000120009001E0002000900098012842D106
:1024C0005B48006840F01000594908600846006801
:1024D00020F0030008600846006840F00200086031
:1024E000524840685149486008464068486008467C
:1024F000406840F4806048600846406820F47C10E2
:1025000048600846406840F4E810486008460068A3
:1025100040F08070086000BF4448006810F0007F01
:10252000FAD04248406820F003004049486008461D
:10253000406840F00200486000BF3C48406800F03E
:102540000C000828F9D10CBD10B5FFF793FF10BDA2
:1025500010B53648006840F001003449086008466C
:1025600040683449084031494860084600683249AB
:1025700008402E4908600846006820F48020086062
:102580000846406820F4FE0048604FF41F00886051
:10259000FFF7DAFF4FF000602849086010BD10B562
:1025A000002100200022214B5B6803F00C0121B1C7
:1025B000042906D0082928D107E0214B214C2360AB
:1025C00027E01F4B1F4C236023E0184B5B6803F48C
:1025D0007010164B5B6803F48032022303EB9040CB
:1025E00022B9194B4343174C23600DE00F4B5B6836
:1025F00013F4003F04D0144B4343124C236003E018
:102600000F4B43430F4C236003E00D4B0D4C2360F5
:1026100000BF00BF054B5B68C3F303130B4CE15CC9
:10262000084B1B68CB40074C236010BD00100240D4
:10263000002002400000FFF8FFFFF6FE08ED00E07A
:1026400000127A005000002000093D0054000020D4
:1026500070B50546FEF7F7F904462146C2A0FFF71C
:10266000A3FECA480068FFF707F927E0FEF7EBF979
:1026700004462146C6A0FFF797FE4FF0FF33142211
:102680000321CD480068FFF77AFB30B9FEF7DBF98C
:1026900004462146C9A0FFF787FEC820FFF741F88E
:1026A000FEF7D1F943F69821884207D9FEF7CBF916
:1026B00004462146C9A0FFF777FE00E0D6E700BF39
:1026C00070BD70B5054632E0FEF7BDF904462146FF
:1026D000CBA0FFF769FE4FF0FF3314220321B64869
:1026E0000068FFF74CFB30B9FEF7ADF90446214610
:1026F000CDA0FFF759FEC820FFF713F8FEF7A3F9A6
:1027000042F21071884212D9FEF79DF90446214623
:10271000CDA0FFF749FE9D480068FFF700F9FEF7DE
:1027200092F904462146D1A0FFF73EFE00E0CBE738
:1027300000BF70BD10B50446204636F063FC10BDE6
:1027400070B5054628E0FEF77EF904462146D0A084
:10275000FFF72AFE40F2DC50FFF7ECFFFEF773F9BB
:1027600004462146D5A0FFF71FFE012211469248DC
:102770000068FFF715FC4FF4C870FEF7D2FFFEF7B4
:1027800062F9B0F57A5F07D9FEF75DF90446214694
:10279000D8A0FFF709FE00E0D5E700BF70BD70B517
:1027A000054628E0FEF74FF904462146DAA0FFF778
:1027B000FBFD4FF4FA60FFF7BDFFFEF744F9044656
:1027C0002146E1A0FFF7F0FD012202217A480068CE
:1027D000FFF7E6FB4FF49670FEF7A3FFFEF733F921
:1027E000B0F57A5F07D9FEF72EF904462146E4A03A
:1027F000FFF7DAFD00E0D5E700BF70BD70B5054614
:1028000042E0FEF720F944F25061884238D9FEF7E1
:102810001AF904462146E3A0FFF7C6FDEA4AEB4851
:102820000168EB480068FFF715FDFEF70CF9044658
:102830002146E8A0FFF7B8FDEF4AF0480168E448F8
:102840000068FFF707FDFEF7FEF804462146ECA0FE
:10285000FFF7AAFDF34AF4480168DD480068FFF776
:10286000F9FCFEF7F0F804462146F0A0FFF79CFDC6
:10287000F74AF8480168D6480068FFF7EBFC04E027
:102880004FF4FA70FEF74DFFBBE700BF70BD08B50F
:1028900011E04FF0FF326946EF480068FEF771FB28
:1028A00048B9009C217A04F10900FFF79DFDEB482F
:1028B0000099FFF7A6FDECE770B504464CB1FEF7B2
:1028C000C2F805462B462246E5A0E16FFFF76CFDF6
:1028D00006E0FEF7B8F805462946ECA0FFF764FDD0
:1028E00070BD2DE9F041FEF7AEF86421B0FBF1F6C2
:1028F000EF480068864217D0FFF746F9044609E022
:10290000A5682846FEF789FA07463A46E9A0E96F26
:10291000FFF74AFDFFF738F907462146FEF7DEFAD2
:102920000400EDD1E2480660BDE8F08170B50446D0
:102930000D46FFF7D6FFE8480068844202D1FEF753
:102940008BF80446E4480068854202D1FEF784F81B
:102950000546A54200D170BD2CB1FEF774F80646BD
:10296000EA6F3346BAE1BEE10D0A5461736B312060
:1029700073757370656E64205461736B31212054DC
:1029800069636B2069733A20256400009800002079
:102990000D0A5461736B3120697320736561726332
:1029A00068696E6720666C616721205469636B20DB
:1029B00069733A2025640000700000200D0A5461FC
:1029C000736B31206765747320666C6167212054D6
:1029D00069636B2069733A20256400000D0A546115
:1029E000736B312064656C65746520697473656C04
:1029F0006621205469636B2069733A2025640000C6
:102A00000D0A5461736B32206973207365617263C0
:102A100068696E6720666C616721205469636B206A
:102A200069733A20256400000D0A5461736B3220EB
:102A30006765747320666C616721205469636B203D
:102A400069733A20256400000D0A5461736B3220CB
:102A5000726573756D65205461736B312120546903
:102A6000636B2069733A2025640000000D0A5461ED
:102A7000736B322064656C65746520697473656C72
:102A80006621205469636B2069733A202564000035
:102A90000D0A5461736B332069732072656C656134
:102AA00073696E672066697273742062697421208D
:102AB0005469636B2069733A202564000D0A5461E0
:102AC000736B332072656C6561736564206669722F
:102AD0007374206269742C20736C656570696E670D
:102AE000206E6F7721205469636B2069733A20252B
:102AF000640000000D0A5461736B332064656C65DB
:102B0000746520697473656C6621205469636B2059
:102B100069733A20256400000D0A5461736B3420F8
:102B200069732072656C656173696E672073656394
:102B30006F6E642062697421205469636B2069732D
:102B40003A202564000000000D0A5461736B3420A4
:102B500072656C6561736564207365636F6E642074
:102B60006269742C20736C656570696E67206E6F86
:102B70007721205469636B2069733A202564000033
:102B80000D0A5461736B342064656C65746520694B
:102B90007473656C6621205469636B2069733A20F5
:102BA000256400000D0A46726565205461736B311F
:102BB000204D656D6F727921205469636B206973B4
:102BC0003A202564000000008800002078000020E2
:102BD000740000200D0A46726565205461736B32E3
:102BE000204D656D6F727921205469636B20697384
:102BF0003A202564000000008C0000207C000020AA
:102C00000D0A46726565205461736B33204D656D06
:102C10006F727921205469636B2069733A202564AF
:102C20000000000090000020800000200D0A467285
:102C30006565205461736B34204D656D6F72792129
:102C4000205469636B2069733A20256400000000FA
:102C500094000020840000206800002090010020E3
:102C60000D0A5461736B2025732030782530385855
:102C700020697320637265617465642120546963FF
:102C80006B2069733A202564000000000D0A46613C
:102C9000696C20746F206372656174652074617360
:102CA0006B21205469636B2069733A20256400000E
:102CB000640000200D0A5461736B2025732043507B
:102CC00055207574696C697A6174696F6E206973D7
:102CD00020256425250000006C0000200CA0E16F79
:102CE000FFF762FB07E0FDF7AEFE0646324612A094
:102CF000E96FFFF759FB00BF2DE670B50446FDF7FD
:102D0000A2FE05462A4616A0E16FFFF74DFB70BDF7
:102D10000D0A5461736B202573202D2D2D2D3E201F
:102D20005461736B2025732021205469636B2069E3
:102D3000733A2025640000000D0A5461736B204E25
:102D4000554C4C202D2D2D2D3E205461736B20258C
:102D5000732021205469636B2069733A2025640035
:102D60000D0A5461736B2025732069732064656CB0
:102D70006574656421205469636B2069733A20256A
:102D8000640000003EB5FDF7A9FAFFF79FFAFFF7D0
:102D9000EDFA4FF4806205214648FFF7FDF94649F8
:102DA0000860464A4FF4806143480068FFF730FAF4
:102DB00043490860434A4FF480613F480068FFF789
:102DC00027FA41490860414A4FF480613A48006857
:102DD000FFF71EFA3E4908603E4A4FF480613648CC
:102DE0000068FFF715FA3C490860002003214FF402
:102DF0008062CDE900210290314800223749036802
:102E000037A0FEF7E9FB38490860002003214FF4A2
:102E10008062CDE9002102902B48002233490368EB
:102E200033A0FEF7D9FB34490860002004210A02D0
:102E3000CDE900210290264800223049036830A0E5
:102E4000FEF7CAFB30490860002004210A02CDE9E0
:102E500000210290204800222C4903682CA0FEF794
:102E6000BBFB2D490860002005214FF4806203461A
:102E7000CDE9002102900246284929A0FEF7ACFBCB
:102E8000002006214FF480620346CDE90021029024
:102E90000246254925A0FEF79FFB26490860FDF75D
:102EA000D2FD0446214624A0FFF77EFAFDF75FFA23
:102EB00000203EBD582D0020740000208800002016
:102EC000780000208C0000207C0000209000002072
:102ED000800000209400002084000020512600087B
:102EE0005461736B3100000098000020C326000875
:102EF0005461736B320000009C00002041270008E1
:102F00005461736B33000000A00000209F2700086D
:102F10005461736B34000000A4000020FD270008FA
:102F2000436C65616E6572008F28000853726C50A7
:102F3000727400006C0000200D0A52454D49582063
:102F400069732072756E6E696E6721205469636BB8
:102F50002069733A2025640010B50446CA488442AB
:102F600008D10121042000F027FB0021042000F0FB
:102F700023FB46E0C548844208D10121082000F027
:102F80001BFB0021082000F017FB3AE0C0488442F8
:102F900008D10121102000F00FFB0021102000F0CB
:102FA0000BFB2EE0BB48844208D10121202000F019
:102FB00003FB0021202000F0FFFA22E0B648844203
:102FC00008D10121402000F0F7FA0021402000F054
:102FD000F3FA16E0B148844208D10121802000F0C4
:102FE000EBFA0021802000F0E7FA0AE0AC488442C6
:102FF00007D10121801500F0DFFA0021A01500F0B3
:10300000DBFA10BD10B50121084600F0D5FA002109
:10301000012000F0D1FA10BD2DE9F0410246002553
:103020000026002000230024002791F803C00CF0A4
:103030000F0591F803C01CF0100F03D091F802C0E7
:103040004CEA050591F800C0BCF1000F31D01468BE
:1030500000202BE04FF0010C0CFA00F3B1F800C097
:103060000CEA03069E4220D183004FF00F0C0CFAAD
:1030700003F7BC4305FA03FC4CEA040491F803C0CF
:10308000BCF1280F06D14FF0010C0CFA00FCC2F87D
:1030900014C00AE091F803C0BCF1480F05D14FF00D
:1030A000010C0CFA00FCC2F810C0401C0828D1D357
:1030B0001460B1F800C0BCF1FF0F34DD546800208B
:1030C0002EE000F1080C4FF0010808FA0CF3B1F8FB
:1030D00000C00CEA03069E4221D183004FF00F0C82
:1030E0000CFA03F7BC4305FA03FC4CEA040491F81C
:1030F00003C0BCF1280F05D100F1080C08FA0CF848
:10310000C2F8148091F803C0BCF1480F07D100F158
:10311000080C4FF0010808FA0CF8C2F81080401CA7
:103120000828CED35460BDE8F0814FF6FF710180CE
:10313000022181700421C17070470246002093680B
:103140000B4201D0012000E0002070470146886852
:1031500080B2704702460020D3680B4201D00120A4
:1031600000E0002070470146C86880B270470161E6
:103170007047416170470AB1016100E041617047E9
:10318000C16070474FF480320A438261816182617D
:1031900082698269704702460020424B18684FF6E8
:1031A0008073184040EA021008433E4B1860704795
:1031B0003D49C8617047F0B50A460023002400214C
:1031C000002500F00046B6F1004F02D1354EF169FE
:1031D00001E0344E7168C0F3034583B200F4401639
:1031E000B6F5401F08D121F070612E4E766826F0AA
:1031F00070662C4F7E6012E000F48016B6F5801FDA
:1032000006D1032606FA05F4A14341F0706106E0F9
:10321000460D360103FA06F6B14341F0706122B162
:10322000460D360103FA06F6314300F00046B6F1CA
:10323000004F02D11B4EF16101E01A4E7160F0BDEA
:1032400030B500228B071C0F0F2303FA04F2154B35
:1032500008338C1053F824309343124C08348D10EB
:1032600044F8253023468C1053F824308C07240F63
:1032700000FA04F423430B4C08348D1044F8253035
:1032800030BD0A490860704700080140000C014049
:10329000001001400014014000180140001C0140D2
:1032A000002001400000014000002042DC002042DC
:1032B000DD48006840F00100DB49086008464068CE
:1032C000DA490840D849486008460068D8490840AB
:1032D000D54908600846006820F480200860084648
:1032E000406820F4FE0048604FF41F00886070477B
:1032F000CD49096821F48031CB4A11601146096833
:1033000021F480211160B0F5803F03D0B0F5802F0B
:103310000ED106E0C449096841F48031C24A116007
:1033200007E0C149096841F4A021BF4A116000E0EB
:1033300000BF00BF704710B50146002200230020E7
:103340004A11012A02D1B84C236806E0022A02D1B0
:10335000B54C236A01E0B44C636A01F01F020124FA
:1033600094401C4201D0012000E0002010BD38B57F
:10337000002000900024002500BF3120FFF7DBFF74
:1033800005460098401C00900098B0F5704F01D0A1
:10339000002DF2D03120FFF7CEFF08B1012400E06C
:1033A0000024204638BD014600209F4A106820F0C6
:1033B000F80040EAC100106070479E4908607047FD
:1033C00002460020984B586820F47C1042EA010322
:1033D0001843954B586070479649086670470146F8
:1033E0000020914A506820F0030008435060704765
:1033F0008D48406800F00C007047014600208A4A62
:10340000506820F0F00008435060704701460020EB
:10341000854A506820F4E0600843506070470146D8
:103420000020814A506820F4605040EAC10050609A
:10343000704729B17C4A527A02437B4B5A7204E0AE
:10344000794A527A8243784B5A7270477A490860B7
:10345000704701460020744A506820F440400843F9
:10346000506070470021754A11706F4A82F8201031
:10347000012802D0042808D103E001216F4A11700D
:1034800004E005216D4A117000E000BF00BF7047E5
:103490006B49086070476449096A0143624A1162D6
:1034A0007047674944390860704730B500210022F1
:1034B000002400235C4D6D6805F00C0121B1042946
:1034C00005D0082923D105E05E4D056022E05D4D61
:1034D00005601FE0544D6D6805F47012524D6D6823
:1034E00005F48034022505EB92421CB9564D554334
:1034F00005600BE04C4D6D6815F4003F03D0524D54
:103500005543056002E04F4D5543056002E04D4DC7
:10351000056000BF00BF444D6D6805F0F00109096A
:103520004A4D6B5C0568DD4045603F4D6D6805F4B4
:10353000E061090A454D6B5C4568DD4085603A4DA8
:103540006D6805F46051C90A404D6B5C4568DD400B
:10355000C560354D6D6805F44041890B3C4D6B5C91
:10356000C568B5FBF3F5056130BD29B12E4A526936
:1035700002432D4B5A6104E02B4A526982432A4B85
:103580005A61704729B1284A92690243264B9A61D1
:1035900004E0254A92698243234B9A61704729B11E
:1035A000214AD2690243204BDA6104E01E4AD26903
:1035B00082431D4BDA61704729B11B4AD26802432E
:1035C000194BDA6004E0184AD2688243164BDA607D
:1035D000704729B1144A12690243134B1A6104E07F
:1035E000114A12698243104B1A61704714494039DD
:1035F000086070470F49C86470470B49C87170472D
:103600000948406A40F080700749486270470146A7
:103610000020054A92680A4201D0012000E0002003
:103620007047014988727047001002400000FFF89F
:10363000FFFFF6FE00004242D80042422010024046
:103640008004424200127A0000093D00A8000020D8
:10365000B800002010B50446FB48844209D101217E
:103660008803FFF7A9FF00214FF48040FFF7A4FF74
:1036700032E0F648844209D101214804FFF7A9FF4E
:1036800000214FF40030FFF7A4FF25E0F04884420A
:1036900009D101218804FFF79CFF00214FF480200D
:1036A000FFF797FF18E0EB48844209D10121C804D5
:1036B000FFF78FFF00214FF40020FFF78AFF0BE098
:1036C000E548844208D101210805FFF782FF002167
:1036D0004FF48010FFF77DFF10BD2DE9F04786B055
:1036E00005460E460024A24600BFA1460027B08929
:1036F00000B100BF2F462C8A4CF6FF700440F088C2
:1037000004432C82AC894EF6F3100440B088318912
:103710000843718908430443AC81AC8A4FF6FF40EB
:103720000440B0890443AC8201A8FFF7BEFEC6483E
:10373000874202D1DDF810A001E0DDF80CA0A889D5
:1037400010F4004F08D00AEBCA0000EB0A103168F1
:103750004900B0FBF1F807E00AEBCA0000EB0A10E1
:1037600031688900B0FBF1F86420B8FBF0F0040187
:103770002009642101FB1089A88910F4004F08D0AA
:10378000322000EBC900B0FBF1F000F00700044369
:1037900008E0322000EB09106421B0FBF1F000F0EA
:1037A0000F0004432C8106B0BDE8F0874FF4E131EF
:1037B000016000218180C18001810C2141810021B3
:1037C0008181704710B502460020108A4FF2FF0336
:1037D00018400B884C8823438C882343CC88234390
:1037E0001843108210BD0021018041808180C1807A
:1037F000704721B1828942F40052828104E08289BB
:103800004DF6FF731A4082817047F0B503460024DD
:10381000002600250020A1F510676A3F00D100BFF7
:103820001846C1F3421401F01F06012707FA06F5F6
:10383000012C01D10C3004E0022C01D1103000E049
:1038400014301AB107682F43076002E00768AF43DE
:103850000760F0BD1AB1838A0B43838202E0838A3A
:103860008B4383827047028A4FF6F0731A400282BC
:10387000028A0A430282704782894FF2FF731A401C
:10388000828182890A438281704721B1828942F014
:103890000202828104E082894FF6FD731A40828120
:1038A0007047028A4FF6DF731A400282028A0A4387
:1038B0000282704721B1028A42F48042028204E00F
:1038C000028A4BF6FF731A4002827047C1F3080266
:1038D0008280704701468888C0F30800704781895C
:1038E00041F0010181817047028BD2B20283028BC9
:1038F00042EA012202837047028B02F47F42028374
:10390000028B0A430283704721B1828A42F020026F
:10391000828204E0828A4FF6DF731A408282704707
:1039200021B1828A42F01002828204E0828A4FF63C
:10393000EF731A408282704721B1828A42F00802F6
:10394000828204E0828A4FF6F7731A4082827047BF
:1039500021B1828942F40042828103E08289C2F36C
:103960000E028281704721B1828A42F40062828213
:1039700004E0828A4FF2FF731A4082827047828A83
:103980004FF6FB731A408282828A0A438282704712
:1039900021B1828A42F00202828204E0828A4FF6DA
:1039A000FD731A408282704702460020B1F5007F05
:1039B00000D100BF13880B4201D0012000E000209D
:1039C000704701F40072B2F5007F00D100BFCA4316
:1039D0000280704770B502460024002300250020B5
:1039E000A1F510666A3E00D100BFC1F3421501F097
:1039F0001F03012606FA03F3012D02D196893340F5
:103A000006E0022D02D1168A334001E0968A334047
:103A10000C12012606FA04F41688344013B10CB1D6
:103A2000012000E0002070BD10B500220023A1F5A8
:103A300010646A3C00D100BF0A1201249440A3B272
:103A4000DC43048010BD0000003801400044004009
:103A500000480040004C00400050004009488047AA
:103A600009480047FEE7FEE7FEE7FEE7FEE7FEE760
:103A7000FEE7FEE7FEE7FEE704480549054A064B78
:103A8000704700005125000831010008B8410020AE
:103A9000B8830020B8810020B881002070B50646A8
:103AA00000F086F8056806F10B0020F00704B44228
:103AB0009CBF002070BD2B466A68BAB11068A04256
:103AC00010D304F1080188423CBF5068586007D306
:103AD0005168101941601168091B01605860146039
:103AE000101D70BD13465268002AE7D121462846B2
:103AF00000F066F80028DED170BD70B50446051FE1
:103B000000F056F80068002C14BF446870BD002C0B
:103B100018BFA54284BF20466468F8D801680A1817
:103B2000AA4218BF456003D12A68054611440160C6
:103B300028684119A1421CBF6C6070BD6168696052
:103B400021680844286070BD1CB50C46064B7B44B8
:103B500069460090204600F038F904460020694686
:103B600000F046F920461CBD9F02000010B5431C22
:103B700002E010F8011B71B18107FAD14FF0013258
:103B800002C88C1A8C4314EAC211F9D0C01A0A0672
:103B900003D0C01E10BDC01A10BD0A0401D0801E83
:103BA00010BD0902FCD0401E10BD70477047704721
:103BB0000048704760410020704770477047704769
:103BC00038B504460A4600206946AFF30080002855
:103BD00008BF38BD02460099204600F0FDFA0120DA
:103BE00038BD012000F00FBEF8B5AFF300800546E8
:103BF00000200C46102000BF0646A819A0420DD98F
:103C0000324669460020AFF30080070008BF00F08D
:103C1000FAFD0098A04218BF0546C419FFF7C8FF77
:103C200005600746F01D20F007004619284600F001
:103C30000AF8B44208BFF8BDA21B31463868BDE897
:103C4000F84000F0C9BA00210160C0E901107047D6
:103C50001020704770B5044685690068C10601D51B
:103C6000302600E02026C00708D070BDD4E901212D
:103C700030469047206A00F1010020626D1EF5D5A4
:103C800070BD70B5044685690078C00708D170BD65
:103C9000D4E9012120209047206A00F10100206230
:103CA0006D1EF5D570BD09684A0501D540B2704753
:103CB000C905FCD500B2704709684A0501D5C0B2F4
:103CC0007047C905FCD580B2704770B50C460546F3
:103CD000012A05D02878800600D5EA69002302E091
:103CE000012305E05B1C934202D2E05C0028F9D17D
:103CF000A869E618C01AA861286A184428622846EC
:103D0000FFF7A8FF04E0D5E9012114F8010B904763
:103D1000B442F8D32846FFF7B4FF70BD2DE9F04157
:103D20000646002410687529314616A511D0FFF704
:103D3000BAFF002803DAC0F1000013A507E03168DC
:103D40008A0701D511A502E0490704D510A5012471
:103D500001E0FFF7B1FF00210A2306F1240707E085
:103D6000B0FBF3F203FB1200303078541046491CCC
:103D70000028F5D123462A463046BDE8F04100F040
:103D80008ABA0000000000002D0000002B00000097
:103D90002000000011680268006A530501D5087010
:103DA0000BE0D30501D5088007E0130603D5C21741
:103DB000C1E9000201E052060860012070470000DE
:103DC00001694A1C02610878704700B58FB0CDE9DF
:103DD00001310021059105497944CDE903101146CF
:103DE000684600F02FF90FB000BD0000E5FFFFFFAF
:103DF0000A6802F8010B0A60704700002DE9FF5FB6
:103E000015468A460446DFF8AC80F8440027D8E916
:103E100000103E46CDE9001011E03AF816106A464F
:103E200002A800F0D0FC411C07D02178890603D5F8
:103E3000E269391891420ED8074406F1010620784C
:103E4000800602D5E069B84205DDAE42E5DB3AF80E
:103E500016000028E1D1A069C01BA0612046FFF731
:103E6000F9FED8E90010CDE90010002016E03AF87C
:103E700018106A4602A800F0A6FC8146401C0BD030
:103E800000250DF1080B05E0D4E901211BF8050020
:103E900090476D1C4D45F7D308F10100B0428046B4
:103EA000E5DB206A384420622046FFF7EAFEBDE8E1
:103EB000FF9F0000BA1500002DE9F0418046D21D99
:103EC00022F007020025D2E90002F52914A612D03B
:103ED000002A06DA0023D0EB030063EB020211A6EE
:103EE00008E0D8F800108B0701D50FA602E04907BB
:103EF00001D50EA601251146002408F1240704E08F
:103F000000F084F930323A55641C50EA0102F7D1CE
:103F10002B46324621464046BDE8F04100F0BBB991
:103F2000000000002D0000002B0000002000000019
:103F300030B4002100F124040CE002F0070505F183
:103F400030054FEAD20242EA4372655401F10101A1
:103F50004FEAD30352EA0305EFD10468002310A20D
:103F6000250708D504F020040C4304D0C4690123BC
:103F70000CA2641EC46130BC00F08DB910B50446BB
:103F800021461068FFF798FE02462046BDE8104023
:103F90000023CDE7D21D22F00701D1E90023C7E7B6
:103FA0000000000030000000F0B40D460188090553
:103FB00002D5234C7C4402E0214C7C440E34002189
:103FC00000F124060BE002F00F074FEA1212E75D42
:103FD00042EA03724FEA1313775401F1010152EAE6
:103FE0000307F0D102780023120704D5702D06D004
:103FF00009B1113402232246F0BC00F04CB9103450
:104000000123F8E770B504460D4621461068FFF716
:1040100053FE024629462046BDE870400023C3E710
:10402000D21D22F00703D3E90023BDE7036812681D
:1040300043F0200303600823C3610023B4E70000BA
:10404000181400002DE9F05F894604464FF0000A7D
:10405000DFF878B1FB44C0F820A02046E16888472B
:10406000002875D0252806D0D4E901219047206A80
:10407000401C2062F1E700265F462046E168884741
:104080002028054608DB312D06D207EB050010F885
:10409000200C08B10643F0E7B00701D526F004066E
:1040A000C4F81CA00027C4F818A02A2D09D028465F
:1040B00001F054F938B304EB8708303DC8F81850C4
:1040C00019E059F8041B204604EB87029161E1686E
:1040D0008847012F054618D1E069002820DA26F02C
:1040E00020061DE0D8F8180000EB800005EB40002A
:1040F0003038C8F818002046E1688847054601F0C6
:104100002DF90028EED1012F0AD02E2D08D12046FE
:10411000E16888477F1C0546022F46F02006C4DB75
:10412000A069002803DA404246F00106A061F007CA
:1041300001D026F010066C2D0BD0682D09D04C2D27
:1041400039D06A2D35D0742D35D07A2D33D016E084
:1041500038E0E1682F4620468847B842054609D135
:104160006C2F26D04FF48060E168064320468847D4
:10417000054604E06C2F1AD04FF4807006430DB34F
:10418000A5F14100192802D8203546F400664A46B8
:104190002946204626604E46FCF704F880B10128E7
:1041A0000BD0F61D26F0070000F1080955E7402066
:1041B000E4E78020D8E70020D6E706F104094CE7C1
:1041C000284651E7206ABDE8F09F0000A0130000D8
:1041D0000048704758410020034640688C4600283C
:1041E00018BF814284BF03464068F8D81868184455
:1041F000884207D00CF1030020F00700001D411A8F
:10420000521A0146081D0A60FFF777BC30B5B0F1BD
:104210000A024FEA900E71F100034EEA817EB0EB84
:104220000E0061EB91014FEA101E4EEA017E10EB89
:104230000E0041EB11114FEA102E4EEA016E10EB09
:104240000E0041EB11214FEA104E4EEA014E10EBE9
:104250000E0041EB1141401841F100014FEAD0003E
:1042600040EA41704FEAD10110EB80054FEA81042A
:1042700044EA907444EB01046D1944EB0404521BAE
:10428000A3414FF0000348BF0A3200D530BD401CA7
:1042900041F1000130BD2DE9F0470D4699469246A7
:1042A000044600F124080168880604D5E06921F07D
:1042B0001001216000E00120A84202DDA0EB05070B
:1042C00000E00027A16907EB050202EB0900A1EB62
:1042D0000000A0612078C00602D42046FFF7BAFC97
:1042E000002608E0D4E901211AF806009047206A68
:1042F000401C761C20624E45F4DB2078C0060AD5AF
:104300002046FFF7A7FC06E0D4E9012130209047C2
:10431000206A401C2062381EA7F10107F4DC07E088
:10432000D4E9012118F805009047206A401C20625A
:10433000281EA5F10105F3DC2046FFF7A2FC20783A
:10434000000602D50220BDE8F0870120FBE7704798
:104350002DE9FF4F0C461E464FF0FF378BB0D2E9D8
:104360000001DDF860800A908A46C1F30A5505B95C
:104370003D46002108464FF00000BAF1000F00F45E
:10438000400005DA00EB80004FF4400101EA5000E4
:104390004FEA9059B9F1010F00DDB9460A9850EA89
:1043A0004A000ED044F61050A5F2FF3545432F14B5
:1043B000B8F1000F1ED07542291E1EDDC9F10002A2
:1043C0001CE0B8F1010F4FF0000001D0302103E0F4
:1043D000F24305E02154401CB042FBDB3046002292
:1043E000002121540B99C1F80880C1E900200FB0C9
:1043F000BDE8F08FBD1B6D1CDEE74A4600DA69425E
:1044000006A800F079FA06AB07CB03AB07C350460A
:104410000A9900F07EFB8DE80700A0F500501F38D8
:1044200000900398002D09DD42F21F014A4608441E
:1044300003A90390684600F0DDFD08E0A0F50050F8
:104440004A461F3803A90390684600F0E7FD8DE84F
:1044500007000004000C03D04FF0FF30410800E0DB
:104460001046B8F1000F03D00022009215461FE05D
:10447000751E06D4FFF7CAFE02F1300262556D1EAA
:10448000F8D5B3460122084302D000227F1C04E085
:104490002078302801D100227F1E002A099787D07A
:1044A0001DE0112D07DAFFF7B1FE303262556D1CA9
:1044B00050EA0102F5D108430FD10021681E05E042
:1044C000235C625C6354491C2254401E8142F7DB2A
:1044D000AB46A81B401E099001E0009848B100209F
:1044E00004F80B000B98099AC0F80880C0E9002B6B
:1044F0007DE711264FF000085AE72DE9F04F884676
:104500000446D21D22F0070191B0D1E90001CDE9A6
:104510000A0100F00FFF02460B98C00F01D02D20BA
:1045200007E02068810701D52B2002E0202101EA65
:10453000C000032A099001D0072A05DB0346414643
:10454000204600F099F90FE12078800601D5E06956
:1045500000E00620B8F1650F814606D0B8F1660F7D
:1045600018D0B8F1670F72D132E00020B9F1110F05
:10457000009001DB112301E009F101030AAA01A95E
:104580000CA8FFF7E5FEDDE90C70002609F1010536
:10459000834648E001204B4600904FF000470AAAAE
:1045A00001A90CA8FFF7D4FEDDE90DB00C995D461A
:1045B000002618B909F1010001EB0005B9EB05006F
:1045C00003D4C0F1FF3609F10105A5EB09002BE08A
:1045D000B9F1010F01DA4FF001090020B9F1110F13
:1045E0000090484601DD112300E003460AAA01A914
:1045F0000CA8FFF7ADFEDDE90C704D4600268346A2
:10460000207800070AD4AB4500DA5D4601A8012DE9
:1046100004DD411911F8011C302907D04F4502DA99
:1046200017F1040F04DA0120824610E06D1EEEE758
:10463000002F02DCED1B3E4403E0781CA84200DDA5
:104640000546A7EB060000F1010A4FF0004720786D
:10465000000703D4AA4501DB4FF0FF3A0021B7F170
:10466000004F0DF143088DF8431023D002202B2377
:10467000002F01DA7F422D234FF00A0C011EA0F11A
:10468000010000DC4FB197FBFCF10CFB11720F46EF
:1046900002F1300208F8012DF0E7A8F101000370E3
:1046A0002188090501D5452100E06521A0F1010817
:1046B00000F8011C09980FA9A1EB080707F10707EB
:1046C00000B1012000EB050101EBEA70A16938445B
:1046D000A1EB0000A0F10100A0612078C00602D487
:1046E0002046FFF7B7FA099830B1D4E90121904785
:1046F000206A00F1010020622078C00620D5204603
:10470000FFF7A8FA1CE0002E04DBB34502DD01A888
:10471000805D00E03020D4E901219047206A761CBA
:10472000401CBAF1010A20620AD100F0A1F8C06869
:104730000168405CD4E901219047206A401C206256
:10474000281EA5F10105DEDC07E0D4E9012118F8F7
:10475000010B9047206A401C2062381EA7F1010718
:10476000F3DC2046FFF78DFA022011B040E610B5C9
:10477000436913B1AFF3008001E0FFF7A6FA01200F
:1047800010BD127800F124010A7000224A70012243
:10479000EDE711684FF0FF32E9E710B5436913B157
:1047A000AFF3008001E0FFF729FB012010BD128864
:1047B00000F1240182840022C2840122EDE7116805
:1047C0004FF0FF32E9E770B516460C46054600F09B
:1047D00047F8036893F80101012806D0FF2C0FD891
:1047E000185D68B101202C7070BDD3F80701324606
:1047F000214603442846BDE8704003F207131847DA
:104800004FF0FF3070BD10B500F0F4F8BDE8104077
:1048100000F0EAB870477546FFF7DAFCAE460500CF
:104820006946534620F00700854618B020B5FFF7CB
:1048300023F9BDE820404FF000064FF000074FF08D
:1048400000084FF0000B21F00701AC46ACE8C009AE
:10485000ACE8C009ACE8C009ACE8C0098D467047B7
:1048600010B500F005F8001D10BD00BF2D0B0000B5
:1048700000487047784100202DE9F0411F4604466A
:1048800003260168072A01F4006004DB08B116A5BD
:1048900005E016A503E008B115A500E015A521F077
:1048A00010002060A069C01EA0610FB1401EA06171
:1048B0002046FFF7CFF94FB1D4E9012138469047A0
:1048C000206A401C2062C01C206206E0206AFAE7D1
:1048D000D4E9012115F8010B9047761EF8D2204645
:1048E000FFF7CFF9BDE8F0814E414E006E616E00DA
:1048F000494E4600696E66002DE9F047814616462E
:104900008AB035487844D0E9002380680092CDE928
:104910000130314878440C38D0E902230069039211
:104920004FF03702CDE9043041F69B30014491FB52
:10493000F2F0A0F1800502FB10141B3C02D564428A
:10494000012000E00020DFF890A080460027FA4414
:10495000AAF1C60A0DE0E00709D03246684607EB27
:1049600047010AEB810100F059FB8DE80700641054
:104970007F1C002CEFD1184F7F44B43F17E0E807AD
:1049800013D007EB04100DF1180A90E80E00AAE806
:104990000E00C068F04201D198190890324606A96D
:1049A00003A800F03BFB03AB07C36D10641C002D94
:1049B000E5D132466946B8F1000F03A802D000F0F5
:1049C00019FB01E000F02AFBC9E90001C9F8082041
:1049D0000AB0BDE8F0870000800B00000446AFF38A
:1049E00000802046FBF745FC002801D000F02AB8E3
:1049F0007047000010B5012805D0002103A000F089
:104A000027F8012010BD09A1F8E7000053494752DB
:104A1000544D454D3A204F7574206F66206865618E
:104A200070206D656D6F7279000000003A20486556
:104A30006170206D656D6F727920636F7272757031
:104A40007465640001491820ABBEFEE72600020031
:104A500070B505460C460A2000E06D1C00F052F8C7
:104A600035B128780028F8D102E0641C00F04AF83B
:104A700014B120780028F8D1BDE870400A2000F079
:104A800041B800004FF0013C50F8042B51F8043BB2
:104A90009A4221D1A2EB0C03934313EACC1317D112
:104AA00050F8042B51F8043B9A4215D1A2EB0C03A9
:104AB000934313EACC130BD150F8042B51F8043B69
:104AC0009A4209D1A2EB0C03934313EACC13DBD037
:104AD0004FF00000704700BFD01A01BAB1FA81F15F
:104AE00001F0180122FA01F0CB40C1F12001DBB244
:104AF000C0B2C01A2CFA01F3D11A914311EAC311C2
:104B0000E6D1704708B569468DF800000320ABBEBA
:104B100008BD5FEA400C08BF91F0000F4FEA8C23FC
:104B20004FEAC12243EA51514FEA1C5018BF00F529
:104B3000F0404FEA300018BF41F000415FEA6C5C82
:104B400000F02980BCF1FF3F08BF40F08040704773
:104B5000130C06BF12044FF0100C4FF0000C130E94
:104B600004BF12020CF1080C130F04BF12010CF168
:104B7000040C930F04BF92000CF1020CD30F04BF7E
:104B800052000CF1010C11464FF00002A0F11F0081
:104B9000A0EB0C00704711F0004F08BF704731F0D8
:104BA00000413FF4D5AF0B0C06BF09044FF0100CC9
:104BB0004FF0000C0B0E04BF09020CF1080C0B0F98
:104BC00004BF09010CF1040C8B0F04BF89000CF128
:104BD000020CCB0F04BF49000CF1010CCCF12003F7
:104BE000A0EB0C0022FA03F302FA0CF241EA0301F3
:104BF00000F10100704720F07F4C80EA030023F0B1
:104C00007F47ACEB070303F57C5300F0004003F152
:104C1000FF032DE980494FEA154B09B44FEA1443CD
:104C200025EA0B4E24EA03480FF2042606EB13276D
:104C300049083E785FEA320203FB0667C7F50007C2
:104C400007FB06F64FEA54374FEAD64606F102064E
:104C500007FB066CCCF1005C4FEA1C472CEA074CC2
:104C600007FB06F40CFB06F504EB15464FEA961617
:104C700034BF00204FF000404FEAD13706FB07FC5D
:104C80004FEA1C4C0CFB0BF7D21B03FB0CF761EB40
:104C900007010CFB0EF7B0EB074072EB17420CFB61
:104CA00008F734BFA2EB0742B2EB074261EB1741B2
:104CB0004FEA0C444FEA910706FB07FC4FEA1C4CF5
:104CC0000CFB0BF7B0EBC74072EB573203FB0CF752
:104CD00034BFA2EBC742B2EBC74261EB57310CFBCA
:104CE0000EF7B0EBC70072EB57720CFB08F734BF3E
:104CF000A2EBC702B2EBC70261EB5771039F4FEA09
:104D0000816141EA921104EBCC044FEAD1374FEABA
:104D1000826206FB07FC42EA90124FEA80604FEA8B
:104D20001C4C0CFB0BF7D21B03FB0CF761EB0701D0
:104D30000CFB0EF7B0EB074072EB17420CFB08F7C9
:104D400034BFA2EB0742B2EB074261EB17414FEAD7
:104D50008C554FEA910704EB9C2406FB07FC4FEAB5
:104D60001C4C0CFB0BF7B0EBC74072EB573203FB4C
:104D70000CF734BFA2EBC742B2EBC74261EB57312D
:104D80000CFB0EF7B0EBC70072EB57720CFB08F789
:104D900034BFA2EBC702B2EBC70261EB577115EB50
:104DA0004C254FEA816141EA92114FEA82624FEA53
:104DB000D13742EA901206FB07FC44F100044FEAA7
:104DC00080604FEA1C4C0CFB0BF7D21B03FB0CF76B
:104DD00061EB07010CFB0EF7B0EB074072EB1742DB
:104DE0000CFB08F734BFA2EB0742B2EB074261EBC2
:104DF000174115EB1C154FEA813141EA92414FEA08
:104E0000823242EA90424FEA80304FEA0C7644F117
:104E1000000448EA03434EEA0B484FF0000EB2EBA1
:104E2000080C71EB030724BF624639464EEB0E0EA9
:104E30004FF0000B0018524149414BEB0B0BB2EB0A
:104E4000080C71EB03077BF1000B24BF6246394667
:104E50004EEB0E0E4FF0000B0018524149414BEB48
:104E60000B0BB2EB080C71EB03077BF1000B24BFBB
:104E7000624639464EEB0E0E51EA020718BF46F065
:104E8000010616EB0E7655F1000254F1000103D530
:104E9000BDE88901BDE80088BDE88901BDE800489A
:104EA000B619524141EB0101A3F101037047808023
:104EB0007F7E7D7C7B7A7978777676757473727174
:104EC00071706F6E6E6D6C6C6B6A6A69686867662C
:104ED00066656464636362616160605F5F5E5E5DBE
:104EE0005D5C5C5B5B5A5A59595858575756565532
:104EF00055555454535352525251515050504F4F94
:104F00004F4E4E4D4D4D4C4C4C4B4B4B4A4A4A49E3
:104F10004949484848474747474646464545454426
:104F20004444444343434342424242414141002BB3
:104F300026D4770021D01CB54FEA370703B44FF0D1
:104F400010004FF010014FF000000FBCBDE8104002
:104F50000BF1010BBBF1010F08BF5FEA170722BF7E
:104F600012F1010211F101014FF0004143F1000380
:104F700000F0004043EA00007047F9D35708DAE731
:104F800046EA064613F1400F4FEA16461FDD13F1BD
:104F9000200FDFBF16430A46002120335B42C8D0F2
:104FA000C3F1200746EA064602FA07F74FEA16461B
:104FB00046EA0706C3F1200722FA03F201FA07F7CF
:104FC00021FA03F14FF0000342EA0702B1E746EA93
:104FD000020646EA06464FEA164646EA0106BCBF06
:104FE00046EA0646360C4FF000034FF000024FF041
:104FF00000019EE72DE9C048934630B491E838009F
:1050000007C831EA400C48BF34EA430C03D5FFF728
:10501000F2FDFFF78CFFF0BCBDE800882DE9C04829
:10502000934630B491E8380007C810F0804F08BFAD
:1050300013F0804F03D100F005F8FFF778FFF0BCC4
:10504000BDE8008820F07F4780EA030023F07F4C12
:1050500007EB0C03A3F57C5300F00040A3F1FE0323
:1050600092F0000F00F0B38095F0000F00F0778011
:105070002DE901494FEA11404FEA144621EA004860
:1050800000FB06FC24EA064708FB06F607FB08F8C7
:1050900000FB07F718EB06484CEB164C4FEA124B97
:1050A00018EB07484FEA15464CEB174022EA0B4E27
:1050B0000BFB06FC25EA06470EFB06F607FB0EFE79
:1050C0000BFB07F71EEB064E4CEB164C4FF00006A1
:1050D0001EEB074E4CEB174B18EB0B0840F1000092
:1050E00018EB0E0B58EB000840F100008F1A4FF040
:1050F00000013CBFC943661B14BFB5EB040C002183
:105100003CBFC943F61B4FEA17444EEA8E0E27EA0E
:1051100004454FEA1C4704FB07622CEA074C05FBD9
:1051200007F70CFB05F604FB0CFC16EB074642EBFD
:10513000174216EB0C4642EB1C421BEB060658EBE3
:105140000202414146EA9E0601D5BDE80189B61931
:10515000524141EB0101A3F10103BDE801894FEA8E
:1051600014454FEA114724EA054621EA074C05FB9E
:1051700007F406FB07F70CFB06F105FB0CFC11EB33
:10518000074144EB17444FEA124711EB0C4144EB43
:105190001C4422EA074C05FB07F206FB07F70CFB51
:1051A00006F605FB0CFC16EB074642EB174216EB26
:1051B0000C4642EB1C456A1854F1000148BF704789
:1051C000B619524141EB0101A3F10103704795F07B
:1051D000000F37D04FEA11424FEA144721EA024646
:1051E00024EA074C02FB07F106FB07F70CFB06F469
:1051F00002FB0CFC14EB074441EB17414FEA154747
:1052000014EB0C4441EB1C4125EA074C02FB07F56B
:1052100006FB07F70CFB06F602FB0CFC16EB074639
:1052200045EB174516EB0C4645EB1C42121951F1A4
:10523000000148BF7047B619524141EB0101A3F18B
:10524000010370474FEA14454FEA114724EA054627
:1052500021EA074C05FB07F106FB07F70CFB06F2FA
:105260004FF0000605FB0CFC12EB074241EB174127
:1052700012EB0C4251EB1C4148BF7047921841EBB6
:105280000101A3F10103704790FAA0F0B0FA80F099
:10529000704700B524480FF2050E0047EE4623483C
:1052A000D0F800C0604690B10EF1040EBEE80F00C9
:1052B000ACE8FF0F9EE80F00AEF1100E4CF8040BA7
:1052C0004CF804EBACE80E0001BCCCF80000184828
:1052D000016801F11001B1E8F00F01F10401D1F80A
:1052E00000D001F11001086800471148D0F800D043
:1052F00010B001BC80F3038882B000988FB04DF8E5
:10530000040CBDE8FF1F01B05DF804EB90B000BDD8
:1053100000DF7047EFF303807047EFF3118180F3F4
:105320001188084670470000C306000814000020DA
:1053300018000020490050EAC12018BF04204A0D7F
:1053400018BF40F0010040F2FF72B2EB515F08BF9E
:1053500040F00200012808BF0520704730380A28B5
:1053600001D20120704700207047000010B50029CD
:105370000AD00878002807D005487844FFF782FB58
:10538000002801D0002010BD0248784410BD000064
:10539000460100003E01000010B500290AD008783F
:1053A000002807D005487844FFF76CFB002801D09F
:1053B000002010BD0248784410BD000036010000F6
:1053C0002E010000FFF799B8000000000000000067
:1053D000303132333435363738394142434445462B
:1053E0004030580030313233343536373839616225
:1053F0006364656640307800040000080000000027
:105400000000000200010000100000000240000047
:10541000000000A00000000005400000000000C8DF
:10542000000000000C4000000000409C0000000054
:10543000194000000020BCBE000000003440000005
:10544000BFC91B8E00000004B5400000504BCFD0F8
:105450006607E2CF010000006C4100003E8251AAC5
:10546000DFEEA73401000000D9420000DCB5A0E265
:105470003A301F97FFFFFFFFB4450000FD25A0C88D
:10548000E9A3C14FFFFFFFFFFF3F000000000080C6
:1054900000000000FF3F000000000080000000004E
:1054A000EC55000800000020BC0000006C01000862
:1054B000A8560008BC000020FC82000088010008FB
:1054C0001C00000043000000F8FFFFFF0C0000007C
:1054D0000E0000000F0000002E0000001001000070
:1054E00043000000F8FFFFFF0040404040404040C4
:1054F00040404141414141404040404040404040A7
:10550000404040404040404040050202020202024A
:105510000202020202020202022020202020202099
:1055200020202002020202020202909090909090AD
:10553000101010101010101010101010101010106B
:1055400010101010020202020202888888888888DF
:1055500008080808080808080808080808080808CB
:1055600008080808020202024000000000000000D3
:10557000000000000000000000000000000000002B
:10558000000000000000000000000000000000001B
:10559000000000000000000000000000000000000B
:1055A00000000000000000000000000000000000FB
:1055B00000000000000000000000000000000000EB
:1055C00000000000000000000000000000000000DB
:1055D00000000000000000000000000000000000CB
:1055E00000000000000000000000000000000000BB
:1055F00000000000000000000000000000000000AB
:10560000000000000000000000000000000000009A
:10561000000000000000000000000000000000008A
:10562000000000000000000000000000000000007A
:1056300000000000000000000000000000A24A047A
:105640000000000000000000010203040607080932
:10565000000000000000000000000000000000004A
:10566000000000000000000000000000000000003A
:10567000000000000000000000000000000000002A
:10568000000000000000000000000000000000001A
:1056900000000000000000000102030401020304F6
:0856A0000607080902040608D0
:020000040803EF
:1090040041F2A45300FB03F2002100BF914200D1BE
:0C90140001E0491CFAE700BF70470000B3
:0400000508000131BD
:00000001FF
